:020000040800F2
:1000000098A800208503000881590008CF37000810
:1000100095580008711E00080D95000800000000AA
:10002000000000000000000000000000BD02000809
:10003000B12C00080000000035030008710300081F
:100040009F0300089F0300089F0300089F03000808
:100050009F0300089F0300089F0300089F030008F8
:100060009F0300089F0300089F0300080929000858
:100070002929000849290008692900088929000858
:10008000A9290008C92900089F030008099300084E
:1000900021940008751E0008611F00089F030008D6
:1000A0009F0300089F0300089F0300089F030008A8
:1000B0009F0300089F0300089F0300089F03000898
:1000C0009F0300089F0300089F0300089F03000888
:1000D0009F03000809750008517800089F03000875
:1000E000F52D00089F0300089F0300089F030008E8
:1000F0009F0300089F0300089F0300089F03000858
:100100009F0300089F0300089F0300089F03000847
:10011000F17200089F0300089F0300089F03000876
:10012000E9290008092A00082D2A00084D2A00089C
:1001300000F002F800F06DF80AA090E8000C82448C
:100140008344AAF10107DA4501D100F062F8AFF269
:10015000090EBAE80F0013F0010F18BFFB1A43F0A5
:1001600001031847B8280100D82801000A444FF0BD
:10017000000C10F8013B13F0070408BF10F8014B06
:100180001D1108BF10F8015B641E05D010F8016B4B
:10019000641E01F8016BF9D113F0080F1EBF10F8AF
:1001A000014BAD1C0C1B09D16D1E58BF01F801CBD2
:1001B000FAD505E014F8016B01F8016B6D1EF9D555
:1001C0009142D6D37047000000230024002500266A
:1001D000103A28BF78C1FBD8520728BF30C148BFAA
:1001E0000B60704766290EF0CD83642900F0A28170
:1001F000782900F0DB81002070471FB500F0CDFEAC
:100200000400002000210DF0F7F9E0601FBD10B5DB
:1002100010BD00F0C3FF1146FFF7EFFF0FB400F071
:100220000BF80FBC0AF094FE00F088FA03B4FFF755
:10023000EEFF03BC00F0ACFF04B00AF0B9FE0448C6
:1002400000210AF043FF0AF0C5FE00F077FA000033
:100250004828010880F309887047EFF30980704748
:10026000684680F3098804480078C00714BF02205C
:10027000032080F31488704708280108DFF818C0AD
:10028000EFF305831B0618BF6047EFF31483DB070A
:1002900008BF604700DF704759BE0008DFF818C08C
:1002A000EFF305831B0618BF6047EFF31483DB07EA
:1002B00008BF604700DF70473DC00008EFF30980CA
:1002C000816911F8021CF1B990E80F10E047EFF3D3
:1002D000098C8CE80700144B93E8060091420FD07C
:1002E00039B12CE9F00FC1F828C00CB40CF04AFA6F
:1002F0000CBC1A60D2F828C0BCE8F00F8CF3098857
:100300006FF0020E704710B5084A1268914209D882
:10031000074C54F8214090E80F10A047EFF3098CE8
:100320008CE80F0010BD000080020020601900085A
:10033000601900080CF0F8F80C4B93E806009142A5
:1003400010D0EFF3098C2CE9F00FC1F828C00CB4E1
:100350000CF018FA0CBC1A60D2F828C0BCE8F00FF8
:100360008CF309886FF0020E7047000080020020B5
:100370000CF0D0FAE0E700000AF03CFF0CF0CAFAFB
:10038000DAE700000948804709480047FEE7FEE732
:10039000FEE7FEE7FEE7FEE7FEE7FEE7FEE7FEE735
:1003A00004480549054A064B70470000DD6D00080A
:1003B0003101000898A2002098A8002098A40020ED
:1003C00098A400200048704738A2002053EA020C8D
:1003D00000F069802DE9F04B4FF00006002B1FBFA5
:1003E000B3FA83F503FA05F424FA05F65E4012BF6A
:1003F0001643B2FA82F502FA05F4C5F120051EBFD4
:1004000022FA05FC44EA0C04203556EA044C4FEA73
:10041000144418BF641C4FF000084FF000099042CC
:1004200071EB030C39D3002919BFB1FA81F701FA36
:1004300007F6B0FA80F700FA07F6C7F120071EBFEB
:1004400020FA07FC46EA0C062037B6FBF4FCA7EBC3
:100450000507103F07F01F0BCBF120060CFA0BFB32
:100460002CFA06F644BFB3460026202FA4BF5E46F2
:100470004FF0000B5BEA060C08BF4FF0010B19EBC5
:100480000B09ABFB027C48EB0608C01B06FB02CC49
:100490000BFB03CC71EB0C01C1E70B460246414656
:1004A0004846BDE8F08B13B54FF000004FF0000157
:1004B000AFF30080BDE81C40704700000FB41CB5CE
:1004C000074B06AA7B4469460090059800F04DFD55
:1004D0000020694600F05CFD1CBC5DF814FB0000C8
:1004E000C90A000070B5044685690068C10601D5D7
:1004F000302600E02026C00707D070BDD4E90121D6
:1005000030469047206A401C20626D1EF6D570BDB3
:1005100070B5044685690078C00707D170BDD4E97D
:10052000012120209047206A401C20626D1EF6D5D4
:1005300070BD00002DE9F0410646002410687529C1
:10054000314616A510D0AFF30080002802DA4042F1
:1005500013A507E031688A0701D512A502E0490713
:1005600004D511A5012401E0AFF3008000210A2287
:1005700006F1240709E0B0FBF2FCB0FBF2F302FB4A
:100580001C00303078541846491C0028F3D123460B
:100590002A463046BDE8F04100F07CBA0000000079
:1005A0002D0000002B0000002000000070B5044664
:1005B0000D4621461068AFF300802188090502D559
:1005C0000F4A7A4402E00E4A7A440E32002104F1C6
:1005D000240305E000F00F060009965D5E54491CF7
:1005E0000028F7D120780023000704D5702D02D011
:1005F00009B1022311322046BDE8704000F04ABA2A
:10060000922201002DE9F05F894604464FF0000A6E
:10061000DFF824B1FB44C0F820A02046E1688847F9
:1006200000287DD0252806D0D4E901219047206AF2
:10063000401C2062F1E700255F462046E1688847BC
:100640002028064607DB312E05D2B81910F8200CF9
:1006500008B10543F1E7A80701D525F00405C4F862
:100660001CA00027C4F818A02A2E09D0304609F093
:1006700046F838B304EB8708303EC8F8186019E034
:1006800059F8041B204604EB87029161E168884712
:10069000012F064618D1E069002820DA25F0200550
:1006A0001DE0D8F8180000EB800006EB4000303861
:1006B000C8F818002046E1688847064609F01FF888
:1006C0000028EED1012F0AD02E2E08D12046E16855
:1006D00088477F1C0646022F45F02005C4DBA06931
:1006E000002803DA404245F00105A061E80701D087
:1006F00025F01005A6B1A6F14100192802D8203630
:1007000045F400654A463146204625604D46FFF7D0
:1007100069FD60B1012807D0ED1D25F0070000E05C
:1007200007E000F1080978E705F1040975E73046AC
:100730007AE7206ABDE8F09F6822010010B5044600
:10074000AFF300802046BDE81040FFF76FBD30B525
:1007500005460B462A4613F8014B12F8010B08B167
:10076000A042F8D01CB1002802D06D1CF1E7284649
:1007700030BD40EA010310B59B070FD1042A0DD309
:1007800010C808C9121F9C42F8D020BA19BA884272
:1007900001D9012010BD4FF0FF3010BD1AB1D307B1
:1007A00003D0521C07E0002010BD10F8013B11F8E7
:1007B000014B1B1B07D110F8013B11F8014B1B1B10
:1007C00001D1921EF1D1184610BD40EA0103024644
:1007D00030B59B0710D14FF0013400E008C208C9C2
:1007E0001D1B9D4315EAC41FF8D013F0FF0102F84A
:1007F000011B0DD01B0AF8E711F8013B002B02F892
:10080000013B05D011F8013B002B02F8013BF3D16D
:1008100030BD10B5431C02E010F8011B71B1810717
:10082000FAD14FF0013202C88C1A8C4314EAC2117B
:10083000F9D0C01A0A0603D0C01E10BDC01A10BDE0
:100840000A0401D0801E10BD0902FCD0401E10BD5C
:10085000421E12F8013F002BFBD111F8013B002B87
:1008600002F8013BF9D17047032A40F2308010F0C2
:10087000030C00F0158011F8013BBCF1020F62443B
:1008800098BF11F801CB00F8013B38BF11F8013BCC
:10089000A2F1040298BF00F801CB38BF00F8013B79
:1008A00011F0030300F02580083AC0F0088051F8E9
:1008B000043B083A51F804CBA0E80810F5E7121DF4
:1008C0005CBF51F8043B40F8043BAFF30080D20713
:1008D00024BF11F8013B11F801CB48BF11F8012BDF
:1008E00024BF00F8013B00F801CB48BF00F8012B02
:1008F000704710B5203AC0F00B80B1E81850203A8C
:10090000A0E81850B1E81850A0E81850BFF4F5AFAF
:100910005FEA027C24BFB1E81850A0E8185044BF39
:1009200018C918C0BDE810405FEA827C24BF51F8A6
:10093000043B40F8043B08BF7047D20728BF31F89A
:10094000023B48BF11F8012B28BF20F8023B48BFEB
:1009500000F8012B704702F0FF0343EA032242EA4A
:10096000024200F002B84FF000020429C0F01280E9
:1009700010F0030C00F01B80CCF1040CBCF1020F52
:1009800018BF00F8012BA8BF20F8022BA1EB0C0127
:1009900000F00DB85FEAC17C24BF00F8012B00F81D
:1009A000012B48BF00F8012B70474FF0000200B543
:1009B000134694469646203922BFA0E80C50A0E882
:1009C0000C50B1F12001BFF4F7AF090728BFA0E830
:1009D0000C5048BF0CC05DF804EB890028BF40F8FC
:1009E000042B08BF704748BF20F8022B11F0804F3E
:1009F00018BF00F8012B70474FF0013C50F8042B52
:100A000051F8043B9A4221D1A2EB0C03934313EA21
:100A1000CC1317D150F8042B51F8043B9A4215D14E
:100A2000A2EB0C03934313EACC130BD150F8042B25
:100A300051F8043B9A4209D1A2EB0C03934313EA09
:100A4000CC13DBD04FF00000704700BFD01A01BAC2
:100A5000B1FA81F101F0180122FA01F0CB40C1F1A5
:100A60002001DBB2C0B2C01A2CFA01F3D11A9143B3
:100A700011EAC311E6D1704770477047704710B54F
:100A800000F090FA006810BD10B5044600F08AFA34
:100A9000046010BD2DE9F0470D4699469246044684
:100AA00000F124080168880604D5E06921F01001EE
:100AB000216000E00120A84201DD471B00E0002783
:100AC000A1697A1902EB0900081AA0612078C00612
:100AD00002D42046FFF706FD002608E0D4E90121F4
:100AE0001AF806009047206A401C761C20624E458A
:100AF000F4DB2078C0060AD52046FFF7F3FC06E0B9
:100B0000D4E9012130209047206A401C2062381E21
:100B1000A7F10107F4DC07E0D4E9012118F805008A
:100B20009047206A401C2062281EA5F10105F3DCD5
:100B30002046FFF7EDFC2078000602D50220BDE834
:100B4000F0870120FBE770472DE9FF4F0C461E465A
:100B50004FF0FF378BB0D2E90001DDF860800A90DA
:100B60008A46C1F30A5505B93D46002108464FF0B3
:100B70000000BAF1000F00F4400005DA00EB80003D
:100B80004FF4400101EA50004FEA9059B9F1010FCA
:100B900000DDB9460A9850EA4A000ED044F61050DB
:100BA000A5F2FF3545432F14B8F1000F1ED0754252
:100BB000291E1EDDC9F100021CE0B8F1010F4FF043
:100BC000000001D0302103E0F24305E02154401C35
:100BD000B042FBDB30460022002121540B99C1F8C2
:100BE0000880C1E900200FB0BDE8F08FBD1B6D1C6F
:100BF000DEE74A4600DA694206A800F05BFA06AB77
:100C000093E8070003AB83E8070050460A9900F019
:100C1000EBFA8DE80700A0F500501F38009003980C
:100C2000002D09DD42F21F014A46084403A9039042
:100C3000684600F04AFD08E0A0F500504A461F381B
:100C400003A90390684600F054FD8DE807000004F6
:100C5000000C03D04FF0FF30410800E01046B8F11F
:100C6000000F03D00022009215461EE0751E05D429
:100C700000F09AF9303262556D1EF9D5B346012263
:100C8000084302D000227F1C04E02078302801D1E4
:100C900000227F1E002A099786D01DE0112D07DA59
:100CA00000F082F9303262556D1C50EA0102F5D134
:100CB000084302D00098C8B10EE00021681E05E08C
:100CC000235C625C63542254401E491C8142F7DB62
:100CD000AB46A81B401E0990002004F80B000B989F
:100CE000099AC0F80880C0E9002B7CE711264FF074
:100CF000000859E72DE9F04F88460446D21D22F03E
:100D0000070191B0D1E90001CDE90A0108F034FCF6
:100D100002460B98C00F01D02D2007E02068810704
:100D200001D52B2002E0202101EAC000032A09900E
:100D300001D0072A05DB03464146204600F07AF938
:100D40000BE12078800601D5E06900E00620B8F1CB
:100D5000650F814606D0B8F1660F18D0B8F1670F5D
:100D600070D131E00020B9F1110F009001DB1123A7
:100D700001E009F101030AAA01A90CA8FFF7E4FEAA
:100D8000DDE90C70002609F10105834647E00120EA
:100D90004B4600904FF000470AAA01A90CA8FFF7A4
:100DA000D3FEDDE90DB00C995D46002610B909F1BE
:100DB00001000D18B9EB050003D4C0F1FF3609F1AD
:100DC0000105A5EB09002BE0B9F1010F01DA4FF0A5
:100DD00001090020B9F1110F0090484601DD1123EF
:100DE00000E003460AAA01A90CA8FFF7ADFEDDE961
:100DF0000C704D4600268346207800070AD4AB4588
:100E000000DA5D4601A8012D04DD411911F8011C2D
:100E1000302907D04F4502DA17F1040F04DA012018
:100E200082460FE06D1EEEE7002F02DCED1B3E4414
:100E300003E0781CA84200DD7D1CB81B00F1010A0C
:100E40004FF000472078000703D4AA4501DB4FF09C
:100E5000FF3A0021B7F1004F0DF143088DF8431020
:100E600024D002202B23002F01DA7F422D230A21D8
:100E7000021EA0F1010000DC5FB197FBF1FC97FBC3
:100E8000F1F201FB1C7C17460CF1300C08F801CD87
:100E9000EEE7A8F1010003702188090501D545217D
:100EA00000E06521A0F1010800F8011C09980FA9D4
:100EB000A1EB0807FF1D00B10120411901EBEA7009
:100EC000A1693844081A401EA0612078C00602D4E7
:100ED0002046FFF707FB099828B1D4E90121904784
:100EE000206A401C20622078C00622D52046FFF7E9
:100EF000F9FA1EE0002E04DBB34502DD01A8805D97
:100F000000E03020D4E901219047206A401C206293
:100F1000761CAAF101005FEA000A0AD100F03DF850
:100F2000C0680168405CD4E901219047206A401CF8
:100F30002062281EA5F10105DCDC07E0D4E90121CF
:100F400018F8010B9047206A401C2062381EA7F158
:100F50000107F3DC2046FFF7DBFA032011B043E67C
:100F600001694A1C02610878704700B58FB0CDE96D
:100F700001310021059105497944CDE9031011465D
:100F80006846FFF73FFB0FB000BD0000E5FFFFFF25
:100F90000A6802F8010B0A60704710B5FFF712FAF1
:100FA000203010BD08F072BB30B5B0F10A024FEA34
:100FB000900E71F100034EEA817EB0EB0E0061EB02
:100FC00091014FEA101E4EEA017E10EB0E0041EB3C
:100FD00011114FEA102E4EEA016E10EB0E0041EB9C
:100FE00011214FEA104E4EEA014E10EB0E0041EB7C
:100FF0001141401841F100014FEAD00040EA417030
:101000004FEAD10110EB80054FEA810444EA907465
:1010100044EB01046D1944EB0404521BA3414FF04F
:10102000000348BF0A3200D530BD401C41F1000129
:1010300030BD00002DE9F0411F460446032601683B
:10104000072A01F4006004DB08B116A505E016A527
:1010500003E008B115A500E015A521F010002060FF
:10106000A069C01EA0610FB1401EA0612046FFF71D
:1010700039FA4FB1D4E9012138469047206A401C23
:101080002062C01C206206E0206AFAE7D4E9012150
:1010900015F8010B9047761EF8D22046FFF738FA74
:1010A000BDE8F0814E414E006E616E00494E460033
:1010B000696E66002DE9F047814616468AB03348CE
:1010C00078440DC88DE80D0030487844801C03AC8E
:1010D0000DC884E80D0041F69B300844372190FB91
:1010E000F1F290FBF1F5A5F1800501FB12041B3C28
:1010F00002D56442012000E00020DFF890A0804685
:101100000027FA44AAF1BE0A0DE0E00709D03246F2
:10111000684607EB47010AEB810100F0EAFA8DE827
:10112000070064107F1C002CEFD1184F7F44AC3FA8
:1011300018E0E80714D007EB04100DF1180A90E846
:101140000E008AE80E00C068F04201D1981908909C
:10115000324606A903A800F0CCFA03AB83E80700E7
:101160006D10641C002DE4D132466946B8F1000FC1
:1011700003A802D000F0A9FA01E000F0BAFAC9E928
:101180000001C9F808200AB0BDE8F087E0180100A6
:1011900001491820ABBEFEE7260002007546FFF7A6
:1011A00011F9AE4605006946534620F00700854612
:1011B00018B020B5FFF7F4F8BDE820404FF0000666
:1011C0004FF000074FF000084FF0000B21F007012F
:1011D000AC46ACE8C009ACE8C009ACE8C009ACE872
:1011E000C0098D46704770475FEA400C08BF91F018
:1011F000000F4FEA8C234FEAC12243EA51514FEAD4
:101200001C5018BF00F5F0404FEA300018BF41F005
:1012100000415FEA6C5C00F02980BCF1FF3F08BF31
:1012200040F080407047130C06BF12044FF0100CC2
:101230004FF0000C130E04BF12020CF1080C130F38
:1012400004BF12010CF1040C930F04BF92000CF1C7
:10125000020CD30F04BF52000CF1010C11464FF0E9
:101260000002A0F11F00A0EB0C00704711F0004F2E
:1012700008BF704731F000413FF4D5AF0B0C06BFFB
:1012800009044FF0100C4FF0000C0B0E04BF0902C4
:101290000CF1080C0B0F04BF09010CF1040C8B0FAF
:1012A00004BF89000CF1020CCB0F04BF49000CF104
:1012B000010CCCF12003A0EB0C0022FA03F302FA9C
:1012C0000CF241EA030100F10100704720F07F4C6D
:1012D00080EA030023F07F47ACEB070303F57C5360
:1012E00000F0004003F1FF032DE980494FEA154B60
:1012F00009B44FEA144325EA0B4E24EA03480FF2DF
:10130000042606EB132749083E785FEA320203FB06
:101310000667C7F5000707FB06F64FEA54374FEAA2
:10132000D64606F1020607FB066CCCF1005C4FEADC
:101330001C472CEA074C07FB06F40CFB06F504EBF4
:1013400015464FEA961634BF00204FF000404FEA92
:10135000D13706FB07FC4FEA1C4C0CFB0BF7D21BEA
:1013600003FB0CF761EB07010CFB0EF7B0EB07403A
:1013700072EB17420CFB08F734BFA2EB0742B2EB4B
:10138000074261EB17414FEA0C444FEA910706FB15
:1013900007FC4FEA1C4C0CFB0BF7B0EBC74072EBA1
:1013A000573203FB0CF734BFA2EBC742B2EBC74284
:1013B00061EB57310CFB0EF7B0EBC70072EB5772C5
:1013C0000CFB08F734BFA2EBC702B2EBC70261EB1C
:1013D0005771039F4FEA816141EA921104EBCC04FB
:1013E0004FEAD1374FEA826206FB07FC42EA9012CD
:1013F0004FEA80604FEA1C4C0CFB0BF7D21B03FB3F
:101400000CF761EB07010CFB0EF7B0EB074072EB3A
:1014100017420CFB08F734BFA2EB0742B2EB0742BE
:1014200061EB17414FEA8C554FEA910704EB9C247E
:1014300006FB07FC4FEA1C4C0CFB0BF7B0EBC7405C
:1014400072EB573203FB0CF734BFA2EBC742B2EB8F
:10145000C74261EB57310CFB0EF7B0EBC70072EBE4
:1014600057720CFB08F734BFA2EBC702B2EBC702FE
:1014700061EB577115EB4C254FEA816141EA9211FE
:101480004FEA82624FEAD13742EA901206FB07FC2C
:1014900044F100044FEA80604FEA1C4C0CFB0BF750
:1014A000D21B03FB0CF761EB07010CFB0EF7B0EB53
:1014B000074072EB17420CFB08F734BFA2EB074260
:1014C000B2EB074261EB174115EB1C154FEA813176
:1014D00041EA92414FEA823242EA90424FEA80303A
:1014E0004FEA0C7644F1000448EA03434EEA0B4805
:1014F0004FF0000EB2EB080C71EB030724BF6246FD
:1015000039464EEB0E0E4FF0000B00185241494188
:101510004BEB0B0BB2EB080C71EB03077BF1000BF1
:1015200024BF624639464EEB0E0E4FF0000B0018FA
:10153000524149414BEB0B0BB2EB080C71EB03072B
:101540007BF1000B24BF624639464EEB0E0E51EA8A
:10155000020718BF46F0010616EB0E7655F10002A1
:1015600054F1000103D5BDE88901BDE80088BDE85C
:101570008901BDE80048B619524141EB0101A3F1D0
:101580000103704780807F7E7D7C7B7A79787776D7
:1015900076757473727171706F6E6E6D6C6C6B6A50
:1015A0006A696868676666656464636362616160EE
:1015B000605F5F5E5E5D5D5C5C5B5B5A5A5959586B
:1015C00058575756565555555454535352525251D5
:1015D000515050504F4F4F4E4E4D4D4D4C4C4C4B2B
:1015E0004B4B4A4A4A494949484848474747474672
:1015F00046464545454444444443434343424242AE
:1016000042414141002B26D4770021D01CB54FEA3E
:10161000370703B44FF010004FF010014FF00000F7
:101620000FBCBDE810400BF1010BBBF1010F08BF6F
:101630005FEA170722BF12F1010211F101014FF019
:10164000004143F1000300F0004043EA000070470E
:10165000F9D35708DAE746EA064613F1400F4FEA96
:1016600016461FDD13F1200FDFBF16430A46002187
:1016700020335B42C8D0C3F1200746EA064602FA8F
:1016800007F74FEA164646EA0706C3F1200722FA93
:1016900003F201FA07F721FA03F14FF0000342EADF
:1016A0000702B1E746EA020646EA06464FEA164650
:1016B00046EA0106BCBF46EA0646360C4FF0000378
:1016C0004FF000024FF000019EE72DE9C04893461D
:1016D00030B491E8380007C831EA400C48BF34EA1A
:1016E000430C03D5FFF7F2FDFFF78CFFF0BCBDE81C
:1016F00000882DE9C048934630B491E8380007C807
:1017000010F0804F08BF13F0804F03D100F005F8B0
:10171000FFF778FFF0BCBDE8008820F07F4780EA43
:10172000030023F07F4C07EB0C03A3F57C5300F080
:101730000040A3F1FE0392F0000F00F0B38095F09B
:10174000000F00F077802DE901494FEA11404FEA80
:10175000144621EA004800FB06FC24EA064708FB81
:1017600006F607FB08F800FB07F718EB06484CEBFA
:10177000164C4FEA124B18EB07484FEA15464CEB54
:10178000174022EA0B4E0BFB06FC25EA06470EFB30
:1017900006F607FB0EFE0BFB07F71EEB064E4CEBA7
:1017A000164C4FF000061EEB074E4CEB174B18EB98
:1017B0000B0840F1000018EB0E0B58EB000840F14D
:1017C00000008F1A4FF000013CBFC943661B14BFD5
:1017D000B5EB040C00213CBFC943F61B4FEA17448C
:1017E0004EEA8E0E27EA04454FEA1C4704FB0762C7
:1017F0002CEA074C05FB07F70CFB05F604FB0CFC79
:1018000016EB074642EB174216EB0C4642EB1C4226
:101810001BEB060658EB0202414146EA9E0601D543
:10182000BDE80189B619524141EB0101A3F1010361
:10183000BDE801894FEA14454FEA114724EA0546FD
:1018400021EA074C05FB07F406FB07F70CFB06F142
:1018500005FB0CFC11EB074144EB17444FEA124720
:1018600011EB0C4144EB1C4422EA074C05FB07F248
:1018700006FB07F70CFB06F605FB0CFC16EB074610
:1018800042EB174216EB0C4642EB1C456A1854F12A
:10189000000148BF7047B619524141EB0101A3F165
:1018A0000103704795F0000F37D04FEA11424FEA1D
:1018B000144721EA024624EA074C02FB07F106FB23
:1018C00007F70CFB06F402FB0CFC14EB074441EB9E
:1018D00017414FEA154714EB0C4441EB1C4125EA34
:1018E000074C02FB07F506FB07F70CFB06F602FBAD
:1018F0000CFC16EB074645EB174516EB0C4645EB83
:101900001C42121951F1000148BF7047B6195241EB
:1019100041EB0101A3F1010370474FEA14454FEA7F
:10192000114724EA054621EA074C05FB07F106FBAF
:1019300007F70CFB06F24FF0000605FB0CFC12EB60
:10194000074241EB174112EB0C4251EB1C4148BFDF
:101950007047921841EB0101A3F1010370470000A9
:101960000000000021B1826842F00102826003E0C1
:10197000826822F0010282607047000010B50446C0
:101980001248844208D10121401504F0F3FB0021E4
:10199000601504F0EFFB17E00D48844208D10121E7
:1019A000001504F0E7FB0021201504F0E3FB0BE039
:1019B0000848844208D10121C80304F0DBFB002160
:1019C0004FF4004004F0D6FB10BD0000002401409D
:1019D00000280140003C0140014600208A6802F0D6
:1019E00004020AB1012000E0002070470146C86CE3
:1019F00080B270470246002013680B400BB10120F3
:101A000000E000207047014600208A6802F00802CA
:101A10000AB1012000E000207047000030B5024606
:101A20000020002350680F4C20400D790C6844EAD8
:101A300005242043506090680B4C2040D1E90254AB
:101A40002C434D7944EA450420439060D06A20F449
:101A500070000C7C641EE4B2234340EA0350D06261
:101A600030BD0000FFFEF0FFFDF7F1FFF0B50446CA
:101A70000D4600200021092D11DDE068A5F10A06C0
:101A800006EB4607072606FA07F18843A5F10A0682
:101A900006EB460603FA06F10843E0600CE0206915
:101AA00005EB4507072606FA07F1884305EB4506CF
:101AB00003FA06F108432061072A0FDA606B561E0D
:101AC00006EB86071F2606FA07F18843561E06EB2B
:101AD000860605FA06F10843606322E00D2A0FDA54
:101AE000206BD61F06EB86071F2606FA07F18843F0
:101AF000D61F06EB860605FA06F10843206310E0C0
:101B0000E06AA2F10D0606EB86071F2606FA07F12A
:101B10008843A2F10D0606EB860605FA06F1084396
:101B2000E062F0BD816841F008018160704721B139
:101B3000826842F4A002826003E0826822F4A0027C
:101B400082607047816841F0040181607047000045
:101B500000B587B001214FF4047004F0FBFA4FF494
:101B6000004004F0CBFA3F20ADF8040000208DF8CF
:101B7000070001A9174801F0A5FA1748FFF7FEFE74
:101B8000002002908DF80C008DF80D004FF46020BD
:101B900004900020059001208DF8180002A90E483D
:101BA000FFF73CFF01210C48FFF7DCFE0A48FFF776
:101BB000B9FF00BF0848FFF726FF0028FAD1064802
:101BC000FFF7C0FF00BF0448FFF706FF0028FAD167
:101BD00007B000BD001001400024014008B50121FC
:101BE000102004F0B7FA2020ADF8000010208DF886
:101BF000030003208DF802006946044801F062FAF0
:101C00002021024801F017FC08BD0000001001402F
:101C10002DE9F14F82B002980CF01EFB0022114B0F
:101C2000CDE900010BF0ECFD80460F4A0F4B09F0A7
:101C3000F5FA064600220E4B0CF032F982460022DD
:101C40000C4B0BF0F9FF04460D4600220A4B2046D0
:101C500029460BF0F1FF04460D462046294603B005
:101C6000BDE8F08FD0BCF8406C45D9CC955BC83F3F
:101C70000000F03F40A5E5400000594010B50021AC
:101C8000024809F023FA0249086010BD5C240108EB
:101C9000480100208CB000BF07F004FE1E48006819
:101CA000FFF7B6FF05460BF0BDFC04461B490CF0E0
:101CB0006DFB1B490860084600680CF0CDFA04462D
:101CC0000D461849184800680CF060FB82460CF07D
:101CD000C3FA06460F4615490F4800680CF056FB3C
:101CE00082460CF0B9FA804642460B46104904A8D9
:101CF000CDE90067CDE90245FEF7E0FB04A8FEF759
:101D000088FD04460B482146426904A890474FF4D9
:101D10007A7009F041F9BFE7280100200000C842AD
:101D20002C010020000020412401002000007A4402
:101D3000D82901084827010810B501F075FDAA202F
:101D400003F0AAFD00B21E490880AC2003F0A4FDF8
:101D500000B21C490880AE2003F09EFD00B21A4973
:101D60000880B02003F098FD18490880B22003F0E5
:101D700093FD17490880B42003F08EFD15490880B3
:101D8000B62003F089FD00B213490880B82003F0A3
:101D900083FD00B211490880BA2003F07DFD00B236
:101DA0000F490880BC2003F077FD00B20D49088080
:101DB000BE2003F071FD00B20B49088010BD000089
:101DC00030010020320100203401002036010020C3
:101DD000380100203A0100203C0100203E01002093
:101DE00040010020420100204401002010B507F00E
:101DF00035FE0BF0B9FA05F0CDFA05F009FB05F058
:101E0000D7FB05F029FC08F055FCFFF7E7FE02F0D0
:101E1000F3F909F0A9F80249486D804710BD0000A8
:101E20005800002010B505F06BFA05F051FC08F0E1
:101E30006DFC02F011FD0249486D804710BD0000A5
:101E40000000002010B5044600222021074801F0C0
:101E5000F4FA204609F0A0F801222021034801F0FD
:101E6000ECFA204609F098F810BD0000001001407F
:101E700000BFFEE770B53648407802281ED13548CD
:101E8000006800F0100058B1102032490860324854
:101E90000068B0B13048062102680120904710E088
:101EA0002C48006800F0030058B12B48006840B18E
:101EB0002948022102680120904702E0202025499C
:101EC0000860244808300468001F056804F0040016
:101ED00088B905F4806070B91E48001D006840F4A0
:101EE00080601C49091D08601C48006818B11B4827
:101EF00001680320884704F0020088B905F40070E7
:101F000070B91448001D006840F400701149091DA3
:101F100008601248006818B110480168012088471D
:101F200004F0010090B905F4807078B9C4F307405B
:101F30005F280BD25F20B0EB146F07D10548001D5E
:101F4000006840F480700349091D086070BD0000FE
:101F500042020020106400404C0200204802002091
:101F600070B52248006800283FD021480468001F4F
:101F7000056804201E491439086004F0040078B193
:101F800005F4806060B11A48001F006820F480608A
:101F90001749091F0860154801680420884724E094
:101FA00004F0020078B105F4007060B11048001F21
:101FB000006820F400700E49091F08600B48016892
:101FC0000320884711E004F0010070B105F480702F
:101FD00058B10748001F006820F480700449091FA9
:101FE0000860024801680220884770BD480200204E
:101FF0001864004070B505460C46284604F0CAF93E
:10200000064626EA0401284607F09EFA70BD000045
:1020100008B50121102004F09DF84FF40070ADF8D0
:10202000000003208DF8020010208DF8030069469F
:10203000014801F047F808BD0010014010B500212B
:10204000074809F043F807490860074A0121074893
:1020500009F070F804460221204609F081F810BD0D
:10206000542601082402002071200008642601087B
:1020700010B5044601200A49086008F08DFF0020D1
:102080000849C1F8BC01012008F086FF0648007825
:1020900020B106480068401C0449086010BD0000DB
:1020A000BC01234200002342200200201C02002029
:1020B00000BF002001F060FE0446032C08D101207F
:1020C0001E4908701E4908705020FFF7BBFE16E03D
:1020D000042C09D102201949087001201849087000
:1020E0005020FFF7AFFE0AE0052C08D1032013496A
:1020F00008700120124908705020FFF7A3FE114814
:102100000078012805D100200E4908705020FFF703
:1021100099FE0A480078012804D0022805D0032837
:1021200009D105E007F0B4FE06E007F05FFE03E02A
:1021300007F000FF00E000BFBBE70000180200202E
:10214000210200202202002010B5FFF747FD01F018
:102150000BFD10BD2DE9F0410746884600250026FD
:10216000002401204C49086000BF8FE0002688E071
:1021700004F080F8B8F1000F06D0B8F1010F1DD0BF
:10218000B8F1020F5ED133E00120434928390860DD
:1021900000204249C1F89C0100240AE0C4F1070173
:1021A00007EB011106EBC502885C04F091FA601C94
:1021B000C4B2082CF2DB03F049FC55E0002036499C
:1021C0002839086001203549C1F89C0100240AE043
:1021D000C4F1070107EB011106EBC502885C04F0AE
:1021E00053FA601CC4B2082CF2DB03F019FC3BE08C
:1021F00001202949283908602849C1F89C01002498
:102200000AE0C4F1070107EB011106EBC502885C87
:1022100004F05EFA601CC4B2082CF2DB00240AE071
:10222000C4F1070107EB011106EBC502885C04F05D
:102230002BFA601CC4B2082CF2DB03F007FC03F09D
:10224000EFFB11E000240AE0C4F1070107EB0111E4
:1022500006EBC502885C04F03BFA601CC4B2082C93
:10226000F2DB03F0F3FB00BF00BF711C082202FB8E
:102270000511C8B204F006F8142007F0DBFE701C4C
:10228000C6B2082EFFF674AF681CC5B2022DFFF669
:102290006DAFBDE8F0810000AC8122420080224297
:1022A00070B506460025002401203549086000204D
:1022B0003449C1F88401012031491039086000BF58
:1022C0005BE0002455E003F0D5FFA91D06EB0111EA
:1022D000012202EB4402885C04F0D6F9A91D06EB4A
:1022E0000111002202EB4402885C04F0CDF9291DA3
:1022F00006EB0111012202EB4402885C04F0C4F9F0
:10230000291D06EB0111002202EB4402885C04F057
:10231000BBF9A91C06EB0111012202EB4402885C07
:1023200004F0B2F9A91C06EB0111002202EB4402F1
:10233000885C04F0A9F906EB0511012202EB4402C6
:10234000885C04F0A1F906EB0511002202EB4402BF
:10235000885C04F099F903F063FB611C082202FB1E
:102360000511C8B203F08EFF142007F063FE601C55
:10237000C4B2082CA7DB681CC5B2022DA1DB70BD5E
:10238000AC8122420080224270B50646002500241E
:102390000120354908603549C1F8840100203249DF
:1023A0001039086000BF5BE0002455E003F062FFD5
:1023B000A91D06EB0111012202EB4402885C04F026
:1023C00087F9A91D06EB0111002202EB4402885C8B
:1023D00004F07EF9291D06EB0111012202EB4402F3
:1023E000885C04F075F9291D06EB0111002202EB4F
:1023F0004402885C04F06CF9A91C06EB011101226F
:1024000002EB4402885C04F063F9A91C06EB01119D
:10241000002202EB4402885C04F05AF906EB051135
:10242000012202EB4402885C04F052F906EB05112C
:10243000002202EB4402885C04F04AF903F006FB38
:10244000611C082202FB0511C8B203F01BFF142017
:1024500007F0F0FD601CC4B2082CA7DB681CC5B2F5
:10246000022DA1DB70BD0000AC812242008022421F
:1024700070B50646002500240120594908605949D5
:10248000C1F8840156491039086000BFA4E0002457
:102490009DE003F0EFFEA91D06EB0111012202EB06
:1024A0004402885C04F014F9A91D06EB0111002216
:1024B00002EB4402885C04F00BF9291D06EB0111C4
:1024C000012202EB4402885C04F002F9291D06EBAC
:1024D0000111002202EB4402885C04F0F9F8A91C07
:1024E00006EB0111012202EB4402885C04F0F0F8D3
:1024F000A91C06EB0111002202EB4402885C04F0E7
:10250000E7F806EB0511012202EB4402885C04F0B7
:10251000DFF806EB0511002202EB4402885C04F0B0
:10252000D7F8A91D06EB0111012202EB4402885CD9
:1025300004F0AAF8A91D06EB0111002202EB4402E7
:10254000885C04F0A1F8291D06EB0111012202EBC1
:102550004402885C04F098F8291D06EB0111002262
:1025600002EB4402885C04F08FF8A91C06EB011111
:10257000012202EB4402885C04F086F8A91C06EBF9
:102580000111002202EB4402885C04F07DF806EBA6
:102590000511012202EB4402885C04F075F806EB99
:1025A0000511002202EB4402885C04F06DF803F090
:1025B0004DFA03F035FA611C082202FB0511C8B27E
:1025C00003F060FE142007F035FD601CC4B2082C37
:1025D000FFF65FAF681CC5B2022DFFF658AF70BDA5
:1025E000AC812242008022422DE9FF4F89B007468C
:1025F0008846914620216846FEF7D7F9002615E067
:1026000007EB4611B24B03EB46101022FEF72CF9F4
:102610007200521C07EB02117200521CAC4B03EB10
:1026200002101022FEF720F9701C86B2042EE7DBA0
:1026300004200890169820B1012806D002280CD159
:1026400007E0A348FFF7A0FE0BE0A148FFF728FE34
:1026500007E09F48FFF70CFF03E09D48FFF794FE5B
:1026600000BF00BFB9F1000F7ED0089E29E107EB43
:10267000461110226846FEF7F7F8012000EB4600ED
:1026800007EB0011102204A8FEF7EEF84FF0000A45
:1026900011E10024DAE0002541E08D4800EB05104F
:1026A00010F814004006000E894901EB051101F8ED
:1026B0001400874800EB051010F81410844800EB54
:1026C00005126000401C105C41EAE010804901EBFB
:1026D000051101F814007E4800EB05116000401C54
:1026E000085C4006010E7A4800EB05126000401CB1
:1026F0001154774800EB05116000401C095C744AD6
:10270000A81C02EB001010F8140041EAE01110467A
:1027100000EB05126000401C1154681C85B2062DA8
:10272000BBDB6B48603010F814004006010E6848AF
:10273000603000F8141010F814206000401C644948
:102740006031085C42EAE0116148603000F8141022
:102750006000401C5E496031085C4006020E60006B
:10276000401C0A54600000E0AEE0401C085C1DF80C
:10277000141040EAE1126000401C554960310A54CF
:102780001DF814004006000E0DF814001DF814107A
:102790006000401C1DF8000041EAE0100DF8140034
:1027A0006000401C1DF800004006010E6000401C47
:1027B0000DF800104648703010F814004006010E65
:1027C0004348703000F8141010F814206000401CCA
:1027D0003F497031085C42EAE0113D48703000F832
:1027E00014106000401C3A497031085C4006020E2B
:1027F0006000401C0A546000401C095C04A810F8EA
:10280000140041EAE0126000401C314970310A5462
:1028100004A810F814004006010E04A800F81410D3
:1028200010F814206000401C04A9085C42EAE01182
:1028300004A800F814106000401C04A9085C4006BD
:10284000020E6000401C0A54601C84B2082CFFF683
:1028500022AF2048007800F00F00C0F110000C906B
:102860001C480078C0F3411016904FF0000B1BE09D
:10287000169820B1012806D002280CD107E0144890
:10288000FFF782FD0BE01248FFF70AFD07E0104852
:10289000FFF7EEFD03E00E48FFF776FD00BF00BF37
:1028A0000BF101001FFA80FB0C988345E0DB0AF175
:1028B00001001FFA80FABAF1100FFFF6EAAE701CA1
:1028C00086B24645FFF6D3AE0DB0BDE8F08F0000EE
:1028D00004040020F000002008B50121102003F0BE
:1028E00039FC4FF48050ADF8000048208DF803000B
:1028F00003208DF802006946014800F0E3FB08BDA3
:10290000001001407047000010B50548006800F055
:102910000F04034844602046FFF7F4FF10BD000099
:10292000000002407047000010B505480068C0F381
:1029300003142001024948602046FFF7F3FF10BD51
:10294000000002407047000010B505480068C0F361
:1029500003242002024948602046FFF7F3FF10BD20
:10296000000002407047000010B505480068C0F341
:1029700003342003024948602046FFF7F3FF10BDEF
:10298000000002407047000010B505480068C0F321
:1029900003442004024948602046FFF7F3FF10BDBE
:1029A000000002407047000010B505480068C0F301
:1029B00003542005024948602046FFF7F3FF10BD8D
:1029C000000002407047000010B505480068C0F3E1
:1029D00003642006024948602046FFF7F3FF10BD5C
:1029E000000002407047000010B50548006800F084
:1029F0000F040348001D04602046FFF7F3FF10BDDD
:102A0000000402407047000010B506480068C0F39B
:102A1000031420010349091D08602046FFF7F2FF57
:102A200010BD0000000402407047000010B50648C9
:102A30000068C0F3032420020349091D08602046F2
:102A4000FFF7F2FF10BD00000004024010B50C4873
:102A50000068C0F3033434B120030949091D08603C
:102A6000204600F00FF806480068C0F3034434B174
:102A700020040349091D0860204600F004F810BD39
:102A8000000402407047704710B5002404E0601C49
:102A9000C4B2012007F0CEFA0D48006808B1C82C76
:102AA000F5DBC82C01DB012010BD002404E0601C14
:102AB000C4B2012007F0BEFA0548006808B9F02C3E
:102AC000F5DBF02C01DB0120EEE70020ECE7000055
:102AD000388122422DE9F84F00F0B2F800F09CF85E
:102AE000FFF7D2FFCC2000F0B7F8BE2000F0B4F81A
:102AF00000F080F8814600F07DF80446072C07DDE1
:102B0000E043C4B26FEA090000F0FF09002600E0CC
:102B100001262546280205B205EB090005B2284624
:102B20000BF016FD00900BF097FB07460022104BB0
:102B30000BF082F882460AF0BBFF05B266B1284668
:102B40000BF013F8074600220A4B0AF059FE8246A2
:102B50000AF068FDBDE8F88F68420BF006F80746FA
:102B60000022044B0AF04CFE82460AF05BFDF1E7BE
:102B70000000E43F0000244008B50121202003F0BC
:102B8000E9FA4FF48040ADF8000003208DF8020010
:102B900014208DF803006946054800F093FA0120DF
:102BA0000449086000F038F8FFF76EFF08BD000028
:102BB00000140140B881224210B500200B49086082
:102BC000022007F037FA01200949C1F8B8010C20AA
:102BD00007F030FA05488038006808B1012400E0A9
:102BE0000024322007F026FA204610BDB881224288
:102BF0000080224270B50026012508E0FFF7DCFFC7
:102C00000446E00140EA6600C6B2681CC5B2082D61
:102C1000F4DD304670BD000010B5002006490860A4
:102C200040F2EE2007F006FA01200449C1F8B8018D
:102C30000F2007F0FFF910BDB88122420080224228
:102C400010B5FFF7E9FFFFF71FFFCC2000F004F8F5
:102C5000442000F001F810BD70B50446012520E0C5
:102C600004F0010664106EB100200F4908600220D4
:102C700007F0E0F901200D49C1F8B8013C2007F048
:102C8000D9F90CE00020084908603C2007F0D2F98F
:102C900001200649C1F8B801022007F0CBF9681CF1
:102CA000C5B2082DDCDD70BDB88122420080224211
:102CB000704700BF011EA0F10100FBD1704700006A
:102CC0002DE9F74F84B0074691463846FDF7A1FD40
:102CD00000F0FF0ABAF1090F1EDA002619E017F812
:102CE000013B424A02EB0311414A02EB061010225B
:102CF000FDF7BAFD4FF0000807E03D480599FFF7E2
:102D000029FA08F1010000F0FF08C845F5DB701C46
:102D1000C6B25645E3DB65E04FF0000B60E017F804
:102D2000012B324800EB021110226846FDF79CFD92
:102D300000264FE0002520E000241AE02C4800EB9C
:102D40000510005D4006000E294901EB05110855EC
:102D5000274800EB0510015D254A681C02EB0010B6
:102D6000005D41EAE010114601EB05110855601CB9
:102D7000C4B2102CE2DB681CC5B2072DDCDB0024DA
:102D800017E01B487030005D4006010E1848703097
:102D90000155005D1DF8041040EAE111144870303F
:102DA00001551DF804004006000E0DF80400601CDB
:102DB000C4B2102CE5DB4FF0000807E00C48059981
:102DC000FFF7C8F908F1010000F0FF08C845F5DB7E
:102DD000701CC6B2082EADDB0BF1010000F0FF0B3A
:102DE000D3459CDB07B0BDE8F08F00003C1C010818
:102DF0000404002010B54FF4805000F021F848B1D1
:102E000002F0FEFF4FF4805000F006F84FF48050BF
:102E100000F008F810BD000001490860704700008C
:102E20001404014001490860704700001404014087
:102E3000024909680143014A1160704710040140CA
:102E4000014600200022074B1B6803EA0102054BE4
:102E500014331B680B4013B10AB1012000E00020BD
:102E60007047000000040140002123498279002AB4
:102E70003AD00A46126803689A430B461A600A1D44
:102E8000126803689A430B1D1A60027911440A689C
:102E900003681A430A60184A0832126803689A43A2
:102EA000154B08331A601A1D126803689A43124BB7
:102EB0000C331A604279102A0ED11A1F1268036867
:102EC0001A430D4B08331A601A1D126803681A431F
:102ED000094B0C331A600DE00749427911440A6826
:102EE00003681A430A6005E0027911440A6803681E
:102EF0009A430A60704700000004014070B506461E
:102F00000D460024241D22460E490F48FDF7ACFC57
:102F10000E48427D2146641C0B4842541022214633
:102F2000641C42542146641C4554014608192A4633
:102F30003146FDF799FC6019C4B20D2002490855CD
:102F400070BD0000A2EA0008B00200208CEA000870
:102F500018B5002844D0C0F34211C0F30322214B1E
:102F60009B6903F001032BB91E4B9B6943F00103DE
:102F70001C4CA36100F48053A3B11B4BDB6900938D
:102F800000F01F0301FA03F3009C9C43009400F03F
:102F90001F0302FA03F3009C23430093124C009B8F
:102FA000E3611DE0104B5B68009300F01F0301FA22
:102FB00003F3009C9C43009400F01F0302FA03F308
:102FC000009C2343009307210022009B23EA016316
:102FD0000093009B43EA02630093034C009B6360F1
:102FE00018BD0000001002400000014030B5002272
:102FF0008B071C0F0F2303FA04F20B4B8C1053F8B2
:1030000024309343084C8D1044F8253023468C100F
:1030100053F824308C07240F00FA04F42343024CA5
:103020008D1044F8253030BD0800014001461D4890
:10303000814204D11C488069C0F3800070471B485E
:10304000814204D118488069C0F3C000F6E71848EF
:10305000814204D114488069C0F30010EEE715489E
:10306000814204D110488069C0F34010E6E712485D
:10307000814204D10C488069C0F38010DEE70F481C
:10308000814204D108488069C0F3C010D6E70C48DB
:10309000814204D104488069C0F30020CEE70020BB
:1030A000CCE700000008014000100240000C014085
:1030B000001001400014014000180140001C0140B4
:1030C000002001402DE9F0410246002500260020A5
:1030D00000230024002791F803C00CF00F0591F89D
:1030E00003C00CF0100CBCF1000F03D091F802C02B
:1030F0004CEA050591F800C0BCF1000F31D014680E
:1031000000202BE04FF0010C0CFA00F3B1F800C0E6
:103110000CEA03069E4220D183004FF00F0C0CFAFC
:1031200003F7BC4305FA03FC4CEA040491F803C01E
:10313000BCF1280F06D14FF0010C0CFA00FCC2F8CC
:1031400014C00AE091F803C0BCF1480F05D14FF05C
:10315000010C0CFA00FCC2F810C0401C0828D1D3A6
:103160001460B1F800C0BCF1FF0F34DD54680020DA
:103170002EE000F1080C4FF0010808FA0CF3B1F84A
:1031800000C00CEA03069E4221D183004FF00F0CD1
:103190000CFA03F7BC4305FA03FC4CEA040491F86B
:1031A00003C0BCF1280F05D100F1080C08FA0CF897
:1031B000C2F8148091F803C0BCF1480F07D100F1A8
:1031C000080C4FF0010808FA0CF8C2F81080401CF7
:1031D0000828CED35460BDE8F0812DE9F0410546C2
:1031E0000C46174698460F2C02D90020BDE8F08106
:1031F0002846FFF71BFF18B90121284600F072F896
:10320000B8F1000F10D1022F05D1E8680121A140CB
:103210008843E86008E0032F06D127F00107E8683B
:103220000121A1400843E860082C01D22E4601E0AC
:10323000083C2E1D3068A2000F2191408843306069
:1032400048EA8700A10088403168084330600120C7
:10325000CCE70000F0B50A46002300240021002539
:1032600000F00046B6F1004F02D11D4EF16901E0B9
:103270001B4E7168C0F3034583B200F44016B6F5E7
:10328000401F08D121F07061154E766826F07066F7
:10329000134F7E6012E000F48016B6F5801F06D151
:1032A000032606FA05F4A14341F0706106E0460DDD
:1032B000360103FA06F6B14341F0706122B1460DC2
:1032C000360103FA06F6314300F00046B6F1004F2E
:1032D00002D1034EF16101E0014E7160F0BD0000CA
:1032E00000000140002945D0454A904206D1454A98
:1032F000926942F00402434B9A6180E0424A904254
:1033000006D1404A926942F008023E4B9A6176E04B
:103310003E4A904206D13B4A926942F01002394B34
:103320009A616CE03A4A904206D1364A926942F07C
:103330002002344B9A6162E0364A904206D1314A0B
:10334000926942F040022F4B9A6158E0324A904213
:1033500006D12C4A926942F080022A4B9A614EE0D3
:103360002E4A90424BD1274A926942F48072254BF3
:103370009A6144E0224A904206D1224A926922F0A0
:103380000402204B9A613AE01F4A904206D11D4A3E
:10339000926922F008021B4B9A6130E01B4A90426E
:1033A00006D1184A926922F01002164B9A6126E063
:1033B000174A904206D1134A926922F02002114B1B
:1033C0009A611CE0134A904206D10E4A926922F09B
:1033D00040020C4B9A6112E00F4A904206D1094A12
:1033E000926922F08002074B9A6108E00B4A9042F2
:1033F00005D1044A926922F48072024B9A617047A7
:103400000008014000100240000C01400010014083
:103410000014014000180140001C01400020014040
:103420000246002093680B400BB1012000E0002011
:10343000704741617047016170470AB1016100E066
:10344000416170472DE9FC5F0546884691469A46E2
:10345000DDF830B000950720019000245FE004EB18
:103460000410374911F810009BF80010884253D11E
:1034700004EB0410324901EB400040789BF8011046
:10348000884249D108F10F0083B205F10F0082B2E2
:103490004146284601F074FA00263BE0002734E05C
:1034A0000D9890B904EB0410254901EB4000801CF5
:1034B000805D80213941084018B1484601F0B2FBD7
:1034C00021E0504601F0AEFB1DE01E48A0F8009040
:1034D00004EB04101A4901EB4000801C805D802140
:1034E0003941084018B14146284601F009FA681CE4
:1034F00085B20098281A102805D1009D08F1010016
:103500001FFA80F803E0781CC7B2082FC8DB00BFA1
:10351000701CC6B2202EC1DB00BF601C84B20198B3
:1035200084429CDB08484088401E83B206480088DD
:10353000401E82B20021084601F022FABDE8FC9F3D
:10354000BAF70008E8000020780300202DE9FC5FAE
:103550000546884691469A46DDF830B000956520CC
:103560000190002467E004EB840000EB44103A492A
:1035700011F810009BF80010884259D104EB840028
:1035800000EB4410344901EB400040789BF80110F7
:1035900088424DD108F1170083B205F1170082B2BD
:1035A0004146284601F0ECF900263FE0002738E0CC
:1035B0000D98A0B904EB840000EB4410264901EB00
:1035C0004000801C805D80213941084018B1484688
:1035D00001F028FB23E0504601F024FB1FE01F48C8
:1035E000A0F8009004EB840000EB44101A4901EBB2
:1035F0004000801C805D80213941084018B141465F
:10360000284601F07DF9681C85B20098281A182810
:1036100005D1009D08F101001FFA80F803E0781C35
:10362000C7B2082FC4DB00BF701CC6B2482EBDDB7A
:1036300000BF601C84B20198844294DB0848408833
:10364000401E83B206480088401E82B20021084610
:1036500001F096F9BDE8FC9FA8F80008E8000020FA
:10366000780300202DE9FC5F0546884691469A467E
:10367000DDF830B000950120019000245FE004EBFC
:103680008410374911F810009BF80010884253D17C
:1036900004EB8410324901EB400040789BF80110A4
:1036A000884249D108F11F0083B205F11F0082B2A0
:1036B0004146284601F064F900263BE0002734E04B
:1036C0000D9890B904EB8410254901EB4000801C53
:1036D000805D80213941084018B1484601F0A2FAC6
:1036E00021E0504601F09EFA1DE01E48A0F800902F
:1036F00004EB84101A4901EB4000801C805D80219E
:103700003941084018B14146284601F0F9F8681CD3
:1037100085B20098281A202805D1009D08F10100E3
:103720001FFA80F803E0781CC7B2082FC8DB00BF7F
:10373000701CC6B2802EC1DB00BF601C84B2019831
:1037400084429CDB08484088401E83B206480088BB
:10375000401E82B20021084601F012F9BDE8FC9F2C
:10376000DA150108E80000207803002010B50446AF
:103770000723012221460948FEF778F9012107486D
:10378000FEF7D5F900BF02210448FEF733F90028FF
:10379000F9D00248FEF72AF910BD000000240140CC
:1037A0002DE9F04107460C460025002608E0384682
:1037B000FFF7DCFF0544052007F0EEFB701CC6B2E6
:1037C000A642F4DBB5FBF4F080B2BDE8F08100BFA7
:1037D000FEE7000010B500200F4908600F480068A0
:1037E00020F470200D4908600846006840F440301D
:1037F000086000200A49C1F89001022006F01AFC76
:10380000012005490860022006F014FC002005494B
:10381000C1F8840110BD000084012242000801406B
:10382000000021420000224208B50121142002F0CC
:1038300091FC1020ADF800008DF8030003208DF8F6
:10384000020069460B48FFF73DFC0220ADF800007E
:1038500010208DF8030003208DF802006946064809
:10386000FFF730FC0120054908600549C1F89001C7
:1038700008BD000000080140001001408401224200
:103880000000214210B500200F4908600F48006871
:1038900020F470200D4908600846006840F440306C
:1038A000086001200A49C1F89001022006F0C2FB1D
:1038B000012005490860022006F0BCFB00200549F4
:1038C000C1F8840110BD00008401224200080140BB
:1038D000000021420000224270B50546002416482F
:1038E000006820F47020144908600846006840F41D
:1038F00000200860002615E0002010490860022022
:1039000006F098FB01200E49C1F884016006040E00
:103910000C48006808B1601CC4B2012006F08AFBA4
:10392000701CC6B2082EE7DB15B9FFF7ABFF01E04C
:10393000FFF750FF204670BD00080140840122427D
:10394000000022421001214270B50446144800686C
:1039500020F47020124908600846006840F44030A6
:10396000086000200F490860002516E0E0090E49B4
:1039700008606006040E022006F05CFB01200B4983
:10398000C1F88401022006F055FB002005490860BB
:10399000022006F04FFB681CC5B2082DE6DB70BDA7
:1039A000000801408401224290012142000022428D
:1039B00010B50F48006820F470200D4908600846D3
:1039C000006840F44030086001200A4908600A4954
:1039D000C1F88401042006F02DFB00200549086091
:1039E000042006F027FB00200349C1F8840110BD24
:1039F00000080140900121420000224210B50F480A
:103A0000006820F470200D4908600846006840F402
:103A10004030086000200A4908600A49C1F8900156
:103A2000042006F007FB0120054908600549C1F89C
:103A30009001042006F0FEFA10BD000000080140CD
:103A4000840122420000214210B50024134800687E
:103A500020F47020114908600846006840F40020F6
:103A6000086001200E49086006F0E4FA01200D49C3
:103A7000C1F8840106F0DEFA07E0601CC4B2FA2C3B
:103A800003DDFFF7BBFF012010BD0548803800684B
:103A90000028F2D10449086000BFF5E700080140A2
:103AA00090012142000022428401224208B50121F6
:103AB000082002F04FFB0320ADF8000010208DF825
:103AC000030003208DF8020069460448FFF7FAFA64
:103AD00003210248FFF7AFFC08BD0000000C0140C5
:103AE00008B501211C2002F035FB4FF44350ADF81E
:103AF000000048208DF8030003208DF8020069467D
:103B00001648FFF7DFFA4FF48070ADF80000102080
:103B10008DF8030003208DF8020069460F48FFF777
:103B2000D1FA4FF48070ADF8000010208DF803003A
:103B300003208DF8020069460948FFF7C3FA4FF4E5
:103B40004070ADF8000010208DF8030003208DF8C0
:103B5000020069460348FFF7B5FA08BD00100140AE
:103B600000080140000C014008B50121602002F06E
:103B7000F1FA0320ADF800008DF8020028208DF83E
:103B8000030069461648FFF79DFA4FF44040ADF830
:103B9000000003208DF8020010208DF80300694614
:103BA0000F48FFF78FFA48F20300ADF8000003203A
:103BB0008DF8020048208DF8030069460948FFF798
:103BC00081FA4FF44040ADF8000003208DF8020068
:103BD00010208DF8030069460248FFF773FA08BD0C
:103BE000001801400014014008B50121702002F0C6
:103BF000B1FA0320ADF8000048208DF8030003203F
:103C00008DF8020069460848FFF75CFA8020ADF89D
:103C1000000048208DF8030003208DF8020069465B
:103C20000248FFF74FFA08BD001401400018014098
:103C300008B50121602002F08DFA0320ADF80000E4
:103C400048208DF8030003208DF8020069460748DC
:103C5000FFF738FA4FF40060ADF8000048208DF807
:103C6000030069460248FFF72DFA08BD001801401D
:103C70000014014008B50121102002F06BFA4FF446
:103C80004040ADF8000048208DF803006946024826
:103C9000FFF718FA08BD00000010014008B5012127
:103CA0001C2002F057FA4FF44350ADF800001020EA
:103CB0008DF8030003208DF8020069461648FFF7CF
:103CC00001FA4FF48070ADF8000048208DF8030031
:103CD00003208DF8020069460F48FFF7F3F94FF40F
:103CE0008070ADF8000048208DF8030003208DF8A7
:103CF000020069460948FFF7E5F94FF44070ADF856
:103D0000000048208DF8030003208DF8020069466A
:103D10000348FFF7D7F908BD001001400008014033
:103D2000000C014010B5044614B101201049087080
:103D30000F48007888B102210E48FFF771FB60B987
:103D40000A2007F029F900200949087002210948D2
:103D5000FFF766FB48B9012010BD02210548FFF7B7
:103D60005FFB012801D1024908700020F4E7000040
:103D7000040200200018014010B5044614B10120CF
:103D8000254908702448007858B34FF4004123486F
:103D9000FFF746FB48B101212048FFF741FB20B166
:103DA00002211E48FFF73CFBD8B90A2007F0F4F8BF
:103DB0000020194908704FF400411848FFF730FB04
:103DC00008B9032010BD01211448FFF729FB08B9E9
:103DD0000420F7E702211148FFF722FBD0B90520A4
:103DE000F0E74FF400410D48FFF71AFB01280CD112
:103DF00001210A48FFF714FB012806D102210748D8
:103E0000FFF70EFB012800D100E00020012801D1BE
:103E1000014908700020D5E7280200200014014065
:103E200010B5044614B101202449087023480078D5
:103E300048B301212248FFF7F3FA48B10221204894
:103E4000FFF7EEFA20B180211E48FFF7E9FAD0B95A
:103E50000A2007F0A1F8002018490870012118482D
:103E6000FFF7DEFA08B9032010BD02211448FFF75E
:103E7000D7FA08B90420F7E780211248FFF7D0FAF3
:103E8000C8B90520F0E701210D48FFF7C9FA01285C
:103E90000CD102210A48FFF7C3FA012806D180217C
:103EA0000848FFF7BDFA012800D100E000200128F2
:103EB00001D1024908700020D6E70000F40100207B
:103EC000001401400018014010B5044614B101204F
:103ED000254908702448007858B301212348FFF78A
:103EE0009FFA50B102212148FFF79AFA28B14FF406
:103EF00000611F48FFF794FAD8B90A2007F04CF880
:103F000000201949087001211848FFF789FA08B9FB
:103F1000032010BD02211548FFF782FA08B90420DA
:103F2000F7E74FF400611248FFF77AFAC8B90520A5
:103F3000EFE701210D48FFF773FA01280CD10221A8
:103F40000A48FFF76DFA012806D1C1020848FFF7B9
:103F500067FA012800D100E00020012801D10249C0
:103F600008700020D5E70000E4010020001801409F
:103F70000014014010B5044614B101201A4908701C
:103F800019480078F8B14FF400411848FFF748FA93
:103F900020B101211548FFF743FAA0B90A2006F025
:103FA000FBFF0020104908704FF400410F48FFF755
:103FB00037FA08B9032010BD01210C48FFF730FA89
:103FC00080B90420F7E74FF400410848FFF728FACA
:103FD000012807D101210548FFF722FA012801D164
:103FE000014908700020E6E7D401002000140140D8
:103FF00010B50021024807F069F80249086010BDB9
:104000007C2401085801002088B000BF15480078C2
:10401000844215D0134804780078134908700126AB
:1040200000250846027811A16846FCF747FA684661
:10403000FCF7EFFB0746124839464269684690474D
:1040400006F0E8FD642006F0A7FF002EDED00A2D62
:1040500005DD00260025002003490870D6E7681C0E
:10406000C5B2D3E755010020540100200A0D766146
:104070006C4B6579426172643A2025640A0D000038
:10408000482701080EB585E0002000F0F1FB48F25A
:104090003040414908800020102140A24FF6FF73B4
:1040A000CDE9002102901F220521202002F014FDFD
:1040B000012018213CA24FF6E073CDE900210290C7
:1040C0004FF478421921052002F006FD0120182145
:1040D00038A24FF6E073CDE9002102904FF4784208
:1040E0001921352000F00AFD0120182132A24FF6D7
:1040F000E073CDE9002102901A463221052002F03A
:10410000EBFC012018212FA24FF6E073CDE900212E
:1041100002901A463221352000F0F0FC01201821CF
:1041200029A24FF6E073CDE9002102904FF6FF720D
:104130004B21052002F0D0FC0120182126A24FF6C9
:10414000E073CDE9002102904FF6FF724B2135203C
:1041500000F0D4FC0120182121A24FF6E073CDE934
:10416000002102904FF4FC626421052002F0B4FCAF
:10417000012018211EA24FF6E073CDE90021029024
:104180004FF4FC626421352000F0B8FC40F2DC50B2
:1041900006F002FF78E70000E8000020CFB5CDB3BD
:1041A000BCE0BFD800000000CEC2B6C8202020204E
:1041B00020A1E6003A323400CAAAB6C82020202046
:1041C00020A3A5003A333200B5E7D1B92020202042
:1041D0002020A3D6000000003A332E320000000059
:1041E000B5E7C1F7202020202020A3C10000000057
:1041F0003A302E320000000010B502F08DFA00F0C7
:104200008DFB112000F02CFD142006F0C5FE2620A9
:1042100000F026FD042000F0EBFCB12000F020FDB2
:104220000E2000F0E5FC102000F0E2FCC02000F0C1
:1042300017FD082000F0DCFC002000F0D9FCC120B4
:1042400000F00EFD052000F0D3FCC52000F008FDB5
:10425000382000F0CDFC402000F0CAFC3A2000F0ED
:10426000FFFC052000F0C4FC362000F0F9FC1C2007
:1042700000F0BEFC2A2000F0F3FC002000F0B8FCA7
:10428000002000F0B5FC002000F0B2FC7F2000F020
:10429000AFFC2B2000F0E4FC002000F0A9FC202063
:1042A00000F0A6FC002000F0A3FC9F2000F0A0FC82
:1042B000B42000F0D5FC002000F09AFCF22000F0C1
:1042C000CFFC012000F094FCE02000F0C9FC3F206E
:1042D00000F08EFC222000F08BFC202000F088FCF7
:1042E000302000F085FC292000F082FC0C2000F03A
:1042F0007FFC4E2000F07CFCB72000F079FC3C20D5
:1043000000F076FC192000F073FC222000F070FC15
:104310001E2000F06DFC022000F06AFC012000F07D
:1043200067FC002000F064FCE12000F099FC002014
:1043300000F05EFC1B2000F05BFC1F2000F058FC2E
:104340000F2000F055FC162000F052FC132000F066
:104350004FFC312000F04CFC842000F049FC43204D
:1043600000F046FC062000F043FC1D2000F040FC5D
:10437000212000F03DFC3D2000F03AFC3E2000F002
:1043800037FC3F2000F034FC292000F069FC2C2091
:1043900000F066FC00F0DEFA10BD00008CB000BF3B
:1043A000FE4903C9CDE9090132208DF82C008DF8B2
:1043B0002D00FB49487DC11700EB117109118DF8E3
:1043C0002610F749487DC11700EB11710911A0EBC8
:1043D0000111C9B28DF827109DF82600092806DDC5
:1043E0009DF826003730C0B28DF8260005E09DF814
:1043F00026003030C0B28DF826009DF8270009282D
:1044000006DD9DF827003730C0B28DF8270005E0A3
:104410009DF827003030C0B28DF82700002000F052
:1044200027FA01200C21DFA20023CDE90021029010
:104430004FF6FF720321052002F04EFB01200C21F4
:104440000BAA0023CDE9002102904FF4784203210A
:10445000412002F041FB01200C21D5A20023CDE92F
:10446000002102904FF6FF720321522002F034FB2C
:1044700001200C21D0A20023CDE9002102904FF6AB
:104480001F020321702002F027FB01200C21CBA288
:104490000023CDE9002102904FF6FF720D21052087
:1044A00002F01AFB01200C2109AA0023CDE900210A
:1044B00002901F220D214B2002F00EFB012018213B
:1044C000C2A24FF4FC63CDE9002102904AF251628E
:1044D0001921052002F000FB01201821BEA24FF691
:1044E000E073CDE9002102904AF251624B21052090
:1044F00002F0F2FAACE114240022BA4BBA4903C923
:1045000009F07EF905460022B84B09F093FC01D270
:10451000052400E01424B6480078032802DB0020BC
:10452000B34908704B2080233222002100900846B6
:1045300000F0C2F91422114604A8FCF70CFAAD48A9
:10454000006809F089FE05462A460B46AAA10DF12E
:104550001100FBF7B3FF012118220DF111004FF6F6
:10456000E073CDE9012100904FF4FC623221142068
:1045700000F0C4FA0DF11100FCF74BF9C0EBC000DC
:10458000142101EB400085B2012018219CA24FF6B6
:10459000E073CDE9002102904FF4FC623B212846F4
:1045A00002F09AFA802003464B2200210090084630
:1045B00000F082F91422114604A8FCF7CCF99148C6
:1045C000006809F049FE05462A460B468AA10DF10E
:1045D0001100FBF773FF012018217FA24FF6E07353
:1045E000CDE9002102904AF251624B21052002F0F0
:1045F00073FA012118220DF111004FF6E073CDE995
:10460000012100904FF4FC626421142000F076FA3E
:104610000DF11100FCF7FDF8C0EBC000152101EB16
:10462000400085B20120182177A24FF6E073CDE952
:10463000002102904FF4FC626B21284602F04CFAF4
:104640004FF4FA6006F0A8FC69480078401C6849FD
:104650000870802003464B2200210090084600F09D
:104660002BF91422114604A8FCF775F96748006875
:1046700009F0F2FD05462A460B465FA10DF1110037
:10468000FBF71CFF0120182161A24FF6E073CDE972
:10469000002102904AF251624B21052002F01CFADF
:1046A000012118220DF111004FF6E073CDE901212F
:1046B00000904FF4FC626421142000F01FFA0DF109
:1046C0001100FCF7A6F8C0EBC000142101EB40007C
:1046D00085B20120182151A24FF6E073CDE90021E7
:1046E00002904FF4FC626B21284602F0F5F94FF47A
:1046F000FA6006F051FC3E480078401C3C490870C6
:10470000802003464B2200210090084600F0D4F898
:104710001422114604A8FCF71EF90022314B32493D
:1047200003C909F06DF805462A460B4632A10DF182
:104730001100FBF7C3FE0120182139A24FF6E073E8
:10474000CDE9002102904AF251624B21052002F08E
:10475000C3F9012118220DF111004FF6E073CDE9E4
:10476000012100904FF4FC626421204600F0C6F95C
:104770000DF11100FCF74DF8C0EBC00004EB400058
:10478000401C85B20120182128A24FF6E073CDE924
:10479000002102904FF4FC626B2149E07C16010875
:1047A0008CEA00084D6F75646C655F49443A0000FF
:1047B000415454523A0000004D5300004D6F75644F
:1047C0006C655F547970653A00000000B5B1C7B000
:1047D000B9A6C2CAE86E0000B5B1C7B0B5E7D1B995
:1047E000E86E000000408F40B001002000005940FA
:1047F000EE000020A8010020252E326600000000F7
:1048000057000000A001002056000000A401002075
:10481000B5B1C7B0B5E7C1F7E86E000041000000D0
:10482000D7DCD3C3B5E7C1BFE86E00006B576800A3
:10483000284602F051F94FF4FA6006F0ADFB054846
:104840000078401C03490870642006F0A5FB00BFF7
:1048500051E60000EE00002010B50021024806F0ED
:1048600035FC0249086010BD6C160108E400002008
:1048700070B506460F484088401E83B20D48008838
:10488000401E82B20021084600F07AF800240CE0B5
:10489000002504E0304600F0C5F9681C85B20548E3
:1048A0004088A842F6DC601C84B202480088A0421E
:1048B000EEDC70BD780300202DE9F04782460C46FF
:1048C00015461E46089F781E83B2701E82B2294686
:1048D000204600F055F8A0460EE0A94606E05046F6
:1048E00000F0A0F909F101001FFA80F9B945F6DBE3
:1048F00008F101001FFA80F8B045EEDBBDE8F08753
:1049000030B504460D462946204600F019F8024805
:10491000008800F087F930BDE800002010B5402085
:1049200006490860642006F037FB40200349091F50
:104930000860322006F030FB10BD00001418014062
:1049400030B504460D462B4622462946204600F047
:1049500017F830BD00B52C20084908810020887167
:1049600082200880832048802A2048812B2088814B
:10497000C821362000F096F900BD00007803002021
:10498000F0B506460C4617461D461149488900F009
:1049900067F9301200F02CF9F0B200F029F9381262
:1049A00000F026F9F8B200F023F90949888900F0EF
:1049B00057F9201200F01CF9E0B200F019F92812A2
:1049C00000F016F9E8B200F013F900F063F9F0BD59
:1049D000780300202DE9FF4F83B081468A46934635
:1049E000DDE91064414800880290A6F12000C6B2BB
:1049F00004EBD47009EB6000401E82B20AEB0400A5
:104A0000401E83B2514648460194FFF7B9FF129801
:104A100060BB002527E00C2C07D106EB460034498B
:104A200001EB800010F8058004E0324800EB06102E
:104A300010F8058000270FE008F0010020B10BF00E
:104A4000FF0000F0D5F803E00699C8B200F0D0F8F6
:104A50004FEA6808781CC7B204EBD471B7EB610F5A
:104A6000EADB681CC5B2A542D5DB2DE0002529E0B4
:104A70000C2C07D106EB46001D4901EB800010F815
:104A8000058004E01B4800EB061010F805800027A5
:104A900011E01648A0F800B008F0010038B10AEBA8
:104AA000050291B209EB070290B2FFF729FF4FEA26
:104AB0006808781CC7B204EBD471B7EB610FE8DB70
:104AC000681CC5B2A542D3DB0849029808800A4891
:104AD0004088401E83B208480088401E82B20021F0
:104AE0000846FFF74DFF07B0BDE8F08FE800002053
:104AF000E6EA00085AEF0008780300202DE9FE4F8F
:104B000004460E4691460C9F364800880290019458
:104B1000009600255BE034480088401EA04204DB7C
:104B200031484088401EB04201DABDE8FE8F3D7832
:104B30003A2D01D10A250AE02E2D01D10B2506E0E0
:104B40002D2D01D10C2502E0A5F13000C5B2019454
:104B50004FF000082DE005EB4500244901EB001063
:104B600010F808A04FF0000B1BE01E48A0F80090C2
:104B70000AF0800018B131462046FFF7C1FE4FF61B
:104B8000FF7000EA4A0A601C84B20198201A0C28BF
:104B900003D1019C701C86B206E00BF1010000F00D
:104BA000FF0BBBF1080FE0DB00BF08F1010000F0D4
:104BB000FF08B8F1300FCEDB0A2D03DA04F1100044
:104BC00084B202E004F1080084B2009E7F1C3878B1
:104BD0007E2802DC387820289DDA02490298088075
:104BE00000BFA2E7E8000020780300204AF5000893
:104BF00000B503464FF4805007490860202007495C
:104C000008601946064801F06DFE4FF480500249D5
:104C1000091F086000BD0000140C0140101801407D
:104C20000038004000B503464FF480500949086041
:104C30002020094908601912084801F053FED9B232
:104C4000064801F04FFE4FF480500249091F0860EA
:104C500000BD0000140C0140101801400038004055
:104C600000B503464FF480500749086020200749EB
:104C70000860D9B2064801F035FE4FF48050024971
:104C8000091F086000BD0000140C01401418014009
:104C90000038004000B502490889FFF7E1FF00BD78
:104CA0007803002030B505460C462846FFF7D8FFAC
:104CB000E0B2FFF79DFF30BD1FB50121102001F0CC
:104CC00049FA4FF48050ADF8000004208DF803003D
:104CD00003208DF8020069461A48FEF7F3F90C210B
:104CE0000220FEF783F94FF48050029000208DF8E7
:104CF0000C000C208DF80D0001208DF80E0002A88C
:104D0000FEF7B2F84FF48050FEF792F84FF480515E
:104D10000C48FEF790FB4FF48050FEF77DF84FF4FF
:104D20008050FEF77FF828208DF8040000208DF8D1
:104D300005008DF8060001208DF8070001A800F09D
:104D400021FE1FBD0010014008B50121052001F022
:104D500001FA4FF48070ADF8000018208DF80300C0
:104D600003208DF8020069461248FEF7ABF90620D1
:104D700001F07AFA01211C2001F0ECF94FF4005007
:104D8000ADF8000003208DF8020010208DF803001C
:104D900069460948FEF796F91020ADF80000032097
:104DA0008DF8020010208DF8030069460148FEF7D7
:104DB00089F908BD000801400010014010B5FFF757
:104DC000C3FFFFF779FF00F003F800F0FDFA10BD14
:104DD00000B587B0012141F2140001F0BBF90121B7
:104DE0002548FEF737FAE020ADF8040003208DF8DF
:104DF000060018208DF8070001A92048FEF762F987
:104E00004020ADF8040003208DF8060010208DF836
:104E1000070001A91A48FEF755F910211748FEF7B7
:104E20000AFB0021174801F0D5FC0020ADF808006E
:104E30004FF48270ADF80A000020ADF80C0002209B
:104E4000ADF80E000020ADF810004FF40070ADF882
:104E500012002820ADF814000020ADF8160007203D
:104E6000ADF8180002A9074801F0CEFC0121054861
:104E700001F0B0FC07B000BD0002300000080140A6
:104E8000001001400030014030B5034600240025E9
:104E900000BF08E0002503E07820FDF70AFF6D1C45
:104EA0009D42F9D3641C052CF4D330BD00240026A8
:104EB000002500204649087089E045480078102800
:104EC00015D003DC48B1012871D104E011286FD05E
:104ED00031286CD100E000BF6EE001203C49087031
:104EE00001F0B0FA10B931203949087064E000F0DF
:104EF0008BF90446082C52D2DFE804F051040F1A53
:104F000025303B4633480D21426933A090470120AC
:104F1000384908700126002542E02E480D214269DB
:104F200035A090470220334908700126002537E05C
:104F300028480D21426937A0904703202D49087069
:104F4000012600252CE023480D21426938A0904716
:104F50000420284908700126002521E01D480D2164
:104F600042693AA090470520224908700126002591
:104F700016E018480D2142693BA0904706201D49C4
:104F80000870012600250BE012480D2142693DA062
:104F900090470720174908700126002500E000BF50
:104FA00000BF00200A49087006E000E000E000BFF2
:104FB00000200749087000BF00BF46B16D1C38488B
:104FC000854204D30020054606460A49087074E766
:104FD0009901002048270108636D643120D6A5C2DD
:104FE000E9BFAAC3C5206964656E746966790D0A54
:104FF0000000000098010020636D643220D6A5C235
:10500000E9B9D8C3C5206964656E746966790D0A0B
:1050100000000000636D643320C6BBB9FBBFAAC3A8
:10502000C5206964656E746966790D0A0000000028
:10503000636D643420C6BBB9FBB9D8C3C5206964AD
:10504000656E746966790D0A00000000636D643551
:1050500020D2BBB6FEC8FDCBC4206964656E7469FE
:1050600066790D0A00000000636D643620B6FEB656
:10507000FEC8FDCBC4206964656E746966790D0A4B
:1050800000000000636D643720C8FDB6FEC8FDCB8C
:10509000C4206964656E746966790D0A00000000B9
:1050A0008096980070B5A6B08C22294903A8FBF71A
:1050B00020FC28A103C9CDE901010126002441E01B
:1050C00000F08DF808B900263EE001A8015DC1207E
:1050D00000F05CF90021C32000F058F904210820F9
:1050E00000F054F90120FFF7CFFE0021082000F066
:1050F0004DF90120FFF7C8FE002512E004EB840003
:1051000003A901EB8000405D00B90CE004EB8400D2
:1051100003AA02EB8000415D052000F037F9681C0E
:10512000C5B2142DEADB00BF2946B92000F02EF9E4
:10513000FF21B22000F02AF90421372000F026F9DF
:10514000601CC4B2072CBBDB00BF304626B070BD6C
:10515000FC240108010203040506070010B55521CF
:10516000352000F013F909211C2000F00FF920214F
:10517000BD2000F00BF90121082000F007F90520FF
:10518000FFF782FE0021082000F000F90520FFF75C
:105190007BFE00F024F808B9002010BDFF21B220EA
:1051A00000F0F4F80621372000F0F0F8062137204F
:1051B00000F0ECF80520FFF767FE0B211C2000F043
:1051C000E5F81021292000F0E1F80021BD2000F0D1
:1051D000DDF80120E1E710B500F01CF810BD70B556
:1051E000002500240BE0B22000F0B2F8212801D104
:1051F000012506E00A20FFF747FE601CC4B20A2C16
:10520000F1DB00BF284670BD10B5C52000F0A0F846
:1052100010BD000010B508201949087000F032F8E0
:105220000021BD2000F0B2F84821172000F0AEF8B0
:105230000520FFF729FE80213C2000F0A7F8072178
:105240003E2000F0A3F8FF21382000F09FF807214E
:105250003A2000F09BF80021402000F097F8082148
:10526000422000F093F80021442000F08FF808213C
:10527000462000F08BF80120FFF706FE10BD00006D
:105280009A01002010B5062000F062F835211720A1
:1052900000F07CF80520FFF7F7FD062000F058F835
:1052A0000321892000F072F80520FFF7EDFD43216E
:1052B000CF2000F06BF80520FFF7E6FD0221CB20A0
:1052C00000F064F80321112000F060F81F48007816
:1052D000402810D100211E2000F058F80F2119207D
:1052E00000F054F818211B2000F050F82C211D204C
:1052F00000F04CF80FE000211E2000F047F83F219D
:10530000192000F043F848211B2000F03FF81F212E
:105310001D2000F03BF80520FFF7B6FD0421CD204D
:1053200000F034F84C21172000F030F80120FFF78E
:10533000ABFD0021B92000F029F84F21CF2000F06B
:1053400025F8FF216F2000F021F810BD9A01002000
:1053500070B5044610210B48FEF76BF840210A484F
:10536000FEF767F8052007F0C1FD204607F0BEFDF7
:10537000002007F0BBFD054610210248FEF75BF850
:10538000284670BD000801400010014070B5054678
:105390000C4610210A48FEF74CF840210948FEF758
:1053A00048F8042007F0A2FD284607F09FFD20469C
:1053B00007F09CFD10210248FEF73DF870BD00008B
:1053C000000801400010014010B54FF40051124890
:1053D000FEF731F86420FFF757FD4FF400510E48F7
:1053E000FEF727F86420FFF74FFD4FF400510A48FD
:1053F000FEF721F86420FFF747FD10210748FEF76C
:1054000018F86420FFF740FD10210448FEF713F858
:105410006420FFF739FD10BD001001400008014075
:1054200010B5094A0121094805F084FE04464FF4ED
:10543000FA71204605F094FE0021054805F046FE6D
:105440000449086010BD0000857200088416010838
:105450008C160108F400002000BF00F027F8FCE7DC
:1054600008B50121602000F075FE4CF6F240ADF861
:10547000000010208DF8030003208DF8020069461B
:105480000848FDF71FFE40F28230ADF80000102002
:105490008DF8030003208DF8020069460248FDF7ED
:1054A00011FE08BD00140140001801402DE9F84329
:1054B000204800784FEAD0181E480078C0F3411405
:1054C0001C480078C0F300161A48007800F00F005E
:1054D000C0F110050E27B8F1000F24D1164800784E
:1054E00020B101280BD002281BD111E004272B4644
:1054F0003246394611480094FDF776F812E01B2732
:105500002B46324639460E480094FDF76DF809E007
:105510000E272B46324639460A480094FDF764F8B8
:1055200000E000BF04E02A4621460348FDF7C8FB1F
:10553000BDE8F883F0000020880300209C160108D5
:105540001C1701087C1A010810B50021054805F058
:10555000BDFD054908600021044805F0B7FD044978
:10556000086010BDE0250108DC010020F0250108DD
:10557000E001002088B0104800883C2190FBF1F049
:1055800084B200BF0C4800883C2190FBF1F084B24B
:1055900022460AA16846FAF791FF6846FBF739F9F7
:1055A00005460D4829464269684690474FF47A708F
:1055B00005F0F2FCE6E70000D80100200A0D4C459A
:1055C000445F47726F772070776D206973203A20AF
:1055D0002564250A0D0000004827010800BF05F0DA
:1055E00033FC10B5FCF7FAFAFEF722FB10BD000001
:1055F00010B50021054805F069FD05490860002146
:10560000044805F063FD0449086010BD9C250108AD
:10561000C4010020AC250108C801002088B000BFEB
:105620000A48437802780AA16846FAF747FF6846B5
:10563000FBF7EFF804460F48214642696846904759
:105640004FF47A7005F0A8FCEAE70000C0010020E2
:105650000A0D7377697463685F535059203A2025A7
:1056600064207377697463685F5053543A202564EB
:105670000A0D00004827010800BF00F00BF810B524
:1056800000F03CF9FEF7F6FAFCF7A8FA9620FCF7D2
:10569000D9FB10BD00240025BBE00020FEF76AFC0A
:1056A0000646032E1CD1DDB90CB9012000E0002014
:1056B0000446322004F044FC3CB1564800780228ED
:1056C0000AD101205349087006E0524800780128A9
:1056D00002D102204F49087001204F4908701DE097
:1056E000042E1BD1D4B90DB9012000E000200546DD
:1056F000322004F025FC3DB14648407802280AD10A
:1057000001204449487006E042484078012802D10F
:1057100002204049487001203F4908703F48007806
:1057200018B3322004F00CFC00203C4908703948C2
:1057300000783B490978884208D0394800783549D3
:1057400008700CB9012000E0002004463148407880
:1057500034490978884208D0324800782D49487089
:105760000DB9012000E0002005462A4800782E49A6
:105770000978884223D0274800782B4908700846CA
:10578000007801280DD15020FCF75CFB2748006809
:1057900005F0BEFC0021264805F098FC254908606C
:1057A0000AE021480078022806D15020FCF74AFB85
:1057B0002048006805F0ACFC322004F0C1FB15481D
:1057C00040781D490978884223D0124840781A4908
:1057D00008700846007801280DD15020FCF732FBF4
:1057E0001448006805F094FC0021144805F06EFC94
:1057F0000E4908600AE010480078022806D15020BF
:10580000FCF720FB0948006805F082FC322004F018
:1058100097FB42E7C0010020BE010020BF0100202D
:10582000BC010020BD010020D5010020D0010020D6
:10583000BC250108CC010020D6010020CC250108A0
:1058400010B50446412C24D108210846FCF7D2FBB0
:105850003D21112003F078FE8621172003F074FE0D
:105860007F21262003F070FE1E212D2003F06CFE08
:1058700000212C2003F068FE8D212A2003F064FE15
:105880003E212B2003F060FE022004F0D3FB00F049
:1058900019F910BD00BFFEE72DE9F0410746FEF7FC
:1058A00087F8EE20FEF750F800BFFEF7CDF800288D
:1058B000FBD13846FEF748F800BFFEF7C5F80028D0
:1058C000FBD1FEF775F8EF20FEF73EF800BFFEF7BC
:1058D000BBF80028FBD10120FDF7FEFF04460020A5
:1058E000FDF7FAFF0546FEF789F8052005F054FBA1
:1058F00026022E433046BDE8F081000008B50121A4
:10590000602000F027FC0320ADF8000010208DF887
:10591000030003208DF8020069461748FDF7D2FB0B
:105920004FF49040ADF8000010208DF803000320E4
:105930008DF8020069461148FDF7C4FB48F20100EA
:10594000ADF8000048208DF8030069460B48FDF7CC
:10595000B9FB01210848FDF76CFD02210648FDF75F
:1059600068FD4FF480410548FDF763FD4FF4006189
:105970000248FDF75EFD08BD00180140001401401B
:105980007047000070B5002100230F22C47804B3D3
:10599000154C246804F4E064C4F5E064210AC1F104
:1059A0000403CA40447804FA03F184781440214384
:1059B00009010E4C0678A155047804F01F05012456
:1059C000AC4005786D11AD0005F1E025C5F800414A
:1059D00009E0047804F01F050124AC40044D06786A
:1059E000761145F8264070BD0CED00E000E400E0C3
:1059F00080E100E010B501200749086004F01AFBBF
:105A000000200649C1F88401012004F013FB0120A5
:105A10000149086010BD00008401234200002342B8
:105A200010B501200749086004F004FB0020064976
:105A3000C1F89401012004F0FDFA01200149086039
:105A400010BD0000948122420080224210B5012046
:105A50000749086004F0EEFA00200649C1F8A401E5
:105A6000012004F0E7FA01200149086010BD0000A0
:105A7000A40123420000234208B50121602000F068
:105A800069FB4FF40060ADF8000003208DF80200C0
:105A900010208DF8030069460848FDF713FB02202B
:105AA000ADF8000003208DF8020010208DF80300EF
:105AB00069460348FDF706FB08BD000000140140DD
:105AC0000018014010B5142000F064FC044604F0F6
:105AD000030018B90321142000F06AFF10BDF0B5CF
