:020000040800F2
:1000000008B40020850300084DAC00084B490008E7
:1000100073AB000825210008FDDE00080000000089
:10002000000000000000000000000000BD02000809
:10003000012C0008000000003503000871030008CF
:100040009F0300089F0300089F0300089F03000808
:100050009F0300089F0300089F0300089F030008F8
:100060009F0300089F0300089F030008B9280008A9
:10007000D5280008F12800080D29000829290008C2
:1000800045290008612900089F0300086DDD00086C
:1000900041DE000829210008E52100089F0300082F
:1000A0009F0300089F0300089F0300089F030008A8
:1000B0009F0300089F0300089F0300089F03000898
:1000C0009F0300089F0300089F0300089F03000888
:1000D0009F03000851C50008B5C700089F0300082A
:1000E000052D00089F0300089F0300089F030008D8
:1000F0009F0300089F0300089F0300089F03000858
:100100009F0300089F0300089F0300089F03000847
:1001100079C300089F0300089F0300089F0300089D
:100120007D2900089D290008BD290008D92900085B
:1001300000F002F800F06DF80AA090E8000C82448C
:100140008344AAF10107DA4501D100F062F8AFF269
:10015000090EBAE80F0013F0010F18BFFB1A43F0A5
:100160000103184700C0010020C001000A444FF0FD
:10017000000C10F8013B13F0070408BF10F8014B06
:100180001D1108BF10F8015B641E05D010F8016B4B
:10019000641E01F8016BF9D113F0080F1EBF10F8AF
:1001A000014BAD1C0C1B09D16D1E58BF01F801CBD2
:1001B000FAD505E014F8016B01F8016B6D1EF9D555
:1001C0009142D6D37047000000230024002500266A
:1001D000103A28BF78C1FBD8520728BF30C148BFAA
:1001E0000B607047662916F0D184642900F0A28163
:1001F000782900F0DB81002070471FB500F044FF34
:1002000004000020002115F06DFBE0601FBD10B55B
:1002100010BD01F039F81146FFF7EFFF0FB400F001
:100220000BF80FBC13F072F800F088FA03B4FFF774
:10023000EEFF03BC01F022F804B013F099F8044873
:10024000002113F023F913F0A5F800F077FA00006D
:100250008CAA010880F309887047EFF30980704782
:10026000684680F3098804480078C00714BF02205C
:10027000032080F3148870474CAA0108DFF818C0E7
:10028000EFF305831B0618BF6047EFF31483DB070A
:1002900008BF604700DF7047C5410108DFF818C09C
:1002A000EFF305831B0618BF6047EFF31483DB07EA
:1002B00008BF604700DF7047A9430108EFF30980DA
:1002C000816911F8021CF1B990E80F10E047EFF3D3
:1002D000098C8CE80700144B93E8060091420FD07C
:1002E00039B12CE9F00FC1F828C00CB414F000FCAF
:1002F0000CBC1A60D2F828C0BCE8F00F8CF3098857
:100300006FF0020E704710B5084A1268914209D882
:10031000074C54F8214090E80F10A047EFF3098CE8
:100320008CE80F0010BD0000480300204C1A0008A4
:100330004C1A000814F0AEFA0C4B93E806009142F8
:1003400010D0EFF3098C2CE9F00FC1F828C00CB4E1
:1003500014F0CEFB0CBC1A60D2F828C0BCE8F00F39
:100360008CF309886FF0020E7047000048030020EC
:1003700014F086FCE0E7000013F00AF914F080FCAA
:10038000DAE700000948804709480047FEE7FEE732
:10039000FEE7FEE7FEE7FEE7FEE7FEE7FEE7FEE735
:1003A00004480549054A064B70470000D1BE0008C5
:1003B0003101000808AE002008B4002008B0002079
:1003C00008B0002000487047A8AD002053EA020C96
:1003D00000F069802DE9F04B4FF00006002B1FBFA5
:1003E000B3FA83F503FA05F424FA05F65E4012BF6A
:1003F0001643B2FA82F502FA05F4C5F120051EBFD4
:1004000022FA05FC44EA0C04203556EA044C4FEA73
:10041000144418BF641C4FF000084FF000099042CC
:1004200071EB030C39D3002919BFB1FA81F701FA36
:1004300007F6B0FA80F700FA07F6C7F120071EBFEB
:1004400020FA07FC46EA0C062037B6FBF4FCA7EBC3
:100450000507103F07F01F0BCBF120060CFA0BFB32
:100460002CFA06F644BFB3460026202FA4BF5E46F2
:100470004FF0000B5BEA060C08BF4FF0010B19EBC5
:100480000B09ABFB027C48EB0608C01B06FB02CC49
:100490000BFB03CC71EB0C01C1E70B460246414656
:1004A0004846BDE8F08B13B54FF000004FF0000157
:1004B000AFF30080BDE81C40704700000FB41CB5CE
:1004C000074B06AA7B4469460090059800F087FD1B
:1004D0000020694600F096FD1CBC5DF814FB00008E
:1004E0003D0B000070B5044685690068C10601D562
:1004F000302600E02026C00707D070BDD4E90121D6
:1005000030469047206A401C20626D1EF6D570BDB3
:1005100070B5044685690078C00707D170BDD4E97D
:10052000012120209047206A401C20626D1EF6D5D4
:1005300070BD00002DE9F0410646002410687529C1
:10054000314616A510D0AFF30080002802DA4042F1
:1005500013A507E031688A0701D512A502E0490713
:1005600004D511A5012401E0AFF3008000210A2287
:1005700006F1240709E0B0FBF2FCB0FBF2F302FB4A
:100580001C00303078541846491C0028F3D123460B
:100590002A463046BDE8F04100F0B6BA000000003F
:1005A0002D0000002B0000002000000070B5044664
:1005B0000D4621461068AFF300802188090502D559
:1005C0000F4A7A4402E00E4A7A440E32002104F1C6
:1005D000240305E000F00F060009965D5E54491CF7
:1005E0000028F7D120780023000704D5702D02D011
:1005F00009B1022311322046BDE8704000F084BAF0
:10060000DAB901002DE9F05F894604464FF0000A8F
:10061000DFF824B1FB44C0F820A02046E1688847F9
:1006200000287DD0252806D0D4E901219047206AF2
:10063000401C2062F1E700255F462046E1688847BC
:100640002028064607DB312E05D2B81910F8200CF9
:1006500008B10543F1E7A80701D525F00405C4F862
:100660001CA00027C4F818A02A2E09D0304611F08B
:10067000E6FB38B304EB8708303EC8F8186019E091
:1006800059F8041B204604EB87029161E168884712
:10069000012F064618D1E069002820DA25F0200550
:1006A0001DE0D8F8180000EB800006EB4000303861
:1006B000C8F818002046E1688847064611F0BFFBDD
:1006C0000028EED1012F0AD02E2E08D12046E16855
:1006D00088477F1C0646022F45F02005C4DBA06931
:1006E000002803DA404245F00105A061E80701D087
:1006F00025F01005A6B1A6F14100192802D8203630
:1007000045F400654A463146204625604D46FFF7D0
:1007100069FD60B1012807D0ED1D25F0070000E05C
:1007200007E000F1080978E705F1040975E73046AC
:100730007AE7206ABDE8F09FB0B9010010B5044621
:10074000AFF300802046BDE81040FFF76FBD30B525
:1007500005460B462A4613F8014B12F8010B08B167
:10076000A042F8D01CB1002802D06D1CF1E7284649
:1007700030BD40EA010310B59B070FD1042A0DD309
:1007800010C808C9121F9C42F8D020BA19BA884272
:1007900001D9012010BD4FF0FF3010BD1AB1D307B1
:1007A00003D0521C07E0002010BD10F8013B11F8E7
:1007B000014B1B1B07D110F8013B11F8014B1B1B10
:1007C00001D1921EF1D1184610BD40EA0103024644
:1007D00030B59B0710D14FF0013400E008C208C9C2
:1007E0001D1B9D4315EAC41FF8D013F0FF0102F84A
:1007F000011B0DD01B0AF8E711F8013B002B02F892
:10080000013B05D011F8013B002B02F8013BF3D16D
:1008100030BD10B5431C02E010F8011B71B1810717
:10082000FAD14FF0013202C88C1A8C4314EAC2117B
:10083000F9D0C01A0A0603D0C01E10BDC01A10BDE0
:100840000A0401D0801E10BD0902FCD0401E10BD5C
:10085000421E12F8013F002BFBD111F8013B002B87
:1008600002F8013BF9D17047032A40F2308010F0C2
:10087000030C00F0158011F8013BBCF1020F62443B
:1008800098BF11F801CB00F8013B38BF11F8013BCC
:10089000A2F1040298BF00F801CB38BF00F8013B79
:1008A00011F0030300F06780083AC0F0088051F8A7
:1008B000043B083A51F804CBA0E80810F5E7121DF4
:1008C0005CBF51F8043B40F8043BAFF30080D20713
:1008D00024BF11F8013B11F801CB48BF11F8012BDF
:1008E00024BF00F8013B00F801CB48BF00F8012B02
:1008F0007047431A28BF9A427FF6B6AF032A1044C6
:10090000114440F2268010F0030F1EBF11F8013D84
:10091000521E00F8013D10F0030F7FF4F6AF11F006
:10092000030300F08783083AC0F00B8051F8043DC0
:10093000083A51F804CD40F8043D40F804CDFFF7E3
:10094000F3BF121D5CBF51F8043D40F8043DAFF306
:100950000080D20724BF11F8013D11F801CD48BF36
:1009600011F8012C24BF00F8013D00F801CD48BF6B
:1009700000F8012C704710B5203AC0F00B80B1E8A8
:100980001850203AA0E81850B1E81850A0E81850C4
:10099000BFF4F5AF5FEA027C24BFB1E81850A0E8CD
:1009A000185044BF18C918C0BDE810405FEA827CE7
:1009B00024BF51F8043B40F8043B08BF7047D207FE
:1009C00028BF31F8023B48BF11F8012B28BF20F89F
:1009D000023B48BF00F8012B70474FF0000204298A
:1009E000C0F0128010F0030C00F01B80CCF1040C5E
:1009F000BCF1020F18BF00F8012BA8BF20F8022B92
:100A0000A1EB0C0100F00DB85FEAC17C24BF00F837
:100A1000012B00F8012B48BF00F8012B70474FF065
:100A2000000200B5134694469646203922BFA0E83E
:100A30000C50A0E80C50B1F12001BFF4F7AF09074A
:100A400028BFA0E80C5048BF0CC05DF804EB89003B
:100A500028BF40F8042B08BF704748BF20F8022B7E
:100A600011F0804F18BF00F8012B70474FF0013C88
:100A700050F8042B51F8043B9A4221D1A2EB0C030D
:100A8000934313EACC1317D150F8042B51F8043BCD
:100A90009A4215D1A2EB0C03934313EACC130BD16A
:100AA00050F8042B51F8043B9A4209D1A2EB0C03F5
:100AB000934313EACC13DBD04FF00000704700BF24
:100AC000D01A01BAB1FA81F101F0180122FA01F04D
:100AD000CB40C1F12001DBB2C0B2C01A2CFA01F345
:100AE000D11A914311EAC311E6D17047704770479C
:100AF000704710B500F0CDFA006810BD10B504467F
:100B000000F0C7FA046010BD2DE9F0470D46994684
:100B10009246044600F124080168880604D5E0697D
:100B200021F01001216000E00120A84201DD471BF7
:100B300000E00027A1697A1902EB0900081AA061F8
:100B40002078C00602D42046FFF7CCFC002608E03F
:100B5000D4E901211AF806009047206A401C761C4F
:100B600020624E45F4DB2078C0060AD52046FFF708
:100B7000B9FC06E0D4E9012130209047206A401CEE
:100B80002062381EA7F10107F4DC07E0D4E9012157
:100B900018F805009047206A401C2062281EA5F125
:100BA0000105F3DC2046FFF7B3FC2078000602D5F0
:100BB0000220BDE8F0870120FBE770472DE9FF4FD9
:100BC0000C461E464FF0FF378BB0D2E90001DDF82E
:100BD00060800A908A46C1F30A5505B93D46002156
:100BE00008464FF00000BAF1000F00F4400005DAAB
:100BF00000EB80004FF4400101EA50004FEA9059A9
:100C0000B9F1010F00DDB9460A9850EA4A000ED04A
:100C100044F61050A5F2FF3545432F14B8F1000FEC
:100C20001ED07542291E1EDDC9F100021CE0B8F17C
:100C3000010F4FF0000001D0302103E0F24305E046
:100C40002154401CB042FBDB3046002200212154DD
:100C50000B99C1F80880C1E900200FB0BDE8F08F02
:100C6000BD1B6D1CDEE74A4600DA694206A800F0AB
:100C700097FA06AB93E8070003AB83E807005046FA
:100C80000A9900F027FB8DE80700A0F500501F38F7
:100C900000900398002D09DD42F21F014A460844E6
:100CA00003A90390684600F086FD08E0A0F5005017
:100CB0004A461F3803A90390684600F090FD8DE86E
:100CC00007000004000C03D04FF0FF30410800E0A3
:100CD0001046B8F1000F03D00022009215461EE026
:100CE000751E05D400F0D7F9303262556D1EF9D566
:100CF000B3460122084302D000227F1C04E0207882
:100D0000302801D100227F1E002A099786D01DE0DD
:100D1000112D07DA00F0BFF9303262556D1C50EA30
:100D20000102F5D1084302D00098C8B10EE00021BD
:100D3000681E05E0235C625C63542254401E491C1B
:100D40008142F7DBAB46A81B401E0990002004F847
:100D50000B000B98099AC0F80880C0E9002B7CE7CB
:100D600011264FF0000859E72DE9F04F8846044658
:100D7000D21D22F0070191B0D1E90001CDE90A01AD
:100D800010F073FF02460B98C00F01D02D2007E032
:100D90002068810701D52B2002E0202101EAC00054
:100DA000032A099001D0072A05DB03464146204665
:100DB00000F0B6F90BE12078800601D5E06900E08B
:100DC0000620B8F1650F814606D0B8F1660F18D03D
:100DD000B8F1670F70D131E00020B9F1110F009028
:100DE00001DB112301E009F101030AAA01A90CA802
:100DF000FFF7E4FEDDE90C70002609F101058346EA
:100E000047E001204B4600904FF000470AAA01A995
:100E10000CA8FFF7D3FEDDE90DB00C995D46002666
:100E200010B909F101000D18B9EB050003D4C0F1A8
:100E3000FF3609F10105A5EB09002BE0B9F1010F1F
:100E400001DA4FF001090020B9F1110F0090484676
:100E500001DD112300E003460AAA01A90CA8FFF74F
:100E6000ADFEDDE90C704D46002683462078000774
:100E70000AD4AB4500DA5D4601A8012D04DD411915
:100E800011F8011C302907D04F4502DA17F1040F81
:100E900004DA012082460FE06D1EEEE7002F02DC2F
:100EA000ED1B3E4403E0781CA84200DD7D1CB81B0E
:100EB00000F1010A4FF000472078000703D4AA454B
:100EC00001DB4FF0FF3A0021B7F1004F0DF143086D
:100ED0008DF8431024D002202B23002F01DA7F420B
:100EE0002D230A21021EA0F1010000DC5FB197FB57
:100EF000F1FC97FBF1F201FB1C7C17460CF1300C66
:100F000008F801CDEEE7A8F101000370218809057A
:100F100001D5452100E06521A0F1010800F8011C80
:100F200009980FA9A1EB0807FF1D00B10120411985
:100F300001EBEA70A1693844081A401EA0612078CC
:100F4000C00602D42046FFF7CDFA099828B1D4E9AB
:100F500001219047206A401C20622078C00622D5DB
:100F60002046FFF7BFFA1EE0002E04DBB34502DD8A
:100F700001A8805D00E03020D4E901219047206A7B
:100F8000401C2062761CAAF101005FEA000A0AD127
:100F900000F07AF8C0680168405CD4E9012190470C
:100FA000206A401C2062281EA5F10105DCDC07E058
:100FB000D4E9012118F8010B9047206A401C2062F7
:100FC000381EA7F10107F3DC2046FFF7A1FA032042
:100FD00011B043E601694A1C02610878704700B508
:100FE0008FB0CDE901310021059105497944CDE962
:100FF000031011466846FFF705FB0FB000BD000067
:10100000E5FFFFFF0A6802F8010B0A607047431A08
:1010100028BF9A427FF6AFAC104410F0030F114482
:101020001EBF11F8013D521E00F8013D10F0030FE4
:101030007FF4F6AF103AC0F00A8010B531E91850CD
:10104000103A20E91850BFF4F9AFBDE8104053073B
:1010500024BF31E9081020E9081044BF51F8043DCD
:1010600040F8043D12F0030F08BF7047D20728BFB5
:1010700031F8023D48BF11F8012C28BF20F8023D8D
:1010800048BF00F8012C704710B5FFF79BF92030DE
:1010900010BD10F073BE30B5B0F10A024FEA900EE9
:1010A00071F100034EEA817EB0EB0E0061EB91011D
:1010B0004FEA101E4EEA017E10EB0E0041EB1111BB
:1010C0004FEA102E4EEA016E10EB0E0041EB11219B
:1010D0004FEA104E4EEA014E10EB0E0041EB11416B
:1010E000401841F100014FEAD00040EA41704FEA58
:1010F000D10110EB80054FEA810444EA907444EB7F
:1011000001046D1944EB0404521BA3414FF000038A
:1011100048BF0A3200D530BD401C41F1000130BD4E
:101120002DE9F0411F46044603260168072A01F411
:10113000006004DB08B116A505E016A503E008B1C0
:1011400015A500E015A521F010002060A069C01EC3
:10115000A0610FB1401EA0612046FFF7C3F94FB157
:10116000D4E9012138469047206A401C2062C01C07
:10117000206206E0206AFAE7D4E9012115F8010BA4
:101180009047761EF8D22046FFF7C2F9BDE8F081FD
:101190004E414E006E616E00494E4600696E66001B
:1011A0002DE9F047814616468AB0334878440DC889
:1011B0008DE80D0030487844801C03AC0DC884E8ED
:1011C0000D0041F69B300844372190FBF1F290FB73
:1011D000F1F5A5F1800501FB12041B3C02D5644228
:1011E000012000E00020DFF890A080460027FA44AC
:1011F000AAF1BE0A0DE0E00709D03246684607EBC7
:1012000047010AEB810100F0EAFA8DE8070064105B
:101210007F1C002CEFD1184F7F44AC3F18E0E8074B
:1012200014D007EB04100DF1180A90E80E008AE8BC
:101230000E00C068F04201D198190890324606A904
:1012400003A800F0CCFA03AB83E807006D10641C20
:10125000002DE4D132466946B8F1000F03A802D050
:1012600000F0A9FA01E000F0BAFAC9E90001C9F8F2
:1012700008200AB0BDE8F0873CAF01000149182002
:10128000ABBEFEE7260002007546FFF79BF8AE46B0
:1012900005006946534620F00700854618B020B582
:1012A000FFF77EF8BDE820404FF000064FF0000742
:1012B0004FF000084FF0000B21F00701AC46ACE8FE
:1012C000C009ACE8C009ACE8C009ACE8C0098D466B
:1012D000704770475FEA400C08BF91F0000F4FEA7B
:1012E0008C234FEAC12243EA51514FEA1C5018BFE8
:1012F00000F5F0404FEA300018BF41F000415FEACE
:101300006C5C00F02980BCF1FF3F08BF40F08040DA
:101310007047130C06BF12044FF0100C4FF0000C76
:10132000130E04BF12020CF1080C130F04BF1201BC
:101330000CF1040C930F04BF92000CF1020CD30FBC
:1013400004BF52000CF1010C11464FF00002A0F155
:101350001F00A0EB0C00704711F0004F08BF704752
:1013600031F000413FF4D5AF0B0C06BF09044FF03C
:10137000100C4FF0000C0B0E04BF09020CF1080C0E
:101380000B0F04BF09010CF1040C8B0F04BF890083
:101390000CF1020CCB0F04BF49000CF1010CCCF195
:1013A0002003A0EB0C0022FA03F302FA0CF241EA4C
:1013B000030100F10100704720F07F4C80EA030038
:1013C00023F07F47ACEB070303F57C5300F00040AC
:1013D00003F1FF032DE980494FEA154B09B44FEAA9
:1013E000144325EA0B4E24EA03480FF2042606EBC9
:1013F000132749083E785FEA320203FB0667C7F508
:10140000000707FB06F64FEA54374FEAD64606F1C7
:10141000020607FB066CCCF1005C4FEA1C472CEA85
:10142000074C07FB06F40CFB06F504EB15464FEAE8
:10143000961634BF00204FF000404FEAD13706FB2C
:1014400007FC4FEA1C4C0CFB0BF7D21B03FB0CF701
:1014500061EB07010CFB0EF7B0EB074072EB174294
:101460000CFB08F734BFA2EB0742B2EB074261EB7B
:1014700017414FEA0C444FEA910706FB07FC4FEA7D
:101480001C4C0CFB0BF7B0EBC74072EB573203FB65
:101490000CF734BFA2EBC742B2EBC74261EB573146
:1014A0000CFB0EF7B0EBC70072EB57720CFB08F7A2
:1014B00034BFA2EBC702B2EBC70261EB5771039FC7
:1014C0004FEA816141EA921104EBCC044FEAD13733
:1014D0004FEA826206FB07FC42EA90124FEA806004
:1014E0004FEA1C4C0CFB0BF7D21B03FB0CF761EB18
:1014F00007010CFB0EF7B0EB074072EB17420CFB39
:1015000008F734BFA2EB0742B2EB074261EB174189
:101510004FEA8C554FEA910704EB9C2406FB07FC2D
:101520004FEA1C4C0CFB0BF7B0EBC74072EB573289
:1015300003FB0CF734BFA2EBC742B2EBC74261EB2F
:1015400057310CFB0EF7B0EBC70072EB57720CFB78
:1015500008F734BFA2EBC702B2EBC70261EB5771C9
:1015600015EB4C254FEA816141EA92114FEA826204
:101570004FEAD13742EA901206FB07FC44F100041F
:101580004FEA80604FEA1C4C0CFB0BF7D21B03FBAD
:101590000CF761EB07010CFB0EF7B0EB074072EBA9
:1015A00017420CFB08F734BFA2EB0742B2EB07422D
:1015B00061EB174115EB1C154FEA813141EA92416D
:1015C0004FEA823242EA90424FEA80304FEA0C768C
:1015D00044F1000448EA03434EEA0B484FF0000E82
:1015E000B2EB080C71EB030724BF624639464EEBA1
:1015F0000E0E4FF0000B0018524149414BEB0B0B04
:10160000B2EB080C71EB03077BF1000B24BF6246C1
:1016100039464EEB0E0E4FF0000B00185241494177
:101620004BEB0B0BB2EB080C71EB03077BF1000BE0
:1016300024BF624639464EEB0E0E51EA020718BF30
:1016400046F0010616EB0E7655F1000254F100014A
:1016500003D5BDE88901BDE80088BDE88901BDE882
:101660000048B619524141EB0101A3F10103704753
:1016700080807F7E7D7C7B7A7978777676757473CF
:10168000727171706F6E6E6D6C6C6B6A6A6968688E
:10169000676666656464636362616160605F5F5E24
:1016A0005E5D5D5C5C5B5B5A5A595958585757569A
:1016B00056555555545453535252525151505050FF
:1016C0004F4F4F4E4E4D4D4D4C4C4C4B4B4B4A4A51
:1016D0004A49494948484847474747464646454595
:1016E00045444444444343434342424242414141CE
:1016F000002B26D4770021D01CB54FEA370703B45E
:101700004FF010004FF010014FF000000FBCBDE88B
:1017100010400BF1010BBBF1010F08BF5FEA170787
:1017200022BF12F1010211F101014FF0004143F11A
:10173000000300F0004043EA00007047F9D3570867
:10174000DAE746EA064613F1400F4FEA16461FDD78
:1017500013F1200FDFBF16430A46002120335B42FE
:10176000C8D0C3F1200746EA064602FA07F74FEA57
:10177000164646EA0706C3F1200722FA03F201FAE9
:1017800007F721FA03F14FF0000342EA0702B1E73D
:1017900046EA020646EA06464FEA164646EA0106C9
:1017A000BCBF46EA0646360C4FF000034FF000027D
:1017B0004FF000019EE72DE9C048934630B491E810
:1017C000380007C831EA400C48BF34EA430C03D55F
:1017D000FFF7F2FDFFF78CFFF0BCBDE800882DE9B4
:1017E000C048934630B491E8380007C810F0804FE5
:1017F00008BF13F0804F03D100F005F8FFF778FF22
:10180000F0BCBDE8008820F07F4780EA030023F0A9
:101810007F4C07EB0C03A3F57C5300F00040A3F1D1
:10182000FE0392F0000F00F0B38095F0000F00F07F
:1018300077802DE901494FEA11404FEA144621EA29
:10184000004800FB06FC24EA064708FB06F607FBF7
:1018500008F800FB07F718EB06484CEB164C4FEA6C
:10186000124B18EB07484FEA15464CEB174022EA9B
:101870000B4E0BFB06FC25EA06470EFB06F607FBA4
:101880000EFE0BFB07F71EEB064E4CEB164C4FF013
:1018900000061EEB074E4CEB174B18EB0B0840F104
:1018A000000018EB0E0B58EB000840F100008F1AF7
:1018B0004FF000013CBFC943661B14BFB5EB040CDD
:1018C00000213CBFC943F61B4FEA17444EEA8E0E77
:1018D00027EA04454FEA1C4704FB07622CEA074C41
:1018E00005FB07F70CFB05F604FB0CFC16EB0746A3
:1018F00042EB174216EB0C4642EB1C421BEB060672
:1019000058EB0202414146EA9E0601D5BDE8018935
:10191000B619524141EB0101A3F10103BDE8018970
:101920004FEA14454FEA114724EA054621EA074CDD
:1019300005FB07F406FB07F70CFB06F105FB0CFCA7
:1019400011EB074144EB17444FEA124711EB0C41EE
:1019500044EB1C4422EA074C05FB07F206FB07F7A1
:101960000CFB06F605FB0CFC16EB074642EB174298
:1019700016EB0C4642EB1C456A1854F1000148BFB7
:101980007047B619524141EB0101A3F101037047C1
:1019900095F0000F37D04FEA11424FEA144721EA81
:1019A000024624EA074C02FB07F106FB07F70CFB93
:1019B00006F402FB0CFC14EB074441EB17414FEA21
:1019C000154714EB0C4441EB1C4125EA074C02FB84
:1019D00007F506FB07F70CFB06F602FB0CFC16EB03
:1019E000074645EB174516EB0C4645EB1C42121912
:1019F00051F1000148BF7047B619524141EB010156
:101A0000A3F1010370474FEA14454FEA114724EA56
:101A1000054621EA074C05FB07F106FB07F70CFB1F
:101A200006F24FF0000605FB0CFC12EB074241EBFF
:101A3000174112EB0C4251EB1C4148BF7047921802
:101A400041EB0101A3F10103704700000000000019
:101A5000002904D0816841F00101816070478168EC
:101A600021F001018160704710B5154988420AD103
:101A700044150121204609F091FC2046BDE81040A4
:101A8000002109F08BBC0F4988420AD104150121BD
:101A9000204609F083FC2046BDE81040002109F0F3
:101AA0007DBC094988420AD10121CC03204609F0B6
:101AB00075FC2046BDE81040002109F06FBC10BD48
:101AC0000024014000280140003C01400146002064
:101AD0008968490700D501207047C06C80B2704703
:101AE0000246002012680A4200D0012070470146D9
:101AF00000208968090700D50120704710B54268A9
:101B00000E4B1A400C790B6842EA042213434360DF
:101B100082680B4B1A40D1E9024323434C7942EAD5
:101B2000440213438360C26A22F47002097C491E96
:101B3000C9B242EA0151C16210BD0000FFFEF0FFD0
:101B4000FDF7F1FF70B5072609290AD9C568A1F18B
:101B50000A0404EB4404A640B543A3401D43C560FA
:101B600007E0056901EB4104A640B543A3401D43CE
:101B700005611F23072A09D2446B521E02EB820221
:101B800093409C4391400C43446370BD0D2A09D29D
:101B9000046BD21F02EB820293409C4391400C43A2
:101BA000046370BDC46A0D3A02EB820293409C4309
:101BB00091400C43C46270BD816841F008018160AE
:101BC0007047002904D0816841F4A001816070470A
:101BD000816821F4A00181607047816841F00401AF
:101BE0008160704730B587B001214FF4047009F06F
:101BF000C7FB4FF4004009F08FFB3F20ADF8040015
:101C000000248DF8074001A9164801F0F3F9164D9C
:101C10002846FFF729FF02948DF80C408DF80D40FF
:101C20004FF460210491059401218DF8181002A948
:101C30002846FFF763FF01212846FFF709FF2846E2
:101C4000FFF7BAFF2846FFF752FF0028FAD12846CF
:101C5000FFF7C3FF2846FFF739FF0028FAD107B086
:101C600030BD0000001001400024014038B50121C2
:101C7000102009F085FB2020ADF8000010208DF821
:101C8000030003208DF80200044C6946204601F051
:101C9000B1F92021204601F0ECFA38BD00100140D6
:101CA00010B514F04FFC00220A4B13F01FFF0A4A34
:101CB0000A4B11F081FC0022094B14F067FA002254
:101CC000084B14F02FF9BDE810400022064B14F029
:101CD00029B90000D0BCF8406C45D9CC955BC83F11
:101CE0000000F03F40A5E5400000594010B500213C
:101CF000024811F0CBFB0249486210BD58A601080A
:101D0000080100208CB0DFF88080DFF880A0DFF8C9
:101D100080B0DFF8809010F055F9D8F81C00FFF77C
:101D2000BFFF13F0F5FD514614F09AFCC8F82000EF
:101D300014F008FC04460D465946D8F8180014F073
:101D40008FFC14F0FFFB06460F461349D8F81C0021
:101D500014F086FC14F0F6FB02460B460F4904A86B
:101D6000CDE90067CDE90245FEF7A8FB04A8FEF720
:101D700050FD0146D9F8142004A890474FF47A701A
:101D800011F0EAFAC7E70000080100200000C8428D
:101D9000000020413CA9010800007A4420C101084C
:101DA00010B500F051F8AA2008F0E4FE154C208090
:101DB000AC2008F0DFFE6080AE2008F0DBFEA080E3
:101DC000B02008F0D7FEE080B22008F0D3FE2081DA
:101DD000B42008F0CFFE6081B62008F0CBFEA081D1
:101DE000B82008F0C7FEE081BA2008F0C3FE2082C8
:101DF000BC2008F0BFFE6082BE2008F0BBFEA082BF
:101E000010BD00000801002070B50C4C00252560B5
:101E10000B48016821F470210160016841F44031F0
:101E2000016008480560022010F006FC01202060D7
:101E3000022010F001FC256070BD000084012242E8
:101E4000000801409001214238B50121142009F019
:101E500097FA1024ADF800408DF8034003258DF863
:101E6000025069460A4801F0C5F80220ADF80000AA
:101E70008DF803408DF802506946064801F0BAF823
:101E80000549012008600549C1F8900138BD0000EE
:101E9000000801400010014084012242000021425C
:101EA00070B50C4C002525600B48016821F47021A9
:101EB0000160016841F44031016008480126066074
:101EC000022010F0B9FB2660022010F0B5FB25605F
:101ED00070BD0000840122420008014090012142AF
:101EE0002DE9F047824600241748016821F470214B
:101EF0000160016841F4002101600025134EDFF804
:101F0000509000274FF00108C6F88471022010F0AD
:101F100093FBC6F884816006040ED9F8100108B15D
:101F2000641CE4B2012010F087FB6D1CEDB2082D9B
:101F3000EAD3BAF1000F04D0FFF766FF2046BDE8F0
:101F4000F087FFF7ADFFF9E70008014000002242EB
:101F5000000021422DE9F04705461548016821F4AB
:101F600070210160016841F440310160114E4FF071
:101F70000008C6F884810024DFF83C900127E809B6
:101F8000C9F890016806050E022010F055FBC6F84E
:101F90008471022010F050FBC6F88481022010F0FA
:101FA0004BFB641CE4B2082CE9D3BDE8F0870000C9
:101FB00000080140000022420000214270B50C4898
:101FC000016821F470210160016841F44031016031
:101FD000084D01202860084E3060042010F02CFBD2
:101FE00000242C60042010F027FB346070BD00003A
:101FF00000080140900121428401224270B50C4842
:10200000016821F470210160016841F440310160F0
:10201000084D00202860084C2060042010F00CFBC4
:10202000012028602060BDE87040042010F004BB4F
:102030000008014084012242900121422DE9F04133
:1020400000241348016821F470210160016841F403
:10205000002101600F4D0127C5F89071012010F09B
:10206000EBFA0D4EC6F88471012010F0E5FA08E095
:10207000641CE4B2FA2C04D9FFF7C0FF0120BDE8CC
:10208000F081D5F810010028F2D1C6F88401F6E7F6
:1020900000080140000021420000224210B510F06B
:1020A0003BF813F0EDFA0AF0AFF90AF0EBF90AF099
:1020B0007FFA0AF0D3FA10F073FDFFF7D7FD03F0B3
:1020C0006FF811F02FF90248006BBDE8104000478F
:1020D0005800002010B50AF055F90AF0F7FA10F090
:1020E0008DFD03F0B7F90248006BBDE810400047D2
:1020F0000000002070B50546094C00222021204632
:1021000001F0B9F8284611F027F9012220212046D4
:1021100001F0B1F82846BDE8704011F01DB900008B
:1021200000100140FEE700002DE9F0412B48417806
:102130002B48022910D0202101602948083004686A
:10214000061F3568254F04F0040005F4806108433C
:10215000A7F1080718D01FE00168CB061F49A1F1BD
:1021600004010A6807D510210160002AE5D0062184
:1021700001209047E1E700688007DED0002ADCD02C
:10218000022101209047D8E7306840F48060306039
:10219000396809B10320884704F0020005F4007192
:1021A000084307D1306840F400703060396809B1E5
:1021B0000120884704F0010005F4807108430BD129
:1021C000C4F307405F2807D25F20B0EB146F03D140
:1021D000306840F480703060BDE8F0812C0200204F
:1021E0001064004030B418480168002929D017480D
:1021F0000068164B1B1F1A68144D0424143D2C60F4
:10220000440708D5540506D5186820F48060186086
:1022100030BC04200847840708D5940506D5186803
:1022200020F40070186030BC03200847C00708D0B5
:10223000D00506D5186820F48070186030BC0220E4
:10224000084730BC7047000024020020186400409A
:1022500070B505460C46284609F090F920EA0401BD
:102260002846BDE870400CF0EBBA000008B501212B
:10227000102009F085F84FF40070ADF8000003203D
:102280008DF8020010208DF803006946014800F027
:10229000B1FE08BD0010014010B50021074811F043
:1022A000F5F80749C8600548064A0121083811F0C9
:1022B00021F9BDE81040022111F032B950A80108FF
:1022C000FC010020C922000810B5094C0120206043
:1022D00011F042F800202060012011F03DF805487F
:1022E0004178002902D08168491C816010BD00003E
:1022F000BC012342FC0100201B4C0125002002F000
:1023000071FC032804D0042808D005280DD012E061
:102310002570A5705020FFF7EDFE0CE00220207024
:10232000A5705020FFF7E6FE05E003202070A570A1
:102330005020FFF7DFFEE078012804D10020E07094
:102340005020FFF7D7FE2078012806D0022807D0BA
:102350000328D3D110F0F8F8D0E710F0AFF8CDE7AC
:1023600010F066F8CAE70000FC01002010B5FFF786
:102370007DFCBDE8104002F03FBB00002DE9F35F9B
:1023800006460025DFF808914FF0010AC9F8ACA114
:10239000AB46002409F06CF8019838B301283BD013
:1023A00002284FD0002704EBC508C7F1070006EB51
:1023B000001010F8080009F04FFA7F1CFFB2082F38
:1023C000F3D308F097FC04EBC500401CC0B209F041
:1023D00058F8142010F030F9641CE4B2082CD9D35A
:1023E0006D1CEDB2022DD4D3BDE8FC9FC9F884A1C9
:1023F000C9F89CB1002704EBC508C7F1070006EB3C
:10240000001010F8080009F027FA7F1CFFB2082F0F
:10241000F3D308F06FFCD6E7C9F884B1C9F89CA1E2
:10242000002704EBC508C7F1070006EB001010F801
:10243000080009F0EFF97F1CFFB2082FF3D308F072
:1024400049FCC0E7C9F884A1C9F89CA1002704EBA6
:10245000C508C7F1070006EB001010F8080009F0E6
:10246000FBF97F1CFFB2082FF3D30027C7F1070049
:1024700006EB001010F8080009F0CCF97F1CFFB241
:10248000082FF3D308F036FC08F024FC9BE700008B
:10249000008022422DE9F04706460025264801210A
:1024A00081620022026081610024A81C06EB0018F2
:1024B000281D06EB0019A81D06EB051706EB001AF0
:1024C00008F0D6FF0AEB4400407809F0A3F91AF8A7
:1024D000140009F09FF909EB4400407809F09AF9DB
:1024E00019F8140009F096F908EB4400407809F057
:1024F00091F918F8140009F08DF907EB44004078C1
:1025000009F088F917F8140009F084F908F0E2FBE3
:1025100004EBC500401CC0B208F0B3FF142010F05B
:102520008BF8641CE4B2082CCAD36D1CEDB2022DEA
:10253000BAD3BDE8F0870000848122422DE9F0473C
:102540000646002526480121816201600021816143
:102550000024A81C06EB0018281D06EB0019A81D76
:1025600006EB051706EB001A08F082FF0AEB4400A1
:10257000407809F071F91AF8140009F06DF909EBC7
:102580004400407809F068F919F8140009F064F97A
:1025900008EB4400407809F05FF918F8140009F0DE
:1025A0005BF907EB4400407809F056F917F814007E
:1025B00009F052F908F09EFB04EBC500401CC0B2C4
:1025C00008F05FFF142010F037F8641CE4B2082C08
:1025D000CAD36D1CEDB2022DBAD3BDE8F08700005E
:1025E000848122422DE9FE4F824600253849012090
:1025F0008862086088610024A81C0AEB0017281D67
:102600000AEB0018A81D0AEB05160AEB001908F0E2
:102610002FFF09EB44000290407809F01DF919F8EA
:10262000140009F019F908EB44000190407809F012
:1026300013F918F8140009F00FF907EB440B9BF895
:10264000010009F009F917F8140009F005F906EB83
:1026500044000090407809F0FFF816F8140009F0E3
:10266000FBF80298407809F0D5F819F8140009F041
:10267000D1F80198407809F0CDF818F8140009F065
:10268000C9F89BF8010009F0C5F817F8140009F023
:10269000C1F80098407809F0BDF816F8140009F068
:1026A000B9F808F027FB08F015FB04EBC500401C47
:1026B000C0B208F0E6FE14200FF0BEFF641CE4B2C6
:1026C000082CA4D36D1CEDB2022D94D3BDE8FE8F6F
:1026D000848122422DE9FF4F89B00746DDF85880FA
:1026E0001646202101A8FEF79AF90024DFF890A1F0
:1026F0004FF0010B07EB44110AEB44101022FEF7D8
:10270000B3F80BEB440007EB00110AEB00101022AA
:10271000FEF7AAF8641CA4B2042CEBD30425B8F18C
:10272000000F0DD0B8F1010F0ED0B8F1020F0FD08D
:102730005348FFF703FF002E79D10DB0BDE8F08FAD
:102740004F48FFF7FBFEF6E74D48FFF7A3FEF2E721
:102750004B48FFF747FFEEE707EB4511102201A8B2
:10276000FEF782F80BEB450007EB0011102205A8DD
:10277000FEF77AF80026002000210AEB011212F879
:1027800010304FEA430C02EB40035C784CEAD41C57
:1027900002F810C062005A708C1C0AEB041414F882
:1027A000104042EAD4125A70491C89B20629E4D377
:1027B0000AEB400111F8602F53004A7843EAD21324
:1027C0000B70530001AC14F8102043EAD2134B7085
:1027D000530004F8103004EB400292F801C043EAC1
:1027E000DC1304F810304FEA4C0353700B7C5C0090
:1027F0004B7C44EAD3140C745C00137C44EAD3147D
:102800004C7459001174537C41EAD311117459006E
:102810005174401C80B20828AED31A48407800F0AA
:102820000F01C1F11008C0F3411900240EE015E0BA
:10283000B9F1000F17D0B9F1010F18D0B9F1020F9B
:1028400019D00F48FFF77AFE641CA4B24445EFD3B9
:10285000761CB6B2102E8ED36D1CADB20A9885428E
:10286000FFF47AAF69E70648FFF768FEECE7044833
:10287000FFF710FEE8E70248FFF7B4FEE4E70000C8
:10288000DA040020E400002008B50121102008F03F
:1028900077FD4FF48050ADF8000048208DF803001C
:1028A00003208DF802006946014800F0A3FB08BD33
:1028B000001001407047000010B50449086800F09E
:1028C0000F004860FFF7F6FF10BD00000000024057
:1028D0007047000010B504490868C0F303100201F6
:1028E0004A60FFF7F5FF10BD00000240704700008E
:1028F00010B504490868C0F3032002024A60FFF7DC
:10290000F5FF10BD000002407047000010B50449FB
:102910000868C0F3033002034A60FFF7F5FF10BDFB
:10292000000002407047000010B504490868C0F379
:10293000034002044A60FFF7F5FF10BD00000240AB
:102940007047000010B504490868C0F30350020541
:102950004A60FFF7F5FF10BD00000240704700001D
:1029600010B504490868C0F3036002064A60FFF727
:10297000F5FF10BD000002407047000010B505488B
:10298000006800F00F000349091D0860FFF7F4FF1D
:1029900010BD0000000402407047000010B505485B
:1029A0000068C0F30310034A0101121D1160FFF714
:1029B000F3FF10BD000402407047000010B5054849
:1029C0000068C0F30320034A0102121D1160FFF7E3
:1029D000F3FF10BD0004024070B50A4C2068C0F33C
:1029E0000330251D002803D00103296000F00CF8F6
:1029F0002068C0F30340002803D00104296000F0E0
:102A000004F870BD000402407047704770B50024A0
:102A1000104D04E0641CE4B201200FF00DFED5F867
:102A2000380108B1C82CF5D3C82C01D3012070BDE2
:102A3000002404E0641CE4B201200FF0FDFDD5F891
:102A4000380108B9F02CF5D3F02C01D3012070BD6A
:102A5000002070BD0080224270B500F09BF800F0AD
:102A600087F8FFF7D3FFCC2000F0A2F8BE2000F0DB
:102A70009FF800F06DF8044600F06AF8072805D9C1
:102A8000C043C0B2E143CCB2002500E00125000202
:102A9000204400B213F0DFF900220E4B13F042FA8B
:102AA00013F07CF900B20C4C4DB113F0D4F90022B4
:102AB000234613F01BF8BDE8704012F029BF4042D6
:102AC00013F0C9F90022234613F010F8BDE8704056
:102AD00012F01EBF0000E43F0000244008B50121B1
:102AE000202008F04DFC4FF48040ADF8000003209A
:102AF0008DF8020014208DF803006946054800F0A7
:102B000079FA05490120086000F032F8FFF77EFFEE
:102B100008BD000000140140B881224210B50B4CE2
:102B20000020206002200FF087FD012020600C2093
:102B30000FF082FD54F8800C08B1012400E000245D
:102B400032200FF079FD204610BD0000B8812242EE
:102B500070B500250124FFF7E1FFC00140EA5500F0
:102B6000C5B2641CE4B2082CF5D9284670BD00003B
:102B700010B5074C0020206040F2EE200FF05CFD05
:102B800001202060BDE810400F200FF055BD00006F
:102B9000B881224210B5FFF7EBFFFFF737FFCC20DB
:102BA00000F006F8BDE81040442000F001B8000035
:102BB0002DE9F04105460124104E0027A04605F0FE
:102BC00001006D0850B1C6F8B87102200FF034FD55
:102BD000C6F8B8813C200FF02FFD09E0C6F8B871A7
:102BE0003C200FF029FDC6F8B88102200FF024FD2B
:102BF000641CE4B2082CE2D9BDE8F08100802242D6
:102C00007047401E411CFCD1704700002DE9F74F72
:102C100084B0044617462046FDF7FBFD00F0FF0890
:102C2000DFF8D8B0DFF8D890B8F1090F1CD2002631
:102C3000DA4614E014F8010B10220AEB001109EB3C
:102C40000610FDF711FE002505E02D480599FFF758
:102C500095FB6D1CEDB2BD42F7D3761CF6B246452E
:102C6000E8D307B0BDE8F08F002644E014F8011B5C
:102C700010220BEB01116846FDF7F6FD0025002040
:102C80000021421C09EB021C09EB0013585C4000B8
:102C900058541CF801A040EADA105854491CC9B233
:102CA0001029F3D3D0B20728EAD30020EC4609EB71
:102CB000000212F8701F4B001CF8001043EAD113F9
:102CC000137049000CF80010401CC0B21028EED35D
:102CD0004FF0000A07E00A480599FFF74FFB0AF199
:102CE000010A0AF0FF0ABA45F5D36D1CEDB2082DB2
:102CF000C5D3761CF6B24645B8D3B2E7389E010874
:102D0000DA04002010B54FF48054204600F022F879
:102D1000002809D008F096F9204600F007F8204670
:102D2000BDE8104000F008B810BD0000014908607F
:102D3000704700001404014001490860704700001A
:102D40001404014002490A6802430A607047000007
:102D50001004014001460020054A12680A40044B55
:102D600014331B680B4202D0002A00D001207047A8
:102D70000004014030B51B4A83790168002B2AD03A
:102D800013688B431360111D0B680468A3430B6029
:102D9000017911440B68046823430B60114C08341B
:102DA0002168036899432160231D19680568A943B8
:102DB00019604179102905D011440A68006802435E
:102DC0000A6030BD216802681143216019680068FB
:102DD0000143196030BD0079104402688A430260E3
:102DE00030BD0000000401408000A0F1C040002977
:102DF00004D0016841F00101016070470168024A96
:102E00001140016070470000FEFF0F0010B5D0E9CF
:102E100001121143D0E903231A43114342691143BC
:102E200082691143C2691143026A1143426A114324
:102E3000826A1143C26A1143026B11430268920015
:102E4000A2F1C04211608168082907D10168890098
:102E5000A1F1C0410A6842F040020A60416BD1E929
:102E6000002342EA03128B688C891B0243EA044365
:102E70001A430B8A42EA03520B7D896942EA0362D4
:102E80000A430168491C8900A1F1C0410A60C16A76
:102E9000B1F5804F08D000686FF070418000A0F15C
:102EA000C040C0F8041110BD816BD1E9002342EA93
:102EB00003128B680C8A1B0243EA04531A430B7DEE
:102EC000896942EA036200680A438000A0F1C040B9
:102ED000C0F8042110BD000018B500281ED0174905
:102EE0008A69D20703D18A6942F001028A61C40467
:102EF000C0F3421100F01F02114BC0F3032001FA8E
:102F000002F100FA02F00AD5DA690092009A8A43C7
:102F100000920099084300900098D86118BD5A6843
:102F20000092009A8A43009200990843009000980A
:102F300020F0E06000900098586018BD001002403A
:102F40000000014010B58A07120F0F23934021F0B3
:102F50000304054921448C689C438C608B68904035
:102F600003438B6010BD000000000140194A1A495C
:102F7000904203D18869C0F380007047174A90429D
:102F800003D18869C0F3C0007047154A904203D14D
:102F90008869C0F300107047124A904203D18869D3
:102FA000C0F340107047104A904203D18869C0F3C3
:102FB000801070470D4A904203D18869C0F3C01059
:102FC00070470B4A904203D18869C0F300207047D4
:102FD000002070470008014000100240000C014032
:102FE000001001400014014000180140001C014085
:102FF000002001402DE9F0410022CC7804F00F03BD
:10300000E40601D58C7823430C784FF00F0714F0B9
:10301000FF0F4FF0010C1CD005680CFA02F40E886B
:103020002640A64211D1960007FA06F825EA0805BF
:1030300003FA06F848EA0505CE78282E02D0482E75
:1030400002D002E0446100E00461521C082AE4D38B
:1030500005600A88FF2A1ED94568002202F1080689
:103060000CFA06F40E882640A64210D1960007FA04
:1030700006F825EA080503FA06F848EA0505CE78B9
:10308000282E00D14461CE78482E00D10461521C14
:10309000082AE3D34560BDE8F081F0B504460D464B
:1030A00016461F460F2D01D90020F0BD2046FFF720
:1030B0005DFF18B90121204600F050F877B90120D2
:1030C000A840022E02D0032E04D007E0E16881431D
:1030D000E16003E00226E1680143E160082D01D3CD
:1030E000083D241D2168A8000F22824091432160E1
:1030F00047EA860181402068014321600120F0BD3C
:10310000F0B5154C002801DAE36900E06368C0F30C
:103110000346420D120185B2C0F301579540032FBB
:1031200007D0C2020CD50322B240934343F0706231
:1031300009E023F07062636823F07063636002E06B
:10314000AB4343F0706201B12A43002801DAE26127
:10315000F0BD6260F0BD0000000001402DE9F041CB
:10316000374A384CDFF8E080384B394E394FDFF8BA
:10317000E8C03A4D002931D0A84205D1906940F00D
:1031800004009061BDE8F081A04204D1906940F054
:1031900008009061F6E7404504D1906940F01000C6
:1031A0009061EFE7984204D1906940F0200090616F
:1031B000E8E7B04204D1906940F040009061E1E757
:1031C000B84204D1906940F080009061DAE7604530
:1031D000D8D1906940F480709061D3E7A84204D1BF
:1031E000906920F004009061CCE7A04204D190697E
:1031F00020F008009061C5E7404504D1906920F0B7
:1032000010009061BEE7984204D1906920F0200040
:103210009061B7E7B04204D1906920F0400090611E
:10322000B0E7B84204D1906920F080009061A9E72E
:103230006045A7D1906920F480709061A2E70000FA
:1032400000100240000C0140001001400014014039
:1032500000180140001C014000200140000801400E
:103260000246002092680A4200D001207047416166
:10327000704701617047002A01D0016170474161C8
:10328000704700002DE9F04FDFF828B191B04FF002
:10329000FF35DBF80030B3F922100691DE69B3F98F
:1032A00024A0F469A189814206D8E289824203D32D
:1032B000471AD4F8008012E0D4E90181002970D0C7
:1032C0000A8882426DD84D8885426AD3801A82B2BC
:1032D000486800EB8200B0F90070B0F90250781C29
:1032E0005FD0307EA27C014600FB02F9207CCDE954
:1032F0000710B3F92A60304606F002FDC0B20E9006
:10330000DBF8001007FB0980A37C8A6B0127CDE95D
:103310000402CDE90273C869089AC17E807ECDE9B6
:103320000001DDE90603514606F0A4F9681C18D037
:1033300046F0020006F0E4FCDBF80000A37C05FB8D
:103340000981826BCDE90273CDE90412C069089A44
:10335000C17E807ECDE90001DDE90603514606F01D
:1033600089F9DBF800005D46C069417E007E81423C
:1033700014D9022E12D086F0040006F0C1FC286891
:10338000C069027EC37E857E02FB03A1437E089A4C
:103390000698534402FB050206F0CEFA0E9806F09A
:1033A000AFFCDBF80000627C418C1144418411B019
:1033B000BDE8F08F7002002004480068C069C06951
:1033C00009B1027C0A60407C704700007002002056
:1033D000022008807047C06982898A4202D8C28967
:1033E0008A4210D2806880B102888A420DD8438810
:1033F0008B420AD3406800EB8100A0EB8200B0F959
:103400000000002801DB0120704700207047000009
:103410002DE9F0432F4C034687B020681946B0F9D8
:103420002A80C069C06900F082F800284ED0416847
:103430000088181A01EBC0054046AE7806F060FC23
:10344000814620686A680123816BCDE90236CDE9A7
:103450000421C169CB7E8A7ECDE900230B7EB0F9C1
:1034600024102A78B0F9220006F004F92068C06917
:10347000477E067EB7421DD9C07E47434643B8F11A
:10348000020F17D000F02AFC804600F0F5FB00F098
:103490006CFE21682A78CB69B1F92200B1F92410B9
:1034A000DB7E02FB0302CB19314406F045FA4046AD
:1034B00000F05BFE484606F023FC20686A78C3698A
:1034C000B0F922109B7E02FB0311418407B0BDE8D6
:1034D000F08300007002002030B50E4C05460B460C
:1034E00020682946C069C06900F021F8002810D082
:1034F0004168008824682A1A0120E46900EBC200B0
:10350000085CA47E6043002B03D011F832106143A5
:10351000196030BD7002002001200880704700B59E
:10352000C06900F004F8002800D0012000BD06E0CA
:1035300002888A4202D842888A4202D280680028E1
:10354000F6D170472DE9F0410025154E154C18E0D5
:103550002069C5EB051700EBC7007022001D31681C
:10356000FDF709FA2069002140F8371000EBC70089
:1035700000F10C018161011D0A1DC0E90F126D1CD3
:103580004164A0688542E3DB0DF0AAF92169C0EB34
:10359000001001EBC000001D3060BDE8F0810000AC
:1035A000700200209803002070B50F490D48086094
:1035B000084601F04DF90C4C143CA068C0EB00101B
:1035C000C500284600F06AF82A460021206101F073
:1035D00047F94FF0FF30206000F08CFEBDE87040EE
:1035E0000DF07EB9110F0108AC03002010B50400E6
:1035F00009D000F0F7FB20460BF082F9044600F0FA
:1036000059FE204610BD002010BD38B5054600F01B
:10361000E9FB2846FFF7EAFF040009D000F096F81E
:103620002A460021009001F01BF9684600F0AAF834
:1036300000F040FE204638BD024A106021F0030031
:103640005060704710AC002010B5040016D000F098
:10365000C9FB0B48406B10F8341059B1022909D24C
:10366000042101EBC401415848680BF001F92046E0
:103670000DF082FCBDE8104000F01CBE10BD000043
:1036800050AB0020002805D0034AD16B016001B186
:103690004860D0637047000050AB00202DE9F04136
:1036A00004460DF0D7FA2848E41C24F00305016C09
:1036B0002D1DA94200D90D46C46B13E054F8042C0B
:1036C000AA420ED184B1216809B162684A6061687A
:1036D00009B122680A60C26BA24231D12168C1637C
:1036E0002EE02468002CE9D18046816BC0680F1859
:1036F00057F8040C3E1A306838B100200DF0B4FCC5
:1037000057F8040C3E1A3068D0B97068A84217DB2D
:103710003044441B3046241D0DF08CFCD8F80C10AE
:10372000491BC8F80C10D8F814102944C8F8141014
:103730007068401B02D031460BF09AF844F8045CE4
:103740002046BDE8F081000050AB00200549CA6961
:10375000521CCA61496B01EBC0010A78521C0A7005
:1037600000F028B850AB00200549102805D94A6858
:10377000B0EB520F02D3500800E010208860704771
:1037800010AC00200A4902684B6B52F8082C03EB7E
:10379000C2021378022B03D3CB690BB15B1ECB6142
:1037A0001178491E11700021016008467047000021
:1037B00050AB0020002806D00349042202EBC000D1
:1037C000496B08580830704750AB002010B5C2B2A2
:1037D000CBB2D21A00D5524293B25B43C0F3072258
:1037E000C1F30724121B00D55242000C92B2A0EB89
:1037F000114002FB023200B2002801DA404200B25E
:1038000080B200FB002010BD10B50021084600F07A
:10381000ADFA43F6FF725042BDE810401346014630
:10382000AFF300802DE9FC411C4615460E460746C5
:1038300000F0D8FA042006F063FA80461248C06807
:10384000C16C006D0F4406440D440444ADF8007093
:10385000ADF80450ADF80260ADF8064068460AF0D5
:103860005DFE07E023462A463146384606F064F8F6
:103870000AF016FE0028F5D1404606F041FA00F0A5
:1038800019FDBDE8FC810000640200202DE9F04133
:103890001C4616460D460746022B02DB0020BDE8FB
:1038A000F0811C20FFF7FAFE0028F8D00DB1056169
:1038B0000AE0094A52F8241009B905E011460A68DD
:1038C000002AFBD1096901618461868200210160BF
:1038D0004160C0E90217E2E78802002070B51D468A
:1038E000FFF7D4FF040009D000F00EF8E06800688C
:1038F00020B90348006800EB85008465204670BD50
:1039000070020020FFF7BEBE70B590B38269022A34
:1039100030DA1E4C54F8221019B944F8220032E073
:1039200019464B68002BFBD106E0CB68C5681B68C5
:103930002D68AB4203DD09680029F6D11AE0C1B158
:10394000CB68C6681B683668B3420CD1838A012BEA
:1039500005D008E01946DB681B68AB4203DB0B6847
:10396000002BF7D129B14B6833B118604A68426027
:1039700004E0FFE7012070BD44F82200486088425F
:1039800000D100210160002070BD000088020020ED
:1039900010B503E00468FFF7B7FF20460028F9D10F
:1039A00010BD00000A4A816952F82130834202D1D9
:1039B000036842F82130416809B102680A60016871
:1039C00009B142684A60002101604160704700000F
:1039D0008802002000207047022801DB0020704789
:1039E000054A52F8200004E0C26812688A42F6D004
:1039F00000680028F8D1704788020020022801DB07
:103A000000207047054951F8200004E0C1680968AA
:103A10000029F6D000680028F8D1704788020020FD
:103A20002DE9FC4706005FD000F0DCF900F062F9F8
:103A30003C4C81462068B0F9228000F069F9216889
:103A400007468A8CD01B888441E000BF47F6FF718F
:103A5000304600F0EDFD82460146304600F0BEFDE6
:103A60002168054691F82C0000F00300012841D0A0
:103A700002283BD000204A8C101A4884ADF8000080
:103A80006A1E1044ADF80400888CADF80200A9F15C
:103A900001010844ADF806006A465146304600F080
:103AA000DBFC2168BDF8020088845146304600F0F6
:103AB000C3FB064430780A281ED00D281CD0BDF860
:103AC0000000216828444884307818B1761C30788A
:103AD0000028BBD12068818C39448184818D21F0FC
:103AE0000301818500F0E6FBBDE8FC8705EBD5709E
:103AF0004010C0E72846BEE7206890F82C1001F07F
:103B0000030101290BD0022909D0018C41843178AD
:103B10000A29D9D1828C02EB09018184D4E7A0F86B
:103B20002280F4E77002002070B514460D46064668
:103B300000F058F905480068458484843046FFF752
:103B40006FFFBDE8704000F0B5BB000070020020C0
:103B50002DE9F04107460A4815460E460068B0F9BF
:103B60002C0040F0020000F031FB04462A463146AA
:103B70003846FFF7D9FF2046BDE8F04100F026BBEC
:103B80007002002070B5054600F02CF91B4C6069EE
:103B9000E0B904F124011A480860084600F058FE14
:103BA000012000F09BFAC0B200F098FA15490023FA
:103BB0001A4601F11800FFF769FE606105F030FF59
:103BC000C01DC008E061FFF769FD20610E48E16893
:103BD0004DB109B101250DE00168E16009490025F9
:103BE0004C31016006E021B1012501600020E06058
:103BF00000E0002500F05EFB284670BDA00200201A
:103C0000890E0108A4AA0108C00300202DE9FC4187
:103C10001C4615460E46074600F0E4F810480068BA
:103C2000C16C006D0F4406440D440444ADF80070AF
:103C3000ADF80450ADF80260ADF8064068460AF0F1
:103C40006DFC07E023462A463146384605F074FEEF
:103C50000AF026FC0028F5D100F02CFBBDE8FC8121
:103C600070020020034951F82000C1688A6A0821C7
:103C7000104700008802002010B500F0B3F805F0EE
:103C80008BFE05F00BFF044600F014FB204610BD30
:103C900010B5044600F0A6F8054800210068C06988
:103CA000426820469047044600F004FB204610BDC1
:103CB0007002002070B50C46054600F093F80648E7
:103CC00021460068C069426828469047044600F0D3
:103CD000F1FA204670BD00007002002010B500F01F
:103CE00081F805F061FE05F0D9FE044600F0E2FA25
:103CF000204610BD10B500F075F804480068C06992
:103D0000447E00F0D7FA204610BD0000700200206B
:103D100010B5002400F066F80B48006890F82C10ED
:103D200001F00C01042904D0082906D00C2907D180
:103D300003E0C069047E641E02E0C069007E44089E
:103D400000F0B8FA204610BD70020020024951F878
:103D5000200000690068704788020020024951F87D
:103D600020000069406870478802002070B50D4649
:103D7000044600F037F820460CF0D0FD04462846F3
:103D80000CF0D4FD044300F095FA204670BD00000D
:103D900070B500F045FB114D2E20287000F0A9FAF7
:103DA0000F480CF007FF05F09DFE064605F03CFEAF
:103DB00010B105F043FE38B905F046FE044605F0A3
:103DC00039FE214605F096FF0021084600F0DEF995
:103DD0000AF0D4F901206870304670BD64020020FA
:103DE0001CAC002070B5184CE06820B100F07FFAE0
:103DF0006168884204D000F07EFA00F078FA6060D2
:103E0000E068401CE06001281CD10CF069FD05460B
:103E10002068854216D0002813DBFFF7DBFD014642
:103E20002068C0EB0012206900EBC2025167C5EBAD
:103E30000511064A00EBC100011D1160406FFFF73C
:103E4000A7FD256070BD00009803002070020020CF
:103E500038B504001CD0FFF7C5FF0E480068006E9F
:103E6000A04201D100F010F92046FFF76FFC00904E
:103E7000406908B100F008FA00980068FFF742FDB9
:103E80006846FFF77FFC2046FFF7DEFB00F012FAE2
:103E900038BD00007002002038B505004FF0000466
:103EA00011D0FFF79FFF2846FFF750FC00900068F5
:103EB00000698068804706F0D7F804466846FFF737
:103EC00061FC00F0F7F9204638BD38B504000ED08B
:103ED000FFF788FF2046FFF739FC00F11804009037
:103EE0006846FFF74FFC00F0E5F9204638BD00209A
:103EF00038BD000038B504460025FFF773FF1CB934
:103F000008480068046E44B12046FFF71FFC00908B
:103F1000B0F904506846FFF735FC00F0CBF92846AD
:103F200038BD00007002002038B504460025FFF7B8
:103F300059FF1CB908480068046E44B12046FFF7D9
:103F400005FC0090B0F908506846FFF71BFC00F034
:103F5000B1F9284638BD00007002002038B504468B
:103F60000025FFF73FFF1CB908480068046E44B104
:103F70002046FFF7EBFB0090B0F906506846FFF7CC
:103F800001FC00F097F9284638BD000070020020BF
:103F90000149086070470000D4030020F8B51646B8
:103FA0000F46050012D0FFF7D1FB00904469684628
:103FB000FFF7E8FB2846FFF76FFF0346082800DD00
:103FC0002CB13246394628460DF092FAF8BD3246F9
:103FD000394628460DF02CFCF8BD10B5002821D03C
:103FE00009B30AB3B1F90040B2F900309C4200DADB
:103FF00023460380B1F90240B2F902309C4200DA54
:1040000023464380B1F90440B2F904309C4200DDFC
:1040100023468380B1F90610B2F90620914200DCF4
:104020001146C18010BD11460A68026049684160AE
:1040300010BD00280BD003880B44038083881944EB
:104040008180418811444180C1881144C1807047FA
:10405000B0F90220B1F906309A4213DCB1F902201E
:10406000B0F906309A420DDCB0F90020B1F9043005
:104070009A4207DCB1F90010B0F90400814201DC7A
:10408000012070470020704710B5FFF7ABFE05F028
:10409000C7FD05F07DFE09F033FFBDE8104000F0DC
:1040A00009B9000070B50B4D04462868467CFFF73F
:1040B00099FE022C09D22046FFF7A0FC28B12868FF
:1040C0004474FFF7E1FF0448046000F0F3F8304661
:1040D00070BD000070020020E80200202DE9F041D0
:1040E000194E050019493068194F407C51F82010CD
:1040F0008C6917F8048003D00CF010FD60B11FE04C
:104100000521FFF769FC06001AD00020FFF740FFE9
:104110003046FFF747FC12E030680521407CFFF78E
:104120005BFC60B9AFF24B00FFF732FF3068084923
:10413000407C143151F8200008B1FFF7E5FB3D55F4
:104140004046BDE8F0810000700200208802002097
:104150007C03002010B50446FFF744FE204605F01E
:104160007FFDBDE8104000F0A5B810B50446FFF78C
:1041700039FE204605F0ACFDBDE8104000F09AB8CD
:1041800001498860704700006402002070B50C4649
:104190000546FFF727FE09482246058008480480A7
:1041A00008480068417C084850F82100C1680B6A43
:1041B00029469847BDE8704000F07CB89C0200207A
:1041C0009E020020700200208802002070B5044684
:1041D000FFF708FE04480068B0F92C50848500F011
:1041E00069F8284670BD000070020020024800688F
:1041F000002800D000477047B403002002498A68B5
:1042000002B98860FFF7F2BF6C0300202DE9F0418E
:10421000084E044605683068016828468847074606
:104220003068416828468847284420603846BDE801
:10423000F0810000740200202DE9F0410C46064692
:104240000025064F05E03868416830468847064437
:104250000544641EF7D22846BDE8F08174020020B0
:104260002DE9F0411E46069C1746884605463A460B
:10427000A8687F1C3346D0F804C041462846E04772
:10428000641EF4D1BDE8F08138B50546FFF7AAFDFC
:104290002846FFF75BFA00908189491E0CB28481A1
:1042A0006846FFF76FFA14B92846FFF7CDF900F01A
:1042B00001F838BD0348C168491EC16001D100F052
:1042C0001BB870479803002010B54FF440510548C3
:1042D000FFF7B2F98020FFF747FABDE81040024827
:1042E000FFF74EBF3407002008B4010870470120D3
:1042F00070477047704770477047000010B5082A34
:104300000EDC0346012A18D0022A56D0042A76D0A1
:1043100010F8042B03F8012B491EF9D1012010BD20
:10432000102A08DC4FEA000230F8043B22F8023B76
:10433000491EF9D1F2E7002010BD10F8042BD20776
:10434000120E491E34D010F8044B491E04F001042B
:1043500042EA84122CD010F8044B491E04F00104E8
:1043600042EA441224D010F8044B491E04F0010420
:1043700042EA04121CD010F8044B491E04F0010458
:1043800042EAC40214D010F8044B491E04F00104A0
:1043900042EA84020CD010F8044B491E04F00104D8
:1043A00042EA440204D010F8044B04F00104224312
:1043B00003F8012B0029C0D1B0E710F8042B9207B5
:1043C000120E491E15D010F8044B491E04F00304C8
:1043D00042EA04120DD010F8044B491E04F0030405
:1043E00042EA840205D010F8044B04F0030422438F
:1043F000491E03F8012B0029DFD18FE7FFE710F8F2
:10440000042B1207120E491E05D010F8044B04F0BD
:104410000F042243491E03F8012B0029EFD17DE749
:104420000B4810B58169002910D101218161FFF786
:104430004BFFFFF7B9F805F0BDFC054905481C31F5
:104440000860BDE81040084600F002BA10BD000048
:10445000640200205D0E01087CB5064628480D4622
:10446000006868B100200AF059F806E06A4629465B
:1044700030460AF0F7FB0AF013F80028F6D17CBDAD
:10448000106800901F4C506801902268BDF8000031
:1044900032F84C1F0844ADF80000BDF802009188C6
:1044A0000844ADF80200BDF8040011880844ADF8D6
:1044B0000400BDF8060091880844ADF8060068467F
:1044C0000AF02CF80EE000BF2068BDF800106A4624
:1044D0004184BDF802108184294630460AF0C2FBAF
:1044E00009F0DEFF0028EFD1206830F8221F428D4E
:1044F000891A01804188C28D891A41807CBD0000E3
:104500009802002070020020F0B500EB8103082A19
:104510000ADC01254C1E092A10D2DFE802F00F1038
:10452000263E3E5555555500102A07DC00EB41004C
:10453000491E30F8022D43F8042DF9D1F0BD04F0E6
:104540000702C2F1070200EBE40005FA02F6047864
:104550003440D440521C43F8044DA0EBE20022F05A
:1045600007042241491EF0D1F0BD04F0030200EB24
:10457000A400C2F1030203240578560004FA06F7EA
:104580003D40F540521C43F8045DA0EBA20022F030
:1045900003052A41491EEFD1F0BD8D4300EB6400B5
:1045A000C5F101020F240578960004FA06F73D4094
:1045B000F540521C43F8045DA0EB620022F00105B7
:1045C0002A41491EEFD1F0BD00EB0100491E10F851
:1045D000012D43F8042DF9D1F0BD000073B5124A46
:1045E00001A900981268904700240090C8B10F49B3
:1045F00000250968C969496959B10A684AB1019930
:1046000090477CBD6846FFF701FE0546FFF740FB7B
:1046100004440198401E0190F4D5284600F024F887
:10462000044420467CBD0000680300207002002086
:1046300073B50D460098002490B10A490968C9690C
:10464000496959B14A684AB1294690477CBD6846D4
:10465000FFF7DCFD20B10A2802D0641CAC42F6DB77
:1046600020467CBD7002002038B5002469460094C5
:10467000FFF720FB0099814200DD0C1A204638BD6F
:10468000B0F90030B1F90020934200DA0280B0F9AD
:104690000230B1F90220934200DA4280B0F90430CE
:1046A000B1F90420934200DD8280B0F90620B1F90F
:1046B00006108A4200DDC180704770B5B1F9004034
:1046C000B2F900309C4200DD23460380B1F902506C
:1046D000B2F90240A54200DD2C464480B1F90460E5
:1046E000B2F90450AE4200DA35468580B1F90610C1
:1046F000B2F90620914200DB1146C1809D4201DBE8
:10470000A14201DA002070BD012070BD01460248BF
:104710000068407C00F002B8700200202DE9F843E8
:1047200001268946044602285DDA304F7A6802B1D4
:1047300090472E4D5FEA090005F1100532D001289F
:1047400003D0B9F1020F4ED118E055F8240088B912
:104750002046FFF753F9009018B3C0680D21426A54
:104760006846904702003ED049460098904755F869
:1047700024000026401C45F8240034E02046FFF7C2
:104780003DF9009068B1C0680D21426A68469047C3
:10479000040028D0386800B1804749460098A047F7
:1047A000002620E055F82400A846012812D1204612
:1047B000FFF724F9009068B1C0680D21426A68468D
:1047C0009047050006D0386800B1804749460098F8
:1047D000A847002658F8241009B1012200E0002261
:1047E000891A48F824103046BDE8F88350030020A9
:1047F00070B5FF23B3EB116F29D0C3B200F47F452E
:1048000000F47F04060E5343554354435643C2F10C
:10481000FF00CAB202FB003201F47F4303FB0053E6
:1048200001F47F0505FB0044090E01FB0065C2F39E
:1048300007204FF47F4101EA1322090201EA142103
:104840004FF07F43104303EA05430843184370BD0C
:1048500002494A69426048617047000064020020D2
:1048600010B502E000F8011B521E0AB18307F9D10E
:10487000930818D001EB014402F0030204EB042476
:1048800006E010C01B1F10C040F8084B40F8044C55
:10489000042BF6DA01E010C05B1E002BFBD102E016
:1048A00000F8011B521E002AFAD110BD10B5830773
:1048B00002D520F8021B521E530811D001EB01440F
:1048C000042B09DB10C01B1F10C0042B40F8084B41
:1048D00040F8044CF6DA01E010C05B1E002BFBD15F
:1048E000D20700D0018010BD10B50B4C0146072344
:1048F00001222046FDF726F901212046FDF761F946
:1049000002212046FDF7ECF80028F9D02046BDE84A
:104910001040FDF7E2B80000002401402DE9F0410D
:1049200007460E460025002408E03846FFF7DCFF66
:10493000054405200EF010FD641CE4B2B442F4D32B
:10494000B5FBF6F080B2BDE8F081FEE738B5012195
:10495000082006F015FD0320ADF8000010218DF8A9
:1049600003108DF80200054C69462046FEF742FB15
:1049700003212046FEF77DFC38BD0000000C0140FD
:10498000F8B501211C2006F0FBFC4FF44350ADF8B4
:10499000000048208DF8030003248DF80240134FD7
:1049A00069463846FEF726FBBE15ADF800601025B7
:1049B0008DF803508DF8024069463846FEF71AFB21
:1049C000ADF800608DF803508DF802406946084844
:1049D000FEF710FB2002ADF800008DF803508DF8B3
:1049E000024069460348FEF705FBF8BD0010014090
:1049F00000080140000C0140F8B50121602006F0DC
:104A0000BFFC0324ADF800408DF8024028208DF84B
:104A10000300154F69463846FEF7ECFAA603ADF8D9
:104A200000608DF8024010258DF803506946384625
:104A3000FEF7E0FA48F20300ADF800008DF80240FE
:104A400048208DF80300094F69463846FEF7D2FA30
:104A5000ADF800608DF802408DF803506946384685
:104A6000FEF7C8FAF8BD000000180140001401402C
:104A700038B50121702006F083FC0324ADF8004016
:104A800048258DF803508DF8024069460748FEF727
:104A9000B1FA8020ADF800008DF803508DF8024087
:104AA00069460348FEF7A6FA38BD0000001401402D
:104AB0000018014038B50121602006F061FC032098
:104AC000ADF8000048248DF803408DF802006946D7
:104AD0000648FEF78FFA4FF40060ADF800008DF83D
:104AE000034069460248FEF785FA38BD00180140C8
:104AF0000014014008B50121102006F041FC4FF4DC
:104B00004040ADF8000048208DF803006946024897
:104B1000FEF770FA08BD000000100140F8B5012151
:104B20001C2006F02DFC4FF44350ADF8000010207F
:104B30008DF8030003248DF80240134F6946384670
:104B4000FEF758FABE15ADF8006048258DF8035001
:104B50008DF8024069463846FEF74CFAADF8006021
:104B60008DF803508DF8024069460848FEF742FA76
:104B70002002ADF800008DF803508DF80240694620
:104B80000348FEF737FAF8BD001001400008014065
:104B9000000C014070B50125104C002800D0E570D4
:104BA000E0780F4E20B102213046FEF759FB30B1BC
:104BB00002213046FEF754FB01280CD00CE00A20FD
:104BC0000EF0CAFB0020E07002213046FEF748FBE1
:104BD00010B9012070BDE570002070BDDC0100201F
:104BE000001801402DE9F0410125254C002800D096
:104BF00025712079234E4FF4004770B13946304675
:104C0000FEF72EFB80B101213046FEF729FB58B19B
:104C100002213046FEF724FB30B139463046FEF71C
:104C20001FFB01281CD028E00A200EF095FB002075
:104C3000207139463046FEF713FB50B10121304652
:104C4000FEF70EFB40B102213046FEF709FB28B10A
:104C500013E00320BDE8F0810420FBE70520F9E71D
:104C600001213046FEF7FCFA012806D10221304628
:104C7000FEF7F6FA012800D125710020EAE70000CE
:104C8000FC010020001401402DE9F0410125244CD5
:104C9000002800D0A570A078224E234F70B10121CA
:104CA0003846FEF7DDFA80B102213846FEF7D8FA21
:104CB00058B180213046FEF7D3FA30B10121384691
:104CC000FEF7CEFA01281CD028E00A200EF044FBA3
:104CD0000020A07001213846FEF7C2FA50B102212F
:104CE0003846FEF7BDFA40B180213046FEF7B8FAEB
:104CF00028B113E00320BDE8F0810420FBE7052084
:104D0000F9E702213846FEF7ABFA012806D18021E7
:104D10003046FEF7A5FA012800D1A5700020EAE789
:104D2000CC01002000180140001401402DE9F041A1
:104D30000126264C002800D0A670A078DFF89080CD
:104D4000244D4FF4006770B101212846FEF788FA20
:104D500080B102212846FEF783FA58B13946404611
:104D6000FEF77EFA30B101212846FEF779FA0128D4
:104D70001CD028E00A200EF0EFFA0020A0700121DC
:104D80002846FEF76DFA50B102212846FEF768FA70
:104D900040B139464046FEF763FA28B113E00320DC
:104DA000BDE8F0810420FBE70520F9E70221284651
:104DB000FEF756FA012806D139464046FEF750FA6A
:104DC000012800D1A6700020EAE70000BC01002005
:104DD00000140140001801402DE9F04101251C4C50
:104DE000002800D0257120791A4E4FF4004748B1B1
:104DF00039463046FEF734FA58B101213046FEF705
:104E00002FFA30B139463046FEF72AFA012815D07C
:104E10001BE00A200EF0A0FA00202071394630462F
:104E2000FEF71EFA28B101213046FEF719FA18B133
:104E30000BE00320BDE8F0810420FBE701213046B0
:104E4000FEF70EFA012800D125710020F2E70000DC
:104E5000A00100200014014010B5002102480EF00E
:104E600015FB0249486010BD78A6010838010020F2
:104E700088B0124E727897420FD0174632700125D3
:104E800000240FA16846FBF719FB6846FBF7C1FC3D
:104E9000014610484269684690470EF0E1F86420E8
:104EA0000EF05AFA002DE5D00A2C04D90025002472
:104EB00000203070DEE7641CE4B2DBE7380100203C
:104EC0000A0D76616C4B6579426172643A20256403
:104ED0000A0D00003CA901082DE9FF4F83B00546EB
:104EE0008946AA46072001904FF000084FF0800B3A
:104EF0004BE03149109A08EB081011F81030127885
:104F000093423ED101EB40000290417810984078E6
:104F1000814236D109F10F0083B205F10F0082B250
:104F20004946284604F08CFA002600240298871986
:104F3000119890B1214905980880B8782BFA04F1AE
:104F4000084203D04946284604F044FA6D1CADB22D
:104F5000A5EB0A00102829D00BE0B8782BFA04F151
:104F6000084203D0059804F035FB02E0069804F0EF
:104F700031FB641CE4B2082CDAD3761CF6B2202E86
:104F8000D3D308F101081FFA88F801988045B0D3FF
:104F90000B494888401E83B2088807B0401EBDE810
:104FA000F04F82B20021084604F04ABA554609F192
:104FB00001091FFA89F9E0E7C6790108DC00002041
:104FC000CC0400202DE9FF4F83B005468946AA4650
:104FD000652001904FF000084FF0800B4DE008EB8A
:104FE00088003149109A00EB481011F810301278FF
:104FF00093423ED101EB40000290417810984078F6
:10500000814236D109F1170083B205F1170082B24F
:105010004946284604F014FA00260024029887190D
:10502000119890B1214905980880B8782BFA04F1BD
:10503000084203D04946284604F0CCF96D1CADB2B5
:10504000A5EB0A00182829D00BE0B8782BFA04F158
:10505000084203D0059804F0BDFA02E0069804F077
:10506000B9FA641CE4B2082CDAD3761CF6B2482EE6
:10507000D3D308F101081FFA88F801988045AED310
:105080000B494888401E83B2088807B0401EBDE81F
:10509000F04F82B20021084604F0D2B9554609F11A
:1050A00001091FFA89F9E0E7B47A0108DC00002061
:1050B000CC0400202DE9FF4F83B005468946AA465F
:1050C000012001904FF000084FF0800B4BE0314978
:1050D000109A08EB881011F81030127893423ED1E4
:1050E00001EB40000290417810984078814236D11F
:1050F00009F11F0083B205F11F0082B2494628461C
:1051000004F09EF90026002402988719119890B1A6
:10511000214905980880B8782BFA04F1084203D099
:105120004946284604F056F96D1CADB2A5EB0A00BD
:10513000202829D00BE0B8782BFA04F1084203D0DC
:10514000059804F047FA02E0069804F043FA641C5C
:10515000E4B2082CDAD3761CF6B2802ED3D308F151
:1051600001081FFA88F801988045B0D30B49488898
:10517000401E83B2088807B0401EBDE8F04F82B2DF
:105180000021084604F05CB9554609F101091FFAEF
:1051900089F9E0E7E6970108DC000020CC04002054
:1051A00010B506F07BFB04F021F9112004F02EFA73
:1051B00014200EF0D1F8262004F028FA042004F080
:1051C000F3F9B12004F022FA0E2004F0EDF91020DA
:1051D00004F0EAF9C02004F019FA082004F0E4F918
:1051E000002004F0E1F9C12004F010FA052004F0D9
:1051F000DBF9C52004F00AFA382004F0D5F9402084
:1052000004F0D2F93A2004F001FA052004F0CCF9B8
:10521000362004F0FBF91C2004F0C6F92A2004F023
:10522000F5F9002004F0C0F9002004F0BDF90020D9
:1052300004F0BAF97F2004F0B7F92B2004F0E6F966
:10524000002004F0B1F9202004F0AEF9002004F0B1
:10525000ABF99F2004F0A8F9B42004F0D7F900209E
:1052600004F0A2F9F22004F0D1F9012004F09CF935
:10527000E02004F0CBF93F2004F096F9222004F05E
:1052800093F9202004F090F9302004F08DF92920C2
:1052900004F08AF90C2004F087F94E2004F084F918
:1052A000B72004F081F93C2004F07EF9192004F0C5
:1052B0007BF9222004F078F91E2004F075F9022011
:1052C00004F072F9012004F06FF9002004F06CF989
:1052D000E12004F09BF9002004F066F91B2004F0A3
:1052E00063F91F2004F060F90F2004F05DF9162027
:1052F00004F05AF9132004F057F9312004F054F95E
:10530000842004F051F9432004F04EF9062004F003
:105310004BF91D2004F048F9212004F045F93D2007
:1053200004F042F93E2004F03FF93F2004F03CF93C
:10533000292004F06BF92C2004F068F9BDE8104036
:1053400004F06AB886B0374803C8CDE903013120BC
:105350008DF8140033208DF815003348017B0909BE
:105360008DF80E10007B00F00F008DF80F0009295A
:1053700003D937318DF80E1002E030318DF80E1060
:10538000092803D937308DF80F0002E030308DF84E
:105390000F00002003F0FCFF01240C25CDE901548F
:1053A00022A04FF6FF76009000233246032105200D
:1053B00006F026FCCDE9015405A8009000234FF427
:1053C00078420321412006F01BFCCDE901541AA0CC
:1053D0000090002332460321522006F011FCCDE953
:1053E000015417A0009000234FF61F0203217020E4
:1053F00006F006FCCDE9015412A0009000233246CD
:105400000D21052006F0FCFBCDE9015403A8009016
:1054100000231F220D214B2006F0F2FB64200DF02B
:105420009BFFFBE768980108946C01084D6F756459
:105430006C655F49443A0000415454523A00000000
:10544000434D00004D6F75646C655F547970653A2B
:105450000000000010B5002102480EF017F80249C4
:10546000486010BD70980108DC0000200248016807
:10547000491C0160704700001002002010B5012196
:10548000402005F053FFBDE81040FEF781BC00004E
:1054900010B5002107480DF0F9FF074908600548DD
:1054A000064A012108380EF025F8BDE81040012118
:1054B0000EF036B8ECA901080C0200206D5400086B
:1054C0000120FEF75FFB1648FEF744FEFEF79CF94D
:1054D0000020FEF74AFE13A0FEF7A2FA29222D2192
:1054E00014A0FEF735FB1748FEF73FFE31230021DD
:1054F0001A460846FEF78AFB1348FEF736FE452398
:1055000014211A460846FEF781FB1048FEF72DFECF
:10551000592328211A460846FEF778FBFEE70000CB
:1055200000FFFF0048656C6C6F20576F726C642140
:1055300021210000416C706861626C656E64696E67
:1055400067000000FF00004000FF00800000FFC077
:10555000C0F34511C20AC00200EB4110104480B2F2
:10556000704700002DE9F04306460024174F3888A5
:105570007D884543B888A0F5D041043902D1B87977
:10558000012807D00021084603F06CFE03F0EEFE70
:105590000F4916E00020B8714FF02A09A7F80A90C9
:1055A0004FF02B08A7F80C800021084603F05AFEA4
:1055B0000120B871A7F80A80A7F80C90E6E70E80E2
:1055C000641CAC42FBD3BDE8F0830000240700203C
:1055D0000000026C0D488088A0F5134141390ED0BF
:1055E000A0F5D04104390AD0A0F5A641103906D063
:1055F000B1F5007106D00021072003F0C1BE2820BC
:1056000003F0AEBE4FF4205003F0AABE24070020E2
:105610000E488088A0F5134141390FD0A0F5D04144
:1056200004390BD0A0F5A641103907D0B1F50071AF
:1056300007D040F27311072003F0A2BE292003F027
:105640008FBE4FF4245003F08BBE000024070020CF
:105650002DE9F04F54492C232A242B2522224E27B2
:10566000898848F689164FF04F0C45F210584FF4D0
:105670002C5E4FF0F00949F2413A002821D04A4807
:105680004FF0010B80F806B04FF4A07BA0F800B0FB
:10569000A0F80290514510D0A1F5A049B9F5447980
:1056A0000BD0A1F5D049B9F1040950D0B14252D183
:1056B0000281A0F80AC0878163E00381448185816B
:1056C0005FE039484FF0000B80F806B0A0F800907A
:1056D0004FF4A079A0F80290514510D0A1F5D04A1E
:1056E000BAF1040A0BD0A1F5A04ABAF5447A06D063
:1056F000B14215D102814781A0F80CC04EE0038170
:1057000044818581A1F5D042043A03D0A1F5A64297
:10571000103A43D1A0F800904FF4F07141803DE081
:1057200041450ED14FF4305101814FF42851418150
:10573000A0F80CE04FF4F07101804FF44871418003
:105740002CE00281202141812121818126E00381F9
:105750004581848115E041450ED14FF430520281DC
:105760004FF428524281A0F80CE04FF448720280B6
:105770004FF4F072428004E0028121224281202213
:105780008281A1F5D042043A03D0A1F5A642103A95
:1057900004D14FF4F0710180A0F802B0BDE8F04FE1
:1057A000002003F055BC0000240700202DE9F04143
:1057B00003460C469046384F220A3846B9881D0ADF
:1057C0004089A1F51346413E13D0A1F5A646103EEF
:1057D0000FD0B6F500761ED03D46A1F5D04CAE797F
:1057E0002D88ED1A6D1EBCF1040C30D0012E43D073
:1057F00043E003F0B5FD284603F0ACFDD8B203F05A
:10580000A9FDB88903F0ACFD104603F0A3FDE0B29A
:1058100003F0A0FD38E003F0A3FD284603F09AFD55
:105820007889401C80B203F09BFDD8B203F092FD52
:10583000B88903F095FD104603F08CFDB889401C33
:1058400080B203F08DFDE0B203F084FD1CE0012E78
:1058500000D1ABB203F084FD180A03F07BFDD8B28F
:1058600003F078FDB88903F07BFD104603F072FD6C
:10587000E0B203F06FFD07E0ABB2194603F080FD24
:10588000B889214603F07CFD044938890880881CCA
:10589000A0F80080BDE8F08124070020FEFF016C25
:1058A0002DE9F8438046DDF820901F461E4CA08865
:1058B000A0F5D043043B02D1A079012805D0A2EB8A
:1058C0000800401C86B20D462BE00D462088811A48
:1058D000491E89B23A46A0EB0800401E83B2002060
:1058E000A0712A2666812B27A7812846CDF8009033
:1058F000FFF7D6FF0120A0716781A681BDE8F8837C
:105900002946404603F0AEFC03F030FD002404E0DD
:10591000484603F01FFD641CA4B2B442F8D36D1CCA
:10592000ADB2BD42ECD9E9E7240700202DE9F04FE4
:105930009FB001210C02204605F0F8FC012140F245
:10594000691005F01DFD4FF00108ADF878801025B5
:105950008DF87B5003208DF87A00FF4E1EA930464B
:10596000FDF748FB4CF23370ADF8780018208DF845
:105970007B0003208DF87A00F84F1EA93846FDF70A
:1059800039FB4FF68070ADF8780018208DF87B0059
:1059900003208DF87A001EA93046FDF72BFBE000AE
:1059A000ADF8780018208DF87B0003208DF87A0080
:1059B0001EA93846FDF71EFB4020ADF878008DF893
:1059C0007B5003208DF87A001EA93846FDF712FBA4
:1059D00040213846FDF74BFC0220ADF878008DF8E9
:1059E0007B5003208DF87A001EA93046FDF702FB9C
:1059F000CDF82080002009900F210A910B900C9087
:105A00000D900E9001900290032103910490059057
:105A10000690079006210F91109011901295139007
:105A200015901490169017902101189119908900E3
:105A30001A911B9008A81C9001A81D900FA8FDF7B3
:105A4000E5F901210620FDF7CFF902213046FDF7E7
:105A50000EFC32200DF080FC02213046FDF709FCDF
:105A600032200DF079FC0121002003F089FC322066
:105A70000DF072FC002003F0E1FADFF8E492A9F8DF
:105A8000040049F2413246F6040345F210354FF660
:105A9000FF7745F21056FF2804D3B84202D0B0F584
:105AA000134F63D1D32003F05BFC03F047FA03F0FC
:105AB00045FA03F043FA07EA0020A9F8040003F0CE
:105AC0003DFAB9F804100843A9F8040090424DD0FB
:105AD000BF2003F045FC03F031FA03F02FFA03F086
