:020000040800F2
:1000000008A8002085030008ED530008FF3500080C
:1000100001530008E51D00080189000800000000E8
:10002000000000000000000000000000BD02000809
:10003000E12A0008000000003503000871030008F1
:100040009F0300089F0300089F0300089F03000808
:100050009F0300089F0300089F0300089F030008F8
:100060009F0300089F0300089F030008392700082A
:10007000592700087927000899270008B9270008A0
:10008000D9270008F92700089F030008FD8600080B
:1000900015880008E91D0008D51E00089F03000808
:1000A0009F0300089F0300089F0300089F030008A8
:1000B0009F0300089F0300089F0300089F03000898
:1000C0009F0300089F0300089F0300089F03000888
:1000D0009F030008656F00081D7200089F03000859
:1000E000252C00089F0300089F0300089F030008B9
:1000F0009F0300089F0300089F0300089F03000858
:100100009F0300089F0300089F0300089F03000847
:100110009F0300089F0300089F0300089F03000837
:1001200019280008392800085D2800087D280008E3
:1001300000F002F800F06DF80AA090E8000C82448C
:100140008344AAF10107DA4501D100F062F8AFF269
:10015000090EBAE80F0013F0010F18BFFB1A43F0A5
:1001600001031847D4160100F41601000A444FF0A9
:10017000000C10F8013B13F0070408BF10F8014B06
:100180001D1108BF10F8015B641E05D010F8016B4B
:10019000641E01F8016BF9D113F0080F1EBF10F8AF
:1001A000014BAD1C0C1B09D16D1E58BF01F801CBD2
:1001B000FAD505E014F8016B01F8016B6D1EF9D555
:1001C0009142D6D37047000000230024002500266A
:1001D000103A28BF78C1FBD8520728BF30C148BFAA
:1001E0000B60704766290DF06C84642900F0A281D1
:1001F000782900F0DB81002070471FB500F087FEF2
:100200000400002000210CF02BFBE0601FBD10B5A6
:1002100010BD00F07DFF1146FFF7EFFF0FB400F0B7
:100220000BF80FBC09F0D2FF00F088FA03B4FFF717
:10023000EEFF03BC00F066FF04B009F0EDFF0448D8
:1002400000210AF077F809F0F9FF00F077FA0000D2
:100250001416010880F309887047EFF3098070478E
:10026000684680F3098804480078C00714BF02205C
:10027000032080F314887047D4150108DFF818C0F4
:10028000EFF305831B0618BF6047EFF31483DB070A
:1002900008BF604700DF7047C1B00008DFF818C032
:1002A000EFF305831B0618BF6047EFF31483DB07EA
:1002B00008BF604700DF7047A5B20008EFF3098070
:1002C000816911F8021CF1B990E80F10E047EFF3D3
:1002D000098C8CE80700144B93E8060091420FD07C
:1002E00039B12CE9F00FC1F828C00CB40BF07EFB3B
:1002F0000CBC1A60D2F828C0BCE8F00F8CF3098857
:100300006FF0020E704710B5084A1268914209D882
:10031000074C54F8214090E80F10A047EFF3098CE8
:100320008CE80F0010BD00003C020020D41800082B
:10033000D41800080BF02CFA0C4B93E806009142FD
:1003400010D0EFF3098C2CE9F00FC1F828C00CB4E1
:100350000BF04CFB0CBC1A60D2F828C0BCE8F00FC4
:100360008CF309886FF0020E704700003C020020F9
:100370000BF004FCE0E700000AF070F80BF0FEFB65
:10038000DAE700000948804709480047FEE7FEE732
:10039000FEE7FEE7FEE7FEE7FEE7FEE7FEE7FEE735
:1003A00004480549054A064B7047000049680008A3
:1003B0003101000808A2002008A8002008A400209D
:1003C00008A4002000487047A4A1002053EA020CB2
:1003D00000F069802DE9F04B4FF00006002B1FBFA5
:1003E000B3FA83F503FA05F424FA05F65E4012BF6A
:1003F0001643B2FA82F502FA05F4C5F120051EBFD4
:1004000022FA05FC44EA0C04203556EA044C4FEA73
:10041000144418BF641C4FF000084FF000099042CC
:1004200071EB030C39D3002919BFB1FA81F701FA36
:1004300007F6B0FA80F700FA07F6C7F120071EBFEB
:1004400020FA07FC46EA0C062037B6FBF4FCA7EBC3
:100450000507103F07F01F0BCBF120060CFA0BFB32
:100460002CFA06F644BFB3460026202FA4BF5E46F2
:100470004FF0000B5BEA060C08BF4FF0010B19EBC5
:100480000B09ABFB027C48EB0608C01B06FB02CC49
:100490000BFB03CC71EB0C01C1E70B460246414656
:1004A0004846BDE8F08B13B54FF000004FF0000157
:1004B000AFF30080BDE81C40704700000FB41CB5CE
:1004C000074B06AA7B4469460090059800F007FD9B
:1004D0000020694600F016FD1CBC5DF814FB00000E
:1004E0003D0A000070B5044685690068C10601D563
:1004F000302600E02026C00707D070BDD4E90121D6
:1005000030469047206A401C20626D1EF6D570BDB3
:1005100070B5044685690078C00707D170BDD4E97D
:10052000012120209047206A401C20626D1EF6D5D4
:1005300070BD00002DE9F0410646002410687529C1
:10054000314616A510D0AFF30080002802DA4042F1
:1005500013A507E031688A0701D512A502E0490713
:1005600004D511A5012401E0AFF3008000210A2287
:1005700006F1240709E0B0FBF2FCB0FBF2F302FB4A
:100580001C00303078541846491C0028F3D123460B
:100590002A463046BDE8F04100F036BA00000000BF
:1005A0002D0000002B0000002000000070B5044664
:1005B0000D4621461068AFF300802188090502D559
:1005C0000F4A7A4402E00E4A7A440E32002104F1C6
:1005D000240305E000F00F060009965D5E54491CF7
:1005E0000028F7D120780023000704D5702D02D011
:1005F00009B1022311322046BDE8704000F004BA70
:100600005E1001002DE9F05F894604464FF0000AB4
:10061000DFF824B1FB44C0F820A02046E1688847F9
:1006200000287DD0252806D0D4E901219047206AF2
:10063000401C2062F1E700255F462046E1688847BC
:100640002028064607DB312E05D2B81910F8200CF9
:1006500008B10543F1E7A80701D525F00405C4F862
:100660001CA00027C4F818A02A2E09D0304608F094
:1006700040FA38B304EB8708303EC8F8186019E038
:1006800059F8041B204604EB87029161E168884712
:10069000012F064618D1E069002820DA25F0200550
:1006A0001DE0D8F8180000EB800006EB4000303861
:1006B000C8F818002046E1688847064608F019FA8D
:1006C0000028EED1012F0AD02E2E08D12046E16855
:1006D00088477F1C0646022F45F02005C4DBA06931
:1006E000002803DA404245F00105A061E80701D087
:1006F00025F01005A6B1A6F14100192802D8203630
:1007000045F400654A463146204625604D46FFF7D0
:1007100069FD60B1012807D0ED1D25F0070000E05C
:1007200007E000F1080978E705F1040975E73046AC
:100730007AE7206ABDE8F09F3410010010B5044646
:10074000AFF300802046BDE81040FFF76FBD40EAE0
:100750000103024630B59B0710D14FF0013400E091
:1007600008C208C91D1B9D4315EAC41FF8D013F029
:10077000FF0102F8011B0DD01B0AF8E711F8013B3D
:10078000002B02F8013B05D011F8013B002B02F8C9
:10079000013BF3D130BD10B5431C02E010F8011B42
:1007A00071B18107FAD14FF0013202C88C1A8C4323
:1007B00014EAC211F9D0C01A0A0603D0C01E10BD37
:1007C000C01A10BD0A0401D0801E10BD0902FCD061
:1007D000401E10BD421E12F8013F002BFBD111F844
:1007E000013B002B02F8013BF9D17047032A40F28C
:1007F000308010F0030C00F0158011F8013BBCF1C3
:10080000020F624498BF11F801CB00F8013B38BFDA
:1008100011F8013BA2F1040298BF00F801CB38BFE8
:1008200000F8013B11F0030300F02580083AC0F006
:10083000088051F8043B083A51F804CBA0E80810AE
:10084000F5E7121D5CBF51F8043B40F8043BAFF3E1
:100850000080D20724BF11F8013B11F801CB48BF3B
:1008600011F8012B24BF00F8013B00F801CB48BF71
:1008700000F8012B704710B5203AC0F00B80B1E8AA
:100880001850203AA0E81850B1E81850A0E81850C5
:10089000BFF4F5AF5FEA027C24BFB1E81850A0E8CE
:1008A000185044BF18C918C0BDE810405FEA827CE8
:1008B00024BF51F8043B40F8043B08BF7047D207FF
:1008C00028BF31F8023B48BF11F8012B28BF20F8A0
:1008D000023B48BF00F8012B70474FF0000204298B
:1008E000C0F0128010F0030C00F01B80CCF1040C5F
:1008F000BCF1020F18BF00F8012BA8BF20F8022B93
:10090000A1EB0C0100F00DB85FEAC17C24BF00F838
:10091000012B00F8012B48BF00F8012B70474FF066
:10092000000200B5134694469646203922BFA0E83F
:100930000C50A0E80C50B1F12001BFF4F7AF09074B
:1009400028BFA0E80C5048BF0CC05DF804EB89003C
:1009500028BF40F8042B08BF704748BF20F8022B7F
:1009600011F0804F18BF00F8012B70474FF0013C89
:1009700050F8042B51F8043B9A4221D1A2EB0C030E
:10098000934313EACC1317D150F8042B51F8043BCE
:100990009A4215D1A2EB0C03934313EACC130BD16B
:1009A00050F8042B51F8043B9A4209D1A2EB0C03F6
:1009B000934313EACC13DBD04FF00000704700BF25
:1009C000D01A01BAB1FA81F101F0180122FA01F04E
:1009D000CB40C1F12001DBB2C0B2C01A2CFA01F346
:1009E000D11A914311EAC311E6D17047704770479D
:1009F000704710B500F090FA006810BD10B50446BD
:100A000000F08AFA046010BD2DE9F0470D469946C2
:100A10009246044600F124080168880604D5E0697E
:100A200021F01001216000E00120A84201DD471BF8
:100A300000E00027A1697A1902EB0900081AA061F9
:100A40002078C00602D42046FFF74CFD002608E0BF
:100A5000D4E901211AF806009047206A401C761C50
:100A600020624E45F4DB2078C0060AD52046FFF709
:100A700039FD06E0D4E9012130209047206A401C6E
:100A80002062381EA7F10107F4DC07E0D4E9012158
:100A900018F805009047206A401C2062281EA5F126
:100AA0000105F3DC2046FFF733FD2078000602D570
:100AB0000220BDE8F0870120FBE770472DE9FF4FDA
:100AC0000C461E464FF0FF378BB0D2E90001DDF82F
:100AD00060800A908A46C1F30A5505B93D46002157
:100AE00008464FF00000BAF1000F00F4400005DAAC
:100AF00000EB80004FF4400101EA50004FEA9059AA
:100B0000B9F1010F00DDB9460A9850EA4A000ED04B
:100B100044F61050A5F2FF3545432F14B8F1000FED
:100B20001ED07542291E1EDDC9F100021CE0B8F17D
:100B3000010F4FF0000001D0302103E0F24305E047
:100B40002154401CB042FBDB3046002200212154DE
:100B50000B99C1F80880C1E900200FB0BDE8F08F03
:100B6000BD1B6D1CDEE74A4600DA694206A800F0AC
:100B70005BFA06AB93E8070003AB83E80700504637
:100B80000A9900F0EBFA8DE80700A0F500501F3835
:100B900000900398002D09DD42F21F014A460844E7
:100BA00003A90390684600F04AFD08E0A0F5005054
:100BB0004A461F3803A90390684600F054FD8DE8AB
:100BC00007000004000C03D04FF0FF30410800E0A4
:100BD0001046B8F1000F03D00022009215461EE027
:100BE000751E05D400F09AF9303262556D1EF9D5A4
:100BF000B3460122084302D000227F1C04E0207883
:100C0000302801D100227F1E002A099786D01DE0DE
:100C1000112D07DA00F082F9303262556D1C50EA6E
:100C20000102F5D1084302D00098C8B10EE00021BE
:100C3000681E05E0235C625C63542254401E491C1C
:100C40008142F7DBAB46A81B401E0990002004F848
:100C50000B000B98099AC0F80880C0E9002B7CE7CC
:100C600011264FF0000859E72DE9F04F8846044659
:100C7000D21D22F0070191B0D1E90001CDE90A01AE
:100C800007F074FE02460B98C00F01D02D2007E03C
:100C90002068810701D52B2002E0202101EAC00055
:100CA000032A099001D0072A05DB03464146204666
:100CB00000F07AF90BE12078800601D5E06900E0C8
:100CC0000620B8F1650F814606D0B8F1660F18D03E
:100CD000B8F1670F70D131E00020B9F1110F009029
:100CE00001DB112301E009F101030AAA01A90CA803
:100CF000FFF7E4FEDDE90C70002609F101058346EB
:100D000047E001204B4600904FF000470AAA01A996
:100D10000CA8FFF7D3FEDDE90DB00C995D46002667
:100D200010B909F101000D18B9EB050003D4C0F1A9
:100D3000FF3609F10105A5EB09002BE0B9F1010F20
:100D400001DA4FF001090020B9F1110F0090484677
:100D500001DD112300E003460AAA01A90CA8FFF750
:100D6000ADFEDDE90C704D46002683462078000775
:100D70000AD4AB4500DA5D4601A8012D04DD411916
:100D800011F8011C302907D04F4502DA17F1040F82
:100D900004DA012082460FE06D1EEEE7002F02DC30
:100DA000ED1B3E4403E0781CA84200DD7D1CB81B0F
:100DB00000F1010A4FF000472078000703D4AA454C
:100DC00001DB4FF0FF3A0021B7F1004F0DF143086E
:100DD0008DF8431024D002202B23002F01DA7F420C
:100DE0002D230A21021EA0F1010000DC5FB197FB58
:100DF000F1FC97FBF1F201FB1C7C17460CF1300C67
:100E000008F801CDEEE7A8F101000370218809057B
:100E100001D5452100E06521A0F1010800F8011C81
:100E200009980FA9A1EB0807FF1D00B10120411986
:100E300001EBEA70A1693844081A401EA0612078CD
:100E4000C00602D42046FFF74DFB099828B1D4E92B
:100E500001219047206A401C20622078C00622D5DC
:100E60002046FFF73FFB1EE0002E04DBB34502DD0A
:100E700001A8805D00E03020D4E901219047206A7C
:100E8000401C2062761CAAF101005FEA000A0AD128
:100E900000F03DF8C0680168405CD4E9012190474A
:100EA000206A401C2062281EA5F10105DCDC07E059
:100EB000D4E9012118F8010B9047206A401C2062F8
:100EC000381EA7F10107F3DC2046FFF721FB0320C2
:100ED00011B043E601694A1C02610878704700B509
:100EE0008FB0CDE901310021059105497944CDE963
:100EF000031011466846FFF785FB0FB000BD0000E8
:100F0000E5FFFFFF0A6802F8010B0A60704710B5A1
:100F1000FFF758FA203010BD07F0B2BD30B5B0F180
:100F20000A024FEA900E71F100034EEA817EB0EBA7
:100F30000E0061EB91014FEA101E4EEA017E10EBAC
:100F40000E0041EB11114FEA102E4EEA016E10EB2C
:100F50000E0041EB11214FEA104E4EEA014E10EB0C
:100F60000E0041EB1141401841F100014FEAD00061
:100F700040EA41704FEAD10110EB80054FEA81044D
:100F800044EA907444EB01046D1944EB0404521BD1
:100F9000A3414FF0000348BF0A3200D530BD401CCA
:100FA00041F1000130BD00002DE9F0411F4604462B
:100FB00003260168072A01F4006004DB08B116A5C6
:100FC00005E016A503E008B115A500E015A521F080
:100FD00010002060A069C01EA0610FB1401EA0617A
:100FE0002046FFF77FFA4FB1D4E9012138469047F8
:100FF000206A401C2062C01C206206E0206AFAE7DA
:10100000D4E9012115F8010B9047761EF8D220464D
:10101000FFF77EFABDE8F0814E414E006E616E0032
:10102000494E4600696E66002DE9F0478146164636
:101030008AB0334878440DC88DE80D0030487844B4
:10104000801C03AC0DC884E80D0041F69B300844B9
:10105000372190FBF1F290FBF1F5A5F1800501FB42
:1010600012041B3C02D56442012000E00020DFF89E
:1010700090A080460027FA44AAF1BE0A0DE0E007DE
:1010800009D03246684607EB47010AEB810100F0C0
:10109000EAFA8DE8070064107F1C002CEFD1184F8E
:1010A0007F44AC3F18E0E80714D007EB04100DF1C3
:1010B000180A90E80E008AE80E00C068F04201D1DC
:1010C00098190890324606A903A800F0CCFA03ABA1
:1010D00083E807006D10641C002DE4D13246694698
:1010E000B8F1000F03A802D000F0A9FA01E000F067
:1010F000BAFAC9E90001C9F808200AB0BDE8F087CA
:101100003407010001491820ABBEFEE726000200AB
:101110007546FFF757F9AE4605006946534620F07D
:101120000700854618B020B5FFF73AF9BDE8204022
:101130004FF000064FF000074FF000084FF0000B93
:1011400021F00701AC46ACE8C009ACE8C009ACE846
:10115000C009ACE8C0098D46704770475FEA400C93
:1011600008BF91F0000F4FEA8C234FEAC12243EAF7
:1011700051514FEA1C5018BF00F5F0404FEA3000C3
:1011800018BF41F000415FEA6C5C00F02980BCF1BF
:10119000FF3F08BF40F080407047130C06BF1204A9
:1011A0004FF0100C4FF0000C130E04BF12020CF1A4
:1011B000080C130F04BF12010CF1040C930F04BFB1
:1011C00092000CF1020CD30F04BF52000CF1010C81
:1011D00011464FF00002A0F11F00A0EB0C00704779
:1011E00011F0004F08BF704731F000413FF4D5AF18
:1011F0000B0C06BF09044FF0100C4FF0000C0B0E47
:1012000004BF09020CF1080C0B0F04BF09010CF11B
:10121000040C8B0F04BF89000CF1020CCB0F04BF30
:1012200049000CF1010CCCF12003A0EB0C0022FAD8
:1012300003F302FA0CF241EA030100F101007047E6
:1012400020F07F4C80EA030023F07F47ACEB0703DC
:1012500003F57C5300F0004003F1FF032DE98049C2
:101260004FEA154B09B44FEA144325EA0B4E24EA22
:1012700003480FF2042606EB132749083E785FEA7D
:10128000320203FB0667C7F5000707FB06F64FEAC5
:1012900054374FEAD64606F1020607FB066CCCF13E
:1012A000005C4FEA1C472CEA074C07FB06F40CFBDA
:1012B00006F504EB15464FEA961634BF00204FF0B2
:1012C00000404FEAD13706FB07FC4FEA1C4C0CFBF1
:1012D0000BF7D21B03FB0CF761EB07010CFB0EF7BE
:1012E000B0EB074072EB17420CFB08F734BFA2EBE0
:1012F0000742B2EB074261EB17414FEA0C444FEA59
:10130000910706FB07FC4FEA1C4C0CFB0BF7B0EBFC
:10131000C74072EB573203FB0CF734BFA2EBC74256
:10132000B2EBC74261EB57310CFB0EF7B0EBC700D5
:1013300072EB57720CFB08F734BFA2EBC702B2EB9B
:10134000C70261EB5771039F4FEA816141EA921135
:1013500004EBCC044FEAD1374FEA826206FB07FC6C
:1013600042EA90124FEA80604FEA1C4C0CFB0BF7EC
:10137000D21B03FB0CF761EB07010CFB0EF7B0EB84
:10138000074072EB17420CFB08F734BFA2EB074291
:10139000B2EB074261EB17414FEA8C554FEA9107D8
:1013A00004EB9C2406FB07FC4FEA1C4C0CFB0BF7E0
:1013B000B0EBC74072EB573203FB0CF734BFA2EB24
:1013C000C742B2EBC74261EB57310CFB0EF7B0EBF3
:1013D000C70072EB57720CFB08F734BFA2EBC702D1
:1013E000B2EBC70261EB577115EB4C254FEA8161F7
:1013F00041EA92114FEA82624FEAD13742EA9012F3
:1014000006FB07FC44F100044FEA80604FEA1C4CE5
:101410000CFB0BF7D21B03FB0CF761EB07010CFB7A
:101420000EF7B0EB074072EB17420CFB08F734BF26
:10143000A2EB0742B2EB074261EB174115EB1C151B
:101440004FEA813141EA92414FEA823242EA9042C8
:101450004FEA80304FEA0C7644F1000448EA034337
:101460004EEA0B484FF0000EB2EB080C71EB03078D
:1014700024BF624639464EEB0E0E4FF0000B0018AB
:10148000524149414BEB0B0BB2EB080C71EB0307DC
:101490007BF1000B24BF624639464EEB0E0E4FF037
:1014A000000B0018524149414BEB0B0BB2EB080CFF
:1014B00071EB03077BF1000B24BF624639464EEB0C
:1014C0000E0E51EA020718BF46F0010616EB0E7623
:1014D00055F1000254F1000103D5BDE88901BDE8D2
:1014E0000088BDE88901BDE80048B619524141EBCA
:1014F0000101A3F10103704780807F7E7D7C7B7AB0
:101500007978777676757473727171706F6E6E6DAF
:101510006C6C6B6A6A696868676666656464636355
:1015200062616160605F5F5E5E5D5D5C5C5B5B5ADB
:101530005A59595858575756565555555454535348
:1015400052525251515050504F4F4F4E4E4D4D4DA3
:101550004C4C4C4B4B4B4A4A4A49494948484847EE
:10156000474747464646454545444444444343432C
:101570004342424242414141002B26D4770021D0D0
:101580001CB54FEA370703B44FF010004FF01001BD
:101590004FF000000FBCBDE810400BF1010BBBF198
:1015A000010F08BF5FEA170722BF12F1010211F114
:1015B00001014FF0004143F1000300F0004043EA15
:1015C00000007047F9D35708DAE746EA064613F1F8
:1015D000400F4FEA16461FDD13F1200FDFBF164301
:1015E0000A46002120335B42C8D0C3F1200746EAF7
:1015F000064602FA07F74FEA164646EA0706C3F11F
:10160000200722FA03F201FA07F721FA03F14FF05B
:10161000000342EA0702B1E746EA020646EA064646
:101620004FEA164646EA0106BCBF46EA0646360CB5
:101630004FF000034FF000024FF000019EE72DE94C
:10164000C048934630B491E8380007C831EA400CEE
:1016500048BF34EA430C03D5FFF7F2FDFFF78CFFD8
:10166000F0BCBDE800882DE9C048934630B491E84D
:10167000380007C810F0804F08BF13F0804F03D127
:1016800000F005F8FFF778FFF0BCBDE8008820F017
:101690007F4780EA030023F07F4C07EB0C03A3F5A0
:1016A0007C5300F00040A3F1FE0392F0000F00F025
:1016B000B38095F0000F00F077802DE901494FEAE3
:1016C00011404FEA144621EA004800FB06FC24EAD8
:1016D000064708FB06F607FB08F800FB07F718EBC0
:1016E00006484CEB164C4FEA124B18EB07484FEAF2
:1016F00015464CEB174022EA0B4E0BFB06FC25EA85
:1017000006470EFB06F607FB0EFE0BFB07F71EEB6C
:10171000064E4CEB164C4FF000061EEB074E4CEB02
:10172000174B18EB0B0840F1000018EB0E0B58EBB1
:10173000000840F100008F1A4FF000013CBFC94380
:10174000661B14BFB5EB040C00213CBFC943F61B5C
:101750004FEA17444EEA8E0E27EA04454FEA1C472B
:1017600004FB07622CEA074C05FB07F70CFB05F6A8
:1017700004FB0CFC16EB074642EB174216EB0C463B
:1017800042EB1C421BEB060658EB0202414146EAC3
:101790009E0601D5BDE80189B619524141EB010110
:1017A000A3F10103BDE801894FEA14454FEA11474F
:1017B00024EA054621EA074C05FB07F406FB07F778
:1017C0000CFB06F105FB0CFC11EB074144EB174445
:1017D0004FEA124711EB0C4144EB1C4422EA074C40
:1017E00005FB07F206FB07F70CFB06F605FB0CFCF6
:1017F00016EB074642EB174216EB0C4642EB1C4534
:101800006A1854F1000148BF7047B619524141EBC4
:101810000101A3F10103704795F0000F37D04FEAA3
:1018200011424FEA144721EA024624EA074C02FB20
:1018300007F106FB07F70CFB06F402FB0CFC14EBAC
:10184000074441EB17414FEA154714EB0C4441EBB9
:101850001C4125EA074C02FB07F506FB07F70CFBCA
:1018600006F602FB0CFC16EB074645EB174516EB9C
:101870000C4645EB1C42121951F1000148BF70475C
:10188000B619524141EB0101A3F1010370474FEA40
:1018900014454FEA114724EA054621EA074C05FBA7
:1018A00007F106FB07F70CFB06F24FF0000605FBFD
:1018B0000CFC12EB074241EB174112EB0C4251EBCF
:1018C0001C4148BF7047921841EB0101A3F101038D
:1018D000704700000000000021B1826842F0010260
:1018E000826003E0826822F001028260704700009B
:1018F00010B504461248844208D10121401504F075
:101900006FF90021601504F06BF917E00D4884426F
:1019100008D10121001504F063F90021201504F01D
:101920005FF90BE00848844208D10121C80304F0A4
:1019300057F900214FF4004004F052F910BD0000A7
:101940000024014000280140003C014001460020E5
:101950008A6802F004020AB1012000E0002070470A
:101960000146C86C80B270470246002013680B40E5
:101970000BB1012000E000207047014600208A687A
:1019800002F008020AB1012000E0002070470000C8
:1019900030B502460020002350680F4C20400D79DE
:1019A0000C6844EA05242043506090680B4C2040AA
:1019B000D1E902542C434D7944EA45042043906018
:1019C000D06A20F470000C7C641EE4B2234340EA29
:1019D0000350D06230BD0000FFFEF0FFFDF7F1FFC5
:1019E000F0B504460D4600200021092D11DDE06808
:1019F000A5F10A0606EB4607072606FA07F1884313
:101A0000A5F10A0606EB460603FA06F10843E06074
:101A10000CE0206905EB4507072606FA07F1884325
:101A200005EB450603FA06F108432061072A0FDAA1
:101A3000606B561E06EB86071F2606FA07F18843E1
:101A4000561E06EB860605FA06F10843606322E09F
:101A50000D2A0FDA206BD61F06EB86071F2606FA23
:101A600007F18843D61F06EB860605FA06F1084300
:101A7000206310E0E06AA2F10D0606EB86071F2640
:101A800006FA07F18843A2F10D0606EB860605FA71
:101A900006F10843E062F0BD816841F00801816011
:101AA000704721B1826842F4A002826003E082683C
:101AB00022F4A00282607047816841F004018160D5
:101AC0007047000000B587B001214FF4047004F0A6
:101AD00077F84FF4004004F047F83F20ADF80400D9
:101AE00000208DF8070001A9174801F003FA1748F4
:101AF000FFF7FEFE002002908DF80C008DF80D001F
:101B00004FF4602004900020059001208DF818000B
:101B100002A90E48FFF73CFF01210C48FFF7DCFE4D
:101B20000A48FFF7B9FF00BF0848FFF726FF002863
:101B3000FAD10648FFF7C0FF00BF0448FFF706FFD1
:101B40000028FAD107B000BD001001400024014078
:101B500008B50121102004F033F82020ADF8000072
:101B600010208DF8030003208DF802006946044818
:101B700001F0C0F92021024801F075FB08BD00000A
:101B8000001001402DE9F14F82B002980BF06AFC81
:101B90000022114BCDE900010AF066FF80460F4A92
:101BA0000F4B08F06FFC064600220E4B0BF07EFA3E
:101BB000824600220C4B0BF045F904460D460022EC
:101BC0000A4B204629460BF03DF904460D462046B7
:101BD000294603B0BDE8F08FD0BCF8406C45D9CCA5
:101BE000955BC83F0000F03F40A5E540000059402C
:101BF00010B50021024808F09DFB0249086010BDA5
:101C0000D41201083C0100208CB000BF07F032F86C
:101C10001E480068FFF7B6FF05460AF037FE044687
:101C20001B490BF0B9FC1B490860084600680BF023
:101C300019FC04460D461849184800680BF0ACFC26
:101C400082460BF00FFC06460F4615490F48006808
:101C50000BF0A2FC82460BF005FC804642460B4688
:101C6000104904A8CDE90067CDE90245FEF726FC3E
:101C700004A8FEF790FD04460B482146426904A8DB
:101C800090474FF47A7008F0BBFABFE71C010020C0
:101C90000000C8422001002000002041180100205F
:101CA00000007A44F41701084C15010810B501F042
:101CB000D3FCAA2003F026FB00B21E490880AC200A
:101CC00003F020FB00B21C490880AE2003F01AFB91
:101CD00000B21A490880B02003F014FB18490880AC
:101CE000B22003F00FFB17490880B42003F00AFB71
:101CF00015490880B62003F005FB00B2134908809F
:101D0000B82003F0FFFA00B211490880BA2003F0AE
:101D1000F9FA00B20F490880BC2003F0F3FA00B2D0
:101D20000D490880BE2003F0EDFA00B20B4908808F
:101D300010BD000024010020260100202801002001
:101D40002A0100202C0100202E010020300100205B
:101D5000320100203401002036010020380100202B
:101D600010B507F063F80AF033FC05F041F805F010
:101D70007DF805F04BF905F09DF907F0D9FDFFF767
:101D8000E7FE02F0BDF808F02DFA024988688047A6
:101D900010BD00005000002010B504F0DFFF05F07A
:101DA000C5F907F0F1FD02F08DFA02498868804715
:101DB00010BD00000000002010B5044600222021C4
:101DC000074801F052FA204608F01AFA01222021B1
:101DD000034801F04AFA204608F012FA10BD00004C
:101DE0000010014000BFFEE770B536484078022879
:101DF0001ED13548006800F0100058B1102032495B
:101E0000086032480068B0B13048062102680120FD
:101E1000904710E02C48006800F0030058B12B48B0
:101E2000006840B12948022102680120904702E081
:101E3000202025490860244808300468001F0568F0
:101E400004F0040088B905F4806070B91E48001DD4
:101E5000006840F480601C49091D08601C48006847
:101E600018B11B4801680320884704F0020088B9B4
:101E700005F4007070B91448001D006840F400704B
:101E80001149091D08601248006818B1104801681E
:101E90000120884704F0010090B905F4807078B9FA
:101EA000C4F307405F280BD25F20B0EB146F07D15B
:101EB0000548001D006840F480700349091D086052
:101EC00070BD0000FE0100201064004008020020E8
:101ED0000402002070B52248006800283FD0214845
:101EE0000468001F056804201E491439086004F0C6
:101EF000040078B105F4806060B11A48001F0068E2
:101F000020F480601749091F086015480168042003
:101F1000884724E004F0020078B105F4007060B155
:101F20001048001F006820F400700E49091F086067
:101F30000B4801680320884711E004F0010070B1EC
:101F400005F4807058B10748001F006820F48070C5
:101F50000449091F0860024801680220884770BDD3
:101F6000040200201864004070B505460C4628465F
:101F700003F046FF064626EA0401284606F0DEFC8A
:101F800070BD00002DE9F041074688460025002677
:101F9000002401204C49086000BF8FE0002688E043
:101FA00003F09EFEB8F1000F06D0B8F1010F1DD06E
:101FB000B8F1020F5ED133E00120434928390860AF
:101FC00000204249C1F89C0100240AE0C4F1070145
:101FD00007EB011106EBC502885C04F0AFF8601C4A
:101FE000C4B2082CF2DB03F067FA55E00020364952
:101FF0002839086001203549C1F89C0100240AE015
:10200000C4F1070107EB011106EBC502885C04F07F
:1020100071F8601CC4B2082CF2DB03F037FA3BE025
:1020200001202949283908602849C1F89C01002469
:102030000AE0C4F1070107EB011106EBC502885C59
:1020400004F07CF8601CC4B2082CF2DB00240AE027
:10205000C4F1070107EB011106EBC502885C04F02F
:1020600049F8601CC4B2082CF2DB03F025FA03F037
:102070000DFA11E000240AE0C4F1070107EB011199
:1020800006EBC502885C04F059F8601CC4B2082C49
:10209000F2DB03F011FA00BF00BF711C082202FB43
:1020A0000511C8B203F024FE142007F001F9701CDA
:1020B000C6B2082EFFF674AF681CC5B2022DFFF63B
:1020C0006DAFBDE8F0810000AC8122420080224269
:1020D00070B506460025002401203549086000201F
:1020E0003449C1F88401012031491039086000BF2A
:1020F0005BE0002455E003F0F3FDA91D06EB0111A0
:10210000012202EB4402885C03F0F4FFA91D06EBF8
:102110000111002202EB4402885C03F0EBFF291D51
:1021200006EB0111012202EB4402885C03F0E2FF9E
:10213000291D06EB0111002202EB4402885C03F02A
:10214000D9FFA91C06EB0111012202EB4402885CB5
:1021500003F0D0FFA91C06EB0111002202EB4402A0
:10216000885C03F0C7FF06EB0511012202EB440275
:10217000885C03F0BFFF06EB0511002202EB44026E
:10218000885C03F0B7FF03F081F9611C082202FBB1
:102190000511C8B203F0ACFD142007F089F8601CEB
:1021A000C4B2082CA7DB681CC5B2022DA1DB70BD30
:1021B000AC8122420080224270B5064600250024F0
:1021C0000120354908603549C1F8840100203249B1
:1021D0001039086000BF5BE0002455E003F080FD8B
:1021E000A91D06EB0111012202EB4402885C03F0F9
:1021F000A5FFA91D06EB0111002202EB4402885C39
:1022000003F09CFF291D06EB0111012202EB4402A1
:10221000885C03F093FF291D06EB0111002202EBFD
:102220004402885C03F08AFFA91C06EB011101221D
:1022300002EB4402885C03F081FFA91C06EB01114C
:10224000002202EB4402885C03F078FF06EB0511E4
:10225000012202EB4402885C03F070FF06EB0511DB
:10226000002202EB4402885C03F068FF03F024F9CB
:10227000611C082202FB0511C8B203F039FD1420CD
:1022800007F016F8601CC4B2082CA7DB681CC5B2A6
:10229000022DA1DB70BD0000AC81224200802242F1
:1022A00070B50646002500240120594908605949A7
:1022B000C1F8840156491039086000BFA4E0002429
:1022C0009DE003F00DFDA91D06EB0111012202EBBB
:1022D0004402885C03F032FFA91D06EB01110022C5
:1022E00002EB4402885C03F029FF291D06EB011173
:1022F000012202EB4402885C03F020FF291D06EB5B
:102300000111002202EB4402885C03F017FFA91CB4
:1023100006EB0111012202EB4402885C03F00EFF80
:10232000A91C06EB0111002202EB4402885C03F0B9
:1023300005FF06EB0511012202EB4402885C03F065
:10234000FDFE06EB0511002202EB4402885C03F05F
:10235000F5FEA91D06EB0111012202EB4402885C87
:1023600003F0C8FEA91D06EB0111002202EB440296
:10237000885C03F0BFFE291D06EB0111012202EB70
:102380004402885C03F0B6FE291D06EB0111002211
:1023900002EB4402885C03F0ADFEA91C06EB0111C0
:1023A000012202EB4402885C03F0A4FEA91C06EBA8
:1023B0000111002202EB4402885C03F09BFE06EB55
:1023C0000511012202EB4402885C03F093FE06EB48
:1023D0000511002202EB4402885C03F08BFE03F03F
:1023E0006BF803F053F8611C082202FB0511C8B218
:1023F00003F07EFC142006F05BFF601CC4B2082CC6
:10240000FFF65FAF681CC5B2022DFFF658AF70BD76
:10241000AC812242008022422DE9FF4F89B007465D
:102420008846914620216846FEF779FA002615E095
:1024300007EB4611B24B03EB46101022FEF7D6F91C
:102440007200521C07EB02117200521CAC4B03EBE2
:1024500002101022FEF7CAF9701C86B2042EE7DBC8
:1024600004200890169820B1012806D002280CD12B
:1024700007E0A348FFF7A0FE0BE0A148FFF728FE06
:1024800007E09F48FFF70CFF03E09D48FFF794FE2D
:1024900000BF00BFB9F1000F7ED0089E29E107EB15
:1024A000461110226846FEF7A1F9012000EB460014
:1024B00007EB0011102204A8FEF798F94FF0000A6C
:1024C00011E10024DAE0002541E08D4800EB051021
:1024D00010F814004006000E894901EB051101F8BF
:1024E0001400874800EB051010F81410844800EB26
:1024F00005126000401C105C41EAE010804901EBCD
:10250000051101F814007E4800EB05116000401C25
:10251000085C4006010E7A4800EB05126000401C82
:102520001154774800EB05116000401C095C744AA7
:10253000A81C02EB001010F8140041EAE01110464C
:1025400000EB05126000401C1154681C85B2062D7A
:10255000BBDB6B48603010F814004006010E684881
:10256000603000F8141010F814206000401C64491A
:102570006031085C42EAE0116148603000F81410F4
:102580006000401C5E496031085C4006020E60003D
:10259000401C0A54600000E0AEE0401C085C1DF8DE
:1025A000141040EAE1126000401C554960310A54A1
:1025B0001DF814004006000E0DF814001DF814104C
:1025C0006000401C1DF8000041EAE0100DF8140006
:1025D0006000401C1DF800004006010E6000401C19
:1025E0000DF800104648703010F814004006010E37
:1025F0004348703000F8141010F814206000401C9C
:102600003F497031085C42EAE0113D48703000F803
:1026100014106000401C3A497031085C4006020EFC
:102620006000401C0A546000401C095C04A810F8BB
:10263000140041EAE0126000401C314970310A5434
:1026400004A810F814004006010E04A800F81410A5
:1026500010F814206000401C04A9085C42EAE01154
:1026600004A800F814106000401C04A9085C40068F
:10267000020E6000401C0A54601C84B2082CFFF655
:1026800022AF2048007800F00F00C0F110000C903D
:102690001C480078C0F3411016904FF0000B1BE06F
:1026A000169820B1012806D002280CD107E0144862
:1026B000FFF782FD0BE01248FFF70AFD07E0104824
:1026C000FFF7EEFD03E00E48FFF776FD00BF00BF09
:1026D0000BF101001FFA80FB0C988345E0DB0AF147
:1026E00001001FFA80FABAF1100FFFF6EAAE701C73
:1026F00086B24645FFF6D3AE0DB0BDE8F08F0000C0
:1027000074030020E400002008B50121102003F02C
:1027100057FA4FF48050ADF8000048208DF80300C0
:1027200003208DF802006946014800F0E3FB08BD74
:10273000001001407047000010B50548006800F027
:102740000F04034844602046FFF7F4FF10BD00006B
:10275000000002407047000010B505480068C0F353
:1027600003142001024948602046FFF7F3FF10BD23
:10277000000002407047000010B505480068C0F333
:1027800003242002024948602046FFF7F3FF10BDF2
:10279000000002407047000010B505480068C0F313
:1027A00003342003024948602046FFF7F3FF10BDC1
:1027B000000002407047000010B505480068C0F3F3
:1027C00003442004024948602046FFF7F3FF10BD90
:1027D000000002407047000010B505480068C0F3D3
:1027E00003542005024948602046FFF7F3FF10BD5F
:1027F000000002407047000010B505480068C0F3B3
:1028000003642006024948602046FFF7F3FF10BD2D
:10281000000002407047000010B50548006800F055
:102820000F040348001D04602046FFF7F3FF10BDAE
:10283000000402407047000010B506480068C0F36D
:10284000031420010349091D08602046FFF7F2FF29
:1028500010BD0000000402407047000010B506489B
:102860000068C0F3032420020349091D08602046C4
:10287000FFF7F2FF10BD00000004024010B50C4845
:102880000068C0F3033434B120030949091D08600E
:10289000204600F00FF806480068C0F3034434B146
:1028A00020040349091D0860204600F004F810BD0B
:1028B000000402407047704710B5002404E0601C1B
:1028C000C4B2012006F0F4FC0D48006808B1C82C21
:1028D000F5DBC82C01DB012010BD002404E0601CE6
:1028E000C4B2012006F0E4FC0548006808B9F02CE9
:1028F000F5DBF02C01DB0120EEE70020ECE7000027
:10290000388122422DE9F84F00F0B2F800F09CF82F
:10291000FFF7D2FFCC2000F0B7F8BE2000F0B4F8EB
:1029200000F080F8814600F07DF80446072C07DDB2
:10293000E043C4B26FEA090000F0FF09002600E09E
:1029400001262546280205B205EB090005B22846F6
:102950000AF0E4FE00900AF085FD07460022104BC5
:102960000AF070FA82460AF0D7F905B266B1284635
:102970000AF001FA074600220A4B0AF075F882466F
:1029800009F084FFBDE8F88F68420AF0F4F90746C1
:102990000022044B0AF068F8824609F077FFF1E75D
:1029A0000000E43F0000244008B50121202003F08E
:1029B00007F94FF48040ADF8000003208DF80200C5
:1029C00014208DF803006946054800F093FA0120B1
:1029D0000449086000F038F8FFF76EFF08BD0000FA
:1029E00000140140B881224210B500200B49086054
:1029F000022006F05DFC01200949C1F8B8010C2055
:102A000006F056FC05488038006808B1012400E053
:102A10000024322006F04CFC204610BDB881224232
:102A20000080224270B50026012508E0FFF7DCFF98
:102A30000446E00140EA6600C6B2681CC5B2082D33
:102A4000F4DD304670BD000010B500200649086076
:102A500040F2EE2006F02CFC01200449C1F8B80138
:102A60000F2006F025FC10BDB881224200802242D2
:102A700010B5FFF7E9FFFFF71FFFCC2000F004F8C7
:102A8000442000F001F810BD70B50446012520E097
:102A900004F0010664106EB100200F4908600220A6
:102AA00006F006FC01200D49C1F8B8013C2006F0F3
:102AB000FFFB0CE00020084908603C2006F0F8FB12
:102AC00001200649C1F8B801022006F0F1FB681C9C
:102AD000C5B2082DDCDD70BDB881224200802242E3
:102AE000704700BF011EA0F10100FBD1704700003C
:102AF0002DE9F74F84B0074691463846FDF74BFE67
:102B000000F0FF0ABAF1090F1EDA002619E017F8E3
:102B1000013B424A02EB0311414A02EB061010222C
:102B2000FDF764FE4FF0000807E03D480599FFF708
:102B300029FA08F1010000F0FF08C845F5DB701C18
:102B4000C6B25645E3DB65E04FF0000B60E017F8D6
:102B5000012B324800EB021110226846FDF746FEB9
:102B600000264FE0002520E000241AE02C4800EB6E
:102B70000510005D4006000E294901EB05110855BE
:102B8000274800EB0510015D254A681C02EB001088
:102B9000005D41EAE010114601EB05110855601C8B
:102BA000C4B2102CE2DB681CC5B2072DDCDB0024AC
:102BB00017E01B487030005D4006010E1848703069
:102BC0000155005D1DF8041040EAE1111448703011
:102BD00001551DF804004006000E0DF80400601CAD
:102BE000C4B2102CE5DB4FF0000807E00C48059953
:102BF000FFF7C8F908F1010000F0FF08C845F5DB50
:102C0000701CC6B2082EADDB0BF1010000F0FF0B0B
:102C1000D3459CDB07B0BDE8F08F0000B40A010883
:102C20007403002010B54FF4805000F021F848B133
:102C300002F01CFE4FF4805000F006F84FF4805074
:102C400000F008F810BD000001490860704700005E
:102C50001404014001490860704700001404014059
:102C6000024909680143014A11607047100401409C
:102C7000014600200022074B1B6803EA0102054BB6
:102C800014331B680B4013B10AB1012000E000208F
:102C90007047000000040140002123498279002A86
:102CA0003AD00A46126803689A430B461A600A1D16
:102CB000126803689A430B1D1A60027911440A686E
:102CC00003681A430A60184A0832126803689A4374
:102CD000154B08331A601A1D126803689A43124B89
:102CE0000C331A604279102A0ED11A1F1268036839
:102CF0001A430D4B08331A601A1D126803681A43F1
:102D0000094B0C331A600DE00749427911440A68F7
:102D100003681A430A6005E0027911440A680368EF
:102D20009A430A60704700000004014070B50646EF
:102D30000D460024241D22460E490F48FDF756FD7E
:102D40000E4882782146641C0B48425410222146CA
:102D5000641C42542146641C4554014608192A4605
:102D60003146FDF743FD6019C4B20D2002490855F4
:102D700070BD0000E0DB00086C020020CCDB000826
:102D800018B5002844D0C0F34211C0F30322214BF0
:102D90009B6903F001032BB91E4B9B6943F00103B0
:102DA0001C4CA36100F48053A3B11B4BDB6900935F
:102DB00000F01F0301FA03F3009C9C43009400F011
:102DC0001F0302FA03F3009C23430093124C009B61
:102DD000E3611DE0104B5B68009300F01F0301FAF4
:102DE00003F3009C9C43009400F01F0302FA03F3DA
:102DF000009C2343009307210022009B23EA0163E8
:102E00000093009B43EA02630093034C009B6360C2
:102E100018BD0000001002400000014030B5002243
:102E20008B071C0F0F2303FA04F20B4B8C1053F883
:102E300024309343084C8D1044F8253023468C10E1
:102E400053F824308C07240F00FA04F42343024C77
:102E50008D1044F8253030BD0800014001461D4862
:102E6000814204D11C488069C0F3800070471B4830
:102E7000814204D118488069C0F3C000F6E71848C1
:102E8000814204D114488069C0F30010EEE7154870
:102E9000814204D110488069C0F34010E6E712482F
:102EA000814204D10C488069C0F38010DEE70F48EE
:102EB000814204D108488069C0F3C010D6E70C48AD
:102EC000814204D104488069C0F30020CEE700208D
:102ED000CCE700000008014000100240000C014057
:102EE000001001400014014000180140001C014086
:102EF000002001402DE9F041024600250026002077
:102F000000230024002791F803C00CF00F0591F86E
:102F100003C00CF0100CBCF1000F03D091F802C0FC
:102F20004CEA050591F800C0BCF1000F31D01468DF
:102F300000202BE04FF0010C0CFA00F3B1F800C0B8
:102F40000CEA03069E4220D183004FF00F0C0CFACE
:102F500003F7BC4305FA03FC4CEA040491F803C0F0
:102F6000BCF1280F06D14FF0010C0CFA00FCC2F89E
:102F700014C00AE091F803C0BCF1480F05D14FF02E
:102F8000010C0CFA00FCC2F810C0401C0828D1D378
:102F90001460B1F800C0BCF1FF0F34DD54680020AC
:102FA0002EE000F1080C4FF0010808FA0CF3B1F81C
:102FB00000C00CEA03069E4221D183004FF00F0CA3
:102FC0000CFA03F7BC4305FA03FC4CEA040491F83D
:102FD00003C0BCF1280F05D100F1080C08FA0CF869
:102FE000C2F8148091F803C0BCF1480F07D100F17A
:102FF000080C4FF0010808FA0CF8C2F81080401CC9
:103000000828CED35460BDE8F0812DE9F041054693
:103010000C46174698460F2C02D90020BDE8F081D7
:103020002846FFF71BFF18B90121284600F072F867
:10303000B8F1000F10D1022F05D1E8680121A1409D
:103040008843E86008E0032F06D127F00107E8680D
:103050000121A1400843E860082C01D22E4601E07E
:10306000083C2E1D3068A2000F219140884330603B
:1030700048EA8700A1008840316808433060012099
:10308000CCE70000F0B50A4600230024002100250B
:1030900000F00046B6F1004F02D11D4EF16901E08B
:1030A0001B4E7168C0F3034583B200F44016B6F5B9
:1030B000401F08D121F07061154E766826F07066C9
:1030C000134F7E6012E000F48016B6F5801F06D123
:1030D000032606FA05F4A14341F0706106E0460DAF
:1030E000360103FA06F6B14341F0706122B1460D94
:1030F000360103FA06F6314300F00046B6F1004F00
:1031000002D1034EF16101E0014E7160F0BD00009B
:1031100000000140002945D0454A904206D1454A69
:10312000926942F00402434B9A6180E0424A904225
:1031300006D1404A926942F008023E4B9A6176E01D
:103140003E4A904206D13B4A926942F01002394B06
:103150009A616CE03A4A904206D1364A926942F04E
:103160002002344B9A6162E0364A904206D1314ADD
:10317000926942F040022F4B9A6158E0324A9042E5
:1031800006D12C4A926942F080022A4B9A614EE0A5
:103190002E4A90424BD1274A926942F48072254BC5
:1031A0009A6144E0224A904206D1224A926922F072
:1031B0000402204B9A613AE01F4A904206D11D4A10
:1031C000926922F008021B4B9A6130E01B4A904240
:1031D00006D1184A926922F01002164B9A6126E035
:1031E000174A904206D1134A926922F02002114BED
:1031F0009A611CE0134A904206D10E4A926922F06D
:1032000040020C4B9A6112E00F4A904206D1094AE3
:10321000926922F08002074B9A6108E00B4A9042C3
:1032200005D1044A926922F48072024B9A61704778
:103230000008014000100240000C01400010014055
:103240000014014000180140001C01400020014012
:103250000246002093680B400BB1012000E00020E3
:10326000704741617047016170470AB1016100E038
:10327000416170472DE9FC5F0546884691469A46B4
:10328000DDF830B000950720019000245FE004EBEA
:103290000410374911F810009BF80010884253D1F0
:1032A00004EB0410324901EB400040789BF8011018
:1032B000884249D108F10F0083B205F10F0082B2B4
:1032C0004146284601F092F800263BE0002734E012
:1032D0000D9890B904EB0410254901EB4000801CC7
:1032E000805D80213941084018B1484601F0D0F98D
:1032F00021E0504601F0CCF91DE01E48A0F80090F6
:1033000004EB04101A4901EB4000801C805D802111
:103310003941084018B14146284601F027F8681C99
:1033200085B20098281A102805D1009D08F10100E7
:103330001FFA80F803E0781CC7B2082FC8DB00BF73
:10334000701CC6B2202EC1DB00BF601C84B2019885
:1033500084429CDB08484088401E83B206480088AF
:10336000401E82B20021084601F040F8BDE8FC9FF3
:10337000FAE80008D8000020E80200202DE9FC5FF0
:103380000546884691469A46DDF830B000955B20A8
:103390000190002467E004EB840000EB44103A49FC
:1033A00011F810009BF80010884259D104EB8400FA
:1033B00000EB4410344901EB400040789BF80110C9
:1033C00088424DD108F1170083B205F1170082B28F
:1033D0004146284601F00AF800263FE0002738E081
:1033E0000D98A0B904EB840000EB4410264901EBD2
:1033F0004000801C805D80213941084018B148465A
:1034000001F046F923E0504601F042F91FE01F4861
:10341000A0F8009004EB840000EB44101A4901EB83
:103420004000801C805D80213941084018B1414630
:10343000284600F09BFF681C85B20098281A1828BF
:1034400005D1009D08F101001FFA80F803E0781C07
:10345000C7B2082FC4DB00BF701CC6B2482EBDDB4C
:1034600000BF601C84B20198844294DB0848408805
:10347000401E83B206480088401E82B200210846E2
:1034800000F0B4FFBDE8FC9FE8E90008D800002088
:10349000E80200202DE9FC5F0546884691469A46E1
:1034A000DDF830B000950120019000245FE004EBCE
:1034B0008410374911F810009BF80010884253D14E
:1034C00004EB8410324901EB400040789BF8011076
:1034D000884249D108F11F0083B205F11F0082B272
:1034E0004146284600F082FF00263BE0002734E0FA
:1034F0000D9890B904EB8410254901EB4000801C25
:10350000805D80213941084018B1484601F0C0F87B
:1035100021E0504601F0BCF81DE01E48A0F80090E4
:1035200004EB84101A4901EB4000801C805D80216F
:103530003941084018B14146284600F017FF681C81
:1035400085B20098281A202805D1009D08F10100B5
:103550001FFA80F803E0781CC7B2082FC8DB00BF51
:10356000701CC6B2802EC1DB00BF601C84B2019803
:1035700084429CDB08484088401E83B2064800888D
:10358000401E82B20021084600F030FFBDE8FC9FDB
:1035900036040108D8000020E802002010B50446D7
:1035A0000723012221460948FEF71AFA012107489C
:1035B000FEF777FA00BF02210448FEF7D5F900288C
:1035C000F9D00248FEF7CCF910BD000000240140FC
:1035D0002DE9F04107460C460025002608E0384654
:1035E000FFF7DCFF0544052006F00AFE701CC6B29A
:1035F000A642F4DBB5FBF4F080B2BDE8F08100BF79
:10360000FEE7000010B500200F4908600F48006871
:1036100020F470200D4908600846006840F44030EE
:10362000086000200A49C1F89001022005F040FE20
:10363000012005490860022005F03AFE00200549F6
:10364000C1F8840110BD000084012242000801403D
:10365000000021420000224208B50121142002F09E
:10366000AFFA1020ADF800008DF8030003208DF8AC
:10367000020069460B48FFF73DFC0220ADF8000050
:1036800010208DF8030003208DF8020069460648DB
:10369000FFF730FC0120054908600549C1F8900199
:1036A00008BD0000000801400010014084012242D2
:1036B0000000214210B500200F4908600F48006843
:1036C00020F470200D4908600846006840F440303E
:1036D000086001200A49C1F89001022005F0E8FDC8
:1036E000012005490860022005F0E2FD002005499F
:1036F000C1F8840110BD000084012242000801408D
:10370000000021420000224270B505460024164800
:10371000006820F47020144908600846006840F4EE
:1037200000200860002615E00020104908600220F3
:1037300005F0BEFD01200E49C1F884016006040EAB
:103740000C48006808B1601CC4B2012005F0B0FD4F
:10375000701CC6B2082EE7DB15B9FFF7ABFF01E01E
:10376000FFF750FF204670BD00080140840122424F
:10377000000022421001214270B50446144800683E
:1037800020F47020124908600846006840F4403078
:10379000086000200F490860002516E0E0090E4986
:1037A00008606006040E022005F082FD01200B492E
:1037B000C1F88401022005F07BFD00200549086066
:1037C000022005F075FD681CC5B2082DE6DB70BD52
:1037D000000801408401224290012142000022425F
:1037E00010B50F48006820F470200D4908600846A5
:1037F000006840F44030086001200A4908600A4926
:10380000C1F88401042005F053FD0020054908603B
:10381000042005F04DFD00200349C1F8840110BDCE
:1038200000080140900121420000224210B50F48DB
:10383000006820F470200D4908600846006840F4D4
:103840004030086000200A4908600A49C1F8900128
:10385000042005F02DFD0120054908600549C1F847
:103860009001042005F024FD10BD00000008014077
:10387000840122420000214210B500241348006850
:1038800020F47020114908600846006840F40020C8
:10389000086001200E49086005F00AFD01200D496D
:1038A000C1F8840105F004FD07E0601CC4B2FA2CE5
:1038B00003DDFFF7BBFF012010BD0548803800681D
:1038C0000028F2D10449086000BFF5E70008014074
:1038D00090012142000022428401224208B50121C8
:1038E000082002F06DF90320ADF8000010208DF8DB
:1038F000030003208DF8020069460448FFF7FAFA36
:1039000003210248FFF7AFFC08BD0000000C014096
:1039100008B501211C2002F053F94FF44350ADF8D3
:10392000000048208DF8030003208DF8020069464E
:103930001648FFF7DFFA4FF48070ADF80000102052
:103940008DF8030003208DF8020069460F48FFF749
:10395000D1FA4FF48070ADF8000010208DF803000C
:1039600003208DF8020069460948FFF7C3FA4FF4B7
:103970004070ADF8000010208DF8030003208DF892
:10398000020069460348FFF7B5FA08BD0010014080
:1039900000080140000C014008B50121702002F030
:1039A0000FF90320ADF8000048208DF80300032034
:1039B0008DF8020069460848FFF79CFA8020ADF8B0
:1039C000000048208DF8030003208DF802006946AE
:1039D0000248FFF78FFA08BD0014014000180140AB
:1039E00008B50121602002F0EBF80320ADF80000DB
:1039F00048208DF8030003208DF80200694607482F
:103A0000FFF778FA4FF40060ADF8000048208DF819
:103A1000030069460248FFF76DFA08BD001801402F
:103A20000014014008B50121102002F0C9F84FF43C
:103A30004040ADF8000048208DF803006946024878
:103A4000FFF758FA08BD00000010014008B5012139
:103A50001C2002F0B5F84FF44350ADF800001020E0
:103A60008DF8030003208DF8020069461648FFF721
:103A700041FA4FF48070ADF8000048208DF8030043
:103A800003208DF8020069460F48FFF733FA4FF420
:103A90008070ADF8000048208DF8030003208DF8F9
:103AA000020069460948FFF725FA4FF44070ADF867
:103AB000000048208DF8030003208DF802006946BD
:103AC0000348FFF717FA08BD001001400008014045
:103AD000000C014010B5044614B1012010490870D3
:103AE0000F48007888B102210E48FFF7B1FB60B99A
:103AF0000A2006F085FB00200949087002210948C8
:103B0000FFF7A6FB48B9012010BD02210548FFF7C9
:103B10009FFB012801D1024908700020F4E7000052
:103B2000D40100200018014010B5044614B1012052
:103B3000244908702348007848B301212248FFF740
:103B400087FB48B102212048FFF782FB20B180218A
:103B50001E48FFF77DFBD0B90A2006F051FB00207C
:103B60001849087001211848FFF772FB08B90320B3
:103B700010BD02211448FFF76BFB08B90420F7E7DA
:103B800080211248FFF764FBC8B90520F0E7012146
:103B90000D48FFF75DFB01280CD102210A48FFF711
:103BA00057FB012806D180210848FFF751FB012867
:103BB00000D100E00020012801D102490870002056
:103BC000D6E70000C40100200014014000180140A5
:103BD00010B5044614B10120254908702448007826
:103BE00058B301212348FFF733FB50B1022121488C
:103BF000FFF72EFB28B14FF400611F48FFF728FBA9
:103C0000D8B90A2006F0FCFA0020194908700121F1
:103C10001848FFF71DFB08B9032010BD0221154805
:103C2000FFF716FB08B90420F7E74FF400611248CC
:103C3000FFF70EFBC8B90520EFE701210D48FFF79C
:103C400007FB01280CD102210A48FFF701FB0128DC
:103C500006D1C1020848FFF7FBFA012800D100E0B5
:103C60000020012801D1024908700020D5E700009A
:103C7000B4010020001801400014014010B50446B2
:103C800014B101201A49087019480078F8B14FF4AE
:103C900000411848FFF7DCFA20B101211548FFF771
:103CA000D7FAA0B90A2006F0ABFA00201049087034
:103CB0004FF400410F48FFF7CBFA08B9032010BDBD
:103CC00001210C48FFF7C4FA80B90420F7E74FF44C
:103CD00000410848FFF7BCFA012807D10121054837
:103CE000FFF7B6FA012801D1014908700020E6E784
:103CF000A40100200014014010B50021024806F084
:103D000019FB0249086010BDF41201084C010020A3
:103D100088B000BF15480078844215D01348047855
:103D2000007813490870012600250846027811A181
:103D30006846FCF7C3FB6846FCF72DFD07461248B2
:103D4000394642696846904706F0A2F8642006F0BA
:103D500057FA002EDED00A2D05DD002600250020B2
:103D600003490870D6E7681CC5B2D3E749010020B3
:103D7000480100200A0D76616C4B657942617264DE
:103D80003A2025640A0D00004C1501080EB585E0A7
:103D9000002000F0A3FA48F230404149088000209A
:103DA000102140A24FF6FF73CDE9002102901F229F
:103DB0000521202002F0C6FB012018213CA24FF66D
:103DC000E073CDE9002102904FF4784219210520DB
:103DD00002F0B8FB0120182138A24FF6E073CDE9BC
:103DE000002102904FF478421921352000F0BCFBED
:103DF0000120182132A24FF6E073CDE90021029094
:103E00001A463221052002F09DFB012018212FA225
:103E10004FF6E073CDE9002102901A463221352099
:103E200000F0A2FB0120182129A24FF6E073CDE992
:103E3000002102904FF6FF724B21052002F082FB19
:103E40000120182126A24FF6E073CDE9002102904F
:103E50004FF6FF724B21352000F086FB0120182120
:103E600021A24FF6E073CDE9002102904FF4FC62ED
:103E70006421052002F066FB012018211EA24FF6E6
:103E8000E073CDE9002102904FF4FC6264213520FB
:103E900000F06AFB40F2DC5006F0B2F978E700006F
:103EA000D8000020CFB5CDB3BCE0BFD800000000E3
:103EB000CEC2B6C82020202020A1E6003A3234002D
:103EC000CAAAB6C82020202020A3A5003A33320079
:103ED000B5E7D1B9202020202020A3D60000000083
:103EE0003A332E3200000000B5E7C1F72020202031
:103EF0002020A3C1000000003A302E320000000054
:103F000010B502F03FF900F03FFA112000F0DEFB9F
:103F1000142006F075F9262000F0D8FB042000F0EC
:103F20009DFBB12000F0D2FB0E2000F097FB10208B
:103F300000F094FBC02000F0C9FB082000F08EFBCD
:103F4000002000F08BFBC12000F0C0FB052000F03A
:103F500085FBC52000F0BAFB382000F07FFB402035
:103F600000F07CFB3A2000F0B1FB052000F076FB6E
:103F7000362000F0ABFB1C2000F070FB2A2000F084
:103F8000A5FB002000F06AFB002000F067FB00208A
:103F900000F064FB7F2000F061FB2B2000F096FB1B
:103FA000002000F05BFB202000F058FB002000F018
:103FB00055FB9F2000F052FBB42000F087FB00204F
:103FC00000F04CFBF22000F081FB012000F046FBEA
:103FD000E02000F07BFB3F2000F040FB222000F0BF
:103FE0003DFB202000F03AFB302000F037FB292079
:103FF00000F034FB0C2000F031FB4E2000F02EFBD3
:10400000B72000F02BFB3C2000F028FB192000F02B
:1040100025FB222000F022FB1E2000F01FFB0220C7
:1040200000F01CFB012000F019FB002000F016FB43
:10403000E12000F04BFB002000F010FB1B2000F003
:104040000DFB1F2000F00AFB0F2000F007FB1620DD
:1040500000F004FB132000F001FB312000F0FEFA19
:10406000842000F0FBFA432000F0F8FA062000F06C
:10407000F5FA1D2000F0F2FA212000F0EFFA3D20C1
:1040800000F0ECFA3E2000F0E9FA3F2000F0E6FAFA
:10409000292000F01BFB2C2000F018FB00F090F909
:1040A00010BD00008EB000BF734903C9CDE90B01FC
:1040B00030208DF8340033208DF835006F49887832
:1040C000C11700EB117109118DF82E106B4988781A
:1040D000C11700EB11710911A0EB0111C9B28DF8E4
:1040E0002F109DF82E00092806DD9DF82E00373090
:1040F000C0B28DF82E0005E09DF82E003030C0B221
:104100008DF82E009DF82F00092806DD9DF82F0060
:104110003730C0B28DF82F0005E09DF82F00303009
:10412000C0B28DF82F00002000F0D8F801200C213B
:1041300053A20023CDE9002102904FF6FF72032124
:10414000052002F0FFF901200C210DAA0023CDE982
:10415000002102904FF478420321412002F0F2F94D
:1041600001200C2149A20023CDE9002102904FF645
:10417000FF720321522002F0E5F901200C2145A233
:104180000023CDE9002102904FF61F020321702089
:1041900002F0D8F901200C213FA20023CDE9002133
:1041A00002904FF6FF720D21052002F0CBF901209D
:1041B0000C210BAA0023CDE9002102901F220D2122
:1041C0004B2002F0BFF90120182137A24FF6E0730F
:1041D000CDE9002102904AF251623221052002F01D
:1041E000B1F948E01C222449083104A8FCF743FB3C
:1041F0003048006830490978884238D02E48007825
:104200002C4908602C480078D8B1692078235022C6
:1042100019210090002000F085F80121182226487D
:104220000078401E04AB53F820004FF6E073CDE950
:10423000012100904FF4FC625A210A2002F082F919
:1042400015E069207823502219210090002000F009
:1042500069F80120182119A24FF6E073CDE9002179
:1042600002904FF4FC625A21282002F06BF964207E
:1042700005F0C6FF00BFB5E7D8040108CCDB000895
:104280004D6F75646C655F49443A00004154545267
:104290003A0000004D5300004D6F75646C655F542B
:1042A0007970653A00000000D3EFD2F4CAB6B1F0DD
:1042B000E86E0000E0000020880100204E4F2043FF
:1042C0004D44000010B50021024806F033F80249C1
:1042D000086010BDC8040108D400002070B506466F
:1042E0000F484088401E83B20D480088401E82B2AD
:1042F0000021084600F07AF800240CE0002504E0D4
:10430000304600F0C5F9681C85B205484088A842CF
:10431000F6DC601C84B202480088A042EEDC70BD6E
:10432000E80200202DE9F04782460C4615461E465D
:10433000089F781E83B2701E82B22946204600F084
:1043400055F8A0460EE0A94606E0504600F0A0F958
:1043500009F101001FFA80F9B945F6DB08F1010007
:104360001FFA80F8B045EEDBBDE8F08730B50446B3
:104370000D462946204600F019F80248008800F052
:1043800087F930BDD800002010B5402006490860EC
:10439000642005F035FF40200349091F08603220E2
:1043A00005F02EFF10BD00001418014030B5044682
:1043B0000D462B4622462946204600F017F830BD10
:1043C00000B52C20084908810020887182200880CF
:1043D000832048802A2048812B208881C8213620CC
:1043E00000F096F900BD0000E8020020F0B5064696
:1043F0000C4617461D461149488900F067F93012EE
:1044000000F02CF9F0B200F029F9381200F026F98A
:10441000F8B200F023F90949888900F057F9201211
:1044200000F01CF9E0B200F019F9281200F016F9BA
:10443000E8B200F013F900F063F9F0BDE8020020E3
:104440002DE9FF4F83B081468A469346DDE910642B
:10445000414800880290A6F12000C6B204EBD47057
:1044600009EB6000401E82B20AEB0400401E83B2DA
:10447000514648460194FFF7B9FF129860BB0025EA
:1044800027E00C2C07D106EB4600344901EB8000F5
:1044900010F8058004E0324800EB061010F80580A3
:1044A00000270FE008F0010020B10BF0FF0000F042
:1044B000D5F803E00699C8B200F0D0F84FEA6808D2
:1044C000781CC7B204EBD471B7EB610FEADB681C50
:1044D000C5B2A542D5DB2DE0002529E00C2C07D183
:1044E00006EB46001D4901EB800010F8058004E052
:1044F0001B4800EB061010F80580002711E0164855
:10450000A0F800B008F0010038B10AEB050291B242
:1045100009EB070290B2FFF729FF4FEA6808781C01
:10452000C7B204EBD471B7EB610FE8DB681CC5B20E
:10453000A542D3DB0849029808800A484088401EFB
:1045400083B208480088401E82B200210846FFF767
:104550004DFF07B0BDE8F08FD800002026DC000832
:104560009AE00008E80200202DE9FE4F04460E46BE
:1045700091460C9F364800880290019400960025D1
:104580005BE034480088401EA04204DB314840888C
:10459000401EB04201DABDE8FE8F3D783A2D01D1D0
:1045A0000A250AE02E2D01D10B2506E02D2D01D183
:1045B0000C2502E0A5F13000C5B201944FF00008CF
:1045C0002DE005EB4500244901EB001010F808A090
:1045D0004FF0000B1BE01E48A0F800900AF080008E
:1045E00018B131462046FFF7C1FE4FF6FF7000EAD2
:1045F0004A0A601C84B20198201A0C2803D1019C3D
:10460000701C86B206E00BF1010000F0FF0BBBF15D
:10461000080FE0DB00BF08F1010000F0FF08B8F16F
:10462000300FCEDB0A2D03DA04F1100084B202E071
:1046300004F1080084B2009E7F1C38787E2802DCDA
:10464000387820289DDA02490298088000BFA2E746
:10465000D8000020E80200208AE6000800B50346E2
:104660004FF4805007490860202007490860194628
:10467000064801F06DFE4FF480500249091F0860A2
:1046800000BD0000140C014010180140003800402B
:1046900000B503464FF480500949086020200949BD
:1046A00008601912084801F053FED9B2064801F01B
:1046B0004FFE4FF480500249091F086000BD000002
:1046C000140C0140101801400038004000B50346AA
:1046D0004FF4805007490860202007490860D9B28C
:1046E000064801F035FE4FF480500249091F08606A
:1046F00000BD0000140C01401418014000380040B7
:1047000000B502490889FFF7E1FF00BDE80200207B
:1047100030B505460C462846FFF7D8FFE0B2FFF754
:104720009DFF30BD1FB50121102001F049FA4FF463
:104730008050ADF8000004208DF8030003208DF8B0
:10474000020069461A48FEF7D5FB0C210220FEF74D
:1047500065FB4FF48050029000208DF80C000C2077
:104760008DF80D0001208DF80E0002A8FEF794FAD6
:104770004FF48050FEF774FA4FF480510C48FEF766
:1047800072FD4FF48050FEF75FFA4FF48050FEF751
:1047900061FA28208DF8040000208DF805008DF8BE
:1047A000060001208DF8070001A800F021FE1FBDC2
:1047B0000010014008B50121052001F001FA4FF475
:1047C0008070ADF8000018208DF8030003208DF8EC
:1047D000020069461248FEF78DFB062001F07AFAC6
:1047E00001211C2001F0ECF94FF40050ADF800005D
:1047F00003208DF8020010208DF803006946094857
:10480000FEF778FB1020ADF8000003208DF80200C1
:1048100010208DF8030069460148FEF76BFB08BDC8
:10482000000801400010014010B5FFF7C3FFFFF77B
:1048300079FF00F003F800F0FDFA10BD00B587B075
:10484000012141F2140001F0BBF901212548FEF7D6
:1048500019FCE020ADF8040003208DF806001820B4
:104860008DF8070001A92048FEF744FB4020ADF871
:10487000040003208DF8060010208DF8070001A920
:104880001A48FEF737FB10211748FEF7ECFC002111
:10489000174801F0D5FC0020ADF808004FF48270F5
:1048A000ADF80A000020ADF80C000220ADF80E00B3
:1048B0000020ADF810004FF40070ADF81200282071
:1048C000ADF814000020ADF816000720ADF8180070
:1048D00002A9074801F0CEFC0121054801F0B0FC17
:1048E00007B000BD00023000000801400010014088
:1048F0000030014030B503460024002500BF08E029
:10490000002503E07820FEF7ECF86D1C9D42F9D3FA
:10491000641C052CF4D330BD0024002600250020A3
:104920004649087089E045480078102815D003DC16
:1049300048B1012871D104E011286FD031286CD121
:1049400000E000BF6EE001203C49087001F0B0FAC1
:1049500010B931203949087064E000F08BF9044641
:10496000082C52D2DFE804F051040F1A25303B46E0
:1049700033480D21426933A090470120384908701F
:104980000126002542E02E480D21426935A09047BE
:104990000220334908700126002537E028480D2100
:1049A000426937A0904703202D4908700126002551
:1049B0002CE023480D21426938A090470420284963
:1049C00008700126002521E01D480D2142693AA00A
:1049D00090470520224908700126002516E0184856
:1049E0000D2142693BA0904706201D490870012611
:1049F00000250BE012480D2142693DA09047072099
:104A0000174908700126002500E000BF00BF002004
:104A10000A49087006E000E000E000BF00200749F6
:104A2000087000BF00BF46B16D1C3848854204D3F2
:104A30000020054606460A49087074E789010020EF
:104A40004C150108636D643120D6A5C2E9BFAAC325
:104A5000C5206964656E746966790D0A00000000FE
:104A600088010020636D643220D6A5C2E9B9D8C39D
:104A7000C5206964656E746966790D0A00000000DE
:104A8000636D643320C6BBB9FBBFAAC3C52069648C
:104A9000656E746966790D0A00000000636D643408
:104AA00020C6BBB9FBB9D8C3C5206964656E7469FB
:104AB00066790D0A00000000636D643520D2BBB634
:104AC000FEC8FDCBC4206964656E746966790D0A01
:104AD00000000000636D643620B6FEB6FEC8FDCB54
:104AE000C4206964656E746966790D0A000000006F
:104AF000636D643720C8FDB6FEC8FDCBC420696471
:104B0000656E746966790D0A0000000080841E00DD
:104B100070B5A6B08C22294903A8FBF7ACFE28A1EA
:104B200003C9CDE901010126002441E000F08DF820
:104B300008B900263EE001A8015DC12000F05CF943
:104B40000021C32000F058F90421082000F054F996
:104B50000120FFF7CFFE0021082000F04DF90120D1
:104B6000FFF7C8FE002512E004EB840003A901EB67
:104B70008000405D00B90CE004EB840003AA02EB66
:104B80008000415D052000F037F9681CC5B2142D86
:104B9000EADB00BF2946B92000F02EF9FF21B22040
:104BA00000F02AF90421372000F026F9601CC4B275
:104BB000072CBBDB00BF304626B070BD7413010864
:104BC000010203040506070010B56821352000F036
:104BD00013F909211C2000F00FF92021BD2000F05D
:104BE0000BF90121082000F007F90520FFF782FEEC
:104BF0000021082000F000F90520FFF77BFE00F0FF
:104C000024F808B9002010BDFF21B22000F0F4F80C
:104C10000621372000F0F0F80621372000F0ECF8EC
:104C20000520FFF767FE0B211C2000F0E5F810219E
:104C3000292000F0E1F80021BD2000F0DDF801207E
:104C4000E1E710B500F01CF810BD70B50025002498
:104C50000BE0B22000F0B2F8212801D1012506E0D6
:104C60000A20FFF747FE601CC4B20A2CF1DB00BF2C
:104C7000284670BD10B5C52000F0A0F810BD00009A
:104C800010B508201949087000F032F80021BD2045
:104C900000F0B2F84821172000F0AEF80520FFF729
:104CA00029FE80213C2000F0A7F807213E2000F0DB
:104CB000A3F8FF21382000F09FF807213A2000F0E8
:104CC0009BF80021402000F097F80821422000F0D6
:104CD00093F80021442000F08FF80821462000F0CE
:104CE0008BF80120FFF706FE10BD00008A010020AE
:104CF00010B5062000F062F83521172000F07CF88E
:104D00000520FFF7F7FD062000F058F80321892061
:104D100000F072F80520FFF7EDFD4321CF2000F0F1
:104D20006BF80520FFF7E6FD0221CB2000F064F8C8
:104D30000321112000F060F81F480078402810D1AE
:104D400000211E2000F058F80F21192000F054F81F
:104D500018211B2000F050F82C211D2000F04CF8E9
:104D60000FE000211E2000F047F83F21192000F03D
:104D700043F848211B2000F03FF81F211D2000F0C0
:104D80003BF80520FFF7B6FD0421CD2000F034F8F4
:104D90004C21172000F030F80120FFF7ABFD002177
:104DA000B92000F029F84F21CF2000F025F8FF218D
:104DB0006F2000F021F810BD8A01002070B5044674
:104DC00010210B48FEF74DFA40210A48FEF749FA38
:104DD000052007F0BFF9204607F0BCF9002007F0D6
:104DE000B9F9054610210248FEF73DFA284670BD84
:104DF000000801400010014070B505460C46102126
:104E00000A48FEF72EFA40210948FEF72AFA042044
:104E100007F0A0F9284607F09DF9204607F09AF917
:104E200010210248FEF71FFA70BD00000008014083
:104E30000010014010B54FF400511248FEF713FA6C
:104E40006420FFF757FD4FF400510E48FEF709FAB2
:104E50006420FFF74FFD4FF400510A48FEF703FAB4
:104E60006420FFF747FD10210748FEF7FAF9642098
:104E7000FFF740FD10210448FEF7F5F96420FFF725
:104E800039FD10BD001001400008014010B5094A6D
:104E90000121094805F082FA04464FF4FA712046D0
:104EA00005F092FA0021054805F044FA044908602B
:104EB00010BD0000F16C0008FC04010804050108A5
:104EC000E800002000BF00F027F8FCE708B501214A
:104ED000602000F075FE4CF6F240ADF800001020A6
:104EE0008DF8030003208DF8020069460848FEF79C
:104EF00001F840F28230ADF8000010208DF8030078
:104F000003208DF8020069460248FDF7F3FF08BD53
:104F100000140140001801402DE9F84320480078B2
:104F20004FEAD0181E480078C0F341141C4800789E
:104F3000C0F300161A48007800F00F00C0F1100509
:104F40000E27B8F1000F24D11648007820B10128AF
:104F50000BD002281BD111E004272B4632463946DC
:104F600011480094FDF758FA12E01B272B463246F1
:104F700039460E480094FDF74FFA09E00E272B46FC
:104F8000324639460A480094FDF746FA00E000BF71
:104F900004E02A4621460348FDF7AAFDBDE8F88350
:104FA000E4000020F802002014050108940501081F
:104FB000F408010810B50021054805F0BBF90549C2
:104FC00008600021044805F0B5F90449086010BDE7
:104FD00044140108AC01002054140108B001002061
:104FE00088B0104800883C2190FBF1F084B200BFEB
:104FF0000C4800883C2190FBF1F084B222460AA1C3
:105000006846FBF75BFA6846FBF7C5FB05460D48AB
:1050100029464269684690474FF47A7005F0F0F8E7
:10502000E6E70000A80100200A0D4C45445F4772E6
:105030006F772070776D206973203A202564250AE8
:105040000D0000004C15010800BF05F03BF810B53D
:10505000FCF77EFDFEF7C4FC10BD000010B500217A
:10506000054805F067F9054908600021044805F086
:1050700061F90449086010BD001401089401002082
:10508000101401089801002088B000BF0A48437836
:1050900002780AA16846FBF711FA6846FBF77BFB2A
:1050A00004460F4821464269684690474FF47A709B
:1050B00005F0A6F8EAE70000900100200A0D7377DA
:1050C000697463685F535059203A202564207377D0
:1050D000697463685F5053543A2025640A0D0000D8
:1050E0004C15010800BF00F00BF810B500F03CF9BA
:1050F000FEF798FCFCF72CFD9620FCF75DFE10BD3A
:1051000000240025BBE00020FEF7B8FD0646032E74
:105110001CD1DDB90CB9012000E00020044632208A
:1051200004F04CF83CB15648007802280AD101201E
:105130005349087006E052480078012802D1022045
:105140004F49087001204F4908701DE0042E1BD103
:10515000D4B90DB9012000E000200546322004F04A
:105160002DF83DB14648407802280AD10120444933
:10517000487006E042484078012802D102204049A8
:10518000487001203F4908703F48007818B332202A
:1051900004F014F800203C490870394800783B4975
:1051A0000978884208D039480078354908700CB928
:1051B000012000E000200446314840783449097855
:1051C000884208D0324800782D4948700DB9012036
:1051D00000E0002005462A4800782E4909788842D8
:1051E00023D0274800782B4908700846007801280A
:1051F0000DD15020FCF7E0FD2748006805F0BCF811
:105200000021264805F096F8254908600AE0214863
:105210000078022806D15020FCF7CEFD2048006817
:1052200005F0AAF8322003F0C9FF154840781D495F
:105230000978884223D0124840781A4908700846F5
:10524000007801280DD15020FCF7B6FD1448006805
:1052500005F092F80021144805F06CF80E4908603A
:105260000AE010480078022806D15020FCF7A4FD7F
:105270000948006805F080F8322003F09FFF42E7FC
:10528000900100208E0100208F0100208C01002061
:105290008D010020A5010020A0010020201401089C
:1052A0009C010020A60100203014010810B504461E
:1052B000412C24D108210846FCF756FE3D2111203F
:1052C00003F03CFB8621172003F038FB7F212620CA
:1052D00003F034FB1E212D2003F030FB00212C2095
:1052E00003F02CFB8D212A2003F028FB3E212B20EC
:1052F00003F024FB022003F0DBFF00F019F910BDDE
:1053000000BFFEE72DE9F0410746FEF769FAEE20FF
:10531000FEF732FA00BFFEF7AFFA0028FBD138469D
:10532000FEF72AFA00BFFEF7A7FA0028FBD1FEF726
:1053300057FAEF20FEF720FA00BFFEF79DFA00288B
:10534000FBD10120FEF7E0F904460020FEF7DCF96E
:105350000546FEF76BFA052004F052FF26022E43A5
:105360003046BDE8F081000008B50121602000F062
:1053700027FC0320ADF8000010208DF80300032067
:105380008DF8020069461748FDF7B4FD4FF49040D0
:10539000ADF8000010208DF8030003208DF8020006
:1053A00069461148FDF7A6FD48F20100ADF800007E
:1053B00048208DF8030069460B48FDF79BFD01214D
:1053C0000848FDF74EFF02210648FDF74AFF4FF45B
:1053D00080410548FDF745FF4FF400610248FDF7A5
:1053E00040FF08BD00180140001401407047000054
:1053F00070B5002100230F22C47804B3154C246833
:1054000004F4E064C4F5E064210AC1F10403CA4075
:10541000447804FA03F184781440214309010E4CC6
:105420000678A155047804F01F050124AC400578E6
:105430006D11AD0005F1E025C5F8004109E00478E3
:1054400004F01F050124AC40044D0678761145F8A0
:10545000264070BD0CED00E000E400E080E100E0DB
:1054600010B501200749086003F022FF002006491B
:10547000C1F88401012003F01BFF012001490860ED
:1054800010BD0000840123420000234210B501201A
:105490000749086003F00CFF00200649C1F8940199
:1054A000012003F005FF01200149086010BD000044
:1054B000948122420080224210B5012007490860F1
:1054C00003F0F6FE00200649C1F8A401012003F014
:1054D000EFFE01200149086010BD0000A401234235
:1054E0000000234208B50121602000F069FB4FF461
:1054F0000060ADF8000003208DF8020010208DF848
:10550000030069460848FDF7F5FC0220ADF80000ED
:1055100003208DF8020010208DF80300694603482F
:10552000FDF7E8FC08BD0000001401400018014030
:1055300010B5142000F064FC044604F0030018B910
:105540000321142000F06AFF10BDF0B587B00546B6
:10555000002708210846FCF707FD00210D2003F075
:10556000EDF980210E20FCF7FFFC93208DF8080058
:1055700020208DF8090001A802AB022202A90090A8
:105580000C2000F01BF80646262E10D1002407E060
:1055900002A8005D285502A8005D4740601CC4B207
:1055A000042CF5DB02A8005DB84200D0BB268021A8
:1055B0000E2000F033FF304607B0F0BD2DE9FE4F5E
:1055C0000646884691469A46DDF830B0BB200290E8
:1055D0000020019000900C2E06D00E2E09D1122032
:1055E00001901020009005E077200190302000907D
:1055F00000E000BF00BF019840F08001022003F0EE
:105600009DF980210420FCF7AFFC0021012003F06C
:1056100095F980210A2000F001FF002505E018F827
:105620000510092003F08AF96D1C4D45F7D331466A
:10563000012003F083F90C2E03D180210D2000F00E
:10564000EDFE4FF47A7500BF042000F0D9FB04464C
:105650006D1E35B104F0010018B9009820400028F3
:10566000F2D080210D20FCF77FFC95B3062000F0DE
:10567000C7FB00F01B0068BB262002900198204069
:1056800000F0010008B1CC2002900C2E24D10A2099
:1056900000F0B6FB04460C2000F0B2FB00F0070758
:1056A0002FB1601E07EBC000CBF8000002E0E00065
:1056B000CBF8000004B90124122C00DD12240025CF
:1056C00005E0092000F09CFB0AF805006D1CA542CE
:1056D000F7D301E0BB20029080210C2000F09EFE59
:1056E0000021012003F02AF90298BDE8FE8F70B571
:1056F00088B005460C4608210846FCF735FC072112
:105700000D2003F01BF90321142000F087FE8DF813
:105710000C5002A803AB012203A900900C20FFF754
:105720004DFF0646262E09D10298102806D19DF875
:105730000C0020709DF80D00607000E0BB26304624
:1057400008B070BD10B54FF480511F48FDF78BFDB8
:10575000012003F0ADFD4FF480511B48FDF781FDA2
:10576000012003F0A5FD4FF480511748FDF77BFDA4
:10577000012003F09DFD0F21012003F0DFF800BFA1
:10578000012000F03DFB00F010000028F8D10120BE
:1057900003F08EFD3D21112003F0D0F81E212D20B5
:1057A00003F0CCF800212C2003F0C8F88D212A202A
:1057B00003F0C4F83E212B2003F0C0F8402115204F
:1057C00003F0BCF810BD00000010014010B500212E
:1057D000024804F0AFFD0249086010BD64130108DF
:1057E00084010020FFF798F810B5FFF71DF810BDF1
:1057F000002400BF1748006807F034FE0546002269
:10580000154B07F0E3FA0BD2012414480078022864
:105810001BD002201149087001201149087014E0C2
:105820000C48006807F01EFE05460E4A0E4B07F0B6
:1058300007FC0AD24CB1002408480078012804D0A3
:105840000120064908700649087042F2107004F001
:10585000D7FCCFE7D801002000002640DC01002063
:10586000DD010020CDCCCCCCCCCC264010B5002422
:105870002B20FFF7A3FA2849087000212920FFF701
:10588000BBFA00210220FFF7B7FA2348007800F0A6
:105890001000C8B1B220FFF791FA212814D1BF201F
:1058A000FFF78CFA35280FD1BA20FFF787FA0446A4
:1058B000002C05DD042C03DC10201849087006E0DC
:1058C00011201649087002E01120144908700021C7
:1058D0002B20FFF791FA00211C20FFF78DFA002101
:1058E0002920FFF789FA00210220FFF785FA00211D
:1058F0002B20FFF781FA0021BA20FFF77DFA002163
:10590000BC20FFF779FA01210820FFF775FA002182
:105910000820FFF771FA10BD8B01002089010020DB
:1059200010B50021024804F005FD0249086010BDD1
:10593000141301085C01002088B000BF80210C48CE
:10594000FDF786FC0B490870084602780AA16846F4
:10595000FAF7B4FD6846FAF71EFF04460E482146E2
:105960004269684690474FF47A7004F049FCE5E7D5
:1059700000080140580100200A0D69732069742055
:105980007261696E6E696E67206E6F773F203A2094
:1059900025640A0D000000004C15010808B501211E
:1059A000042000F00DF98020ADF8000004208DF8EF
:1059B000030003208DF8020069460248FDF79AFAB9
:1059C00008BD0000000C014010B50021024804F0A1
:1059D000B1FC0249086010BD2413010864010020D5
:1059E0008AB0FFF7AFFE4120FFF760FC00BF1D4902
:1059F0005220FFF77CFE0546262804D01949522084
:105A0000FFF775FE0546262D1CD11648FFF79DFDB4
:105A1000262817D1012600241248C0781149897818
:105A2000CDE900100F48437802780FA102A8FAF7D9
:105A300045FD02A8FAF7AFFE074614483946426909
:105A400002A89047C82004F0DBFB002ECFD0032C27
:105A500005DD00260024034800210160C7E7601C23
:105A6000C4B2C4E7600100205468652043617264D9
:105A70002049442069733A20253032582530325865
:105A800025303258253032580D0A00004C150108D7
:105A900010B500F00FF84FF480510448FDF7E3FB18
:105AA00010210348FDF7DFFB10BD0000001001408E
:105AB0000008014008B50121042000F081F8102001
:105AC000ADF8000003208DF8020010208DF80300CF
:105AD00069462348FDF70EFA0121042000F070F812
