:020000040800F2
:100000001025002021030008290300082B03000805
:100010002D0300082F030008310300080000000032
:10002000000000000000000000000000590200086D
:100030003503000800000000D10200080D0300088D
:100040003B0300083B0300083B0300083B03000898
:100050003B0300083B0300083B0300083B03000888
:100060003B0300083B0300083B030008810700082E
:10007000A1070008C1070008E107000801080008FF
:1000800021080008410800083B030008F932000875
:1000900011340008FD050008E90600083B030008CC
:1000A0003B0300083B0300083B0300083B03000838
:1000B0003B0300083B0300083B0300083B03000828
:1000C0003B0300083B0300083B0300083B03000818
:1000D0003B030008791C0008891D00083B03000849
:1000E0003B0300083B0300083B0300083B030008F8
:1000F0003B0300083B0300083B0300083B030008E8
:100100003B0300083B0300083B0300083B030008D7
:100110003B0300083B0300083B0300083B030008C7
:100120006108000881080008A5080008C508000843
:1001300000F002F800F03AF80AA090E8000C8244BF
:100140008344AAF10107DA4501D100F02FF8AFF29C
:10015000090EBAE80F0013F0010F18BFFB1A43F0A5
:1001600001031847C8620000E8620000103A24BF8B
:1001700078C878C1FAD8520724BF30C830C144BF0C
:1001800004680C607047000000230024002500264E
:10019000103A28BF78C1FBD8520728BF30C148BFEA
:1001A0000B6070471FB51FBD10B510BD00F0B4F94E
:1001B0001146FFF7F7FF0FB400F00CF80FBC03F087
:1001C00045FE00F0D1F803B4FFF7EEFF03BC00F0EA
:1001D0009DF9000004B003F053FE0448002103F031
:1001E000D1FE03F05FFE00F0BFF80000FC620008E3
:1001F00080F309887047EFF309807047684680F301
:10020000098804480078C00714BF0220032080F347
:1002100014887047BC620008DFF818C0EFF305834C
:100220001B0618BF6047EFF31483DB0708BF604766
:1002300000DF704779400008DFF818C0EFF305834E
:100240001B0618BF6047EFF31483DB0708BF604746
:1002500000DF70475D420008EFF30980816911F803
:10026000021CF1B990E80F10E047EFF3098C8CE81D
:100270000700144B93E8060091420FD039B12CE9E6
:10028000F00FC1F828C00CB404F08CFB0CBC1A6051
:10029000D2F828C0BCE8F00F8CF309886FF0020E8A
:1002A000704710B5084A1268914209D8074C54F8B3
:1002B000214090E80F10A047EFF3098C8CE80F0065
:1002C00010BD0000780000206405000864050008E7
:1002D00004F03AFA0C4B93E80600914210D0EFF389
:1002E000098C2CE9F00FC1F828C00CB404F05AFBBB
:1002F0000CBC1A60D2F828C0BCE8F00F8CF3098857
:100300006FF0020E704700007800002004F012FC2D
:10031000E0E7000003F09CFE04F00CFCDAE70000CC
:100320000948804709480047FEE7FEE7FEE7FEE789
:10033000FEE7FEE7FEE7FEE7FEE7FEE704480549C5
:10034000054A064B70470000B11B00083101000848
:10035000101F002010250020102100201021002057
:1003600000487047AC1E002010B50446AFF3008073
:100370002046BDE81040FFF726BF10B5431C02E041
:1003800010F8011B71B18107FAD14FF0013202C898
:100390008C1A8C4314EAC211F9D0C01A0A0603D091
:1003A000C01E10BDC01A10BD0A0401D0801E10BDB1
:1003B0000902FCD0401E10BD421E12F8013F002B66
:1003C000FBD111F8013B002B02F8013BF9D170473A
:1003D00010B5203AC0F00B80B1E81850203AA0E8E0
:1003E0001850B1E81850A0E81850BFF4F5AF5FEA14
:1003F000027C24BFB1E81850A0E8185044BF18C9C7
:1004000018C0BDE810405FEA827C24BF51F8043B6D
:1004100040F8043B08BF7047D20728BF31F8023BC1
:1004200048BF11F8012B28BF20F8023B48BF00F855
:10043000012B70474FF0000200B5134694469646D4
:10044000203922BFA0E80C50A0E80C50B1F12001E7
:10045000BFF4F7AF090728BFA0E80C5048BF0CC095
:100460005DF804EB890028BF40F8042B08BF7047F3
:1004700048BF20F8022B11F0804F18BF00F8012B65
:10048000704700004FF0013C50F8042B51F8043B3A
:100490009A4221D1A2EB0C03934313EACC1317D158
:1004A00050F8042B51F8043B9A4215D1A2EB0C03EF
:1004B000934313EACC130BD150F8042B51F8043BAF
:1004C0009A4209D1A2EB0C03934313EACC13DBD07D
:1004D0004FF00000704700BFD01A01BAB1FA81F1A5
:1004E00001F0180122FA01F0CB40C1F12001DBB28A
:1004F000C0B2C01A2CFA01F3D11A914311EAC31108
:10050000E6D17047704770477047000001491820D6
:10051000ABBEFEE7260002007546FFF721FFAE46A0
:1005200005006946534620F00700854618B020B5FF
:10053000FFF704FFBDE820404FF000064FF0000732
:100540004FF000084FF0000B21F00701AC46ACE87B
:10055000C009ACE8C009ACE8C009ACE8C0098D46E8
:10056000704770470000000008B50121102001F01D
:100570000FF92020ADF8000010208DF803000320B3
:100580008DF802006946044800F054FA2021024820
:1005900000F0BFFB08BD00000010014010B504F0E2
:1005A000BFFD01F045FC01F081FC03F09FF9FFF76E
:1005B000DBFF00F003FE4FF4FA7000F009F810BD05
:1005C00010B501F0A9FC03F0BDF900F0C9FE10BDA3
:1005D00010B5044600222021074800F09CFB20466D
:1005E00003F042FC01222021034800F094FB204646
:1005F00003F03AFC10BD00000010014070B5364811
:10060000407802281ED13548006800F0100058B12B
:1006100010203249086032480068B0B130480621E5
:1006200002680120904710E02C48006800F00300A9
:1006300058B12B48006840B12948022102680120C6
:10064000904702E0202025490860244808300468CB
:10065000001F056804F0040088B905F4806070B9D3
:100660001E48001D006840F480601C49091D086098
:100670001C48006818B11B4801680320884704F033
:10068000020088B905F4007070B91448001D0068B4
:1006900040F400701149091D08601248006818B143
:1006A000104801680120884704F0010090B905F462
:1006B000807078B9C4F307405F280BD25F20B0EB9D
:1006C000146F07D10548001D006840F4807003498D
:1006D000091D086070BD00004E000020106400403D
:1006E000580000205400002070B5224800680028FF
:1006F0003FD021480468001F056804201E491439B2
:10070000086004F0040078B105F4806060B11A4814
:10071000001F006820F480601749091F0860154811
:1007200001680420884724E004F0020078B105F451
:10073000007060B11048001F006820F400700E497E
:10074000091F08600B4801680320884711E004F086
:10075000010070B105F4807058B10748001F0068AF
:1007600020F480700449091F0860024801680220D3
:10077000884770BD54000020186400407047000096
:1007800010B50548006800F00F0403484460204697
:10079000FFF7F4FF10BD00000000024070470000AA
:1007A00010B505480068C0F30314200102494860F1
:1007B0002046FFF7F3FF10BD000002407047000025
:1007C00010B505480068C0F30324200202494860C0
:1007D0002046FFF7F3FF10BD000002407047000005
:1007E00010B505480068C0F303342003024948608F
:1007F0002046FFF7F3FF10BD0000024070470000E5
:1008000010B505480068C0F303442004024948605D
:100810002046FFF7F3FF10BD0000024070470000C4
:1008200010B505480068C0F303542005024948602C
:100830002046FFF7F3FF10BD0000024070470000A4
:1008400010B505480068C0F30364200602494860FB
:100850002046FFF7F3FF10BD000002407047000084
:1008600010B50548006800F00F040348001D04603F
:100870002046FFF7F3FF10BD000402407047000060
:1008800010B506480068C0F3031420010349091D90
:1008900008602046FFF7F2FF10BD00000004024090
:1008A0007047000010B506480068C0F3032420021A
:1008B0000349091D08602046FFF7F2FF10BD000044
:1008C0000004024010B50C480068C0F3033434B192
:1008D00020030949091D0860204600F00FF806486A
:1008E0000068C0F3034434B120040349091D0860C3
:1008F000204600F004F810BD000402407047704725
:1009000018B5002844D0C0F34211C0F30322214B94
:100910009B6903F001032BB91E4B9B6943F0010354
:100920001C4CA36100F48053A3B11B4BDB69009303
:1009300000F01F0301FA03F3009C9C43009400F0B5
:100940001F0302FA03F3009C23430093124C009B05
:10095000E3611DE0104B5B68009300F01F0301FA98
:1009600003F3009C9C43009400F01F0302FA03F37E
:10097000009C2343009307210022009B23EA01638C
:100980000093009B43EA02630093034C009B636067
:1009900018BD0000001002400000014001461D4843
:1009A000814204D11C488069C0F3800070471B4815
:1009B000814204D118488069C0F3C000F6E71848A6
:1009C000814204D114488069C0F30010EEE7154855
:1009D000814204D110488069C0F34010E6E7124814
:1009E000814204D10C488069C0F38010DEE70F48D3
:1009F000814204D108488069C0F3C010D6E70C4892
:100A0000814204D104488069C0F30020CEE7002071
:100A1000CCE700000008014000100240000C01403B
:100A2000001001400014014000180140001C01406A
:100A3000002001402DE9F04102460025002600205B
:100A400000230024002791F803C00CF00F0591F853
:100A500003C00CF0100CBCF1000F03D091F802C0E1
:100A60004CEA050591F800C0BCF1000F31D01468C4
:100A700000202BE04FF0010C0CFA00F3B1F800C09D
:100A80000CEA03069E4220D183004FF00F0C0CFAB3
:100A900003F7BC4305FA03FC4CEA040491F803C0D5
:100AA000BCF1280F06D14FF0010C0CFA00FCC2F883
:100AB00014C00AE091F803C0BCF1480F05D14FF013
:100AC000010C0CFA00FCC2F810C0401C0828D1D35D
:100AD0001460B1F800C0BCF1FF0F34DD5468002091
:100AE0002EE000F1080C4FF0010808FA0CF3B1F801
:100AF00000C00CEA03069E4221D183004FF00F0C88
:100B00000CFA03F7BC4305FA03FC4CEA040491F821
:100B100003C0BCF1280F05D100F1080C08FA0CF84D
:100B2000C2F8148091F803C0BCF1480F07D100F15E
:100B3000080C4FF0010808FA0CF8C2F81080401CAD
:100B40000828CED35460BDE8F0812DE9F041054678
:100B50000C46174698460F2C02D90020BDE8F081BC
:100B60002846FFF71BFF18B90121284600F02AF894
:100B7000B8F1000F10D1022F05D1E8680121A14082
:100B80008843E86008E0032F06D127F00107E868F2
:100B90000121A1400843E860082C01D22E4601E063
:100BA000083C2E1D3068A2000F2191408843306020
:100BB00048EA8700A100884031680843306001207E
:100BC000CCE70000002945D0454A904206D1454A6D
:100BD000926942F00402434B9A6180E0424A90429B
:100BE00006D1404A926942F008023E4B9A6176E093
:100BF0003E4A904206D13B4A926942F01002394B7C
:100C00009A616CE03A4A904206D1364A926942F0C3
:100C10002002344B9A6162E0364A904206D1314A52
:100C2000926942F040022F4B9A6158E0324A90425A
:100C300006D12C4A926942F080022A4B9A614EE01A
:100C40002E4A90424BD1274A926942F48072254B3A
:100C50009A6144E0224A904206D1224A926922F0E7
:100C60000402204B9A613AE01F4A904206D11D4A85
:100C7000926922F008021B4B9A6130E01B4A9042B5
:100C800006D1184A926922F01002164B9A6126E0AA
:100C9000174A904206D1134A926922F02002114B62
:100CA0009A611CE0134A904206D10E4A926922F0E2
:100CB00040020C4B9A6112E00F4A904206D1094A59
:100CC000926922F08002074B9A6108E00B4A904239
:100CD00005D1044A926922F48072024B9A617047EE
:100CE0000008014000100240000C014000100140CB
:100CF0000014014000180140001C01400020014088
:100D00000246002093680B400BB1012000E0002058
:100D10007047016170470AB1016100E041617047AD
:100D20002DE9FC5F0546884691469A46DDF830B0CD
:100D300000950520019000245FE004EB0410374982
:100D400011F810009BF80010884253D104EB0410F6
:100D5000324901EB400040789BF80110884249D1AC
:100D600008F10F0083B205F10F0082B24146284618
:100D700000F066FB00263BE0002734E00D9890B9B8
:100D800004EB0410254901EB4000801C805D8021AC
:100D90003941084018B1484600F0A0FC21E0504617
:100DA00000F09CFC1DE01E48A0F8009004EB04102D
:100DB0001A4901EB4000801C805D802139410840C8
:100DC00018B14146284600F0FBFA681C85B200982D
:100DD000281A102805D1009D08F101001FFA80F89B
:100DE00003E0781CC7B2082FC8DB00BF701CC6B276
:100DF000202EC1DB00BF601C84B2019884429CDBC2
:100E000008484088401E83B206480088401E82B2CF
:100E10000021084600F014FBBDE8FC9F3A5E000884
:100E200030000020A80000202DE9FC5F0546884620
:100E300091469A46DDF830B000950B2001900024D1
:100E400067E004EB840000EB44103A4911F810000D
:100E50009BF80010884259D104EB840000EB441049
:100E6000344901EB400040789BF8011088424DD195
:100E700008F1170083B205F1170082B241462846F7
:100E800000F0DEFA00263FE0002738E00D98A0B918
:100E900004EB840000EB4410264901EB4000801C69
:100EA000805D80213941084018B1484600F016FCA9
:100EB00023E0504600F012FC1FE01F48A0F800900D
:100EC00004EB840000EB44101A4901EB4000801C45
:100ED000805D80213941084018B14146284600F024
:100EE0006FFA681C85B20098281A182805D1009D51
:100EF00008F101001FFA80F803E0781CC7B2082F40
:100F0000C4DB00BF701CC6B2482EBDDB00BF601C36
:100F100084B20198844294DB08484088401E83B222
:100F200006480088401E82B20021084600F088FA78
:100F3000BDE8FC9FE45E000830000020A80000200F
:100F40002DE9FC5F0546884691469A46DDF830B0AB
:100F500000950120019000245FE004EB84103749E4
:100F600011F810009BF80010884253D104EB841054
:100F7000324901EB400040789BF80110884249D18A
:100F800008F11F0083B205F11F0082B241462846D6
:100F900000F056FA00263BE0002734E00D9890B9A7
:100FA00004EB8410254901EB4000801C805D80210A
:100FB0003941084018B1484600F090FB21E0504606
:100FC00000F08CFB1DE01E48A0F8009004EB84109C
:100FD0001A4901EB4000801C805D802139410840A6
:100FE00018B14146284600F0EBF9681C85B200981C
:100FF000281A202805D1009D08F101001FFA80F869
:1010000003E0781CC7B2082FC8DB00BF701CC6B253
:10101000802EC1DB00BF601C84B2019884429CDB3F
:1010200008484088401E83B206480088401E82B2AD
:101030000021084600F004FABDE8FC9F1262000897
:1010400030000020A80000200EB584E0002000F051
:1010500093F94FF6FF7040490880002010213FA20D
:101060004FF6FF73CDE9002102901F2205212020B9
:1010700000F016FD012018213BA24FF6E073CDE9E8
:10108000002102904FF478421921052000F008FD5C
:101090000120182137A24FF6E073CDE9002102901C
:1010A0004FF478421921352000F088FA01201821E8
:1010B00031A24FF6E073CDE9002102901A463221A9
:1010C000052000F0EDFC012018212EA24FF6E07360
:1010D000CDE9002102901A463221352000F06EFA47
:1010E0000120182128A24FF6E073CDE900210290DB
:1010F0004FF6FF724B21052000F0D2FC0120182191
:1011000025A24FF6E073CDE9002102904FF6FF7261
:101110004B21352000F052FA0120182120A24FF671
:10112000E073CDE9002102904FF4FC6264210520B8
:1011300000F0B6FC012018211DA24FF6E073CDE9A6
:10114000002102904FF4FC626421352000F036FA51
:10115000194802F045FA79E730000020CFB5CDB349
:10116000BCE0BFD800000000CEC2B6C820202020BE
:1011700020A1E6003A333200CAAAB6C820202020B7
:1011800020A3A5003A323000B5E7D1B920202020B5
:101190002020A3D6000000003A332E3200000000C9
:1011A000B5E7C1F7202020202020A3C100000000C7
:1011B0003A302E320000000060E3160010B500F057
:1011C00061FB00F00BF9112000F0A6FA142002F0E8
:1011D0004BFE262000F0A0FA042000F065FAB120B2
:1011E00000F09AFA0E2000F05FFA102000F05CFA8E
:1011F000C02000F091FA082000F056FA002000F01C
:1012000053FAC12000F088FA052000F04DFAC520FD
:1012100000F082FA382000F047FA402000F044FA4B
:101220003A2000F079FA052000F03EFA362000F06E
:1012300073FA1C2000F038FA2A2000F06DFA002022
:1012400000F032FA002000F02FFA002000F02CFA13
:101250007F2000F029FA2B2000F05EFA002000F039
:1012600023FA202000F020FA002000F01DFA9F2031
:1012700000F01AFAB42000F04FFA002000F014FA3F
:10128000F22000F049FA012000F00EFAE02000F010
:1012900043FA3F2000F008FA222000F005FA20204F
:1012A00000F002FA302000F0FFF9292000F0FCF9EC
:1012B0000C2000F0F9F94E2000F0F6F9B72000F00C
:1012C000F3F93C2000F0F0F9192000F0EDF92220AC
:1012D00000F0EAF91E2000F0E7F9022000F0E4F93E
:1012E000012000F0E1F9002000F0DEF9E12000F03B
:1012F00013FA002000F0D8F91B2000F0D5F91F20C8
:1013000000F0D2F90F2000F0CFF9162000F0CCF950
:10131000132000F0C9F9312000F0C6F9842000F054
:10132000C3F9432000F0C0F9062000F0BDF91D20EC
:1013300000F0BAF9212000F0B7F93D2000F0B4F92F
:101340003E2000F0B1F93F2000F0AEF9292000F076
:10135000E3F92C2000F0E0F900F05CF810BD00008B
:1013600010B50021024802F00DFE0249086010BDD0
:10137000946200082C00002070B506460F48408893
:10138000401E83B20D480088401E82B200210846EC
:1013900000F056F800240CE0002504E0304600F090
:1013A0009DF9681C85B205484088A842F6DC601C9F
:1013B00084B202480088A042EEDC70BDA800002084
:1013C00030B504460D462946204600F019F802487B
:1013D000008800F083F930BD3000002010B54020B7
:1013E00006490860642002F03FFD40200349091FC0
:1013F0000860322002F038FD10BD000014180140D2
:1014000030B504460D462B4622462946204600F0BC
:1014100017F830BD00B52C200849088100208871DC
:1014200082200880832048802A2048812B208881C0
:10143000C821362000F092F900BD0000A80000206D
:10144000F0B506460C4617461D461149488900F07E
:1014500063F9301200F028F9F0B200F025F93812E3
:1014600000F022F9F8B200F01FF90949888900F06C
:1014700053F9201200F018F9E0B200F015F9281223
:1014800000F012F9E8B200F00FF900F05FF9F0BDDA
:10149000A80000202DE9FF4F83B081468A4693467D
:1014A000DDE91064414800880290A6F12000C6B230
:1014B00004EBD47009EB6000401E82B20AEB04001A
:1014C000401E83B2514648460194FFF7B9FF129877
:1014D00060BB002527E00C2C07D106EB4600344901
:1014E00001EB800010F8058004E0324800EB0610A4
:1014F00010F8058000270FE008F0010020B10BF084
:10150000FF0000F0D1F803E00699C8B200F0CCF873
:101510004FEA6808781CC7B204EBD471B7EB610FCF
:10152000EADB681CC5B2A542D5DB2DE0002529E029
:101530000C2C07D106EB46001D4901EB800010F88A
:10154000058004E01B4800EB061010F8058000271A
:1015500011E01648A0F800B008F0010038B10AEB1D
:10156000050291B209EB070290B2FFF729FF4FEA9B
:101570006808781CC7B204EBD471B7EB610FE8DBE5
:10158000681CC5B2A542D3DB0849029808800A4806
:101590004088401E83B208480088401E82B2002165
:1015A0000846FFF74DFF07B0BDE8F08F3000002080
:1015B000965100080A560008A80000202DE9FE4FA9
:1015C00004460E4691460C9F3448008802900194D0
:1015D0000096002557E032480088401EA04204DBF8
:1015E0002F484088401EB04201DABDE8FE8F3D78AA
:1015F0003A2D01D10A2506E02E2D01D10B2502E05E
:10160000A5F13000C5B201944FF000082DE005EBC4
:101610004500244901EB001010F808A04FF0000B22
:101620001BE01E48A0F800900AF0800018B1314677
:101630002046FFF7C5FE4FF6FF7000EA4A0A601C1D
:1016400084B20198201A0C2803D1019C701C86B228
:1016500006E00BF1010000F0FF0BBBF1080FE0DB2F
:1016600000BF08F1010000F0FF08B8F1300FCEDB39
:101670000A2D03DA04F1100084B202E004F108003C
:1016800084B2009E7F1C38787E2802DC38782028BF
:10169000A1DA02490298088000BFA6E730000020C6
:1016A000A8000020FA5B000800B503464FF4805004
:1016B000074908602020074908601946064800F0DD
:1016C00069F94FF480500249091F086000BD00000D
:1016D000140C0140101801400038004000B50346CA
:1016E0004FF4805009490860202009490860191208
:1016F000084800F04FF9D9B2064800F04BF94FF412
:1017000080500249091F086000BD0000140C014010
:10171000101801400038004000B503464FF48050D7
:1017200007490860202007490860D9B2064800F040
:1017300031F94FF480500249091F086000BD0000D4
:10174000140C0140141801400038004000B5024953
:101750000889FFF7E1FF00BDA800002030B505466D
:101760000C462846FFF7D8FFE0B2FFF79DFF30BDDB
:1017700029B1064AD2690243044BDA6104E0034A04
:10178000D2698243014BDA617047000000100240C9
:1017900029B1064A92690243044B9A6104E0034A64
:1017A00092698243014B9A61704700000010024029
:1017B00030B500210022002400232D4D6D6805F076
:1017C0000C0121B1042905D0082923D105E0294DB8
:1017D000056022E0274D05601FE0254D6D6805F48A
:1017E0007012234D6D6805F48034022505EB92429A
:1017F0001CB9214D554305600BE01D4D6D6805F486
:1018000000351DB11C4D5543056002E0194D55438F
:10181000056002E0174D056000BF00BF144D6D6804
:1018200005F0F0010909154D6B5C0568DD40456068
:101830000F4D6D6805F4E061090A104D6B5C456859
:10184000DD4085600A4D6D6805F46051C90A0B4D95
:101850006B5C4568DD40C560054D6D6805F4404131
:10186000890B074D6B5CC568B5FBF3F5056130BDB1
:101870000010024000127A0000093D005C000020C8
:101880006C00002000B587B001214920FFF780FFE0
:101890004FF42040ADF8040003208DF80600182016
:1018A0008DF8070001A92348FFF7C4F86020ADF8C0
:1018B000040003208DF8060010208DF8070001A910
:1018C0001D48FFF7B7F84FF48050ADF8040003202F
:1018D0008DF8060010208DF8070001A91548FFF7C4
:1018E000A9F801218803FFF743FF0020ADF80800A5
:1018F0004FF48270ADF80A000020ADF80C00022011
:10190000ADF80E000120ADF810004002ADF8120055
:101910000020ADF81400ADF816000720ADF818004F
:1019200002A9064800F018F80121044800F008F860
:1019300007B000BD000C0140001801400038004015
:1019400021B1028842F04002028004E002884FF692
:10195000BF731A400280704710B50022028802F45B
:1019600041520B884C8823438C882343CC882343E3
:101970000C8923434C8923438C892343CC892343FB
:101980001A430280838B4FF2FF74234083830B8AB8
:10199000038210BD024600BF108900F0020000283B
:1019A000FAD0918100BF108900F001000028FAD020
:1019B0009089C0B2704710B500F002F810BD000069
:1019C0000CB50020019000903348006840F480304E
:1019D0003149086000BF3048006800F400300090D2
:1019E0000198401C0190009818B90198B0F5A06FBB
:1019F000F1D12948006800F4003010B101200090B6
:101A000001E0002000900098012843D1234800689D
:101A100040F01000214908600846006820F00300EB
:101A200008600846006840F0020008601A484068F4
:101A3000194948600846406848600846406840F4D4
:101A4000806048600846406820F47C104860084682
:101A5000406840F4E81048600846006840F0807034
:101A6000086000BF0C48006800F000700028F9D042
:101A70000948406820F0030007494860084640686C
:101A800040F00200486000BF0348406800F00C00CE
:101A90000828F9D10CBD00000010024000200240CF
:101AA0002DE9FF4F83B0064688469146DDE9114790
:101AB000109DB2464FF0000B73E0BBF1000F42D116
:101AC00004EBD471394A1288A2EB6101B14204DB04
:101AD00036494988091B414502DA07B0BDE8F08F55
:101AE0002878802802DD4FF0010B5AE028780D2875
:101AF00006D108EB04001FFA80F856466D1C20E062
:101B00000C2C01D0102C0FD128788DE891004A467A
:101B100041463046069BFFF7BDFC204604EBD071E2
:101B200006EB61018EB20CE0102128788DE883006D
:101B30004A4641463046069BFFF7ACFC06F10800DA
:101B400086B26D1C2DE019480088001BB04204DBF2
:101B500016484088001B404500DABEE74FF0000BF6
:101B6000202C08D1CDE900574A4641463046069B15
:101B7000FFF7E6F912E0182C08D1CDE900574A46E4
:101B800041463046069BFFF74FF907E0CDE9005785
:101B90004A4641463046069BFFF7C2F8AD1C301955
:101BA00086B22878002888D100BF96E7A8000020D8
:101BB00010B51348006840F001001149086008465C
:101BC0004068104908400E494860084600680E49C0
:101BD00008400B4908600846006820F4802008602F
:101BE0000846406820F4FE0048604FF41F008860FB
:101BF000FFF7E1FE4FF000600449086010BD0000EF
:101C0000001002400000FFF8FFFFF6FE08ED00E0C4
:101C100070B504460D46034A2946204600F0D2F925
:101C200070BD00002063000808B5024800F0DAFD2E
:101C3000009008BD2063000808B5024800F0D5FDFB
:101C4000009008BD2063000810B5024800F015FEA2
:101C500010BD00002063000808B5024800F011FE26
:101C6000009008BD2063000810B5024800F073FE24
:101C700010BD00002063000810B5024800F06FFEA0
:101C800010BD00002063000810B50446024920463C
:101C900001F00AF810BD00002063000810B50446EA
:101CA0000249204601F0BEF810BD00002063000884
:101CB00070B504460D46034A2946204601F0C6F990
:101CC00070BD00002063000870B504460D46034A4D
:101CD0002946204601F00BFA70BD00002063000881
:101CE00010B504460249204601F045FA10BD000037
:101CF0002063000870B504460D461646034B324675
:101D00002946204601F085FA70BD000020630008D6
:101D100010B5024801F0B2FA10BD000020630008BF
:101D200070B504460D46034A2946204600F04AF99C
:101D300070BD00006863000808B5024800F052FD5D
:101D4000009008BD6863000808B5024800F04DFD2A
:101D5000009008BD6863000810B5024800F08DFDD2
:101D600010BD00006863000808B5024800F089FD56
:101D7000009008BD6863000810B5024800F0EBFD54
:101D800010BD00006863000810B5024800F0E7FDD0
:101D900010BD00006863000810B5044602492046E3
:101DA00000F082FF10BD00006863000810B5044613
:101DB0000249204601F036F810BD000068630008B3
:101DC00070B504460D46034A2946204601F03EF907
:101DD00070BD00006863000870B504460D46034AF4
:101DE0002946204601F083F970BD000068630008B1
:101DF00010B504460249204601F0BDF910BD0000AF
:101E00006863000870B504460D461646034B32461B
:101E10002946204601F0FDF970BD00006863000806
:101E200010B5024801F02AFA10BD000068630008EE
:101E300000B585B0012144F20400FFF7A9FC4FF47E
:101E40000070ADF8100018208DF8130003208DF8F5
:101E5000120004A91348FEF7EDFD4FF48060ADF8C1
:101E6000100004208DF8130004A90E48FEF7E2FDCF
:101E70004FF4E13000900020ADF80400ADF806000A
:101E8000ADF80800ADF80C000C20ADF80A0069466A
:101E9000054800F09DFE0121034800F087F805B0D9
:101EA00000BD0000000801400038014010B50F4897
:101EB00081680F4888470D480169022088470B4810
:101EC0004FF4E131826A0120904708480121826A7B
:101ED0001520904705480121826A16209047034843
:101EE0002121426903A0904710BD0000A0630008B3
:101EF000653E0008507265737320456E74657220EC
:101F0000746F20726563656976652061206D657305
:101F1000736167650A00000010B50021024802F0F5
:101F200031F80249086010BD645100082800002003
:101F300088B0202218496846FEF74AFA174801F08F
:101F4000FFFF044600BF0A2001F08EFF1449086815
:101F5000FEF713FA054613482946826968469047FA
:101F60000F4908686946FEF78DFA0028EBD16CB17D
:101F70000D490868FEF701FA05460B49086809494A
:101F80004A6929469047204601F0F0FF2021684623
:101F9000FEF750FAD7E700007851000874510008A6
:101FA00020000020A06300082400002021B18289C5
:101FB00042F40052828104E082894DF6FF731A4098
:101FC000828170472DE9FE4F07460D461446206B6F
:101FD000C07A00F0020018B94FF0FF30BDE8FE8F64
:101FE0000020009080468346F8B2153806287CD23F
:101FF000DFE800F0A3DC032C4E6CA5B1606B90F819
:10200000210010B16FF00100E8E70120616B81F859
:102010002100616B81F820006068808940F08100B8
:102020006168888110E0606B90F8200060B16068A2
:10203000808920F08000616888810020616B81F8D0
:102040002000616B81F821000020C7E7606880896B
:1020500020F0C00061688881A06A88B1606B90F848
:10206000210068B16068808A20F080006168888201
:10207000A16A0868016821F00101016000BF00BF8A
:102080000020616B81F82000616B81F82100A5E7D9
:102090006068808920F0200061688881E06A80B1F2
:1020A000206B407968B16068808A20F040006168E8
:1020B0008882E16A0868016821F00101016000BFBF
:1020C00000BF0021206B4171002087E76068808994
:1020D00020F0E00061688881A06A98B1606B90F898
:1020E000210078B16068808A00E0C2E020F08000C2
:1020F00061688882A16A0868016821F001010160B5
:1021000000BF00BFE06A80B1206B407968B16068B1
:10211000808A20F0400061688882E16A086801686E
:1021200021F00101016000BF00BF0021206B41715F
:102130000020616B81F8210050E7E06810B94FF092
:10214000FF304BE7BDB1206BC068062806D0E268BF
:102150009188032310680222FEF7F7FC206BC07AF7
:1021600040F00800216BC8726068808940F0080068
:102170006168888118E06068808920F008006168E3
:102180008881206BC07A20F00800216BC872206B18
:10219000C068062808D0E06830B1E2689188002362
:1021A00010681A46FEF7D1FC002017E7206910B925
:1021B0004FF0FF3012E7E5B3206BC06806280AD065
:1021C000206BC068042806D022699188002310681B
:1021D0000122FEF7BAFC206BC07A40F01000216BA0
:1021E000C8726068808A40F0010061688882606817
:1021F000008A40F04000616808826068808940F091
:10220000100061688881206B407918B1E06A08B1DC
:10221000012000E0002028B96068808940F020009B
:10222000616888816068808940F004006168888105
:102230001DE0FFE76068808920F004006168888104
:10224000206BC07A20F01000216BC872206BC06830
:1022500006280CD0206BC068042808D0206930B153
:1022600022699188002310681A46FEF76EFC002050
:10227000B4E600BF00BF206B407918B9606B90F8DE
:10228000210010B16FF00100A8E66068808900F0BD
:10229000080038B16068008800F0400010B96FF0A5
:1022A00001009BE6F8B2152872D2DFE800F0C90BF6
:1022B0000E1D20252AC9C9C9C9C9C9C9C9C9373B01
:1022C000697EB80001200290BDE02078C0F3400094
:1022D00020B148F4006848F4807802E06FF006000E
:1022E0007CE602200290AEE06FF0060076E64BF04E
:1022F000080B04200290A6E04BF0020B0520029090
:10230000A1E02078C0F3401010B14BF0200B02E0A8
:102310006FF0060062E60620029094E0616B4D8348
:1023200000205BE6206BC068052824D015B36068E8
:10233000808A40F0040061688882D4F808A0FE48D2
:10234000B0FBFAFA012605E00AFB06F0A84200D924
:1023500002E0761CFF2EF7D900BFB6F5807F02D1D0
:102360004FF0FF303AE66068008B20F0FF0030430A
:102370006168088302E04FF0FF302FE600202DE671
:10238000206BC06806280BD1FF2D02D9C01F25E69F
:1023900056E06068008BC0B228436168088302E0A1
:1023A0004FF0FF301AE6002018E6206BC0680628C0
:1023B00030D1D4F808A0E048B0FBFAFA012619E0C1
:1023C0000AFB06F040006421484305EB051101EBD0
:1023D0004101B0EB410F0CD20AFB06F04000642132
:1023E000484305EB051101EB4511B0EB410F00D956
:1023F00002E0761C402EE3D300BF402E02D14FF006
:10240000FF30EBE56068008B20F0FF00304361682F
:10241000088302E04FF0FF30E0E50020DEE5206BAE
:10242000C068062807D14DB16068808A40F010006E
:102430006168888202E04FF0FF30CFE50020CDE5F3
:102440006FF00300CAE500BF07F4E06060B1B0F5CB
:10245000807F13D0B0F5E06F1DD107F4405010B964
:102460006FF00800BAE519E007F4405028B148F0D1
:102470002008009840F4805000900FE007F440508E
:1024800010B16FF00800A9E548F02008009840F46A
:102490008050009002E06FF008009FE500BF07F455
:1024A000405030B1B0F5805F04D0B0F5005F0BD183
:1024B00005E00CE0009840F48060009007E0009890
:1024C00040F4C060009002E06FF0090086E500BFB4
:1024D00007F4404048B1B0F5804F07D0B0F5004F49
:1024E00007D0B0F5404F0AD106E00BE048F40058A1
:1024F00008E048F4405805E048F4805802E06FF0E6
:102500000A006BE500BF07F4403048B1B0F5803FEA
:1025100009D0B0F5003F13D0B0F5403F2ED11CE0FC
:102520004FF000092DE02078C0F3C01020B14FF427
:1025300080394BF4807B02E06FF00B004EE520E029
:102540002088C0F3002020B14FF400394BF4C06B59
:1025500002E06FF00B0041E513E02078C0F3C010FB
:1025600040B12088C0F3002020B14FF440394BF433
:10257000E06B02E06FF00B0030E502E06FF00B0063
:102580002CE500BF029802281DD107F4802018B165
:10259000B0F5802F04D100E005E048F4806802E047
:1025A0006FF00C001AE500BF07F4002018B1B0F579
:1025B000002F04D100E005E048F4007802E06FF05D
:1025C0000D000BE500BFA06800EBC00101EB00109F
:1025D000A900B0FBF1F06421B0FBF1F1A06800EBC1
:1025E000C00202EB0010AA00B0FBF2F0A26802EBFE
:1025F000C20303EB0212AB00B2FBF3F26423B2FBA3
:10260000F3F202EBC20303EB0212A0EB82003222D0
:1026100002EB00106422B0FBF2FA61F31F1AA0680B
:1026200000011FFA8AF1B0FBF1F00009019064216A
:102630000198484305EB051101EB4101B0EB410F57
:1026400009D264210198484305EB051101EB4511BE
:10265000B0EB410F02D86FF00700BFE460688089DB
:1026600020F40050616888816168A1F808A0029890
:10267000216BC860206BC0F81090206BC0680628E2
:1026800009D1E06830B1E268918803231068022222
:10269000FEF75BFA17E0206BC07A00F0080048B143
:1026A000E06880B1E2689188032310680222FEF797
:1026B0004CFA08E0E06830B1E268918800231068C5
:1026C0001A46FEF742FA00BF206BC068042802D009
:1026D00006280BD100E000BF206930B12269918843
:1026E000002310681A46FEF730FA18E0206BC07A13
:1026F00000F0100048B1206980B122699188002360
:1027000010680122FEF721FA08E0206930B1226941
:102710009188002310681A46FEF717FA00BF00BF21
:102720006069D0B1206BC068022802D006280BD1A6
:1027300000BF6269918801E000CA9A3B03231068D8
:102740000222FEF702FA07E062699188002310680E
:102750001A46FEF7FAF900BF00BFA069A0B1B9F5AB
:10276000803F02D0B9F5403F07D1A2699188032389
:1027700010680222FEF7E9F906E0A26991880023B9
:1027800010681A46FEF7E1F9E069A0B1B9F5003F1B
:1027900002D0B9F5403F07D1E26991880023106863
:1027A0000122FEF7D2F906E0E26991880023106861
:1027B0000122FEF7CAF90098616888816168A1F872
:1027C00010806168A1F814B06068808940F40050FE
:1027D00061688881206BC07A40F00400216BC87268
:1027E000002011E40146086870470CB501460198C5
:1027F00020F001000190086B006920B1086B0069AE
:10280000B0F5803F0ED1C86960B1CB6998881A686D
:102810009368C34003F0010323B9019820F001003D
:10282000401C0190019820F002000190019820F0D6
:1028300008000190019820F0040001900198009A8E
:1028400060F30002009201984208009862F3410090
:10285000009001988208009862F38200009001982D
:10286000C208009862F3C300009001980209009822
:1028700062F31F10009000980CBD0146486B006980
:1028800070470CB50146486B90F8210028B10198BB
:1028900020F00100401C019008E0486800880122F7
:1028A00022EA9012019862F300000190086B4279CD
:1028B000019862F341000190086B8279019862F3FC
:1028C00082000190086BC279019862F3C300019005
:1028D000086B027A019862F304100190086B427A47
:1028E000019862F345100190086B827A019862F3B7
:1028F000861001900198009A60F3000200920198FE
:102900004208009862F34100009001988208009804
:1029100062F3820000900198C208009862F3C3003D
:10292000009001980209009862F304100090019849
:102930004209009862F345100090019882090098BE
:1029400062F3861000900198C209009862F3DF10CC
:10295000009000980CBD0146486B406970472DE916
:10296000F04104466068068800270025A84606F066
:102970002000616889890840002860D0206B407978
:1029800038B9606880880121206BC17145F020054D
:1029900055E0206BC068022806D1606BC069012831
:1029A00002D16068808802E06068B0F80480606BE3
:1029B0008268501C636B986082F800806068878929
:1029C00007F4806050B907F4805038B14FEA2821ED
:1029D000606B8268501C636B98601170606B00695B
:1029E000401C616B0861606B0069616B096888421B
:1029F00025D16068808920F01000616888810021FD
:102A0000206B4171206BC068022816D1606BC769CA
:102A10000020616BC861012F04D0022F05D0032F65
:102A200009D105E045F0010506E045F0020503E0A7
:102A300045F0040500E000BF01E045F0020506F0A6
:102A4000100061688989084018B16068808845F085
:102A5000400506F08000616889890840002863D03D
:102A6000606B90F8200030B16068808940F0010010
:102A70006168888158E0606B4068616B4969884291
:102A800022D0206BC068022807D1606BC069022881
:102A900003D1606BB0F81A8016E0606BC168481C07
:102AA000626BD06091F800806068878907F480606D
:102AB00050B907F4805038B1606BC168481C626B34
:102AC000D060087848EA0028606B4069401C616B60
:102AD00048616068A0F80480606B4068616B496978
:102AE000884221D16068808920F0800061688881F7
:102AF0006068808940F04000616888810020616BD7
:102B000081F82100206BC06802280BD1606BC0697E
:102B1000012809D1206BC07A00F0100020B945F0DF
:102B2000010501E045F0010506F040006168898972
:102B3000084038B16068808920F040006168888171
:102B400045F0080506F0080030B160688088012172
:102B5000206BC17145F0200506F0020030B16068BD
:102B600080880121206B417245F4807506F00100D8
:102B700030B1606880880121206B817245F4007556
:102B800006F4807050B16068008820F4807061683D
:102B900008800121206B017245F0800506F4007069
:102BA00038B16068008820F400706168088045F4DE
:102BB000806525B1206B006808B1012000E000208D
:102BC00018B1206B016828468847BDE8F0810000F5
:102BD0002DE9F04786B005460E460024A24600BF08
:102BE000A1460027B08900B100BF2F462C8A4CF6C1
:102BF000FF700440F08804432C82AC894EF6F31039
:102C00000440B08831890843718908430443AC818A
:102C1000AC8A4FF6FF400440B0890443AC8201A85F
:102C2000FEF7C6FD1F48874202D1DDF810A001E083
:102C3000DDF80CA0A88900F4004040B10AEBCA00FE
:102C400000EB0A1031684900B0FBF1F807E00AEB2D
:102C5000CA0000EB0A1031688900B0FBF1F864206B
:102C6000B8FBF0F004012009642101FB1089A88958
:102C700000F4004040B1322000EBC900B0FBF1F09D
:102C800000F00700044308E0322000EB0910642143
:102C9000B0FBF1F000F00F0004432C8106B0BDE85A
:102CA000F08700000038014070B505460C46206BE7
:102CB000C07A00F0010008B1002070BD206B0560F3
:102CC0000020216B08710021206B4171206B817104
:102CD000206BC171206B0172206B4172206B81727D
:102CE0000020216BC860616B81F821002421606B9A
:102CF000FDF7A0FB608CFDF703FEE06820B1E16802
:102D000008680121FDF75EFF206920B1216908688C
:102D10000121FDF757FF606920B161690868012151
:102D2000FDF750FFA06920B1A16908680121FDF7F6
:102D300049FFE06920B1E16908680121FDF742FF20
:102D40000120216BC8720020B7E700002F4988429C
:102D500005D12F49C96841F480412D4AD1602D49E0
:102D6000884205D12A49096941F40031284A116194
:102D70002949884205D12649096941F48021244A1C
:102D800011612649884205D12149096941F4002190
:102D90001F4A11612249884205D11D49096941F440
:102DA00080111B4A116100BF00BF00BF00BF17495F
:102DB000884205D11649C96821F48041144AD1607E
:102DC0001449884205D11249096921F40031104A99
:102DD00011611149884205D10D49096921F4802109
:102DE0000B4A11610D49884205D10949096921F44D
:102DF0000021074A11610A49884205D1044909693D
:102E000021F48011024A116170470000003801402E
:102E1000001002400044004000480040004C0040C8
:102E20000050004070B505460C4625B1012D71D00B
:102E3000022D6ED171E06068FFF788FF94F92400DD
:102E4000002817DB00F01F0201219140774A430957
:102E500042F8231000BF00BF00BFBFF34F8F00BF79
:102E600000BF00BF00BF00BF00BFBFF36F8F00BF38
:102E700000BF00BF00BF6E496068884205D16D4841
:102E8000806920F480406B4988616B4960688842A2
:102E900005D16848C06920F400306649C8616749B7
:102EA0006068884205D16348C06920F48020614988
:102EB000C86163496068884205D15E48C06920F4F2
:102EC00000205C49C8615F496068884205D1594863
:102ED000C06920F480105749C8610020216B087137
:102EE0000021206B4171206B8171206BC171206BBF
:102EF0000172206B4172206B81720020616B81F83E
:102F00002100206BC07A20F00200216BC8728AE099
:102F100000E085E06FF0030070BD206BC07A00F028
:102F2000010010B94FF0FF30F6E7206BC07A00F0D7
:102F3000020008B10020EFE70020216B087100219A
:102F4000206B4171206B8171206BC171206B01720C
:102F5000206B4172206B81720020616B81F821002F
:102F6000616B4883616BC861616B81F82000216BE4
:102F7000C860216B08610320216BC8722C4960680E
:102F8000884205D12B48806940F4804029498861F6
:102F900029496068884205D12648C06940F400305C
:102FA0002449C86125496068884205D12148C06923
:102FB00040F480201F49C86121496068884205D1DA
:102FC0001C48C06940F400201A49C8611D49606866
:102FD000884205D11748C06940F480101549C8617E
:102FE00094F92400002807DB00F01F020121914022
:102FF000154A430942F8231000BF94F92400002821
:1030000009DB00F01F02012191404209920002F108
:10301000E022C2F8001100BF6068FFF797FE02E0EF
:103020006FF0030078E700BF002075E780E100E063
:1030300000380140001002400044004000480040B9
:10304000004C00400050004080E200E02DE9F041DB
:1030500005460E46144605B11EB96FF00400BDE8E2
:10306000F081206BC07A00F0040010B94FF0FF30FF
:10307000F5E7206B4079012801D1C01EEFE76068B9
:10308000808920F0200061688881606B06600021E3
:10309000206B0172206B4172206BC171206B8172B9
:1030A000606B85600020616B08610121206B4171BC
:1030B0006068808940F0300061688881206BC0685A
:1030C000022812D1606BC06978B90220616BC861B7
:1030D000616B01F11A002246314600F008F80746FC
:1030E000B81C10B96FF00100B9E70020B7E72DE96F
:1030F000F04105460E46144605B11EB96FF00400B6
:10310000BDE8F081206BC07A00F0040010B94FF0E8
:10311000FF30F5E7606B90F8210010B16FF001000F
:10312000EEE70120616B81F82100606BC560606B88
:1031300046600020616B4861206BC068022812D194
:10314000606BC06978B90120616BC861616B01F186
:10315000180022463146FFF779FF0746B81C10B920
:103160006FF00100CCE76068808940F08000616802
:1031700088810020C4E770B5044634B1012C22D008
:10318000022C3FD0032C3CD13DE0086B006920B1FC
:10319000086B0069B0F5003F11D1886990B18D6965
:1031A000AA88012328681BB101259540056104E028
:1031B00002F110050126AE40066100BF02E04FF0AB
:1031C000FF3070BD22E0086B006920B1086B006918
:1031D000B0F5003F11D1886990B18D69AA880023AC
:1031E00028681BB101259540056104E002F1100536
:1031F0000126AE40066100BF02E04FF0FF30E0E77D
:1032000004E000BF00BF4FF0FF30DAE700BF00204E
:10321000D7E72DE9F04180460E4617461C46B8F127
:10322000000F01D006B11FB96FF00400BDE8F081B6
:10323000206BC07A00F0040010B94FF0FF30F5E7C2
:10324000206BC068022814D10320616BC86122463C
:1032500039463046FFF7FAFE05460DB12846E5E748
:10326000224639464046FFF742FF054625B128462B
:10327000DCE74FF0FF30D9E70020D7E710B5044670
:10328000E06830B1E2689188002310681A46FDF7C3
:103290005CFC206930B122699188002310681A46CD
:1032A000FDF753FC606930B16269918800231068B2
:1032B0001A46FDF74AFCA06930B1A2699188002343
:1032C00010681A46FDF741FCE06930B1E269918867
:1032D000002310681A46FDF738FC208CFDF710FB20
:1032E0000020216BC87210BD08B50248006800902C
:1032F00008BD00000C63000870B54148006800F08C
:10330000020070B13F488078012807D13E4800682C
:1033100020B13D4801210268022090470120384930
:1033200008603748006800F4007078B13548C0780C
:10333000012807D13448006820B1334801210268D0
:10334000032090474FF480702D4908602C48006896
:1033500000F4003078B12B480079012807D12A48C1
:10336000006820B1284801210268042090474FF4EA
:10337000803023490860224810300468001F056827
:1033800004F0040088B905F4806070B91C480C3062
:10339000006840F480601A490C3108601B480068DE
:1033A00018B11A4801680320884704F0020088B960
:1033B00005F4007070B912480C30006840F40070D9
:1033C0000F490C3108601148006818B10F480168B6
:1033D0000120884704F0010088B905F4807070B9B5
:1033E000C4F307405F280AD1B0EB146F07D9044833
:1033F0000C30006840F4807001490C31086070BDE9
:10340000086400404E0000205800002054000020B6
:1034100070B53648007802281ED13548006800F0A3
:10342000100058B110203249086032480068B0B12D
:103430003048062102680020904710E02C480068C0
:1034400000F0030058B12B48006840B12948022120
:1034500002680020904702E02020254908602448A7
:103460000C300468001F056804F0040088B905F4F6
:10347000806070B91E480830006840F480601C49C4
:10348000083108601C48006818B11B480168032017
:10349000884704F0020088B905F4007070B9144838
:1034A0000830006840F40070114908310860124883
:1034B000006818B1104801680120884704F0010035
:1034C00090B905F4807078B9C4F307405F280BD237
:1034D0005F20B0EB146F07D105480830006840F456
:1034E000807003490831086070BD00004E00002064
:1034F0000C640040580000205400002010B5002A41
:1035000006DA22F00042D21D22F00703102203E067
:10351000D21C22F003030C2213B19C188C4201D957
:10352000012010BD024401448360C0E90021C91A92
:10353000D018884202D810600246F9E700201060D7
:1035400010BD000005490978002905D000684FF634
:10355000FF71DFF80CC000DF704700007100002031
:10356000D146000804490978002903D00068DFF833
:103570000CC000DF7047000071000020F945000812
:1035800008480068C0010BD507480068C00707D08D
:10359000054880380068002802DA044901200870D4
:1035A00070470000FCED00E0800E00E09400002079
:1035B0004FF06042D36F002BFCD0036BD367D36F07
:1035C000002BFCD0C07840EA0120A2F87C007047B4
:1035D0004FF06041CA6F002AFCD081F87C00704730
:1035E00070B5034600224FF0E02675690E4E36781E
:1035F00003FB06F400BF4FF0E026B16910E04FF086
:10360000E026B06988420BD0884202D20E1A3244BA
:1036100002E02E1A0E4432440146A24200D300E0DA
:10362000EDE700BF70BD00000000002010B54FF4B2
:10363000C04400F071F9044673480088B0F5A06FEB
:1036400046D009DCB0F5807F10D0B0F5007F29D0DE
:10365000B0F5407F7ED12AE0B0F5C06F5CD0B0F508
:10366000E06F78D0B0F5006FF4D19BE06748007848
:1036700080B100F04DFC66490968401A65498842EE
:1036800008D96548007800F0F00444F4E0440020D4
:103690005E490870B4F5C04F03D04FF400705A492A
:1036A0000880AEE04FF4407057490880A9E0B4F5B7
:1036B000C04F08D05848048044F480544FF4A060B0
:1036C0005149088003E04FF480704F49088098E02A
:1036D000B4F5C04F1BD051480088401C80B24F4900
:1036E000088096280FDD002008804D4908804D494C
:1036F000087044F440544FF4C060434908800220ED
:103700004949087007E001204749087003E04FF479
:10371000E0603D49088074E0B4F5C04F30D03F48C8
:103720000088401C80B23D49088028282CDD0020FC
:1037300008803C480078062804DA3A480078401CA3
:1037400038490870364800880F280BDA3548007869
:10375000032801E054E018E004DD31480088401CF3
:103760002F4908802E48008870B103202E49087028
:103770002B48007844EA002084B244F4804403E0FB
:103780004FF4E060204908803BE02348008840F483
:10379000A04021490880084604884FF400601A4977
:1037A00008802EE000F0B4FB19490968401A194955
:1037B000884205D21D480088401C1C49088002E050
:1037C00000201A4908801948008880B101200F495B
:1037D00008701148007800F0F00444F400541348D5
:1037E00000880F2803DA11480088204484B24FF47F
:1037F00080700549088000F08BFB0549086000E0F7
:1038000000BF00BF204610BD100000200E000020A9
:1038100018000020005A620212000020160000204A
:103820000C00002014000020080000200A000020E6
:103830000EB5802200B109B110460AE001780129D5
:10384000FAD101A900F020F8042801D0002000E0FE
:103850001020DDE9011203B000BD70B50D46040073
:1038600003D012B92078012801D0802070BD2046F5
:1038700000F0B4FD28B12946204600F030F80020C1
:1038800070BD812070BD000010B5044680890028FD
:1038900024D0608904EB800000690860606840B152
:1038A0006078022805D10021204600F09BFF00F03F
:1038B00089FF04F10C0000BFD0E85F1F491E8AB2E7
:1038C000C0E8512F0029F7D16089401C80B2608187
:1038D000E189884201D100206081042010BD10B52B
:1038E00000F080FFBDE8104000F06CBF08B501217A
:1038F0001020FDF74DFF4FF44040ADF800000320CD
:103900008DF8020004208DF8030069460148FDF798
:1039100091F808BD0010014010B54FF480410848EF
:10392000FDF7EEF908B9102010BD4FF4004104482E
:10393000FDF7E6F908B92020F6E74FF4C040F3E7B9
:103940000010014010B50021024800F01BFB0249A5
:10395000086010BD54510008040000208AB000BF68
:1039600000BFFFF763FE0446202101A8FCF762FDBB
:10397000E1A101A8FCF720FD04F47040B0F5804FF0
:1039800037D009DCB0F5805F75D0B0F5005F6FD03F
:10399000B0F5405F6DD106E0B0F5A04F6AD0B0F54C
:1039A000E04FF7D165E104F0F000102802D02028A4
:1039B0001CD10DE0D2A101A8FCF7FEFC01A8FCF788
:1039C000DCFC0546D1482946426901A890470EE033
:1039D000CFA101A8FCF7F0FC01A8FCF7CEFC05463E
:1039E000CA482946426901A8904700E000BF00BFCD
:1039F0007CE1C4F30320303009909DF82400C749CE
:103A0000087004F0F000102802D020282CD115E016
:103A1000C3A101A8FCF7D0FC09A901A8FCF7CCFCC4
:103A2000C6A101A8FCF7C8FC01A8FCF7A6FC054646
:103A3000B6482946426901A8904716E0C0A101A8EE
:103A4000FCF7BAFC09A901A8FCF7B6FCBBA101A8C8
:103A5000FCF7B2FC01A8FCF790FC0546AB482946F0
:103A6000426901A8904700E000BF00BF3EE102E0CC
:103A7000C0E03AE125E004F0F000102802D0202850
:103A80001CD10DE0B5A101A8FCF796FC01A8FCF73C
:103A900074FC05469D482946426901A890470EE0FE
:103AA000B1A101A8FCF788FC01A8FCF766FC05465B
:103AB00096482946426901A8904700E000BF00BF30
:103AC00014E104F0F000102802D0202872D146E062
:103AD000A8480078012804D0022813D003283BD13D
:103AE00021E0A5A101A8FCF767FC01A8FCF745FCB3
:103AF000054686482946426901A8904700209D490D
:103B000008702AE0A1A101A8FCF756FC01A8FCF767
:103B100034FC05467D482946426901A890470020AB
:103B20009449087019E09EA101A8FCF745FC7B4967
:103B300001A8FCF741FC9EA101A8FCF73DFC01A8EF
:103B4000FCF71BFC054671482946426901A89047CD
:103B500000207249087000E000BF00BF48E08548BF
:103B60000078012804D0022813D003283CD122E099
:103B700093A101A8FCF720FC01A8FCF7FEFB054679
:103B800062482946426901A8904700207949087097
:103B90002BE090A101A8FCF70FFC01A8FCF7EDFBBE
:103BA00005465A482946426901A8904700207149B4
:103BB00008701AE01BE08CA101A8FCF7FDFB574937
:103BC00001A8FCF7F9FB7AA101A8FCF7F5FB01A815
:103BD000FCF7D3FB05464D482946426901A89047AA
:103BE00000204E49087000E000BF00BF00E000BFA9
:103BF00000BF7BE004F00F00303009909DF82400F6
:103C0000401C4649087004F0F000102802D020281B
:103C10002CD115E078A101A8FCF7CEFB09A901A8D9
:103C2000FCF7CAFB45A101A8FCF7C6FB01A8FCF7FD
:103C3000A4FB054635482946426901A8904716E08D
:103C400073A101A8FCF7B8FB09A901A8FCF7B4FB14
:103C50003AA101A8FCF7B0FB01A8FCF78EFB0546D2
:103C60002A482946426901A8904700E000BF00BFEA
:103C70003CE004F0F000102802D0202832D118E0F7
:103C800069A101A8FCF798FB244901A8FCF794FB63
:103C900068A101A8FCF790FB01A8FCF76EFB0546A4
:103CA0001A482946426901A8904700201B4908701C
:103CB00019E063A101A8FCF77FFB184901A8FCF7F4
:103CC0007BFB5CA101A8FCF777FB01A8FCF755FB87
:103CD00005460E482946426901A8904700200F4931
:103CE000087000E000BF00BF00BF00BF00BF14208D
:103CF00000F0BAF835E60000546970732D0000003A
:103D0000B0B4BCFC31B3A4B0B40D0A00A063000889
:103D1000B0B4BCFC32B3A4B0B40D0A001C00002047
:103D2000B0B4BCFC31B3A4B0B4B1A3B3D6A3ACB1AE
:103D3000A3B3D6BCC6CAFDA3BA0000000D0A00009A
:103D4000B0B4BCFC32B3A4B0B4B1A3B3D6A3ACB18D
:103D5000A3B3D6BCC6CAFDA3BA000000B0B4BCFC75
:103D600031B0B4CFC20D0A00B0B4BCFC32B0B4CF95
:103D7000C20D0A0008000020B0B4BCFC31B6CCB0C3
:103D8000B4BAF3B5AFC6F00D0A000000B0B4BCFC85
:103D900031B3A4B0B4BAF3B5AFC6F00D0A00000059
:103DA000B0B4BCFC31B3A4B0B4BAF3B1A3B3D60081
:103DB000B4CEBCC6CAFDBAF3BDE1CAF80D0A000014
:103DC000B0B4BCFC32B6CCB0B4BAF3B5AFC6F00DEB
:103DD0000A000000B0B4BCFC32B3A4B0B4BAF3B56E
:103DE000AFC6F00D0A000000B0B4BCFC32B3A4B002
:103DF000B4BAF3B1A3B3D600B0B4BCFC31C1ACB01B
:103E0000B4A3ACC1ACB0B4BCC6CAFDA3BA00000038
:103E1000B0B4BCFC32C1ACB0B4A3ACC1ACB0B4BCA7
:103E2000C6CAFDA3BA000000B0B4BCFC31C1ACB03E
:103E3000B4000000B4CEBAF3BDE1CAF80D0A000028
:103E4000B0B4BCFC32C1ACB0B400000010B5044644
:103E500000F016F8FCF7A2FBFCF7B2FB00F022F82A
:103E6000002010BD70470000EFF3058109B18220EA
:103E70007047DFF808C000DF704700004D4E0008B3
:103E8000EFF3058008B182207047EFF31480C0077C
:103E900003D0DFF80CC000DF704700F0E1BF000086
:103EA000614E000888B0EFF3058010B1822008B0A1
:103EB0007047EFF3148010F00301134806D0012976
:103EC0001BD0022911D0032919D113E008A981F3CD
:103ED00009880078C0070BD05FF0020080F31488D7
:103EE000BFF34F8FBFF36F8F09E00078C00706D193
:103EF0000320F3E70078C00701D0FF20D7E7DFF801
:103F00000CC000DFD3E70000BC620008D14E0008FF
:103F1000EFF3058008B100207047DFF808C000DF2C
:103F200070470000194F0008EFF305820AB1FFF750
:103F30007FBCDFF808C000DF70470000754F000845
:103F4000EFF3058109B100207047EFF31481C90731
:103F500002D10449497819B1DFF80CC000DF70477D
:103F600001F025B870000020AF4F0008EFF3058185
:103F700009B182207047DFF808C000DF70470000F9
:103F8000CB4F0008EFF305820AB100207047EFF332
:103F90001482D20702D1044A52781AB1DFF80CC059
:103FA00000DF704701F022B870000020ED4F0008DC
:103FB000DFF80CC000DFDFF80CC000DFFEE7000018
:103FC0005950000875500008DFF804C000DF704742
:103FD000AD500008094C4FF0FF3529462068FFF727
:103FE000A3FF02460846102AF7D1FFF7EDFF00288D
:103FF000F3D0024608469047EFE700003C0000205F
:10400000012806D0022805D0032804D0042804D1B2
:1040100002E003E002E001E000E000BF00BF00BFFB
:10402000FEE700BFFEE70000074801684FF0E02010
:10403000416100218161072101610448016841F06B
:104040007F41016040177047B862000820ED00E032
:104050007047000002480068C0F3806070470000AD
:1040600004ED00E04FF0E020806902490968081A79
:1040700070470000B862000850E8001F31B10B68BB
:1040800040E80032002AF7D108467047BFF32F8F6F
:10409000FAE710B568B161B10B3121F00302016894
:1040A00044680B1A1B1B934205D208460968002975
:1040B000F5D1002010BD210007D021180368C1E907
:1040C0000032016001F1080010BD4260083010BDEF
:1040D00070B50D46002812D04FF6FF71084C88428B
:1040E00004D222680146104600F0AAFB2068457001
:1040F000044800F0DDF8BDE8704000F065BC70BD1C
:10410000780000207C1E00200F4810B50D49426841
:104110000E480B680068934204D00A60CB88421EA8
:104120001A448A808A8880B282420AD100200860BC
:10413000054800F0BDF80146BDE81040024800F017
:10414000A3BB10BD8C0000207C1E00208800002036
:1041500070B5194DE86800282CD0A88A401EA882A6
:10416000002621E0A06838B161684160606810B144
:10417000A16881606660A6600F482146183800F08B
:1041800083FBA08AA8826078042804D10B49E08AC6
:1041900009880844A08201206070E068E860E06857
:1041A00008B10561E6602661A88A002802D1EC68A2
:1041B000002CD7D170BD0000941E00208800002084
:1041C00070B504000FD00D4DA178012628688278C3
:1041D00091420CD900F074FB286846702046BDE877
:1041E000704000F0F1BB064800F062F8F7E7667037
:1041F0002146BDE87040024800F046BB7800002030
:104200007C1E00200321FFF763BF000010B50446A9
:10421000008B084320836278618B062A18D0052A18
:1042200019D1084217D001EA000262838843208333
:10423000204600F070FB01206070628B0821204650
:1042400000F065FB2146BDE81040034800F01CBBB0
:1042500031EA0002EAD010BD7C1E0020814202D368
:1042600042688A4201D80120704702680A60BFF3A1
:104270005F8F50E8003F0A689A42F6D140E800128A
:10428000002AF2D10020704768B161B100220839DC
:1042900002E00246006830B18842FAD12AB10068D3
:1042A0001060002070470120704700214160F8E74E
:1042B0000146406842684A600B780022022B05D014
:1042C000012B03D0032B01D04260704743680BB130
:1042D0009960426082607047810700D0002070477B
:1042E00070B5044600201546207001226270A1704E
:1042F00084F824106060A060E06020612062A082E9
:10430000E0822083608384F82500E08C18B905489A
:10431000FFF7B2FEE06229462046BDE8704000F09B
:104320001DB800009802002008B1082901D2012020
:1043300070470144091F002201600A604260104674
:104340007047000003480021016003490988C180CB
:10435000704700008C000020AC62000870B5C28C71
:104360001C4D930802D12A88C2F38D03C26A02EB66
:104370008302540700D5121F4FF0807442E90214E3
:1043800000242646B2F1400242F82460641C0E2C40
:10439000FAD3C4691462826201632968C90014D522
:1043A000112B12D94FF0FF31103B11EB53014FF09D
:1043B000CC3305D042F8043C42F8083D491EF9D1FF
:1043C000C16A121F8A4200D91360C06A02490160A3
:1043D00070BD0000A8620008A52E5AE2C18980893C
:1043E000081A7047012202700022427082704260F7
:1043F00002814281103982818908C18170470000A1
:104400002DE9F041044640680E464FF0000804F1E3
:104410000C05E8B36078012701283ED0022813D0AC
:1044200003285CD10846FFF727FE050057D0204639
:10443000FFF73EFF0446294600F066FA6770204603
:1044400000F069FA214621E02046FFF731FF0646D9
:10445000002100F059FA2189F06904EB810108611B
:10446000D5E85F0F401C81B2C5E8501F0028F7D186
:104470002089401C80B22081E189884201D1A4F8C2
:1044800008807770304600F046FA3146174800E061
:104490000CE0BDE8F04100F0F7B92046FFF708FF57
:1044A00004463246102100F032FAC7E7A089E189BC
:1044B000884216D2208904EB80000661D5E85F0FA0
:1044C000401C81B2C5E8501F0028F7D12089401C4C
:1044D00080B22081E189884201D1A4F80880BDE83A
:1044E000F081BDE8F0410320FFF78ABD7C1E00206B
:1044F00070B50446808915460026C0B3608904EB78
:104500008000006908606089401C80B26081E18998
:10451000884200D16681606810B1607802280BD0B3
:1045200014F10C04D4E85F0F401E81B2C4E8501FA0
:104530000028F7D1002070BD2046FFF7B9FE0546E0
:10454000002100F0E1F92189E86904EB81010861AB
:104550002089401C80B22081E189884200D12681D7
:10456000284600F0D8F92846FFF72AFEE2E7FFE7E1
:104570003DB10B48626801682AB1204600F084F919
:1045800008E0012070BD616001684E6000688460D1
:104590000120607008212846FFF79AFDF1E700002E
:1045A00078000020002814D0411C13D00C4A4FF68C
:1045B000FE7190420CD800EB4002C2EBC0120948D9
:1045C000036803EBC202521EB2FBF3F0884204D927
:1045D000084670474FF6FF70704780B27047000082
:1045E00000093D00C86200080321017000214180DC
:1045F00041608160C16070472DE9F0410446408808
:1046000020B1314DA1682A68914202D0FF20BDE857
:10461000F081401E0004000C608053D12968086AB4
:10462000A04209D1E068086208E0C268A24202D153
:10463000E268C26002E010460028F6D191F824003A
:104640000A6A06E053681BB19B78834200D918467A
:10465000D268002AF6D18870DFF870806168012680
:1046600011B32046FFF724FE0746002100F04CF965
:10467000384600F050F96680A760386AE0603C6216
:104680002968D8F804008A788078824201D33846B5
:1046900016E00E4800F0F8F839460C4800F0F4F83F
:1046A000286846707E700AE0D8F804108A78296875
:1046B000824207D9054800F0E7F8286846700020D4
:1046C000FFF77EFD0020A2E7780000207C1E00207E
:1046D00070B51C4D0E4604464188286861B1A26839
:1046E000824210D1A1F57F40FF3803D0491C618080
:1046F000002070BDFF2070BDA060016AE16004620F
:1047000001206080F4E776B191788078814203D20D
:104710009070A06800F0DEF8606830B1204629682B
:1047200000F0B2F808E0012070BD286860602968D8
:10473000002048602868846009213046FFF7C8FCE3
:10474000F1E700007800002070B51B4801210268E5
:104750005170006800F0B4F8184D6C7818E000BF94
:1047600005EBC40148680278EAB1012A20D000F0C4
:10477000FFF8E878641C844200D100240F48801CB4
:10478000D0E84F1F491EC9B2C0E8421F002AF7D126
:10479000A8780028E4D16C700948FFF789FDBDE8CE
:1047A000704000F011B9098989B2FFF72FFDE0E7E9
:1047B0008968FFF725FEDCE778000020301900202B
:1047C0007C1E00200548017811B10121417070471D
:1047D00003494FF0805008607047000080000020BF
:1047E00004ED00E0F0B4154DAB1CEE784FEA050780
:1047F000D3E84F2FB24202D1BFF32F8F11E0521CEA
:10480000D4B2C3E8424F002AF2D100BFD7E84F2FFD
:10481000541CB44200D10024E4B2C7E8434F002B3B
:10482000F4D1EB78934205D905EBC202C2E901014C
:10483000F0BC7047F0BC0220FFF7E2BB301900204B
:10484000104A10B5D368ABB113469B8A03E08CB114
:104850002246A48A2344D4688B42F8D3C460D06033
:104860000261C46804B12061591A8182908A401A99
:10487000908210BD0024C460D060C91A0261918288
:10488000848210BD941E002030B502780023022AD5
:1048900003D0012A01D0032A00D101238C7800E043
:1048A0001046426812B19578A542F9D24A6041603B
:1048B0001BB102B19160886030BD0020FBE70000B1
:1048C00003494A68426000228260486070470000E5
:1048D0007C1E002010B5836804462BB9607801283F
:1048E0000ED1084B03E09B6818780028FBD02046C7
:1048F00000F026F82146BDE810401846FFF7C4BF77
:1049000010BD00007C1E0020806A01627047806A32
:10491000C0E90812704710B5016900290ED0C268BD
:10492000CA60C36800223BB18B8A848A23448B828D
:10493000C3681961C26000E08A82026110BD000094
:10494000816839B142684A604168002901D08068B5
:1049500088607047054906E04A68824202D1406893
:104960004860704711460029F6D170477C1E002030
:1049700010B5416881B1FFF79BFC0446FFF7CBFF00
:104980000120607001462046FFF7BEFF2146BDE8CA
:1049900010400348FFF778BF4188491C418010BD93
:1049A0007C1E002006480068D0E90A10814203D32B
:1049B00000680449884202D00120FFF721BB7047FC
:1049C00078000020A52E5AE2074902224860427072
:1049D000064A1278002A05D006C98A4202D0C07859
:1049E000FEF7F6BD7047000078000020940000201C
:1049F00070B5FEF7C5FD00200446204A204902E0BC
:104A000042F82040401C0B889842F9D31D483422BC
:104A100001881D48FEF772FD1C48008880B240F0F6
:104A200000421B4801681B48FEF768FD1A4808222F
:104A300001881A480068FEF761FD194DFF20194AE8
:104A4000E870EC8400212846FFF74AFC1648042150
:104A50000170446015480170C46004618482144888
:104A60001549056002206870124804704470097886
:104A7000C170BDE87040FFF765BC0000B4190020AC
:104A8000A4620008D0620008B8000020A8620008F4
:104A9000D462000898020020F86200084400002058
:104AA000481E0020234000087C1E0020941E002089
:104AB0007800002030190020DC6200081B4810B587
:104AC000016841F47F01016000684FF07F4101EA15
:104AD00000201649C0431439B0FA80F00968C0F1CB
:104AE0000800C1F30221814200D3481C0F49091F6D
:104AF0000B686FF08072824063F317020A60FFF761
:104B000093FA0B49002808600EDB00F1E021FF2238
:104B100081F8002400F01F0201219140400980002B
:104B200000F1E020C0F8001110BD000020ED00E011
:104B3000840000200C4810B5026801215170006803
:104B4000FFF7BEFEFFF7E0FA08480168491C016064
:104B5000FFF7FEFA00F0B6FA0548FFF7A9FBBDE83B
:104B60001040FFF731BF00007800002088000020CF
:104B70007C1E0020002805D0810702D10178002981
:104B800000D000207047000030B50B4C0023626855
:104B900005E095688D4204D813461268491B002A27
:104BA000F7D10260816012B19568691A91600BB10A
:104BB000186030BD606030BD700000202DE9F0410C
:104BC0001E46174680460D4611F0FF0F00D14D1CC2
:104BD0001848FFF751FA041E16D0280AE762E0844D
:104BE000E9B242462046E661FFF77AFB012512480A
:104BF000124905E000EB850252F8042C32B16D1C1D
:104C00000A889542F6D90020BDE8F081002DFAD03F
:104C100000EB850040F8044C0948E570007818B1B5
:104C200001212046FEF7C4FC2046FFF7C9FA2846BA
:104C3000EAE70000B8000020B4190020A4620008D0
:104C4000940000202DE9F05F584DDFF85891DFF80F
:104C5000588129684FF0010A002618B1CA78AB467E
:104C6000824243D14E70FBF7C6FA29688862FFF78B
:104C700099FE2868046A1FE06068C0B12046FFF70B
:104C800017FB07460021FFF73FFE3846FFF743FEBC
:104C900087F801A039464648FFF7F6FDE168A4F819
:104CA00002A0A760386AE0603C620C4604E0E0685D
:104CB0006680A660E6600446002CDDD12868C278D4
:104CC00008EB820141F8046CC16A3A48FFF7C6FA62
:104CD0002868C66299F8001011B10021FEF768FC3F
:104CE00035482968FFF7BAFA2E6056E0334909883B
:104CF00088420CD808EB800858F8045C3DB128467F
:104D0000FFF71EFE2846FFF706FE2C6A22E0FF2072
:104D1000BDE8F09F6068C0B12046FFF7C9FA0746BA
:104D20000021FFF7F1FD3846FFF7F5FD87F801A0F8
:104D300039461F48FFF7A8FDE168A4F802A0A76064
:104D4000386AE0603C620C4604E0E0686680A66079
:104D5000E6600446002CDDD148F8046C1548E96A89
:104D6000FFF77CFAEE6299F8000018B1002128469E
:104D7000FEF71EFC29461048FFF770FA0C48DBF8D6
:104D8000001040688B7882789A4209D981F801A096
:104D90000748DBF80010FFF777FD0020FFF710FA57
:104DA0000020B5E794000020B4190020780000200E
:104DB0007C1E002098020020B8000020A462000899
:104DC00070B51A4D80B11A4A128890421FD8194AFC
:104DD00002EB800050F8044CCCB1A17084F8241090
:104DE0002868A04205D014E028688170286880F8FF
:104DF0002410114840688078884215D90E482968E7
:104E0000FFF742FD29680120487000200AE0FF20DA
:104E100070BD2046FFF75EFD6078012804D106488A
:104E2000FFF746FAFFF7CCF9002070BD78000020AC
:104E3000A4620008B41900207C1E0020024800680B
:104E4000002800D0C07870477800002010B50028F6
:104E500004D0FFF7A7FBFFF7D5F9402010BD0000F5
:104E600010B5134C207860B91248400705D112489C
:104E700001681048FFF758FA08B1852010BDFFF708
:104E8000B7FD0E49FF2009688870207858B90021C5
:104E90000B4800F05DF80B49086000210A4800F05B
:104EA000A5F80A490860012020700020607010BD3C
:104EB0007000002058070020D86200087800002009
:104EC000F06200083C000020E0620008380000208A
:104ED00070B50F4D687808B1002070BD0D4C20688A
:104EE00090F824100020FFF76BFF2068C178FF299D
:104EF00003D1816A203181F30988616811B960604A
:104F000000202060FFF7DAFD01206870E4E7000070
:104F1000700000207800002070B5FFF7A3F8044669
:104F2000FFF798F80849094E0D686D1C48B1FFF766
:104F300099F8A04200D204463068401C05FB0040AE
:104F400070BD3068FAE70000B862000888000020F1
:104F500010B5040005D0216819B1606808B1027865
:104F60000AB1002010BD8900103189B2FFF73AFA6A
:104F7000606810BD3EB504000D464FF0800012D0B1
:104F8000217801290FD12846FFF70CFB0246204665
:104F900001A9FFF7ADFA012801D0102003E00DB1FF
:104FA000402000E00020DDE9011203B030BD10B563
:104FB000002804D004680CB1207808B1002010BD8E
:104FC0002046FFF711FB204610BD10B5FFF784F90E
:104FD00010B10178032901D0802010BDFFF70CFB30
:104FE000FF2801D0002010BD812010BD70B50E46F5
:104FF000040029D0206838B3606810F1030F23DB68
:10500000032821DCE16829B11048FFF742F80500C8
:105010001AD000E000256068E168001D40EA012127
:1050200033462A462068FFF7C9FD40B1084901EB25
:105030008000084950F8040C826A516370BD1DB1AC
:1050400029460248FFF720F9002070BD58070020CC
:10505000B4190020B13F000810B5FFF7EFFE00289B
:1050600004D0034901EB800050F8040C10BD00008F
:10507000B419002010B5FFF77DFD18B1C18C19B12E
:10508000C46A02E0802010BD0024C078FFF7DAFD7A
:10509000FF2806D01CB121460348FFF7F5F8002091
:1050A00010BD812010BD00005807002010B5FFF78B
:1050B00013F920B141690A680169104610BD00204A
:1050C000014610BD2DE9F041134E7468002C1CD030
:1050D000A068124F401E4FF00108A06012E0254664
:1050E00024687460002229463868FEF7B6FB10B1C8
:1050F0000420FEF785FF6879012808D085F8048030
:10510000002C02D0A0680028E9D0BDE8F081284634
:10511000E968FFF739FDF3E7700000203C0000204C
:1051200008B501211020FCF733FB1820ADF8000072
:1051300003208DF8020010208DF803006946044812
:10514000FBF778FC012218210148FBF7E4FD08BDBC
:10515000001001405D39000801000000010000005E
:1051600000040000311F00080000000001000000E2
:10517000000400009800002061626300000000004D
:10518000000000000000000000000000000000001F
:10519000000000000000000000000000000000000F
:1051A00000000000040404040404000400000014CF
:1051B0000A0A0000000000000000000014143F1460
:1051C0000A3F0A0A000000041E1505060C14150FFC
:1051D0000400000012150D0A142C2A120000000011
:1051E000040A0A1E1515093600000002020100001B
:1051F000000000000000002010080808080808103F
:105200002000000204080808080808040200000042
:105210000004150E0E150400000000000404041F15
:105220000404040000000000000000000000000270
:10523000020100000000001F00000000000000004C
:105240000000000000000002000000100808080430
:1052500004020202010000000E1111111111110EC1
:1052600000000000040604040404040E0000000012
:105270000E1111080402011F000000000E11100C95
:105280001010110E00000000080C0A0A091E081870
:10529000000000001F01010F1010110E000000009F
:1052A0000E09010F1111110E000000001F09080462
:1052B00004040404000000000E11110E1111110E5F
:1052C000000000000E1111111E10120E000000004F
:1052D00000000400000000040000000000000004C2
:1052E000000000040400002010080402040810203C
:1052F0000000000000001F00001F0000000000026E
:105300000408102010080402000000000E1111080B
:1053100004040004000000000E111915151D011EE3
:105320000000000004040C0A0A1E123300000000F2
:105330000F12120E1212120F000000001E110101B6
:105340000101110E000000000F1212121212120FB2
:10535000000000001F120A0E0A02121F00000000C7
:105360001F120A0E0A020207000000001C120101AF
:105370003911120C000000003312121E12121233E7
:10538000000000001F0404040404041F00000000C7
:105390003E080808080808090700000037120A0636
:1053A0000A0A123700000000070202020202223F2E
:1053B000000000001B1B1B1B15151515000000002D
:1053C0003B1216161A1A1217000000000E111111C6
:1053D0001111110E000000000F12120E020202073E
:1053E000000000000E1111111117190E1800000015
:1053F0000F12120E0A121237000000001E110106D1
:105400000810110F000000001F1504040404040E0E
:1054100000000000331212121212120C00000000E1
:105420003312120A0A0C0404000000001515150EB0
:105430000A0A0A0A000000001B0A0A04040A0A1BDE
:10544000000000001B0A0A040404040E000000000F
:105450001F0908040402121F0000001C04040404B5
:10546000040404041C0000020202040408080810DA
:105470000000000E08080808080808080E000004CC
:105480000A00000000000000000000000000000012
:1054900000000000003F00040000000000000000C9
:1054A000000000000000000C121C123C0000000074
:1054B0000302020E1212120E000000000000001C77
:1054C0001202021C000000001810101C1212123CE4
:1054D000000000000000000C121E021C0000000072
:1054E0003804041E0404041E000000000000003CF8
:1054F000120C021E221C00000302020E12121237AE
:1055000000000000040000060404040E0000000077
:105510000800000C08080808080700000302023A07
:105520000A0E123700000000070404040404041FDC
:10553000000000000000000F151515150000000008
:105540000000000F12121237000000000000000CD3
:105550001212120C000000000000000F1212120EB6
:10556000020700000000001C1212121C103800007C
:105570000000001B06020207000000000000001EE1
:10558000020C101E000000000004040E04040418A5
:10559000000000000000001B1212123C000000007E
:1055A00000000037120A0C04000000000000001583
:1055B000150E0A0A000000000000001B0A040A1B66
:1055C0000000000000000037120A0C040403000071
:1055D0000000001E0804041E00000018080808044B
:1055E0000808080818000808080808080808080833
:1055F0000808000604040408040404040600022544
:105600001800000000000000000000000000000082
:105610000000000000000000000000000008080872
:105620000808080800001818000000486C24120040
:1056300000000000000000000000000000242424FE
:105640007F1212127F12121200000000081C2A2A78
:105650000A0C1828282A2A1C0808000000222515F0
:1056600015152A585454542200000000000C121240
:10567000120A76252911916E000000060604030027
:105680000000000000000000000000402010100892
:10569000080808080810102040000002040808103C
:1056A0001010101010080804020000000000080884
:1056B0006B1C1C6B080800000000000000000808BC
:1056C00008087F080808080000000000000000002B
:1056D00000000000000006060403000000000000B7
:1056E0000000FE00000000000000000000000000BC
:1056F000000000000000060600000000804040207E
:1057000020101008080404020200000000182442BF
:1057100042424242424224180000000000080E08A3
:10572000080808080808083E00000000003C424243
:10573000422020100804427E00000000003C42424B
:10574000201820404042221C000000000020302889
:10575000242422227E20207800000000007E020205
:10576000021A26404042221C000000000038240299
:10577000021A26424242241800000000007E222223
:10578000101008080808080800000000003C424209
:10579000422418244242423C0000000000182442E7
:1057A000424264584040241C0000000000000000F9
:1057B0001818000000001818000000000000000089
:1057C000000800000000000808040000004020104D
:1057D000080402040810204000000000000000003F
:1057E0007F0000007F0000000000000000020408AD
:1057F000102040201008040200000000003C42423B
:10580000464020101000181800000000001C225A0A
:10581000555555552D42221C00000000000808185F
:105820001414243C224242E700000000001F222200
:10583000221E22424242221F00000000007C4242FF
:10584000010101010142221C00000000001F224250
:10585000424242424242221F00000000003F4212E8
:10586000121E12120242423F00000000003F42128C
:10587000121E12120202020700000000003C222247
:10588000010101712122221C0000000000E74242B8
:1058900042427E42424242E700000000003E0808C9
:1058A000080808080808083E00000000007C1010E6
:1058B0001010101010101010110F0000007722129D
:1058C0000A0E0A12122222770000000000070202CC
:1058D000020202020202427F000000000077363618
:1058E00036362A2A2A2A2A6B0000000000E34646A0
:1058F0004A4A52525262624700000000001C224194
:10590000414141414141221C00000000003F424210
:1059100042423E020202020700000000001C224137
:10592000414141414D53321C60000000003F424262
:10593000423E1212222242C700000000007C424276
:10594000020418204042423E00000000007F490847
:10595000080808080808081C0000000000E7424288
:10596000424242424242423C0000000000E74242C2
:10597000222424141418080800000000006B494970
:1059800049495555362222220000000000E74224F2
:1059900024181818242442E700000000007722226F
:1059A000141408080808081C00000000007E2120CC
:1059B000101008040442423F00000078080808085C
:1059C0000808080808080808780000000202040413
:1059D00008080810102020204040001E1010101051
:1059E00010101010101010101E000038440000009D
:1059F00000000000000000000000000000000000A7
:105A0000000000000000000000FF00060800000089
:105A10000000000000000000000000000000000086
:105A2000003C4278444242FC0000000000030202B5
:105A3000021A26424242261A00000000000000001E
:105A40000038440202024438000000000060404078
:105A500040784442424264D8000000000000000048
:105A6000003C427E0202423C0000000000F0880838
:105A7000087E08080808083E00000000000000003A
:105A8000007C22221C023C42423C00000003020235
:105A9000023A4642424242E700000000000C0C007D
:105AA000000E08080808083E000000000030300022
:105AB0000038202020202020221E000000030202A7
:105AC0000272120A1612227700000000000E080867
:105AD000080808080808083E000000000000000050
