:020000040800F2
:10000000F86E002081030008353500088D2B0008AC
:10001000313500089D180008155C0008000000003C
:10002000000000000000000000000000B90200080D
:100030000D23000800000000310300086D030008D4
:100040009B0300089B0300089B0300089B03000818
:100050009B0300089B0300089B0300089B03000808
:100060009B0300089B0300089B0300088D210008E8
:10007000AD210008CD210008ED2100080D22000867
:100080002D2200084D2200089B030008115A000889
:10009000295B0008A11800088D1900089B030008BF
:1000A0009B0300089B0300089B0300089B030008B8
:1000B0009B0300089B0300089B0300089B030008A8
:1000C0009B0300089B0300089B0300089B03000898
:1000D0009B03000851420008314500089B030008BB
:1000E0009B0300089B0300089B0300089B03000878
:1000F0009B0300089B0300089B0300089B03000868
:100100009B0300089B0300089B0300089B03000857
:100110009B0300089B0300089B0300089B03000847
:100120006D2200088D220008B1220008D1220008AB
:1001300000F002F800F06AF80AA090E8000C82448F
:100140008344AAF10107DA4501D100F05FF8AFF26C
:10015000090EBAE80F0013F0010F18BFFB1A43F0A5
:1001600001031847B0AC0000D0AC00000A444FF0C7
:10017000000C10F8013B13F0070408BF10F8014B06
:100180001D1108BF10F8015B641E05D010F8016B4B
:10019000641E01F8016BF9D113F0080F1EBF10F8AF
:1001A000014BAD1C0C1B09D16D1E58BF01F801CBD2
:1001B000FAD505E014F8016B01F8016B6D1EF9D555
:1001C0009142D6D37047000000230024002500266A
:1001D000103A28BF78C1FBD8520728BF30C148BFAA
:1001E0000B607047662908F0BC84642900F07881B0
:1001F000002070471FB500F028FE040000200021F9
:1002000007F03AFFE0601FBD10B510BD00F01CFF05
:100210001146FFF7EFFF0FB400F00CF80FBC06F02B
:10022000A5FA00F020FA03B4FFF7EEFF03BC00F0DC
:1002300005FF000004B006F0BFFA0448002106F0F4
:1002400049FB06F0CBFA00F00EFA000054AD0008AE
:1002500080F309887047EFF309807047684680F3A0
:10026000098804480078C00714BF0220032080F3E7
:100270001488704714AD0008DFF818C0EFF3058349
:100280001B0618BF6047EFF31483DB0708BF604706
:1002900000DF7047896C0008DFF818C0EFF30583B2
:1002A0001B0618BF6047EFF31483DB0708BF6047E6
:1002B00000DF70476D6E0008EFF30980816911F867
:1002C000021CF1B990E80F10E047EFF3098C8CE8BD
:1002D0000700144B93E8060091420FD039B12CE986
:1002E000F00FC1F828C00CB407F064F90CBC1A6018
:1002F000D2F828C0BCE8F00F8CF309886FF0020E2A
:10030000704710B5084A1268914209D8074C54F852
:10031000214090E80F10A047EFF3098C8CE80F0004
:1003200010BD0000640100200C1800080C18000823
:1003300007F012F80C4B93E80600914210D0EFF34F
:10034000098C2CE9F00FC1F828C00CB407F032F981
:100350000CBC1A60D2F828C0BCE8F00F8CF30988F6
:100360006FF0020E704700006401002007F0EAF908
:10037000E0E7000006F042FB07F0E4F9DAE70000EE
:100380000948804709480047FEE7FEE7FEE7FEE729
:10039000FEE7FEE7FEE7FEE7FEE7FEE70448054965
:1003A000054A064B70470000493E0008310100082D
:1003B000F8680020F86E0020F86A0020F86A002033
:1003C000004870479468002053EA020C00F06980EE
:1003D0002DE9F04B4FF00006002B1FBFB3FA83F559
:1003E00003FA05F424FA05F65E4012BF1643B2FA8A
:1003F00082F502FA05F4C5F120051EBF22FA05FCBC
:1004000044EA0C04203556EA044C4FEA144418BF61
:10041000641C4FF000084FF00009904271EB030C90
:1004200039D3002919BFB1FA81F701FA07F6B0FAFA
:1004300080F700FA07F6C7F120071EBF20FA07FC75
:1004400046EA0C062037B6FBF4FCA7EB0507103F85
:1004500007F01F0BCBF120060CFA0BFB2CFA06F66B
:1004600044BFB3460026202FA4BF5E464FF0000BCA
:100470005BEA060C08BF4FF0010B19EB0B09ABFB55
:10048000027C48EB0608C01B06FB02CC0BFB03CC2E
:1004900071EB0C01C1E70B46024641464846BDE8F8
:1004A000F08B13B54FF000004FF00001AFF3008068
:1004B000BDE81C40704700000FB41CB5074B06AAEE
:1004C0007B4469460090059800F0A7FC002069462F
:1004D00000F0B6FC1CBC5DF814FB00007D090000B8
:1004E0002DE9F0410646002410687529314616A50D
:1004F00010D0AFF30080002802DA404213A507E0D5
:1005000031688A0701D512A502E0490704D511A573
:10051000012401E0AFF3008000210A2206F1240744
:1005200009E0B0FBF2FCB0FBF2F302FB1C00303040
:1005300078541846491C0028F3D123462A463046F1
:10054000BDE8F04100F0FDB9000000002D00000002
:100550002B000000200000002DE9F0474FF0000ABA
:1005600089460446C0F820A02046E1688847002854
:1005700076D0252806D0D4E901219047206A401C76
:100580002062F1E7E168204600258847C4F81CA0F6
:1005900006460027C4F818A02A2E09D0304605F0D8
:1005A00072FB38B304EB8708303EC8F8186019E0D6
:1005B00059F8041B204604EB87029161E1688847E3
:1005C000012F064618D1E069002820DA25F0200521
:1005D0001DE0D8F8180000EB800006EB4000303832
:1005E000C8F818002046E1688847064605F04BFB2E
:1005F0000028EED1012F0AD02E2E08D12046E16826
:1006000088477F1C0646022F45F02005C4DBA06901
:10061000002803DA404245F00105A061E80701D057
:1006200025F01005B6B1A6F14100192802D82036F0
:1006300045F400654A463146204625604D46FFF7A1
:10064000D1FD58B1012806D0ED1D25F0070000F1BD
:10065000080989E704E005F1040985E730468AE7DF
:10066000206ABDE8F08710B50446AFF3008020464D
:10067000BDE81040FFF7D7BD30B505460B462A460A
:1006800013F8014B12F8010B08B1A042F8D01CB1CD
:10069000002802D06D1CF1E7284630BD40EA010376
:1006A000024630B59B0710D14FF0013400E008C27C
:1006B00008C91D1B9D4315EAC41FF8D013F0FF01A4
:1006C00002F8011B0DD01B0AF8E711F8013B002BC3
:1006D00002F8013B05D011F8013B002B02F8013B69
:1006E000F3D130BD10B5431C02E010F8011B71B10D
:1006F0008107FAD14FF0013202C88C1A8C4314EAF8
:10070000C211F9D0C01A0A0603D0C01E10BDC01A0B
:1007100010BD0A0401D0801E10BD0902FCD0401E8D
:1007200010BD421E12F8013F002BFBD111F8013B16
:10073000002B02F8013BF9D17047032A40F23080C8
:1007400010F0030C00F0158011F8013BBCF1020F12
:10075000624498BF11F801CB00F8013B38BF11F893
:10076000013BA2F1040298BF00F801CB38BF00F8AA
:10077000013B11F0030300F02580083AC0F0088027
:1007800051F8043B083A51F804CBA0E80810F5E70B
:10079000121D5CBF51F8043B40F8043BAFF30080EE
:1007A000D20724BF11F8013B11F801CB48BF11F863
:1007B000012B24BF00F8013B00F801CB48BF00F833
:1007C000012B704710B5203AC0F00B80B1E81850EB
:1007D000203AA0E81850B1E81850A0E81850BFF42B
:1007E000F5AF5FEA027C24BFB1E81850A0E81850CA
:1007F00044BF18C918C0BDE810405FEA827C24BF1E
:1008000051F8043B40F8043B08BF7047D20728BFAB
:1008100031F8023B48BF11F8012B28BF20F8023BFA
:1008200048BF00F8012B70474FF000020429C0F0C8
:10083000128010F0030C00F01B80CCF1040CBCF112
:10084000020F18BF00F8012BA8BF20F8022BA1EB64
:100850000C0100F00DB85FEAC17C24BF00F8012B49
:1008600000F8012B48BF00F8012B70474FF0000241
:1008700000B5134694469646203922BFA0E80C5096
:10088000A0E80C50B1F12001BFF4F7AF090728BF71
:10089000A0E80C5048BF0CC05DF804EB890028BFED
:1008A00040F8042B08BF704748BF20F8022B11F016
:1008B000804F18BF00F8012B704700004FF0013C3B
:1008C00050F8042B51F8043B9A4221D1A2EB0C03BF
:1008D000934313EACC1317D150F8042B51F8043B7F
:1008E0009A4215D1A2EB0C03934313EACC130BD11C
:1008F00050F8042B51F8043B9A4209D1A2EB0C03A7
:10090000934313EACC13DBD04FF00000704700BFD5
:10091000D01A01BAB1FA81F101F0180122FA01F0FE
:10092000CB40C1F12001DBB2C0B2C01A2CFA01F3F6
:10093000D11A914311EAC311E6D17047704770474D
:1009400070472DE9F0470D4699469246044600F15E
:1009500024080168880604D5E06921F010012160AF
:1009600000E00120A84201DD471B00E00027A1694B
:100970007A1902EB0900081AA0612078C00602D497
:100980002046AFF30080002608E0D4E901211AF8E0
:1009900006009047206A401C761C20624E45F4DB1E
:1009A0002078C0060AD52046AFF3008006E0D4E9DF
:1009B000012130209047206A401C2062381EA7F198
:1009C0000107F4DC07E0D4E9012118F8050090479D
:1009D000206A401C2062281EA5F10105F3DC204698
:1009E000AFF300802078000602D50220BDE8F08732
:1009F0000120FBE770472DE9FF4F0C461E464FF0E4
:100A0000FF378BB0D2E90001DDF860800A908A469A
:100A1000C1F30A5505B93D46002108464FF00000D4
:100A2000BAF1000F00F4400005DA00EB80004FF44B
:100A3000400101EA50004FEA9059B9F1010F00DD81
:100A4000B9460A9850EA4A000ED044F61050A5F272
:100A5000FF3545432F14B8F1000F1ED07542291EF3
:100A60001EDDC9F100021CE0B8F1010F4FF00000DB
:100A700001D0302103E0F24305E02154401CB04294
:100A8000FBDB30460022002121540B99C1F808807D
:100A9000C1E900200FB0BDE8F08FBD1B6D1CDEE783
:100AA0004A4600DA694206A800F05AFA06AB93E813
:100AB000070003AB83E8070050460A9900F0EAFA02
:100AC0008DE80700A0F500501F3800900398002D16
:100AD00009DD42F21F014A46084403A90390684613
:100AE00000F049FD08E0A0F500504A461F3803A970
:100AF0000390684600F053FD8DE807000004000CE9
:100B000003D04FF0FF30410800E01046B8F1000F6D
:100B100003D00022009215461EE0751E05D400F099
:100B200099F9303262556D1EF9D5B346012208435A
:100B300002D000227F1C04E02078302801D100225E
:100B40007F1E002A099786D01DE0112D07DA00F0DC
:100B500081F9303262556D1C50EA0102F5D108432B
:100B600002D00098C8B10EE00021681E05E0235CA9
:100B7000625C63542254401E491C8142F7DBAB4641
:100B8000A81B401E0990002004F80B000B98099A3E
:100B9000C0F80880C0E9002B7CE711264FF0000860
:100BA00059E72DE9F04F88460446D21D22F007018F
:100BB00091B0D1E90001CDE90A0105F02DF8024616
:100BC0000B98C00F01D02D2007E02068810701D5C8
:100BD0002B2002E0202101EAC000032A099001D065
:100BE000072A05DB03464146204600F079F90BE170
:100BF0002078800601D5E06900E00620B8F1650F95
:100C0000814606D0B8F1660F18D0B8F1670F70D1E1
:100C100031E00020B9F1110F009001DB112301E058
:100C200009F101030AAA01A90CA8FFF7E4FEDDE916
:100C30000C70002609F10105834647E001204B4670
:100C400000904FF000470AAA01A90CA8FFF7D3FEB5
:100C5000DDE90DB00C995D46002610B909F10100DF
:100C60000D18B9EB050003D4C0F1FF3609F10105F9
:100C7000A5EB09002BE0B9F1010F01DA4FF00109F2
:100C80000020B9F1110F0090484601DD112300E06A
:100C900003460AAA01A90CA8FFF7ADFEDDE90C7016
:100CA0004D4600268346207800070AD4AB4500DA7B
:100CB0005D4601A8012D04DD411911F8011C302900
:100CC00007D04F4502DA17F1040F04DA01208246FB
:100CD0000FE06D1EEEE7002F02DCED1B3E4403E04B
:100CE000781CA84200DD7D1CB81B00F1010A4FF002
:100CF00000472078000703D4AA4501DB4FF0FF3AF4
:100D00000021B7F1004F0DF143088DF8431024D0B6
:100D100002202B23002F01DA7F422D230A21021EFD
:100D2000A0F1010000DC5FB197FBF1FC97FBF1F251
:100D300001FB1C7C17460CF1300C08F801CDEEE7E6
:100D4000A8F1010003702188090501D5452100E0C3
:100D50006521A0F1010800F8011C09980FA9A1EB79
:100D60000807FF1D00B10120411901EBEA70A169DC
:100D70003844081A401EA0612078C00602D42046DC
:100D8000AFF30080099828B1D4E901219047206A87
:100D9000401C20622078C00622D52046AFF3008098
:100DA0001EE0002E04DBB34502DD01A8805D00E0FB
:100DB0003020D4E901219047206A401C2062761C33
:100DC000AAF101005FEA000A0AD100F03EF8C0680B
:100DD0000168405CD4E901219047206A401C2062F0
:100DE000281EA5F10105DCDC07E0D4E9012118F893
:100DF000010B9047206A401C2062381EA7F10107B2
:100E0000F3DC2046AFF30080032011B043E600007E
:100E100001694A1C02610878704700B58FB0CDE9BE
:100E200001310021059105497944CDE903101146AE
:100E30006846FFF791FB0FB000BD0000E5FFFFFF24
:100E40000A6802F8010B0A60704710B5FFF7B8FA9C
:100E5000203010BD30B5B0F10A024FEA900E71F1AA
:100E600000034EEA817EB0EB0E0061EB91014FEA88
:100E7000101E4EEA017E10EB0E0041EB11114FEAFD
:100E8000102E4EEA016E10EB0E0041EB11214FEADD
:100E9000104E4EEA014E10EB0E0041EB114140188E
:100EA00041F100014FEAD00040EA41704FEAD10120
:100EB00010EB80054FEA810444EA907444EB01048E
:100EC0006D1944EB0404521BA3414FF0000348BFCB
:100ED0000A3200D530BD401C41F1000130BD000098
:100EE0002DE9F0411F46044603260168072A01F454
:100EF000006004DB08B116A505E016A503E008B103
:100F000015A500E015A521F010002060A069C01E05
:100F1000A0610FB1401EA0612046AFF300804FB129
:100F2000D4E9012138469047206A401C2062C01C49
:100F3000206206E0206AFAE7D4E9012115F8010BE6
:100F40009047761EF8D22046AFF30080BDE8F081CE
:100F50004E414E006E616E00494E4600696E66005D
:100F60002DE9F047814616468AB0334878440DC8CB
:100F70008DE80D0030487844801C03AC0DC884E82F
:100F80000D0041F69B300844372190FBF1F290FBB5
:100F9000F1F5A5F1800501FB12041B3C02D564426A
:100FA000012000E00020DFF890A080460027FA44EE
:100FB000AAF1BE0A0DE0E00709D03246684607EB09
:100FC00047010AEB810100F0EAFA8DE8070064109E
:100FD0007F1C002CEFD1184F7F44AC3F18E0E8078E
:100FE00014D007EB04100DF1180A90E80E008AE8FF
:100FF0000E00C068F04201D198190890324606A947
:1010000003A800F0CCFA03AB83E807006D10641C62
:10101000002DE4D132466946B8F1000F03A802D092
:1010200000F0A9FA01E000F0BAFAC9E90001C9F834
:1010300008200AB0BDE8F087709E00000149182022
:10104000ABBEFEE7260002007546FFF7B9F9AE46D3
:1010500005006946534620F00700854618B020B5C4
:10106000FFF79CF9BDE820404FF000064FF0000765
:101070004FF000084FF0000B21F00701AC46ACE840
:10108000C009ACE8C009ACE8C009ACE8C0098D46AD
:10109000704770475FEA400C08BF91F0000F4FEABD
:1010A0008C234FEAC12243EA51514FEA1C5018BF2A
:1010B00000F5F0404FEA300018BF41F000415FEA10
:1010C0006C5C00F02980BCF1FF3F08BF40F080401D
:1010D0007047130C06BF12044FF0100C4FF0000CB9
:1010E000130E04BF12020CF1080C130F04BF1201FF
:1010F0000CF1040C930F04BF92000CF1020CD30FFF
:1011000004BF52000CF1010C11464FF00002A0F197
:101110001F00A0EB0C00704711F0004F08BF704794
:1011200031F000413FF4D5AF0B0C06BF09044FF07E
:10113000100C4FF0000C0B0E04BF09020CF1080C50
:101140000B0F04BF09010CF1040C8B0F04BF8900C5
:101150000CF1020CCB0F04BF49000CF1010CCCF1D7
:101160002003A0EB0C0022FA03F302FA0CF241EA8E
:10117000030100F10100704720F07F4C80EA03007A
:1011800023F07F47ACEB070303F57C5300F00040EE
:1011900003F1FF032DE980494FEA154B09B44FEAEB
:1011A000144325EA0B4E24EA03480FF2042606EB0B
:1011B000132749083E785FEA320203FB0667C7F54A
:1011C000000707FB06F64FEA54374FEAD64606F10A
:1011D000020607FB066CCCF1005C4FEA1C472CEAC8
:1011E000074C07FB06F40CFB06F504EB15464FEA2B
:1011F000961634BF00204FF000404FEAD13706FB6F
:1012000007FC4FEA1C4C0CFB0BF7D21B03FB0CF743
:1012100061EB07010CFB0EF7B0EB074072EB1742D6
:101220000CFB08F734BFA2EB0742B2EB074261EBBD
:1012300017414FEA0C444FEA910706FB07FC4FEABF
:101240001C4C0CFB0BF7B0EBC74072EB573203FBA7
:101250000CF734BFA2EBC742B2EBC74261EB573188
:101260000CFB0EF7B0EBC70072EB57720CFB08F7E4
:1012700034BFA2EBC702B2EBC70261EB5771039F09
:101280004FEA816141EA921104EBCC044FEAD13775
:101290004FEA826206FB07FC42EA90124FEA806046
:1012A0004FEA1C4C0CFB0BF7D21B03FB0CF761EB5A
:1012B00007010CFB0EF7B0EB074072EB17420CFB7B
:1012C00008F734BFA2EB0742B2EB074261EB1741CC
:1012D0004FEA8C554FEA910704EB9C2406FB07FC70
:1012E0004FEA1C4C0CFB0BF7B0EBC74072EB5732CC
:1012F00003FB0CF734BFA2EBC742B2EBC74261EB72
:1013000057310CFB0EF7B0EBC70072EB57720CFBBA
:1013100008F734BFA2EBC702B2EBC70261EB57710B
:1013200015EB4C254FEA816141EA92114FEA826246
:101330004FEAD13742EA901206FB07FC44F1000461
:101340004FEA80604FEA1C4C0CFB0BF7D21B03FBEF
:101350000CF761EB07010CFB0EF7B0EB074072EBEB
:1013600017420CFB08F734BFA2EB0742B2EB07426F
:1013700061EB174115EB1C154FEA813141EA9241AF
:101380004FEA823242EA90424FEA80304FEA0C76CE
:1013900044F1000448EA03434EEA0B484FF0000EC4
:1013A000B2EB080C71EB030724BF624639464EEBE3
:1013B0000E0E4FF0000B0018524149414BEB0B0B46
:1013C000B2EB080C71EB03077BF1000B24BF624604
:1013D00039464EEB0E0E4FF0000B001852414941BA
:1013E0004BEB0B0BB2EB080C71EB03077BF1000B23
:1013F00024BF624639464EEB0E0E51EA020718BF73
:1014000046F0010616EB0E7655F1000254F100018C
:1014100003D5BDE88901BDE80088BDE88901BDE8C4
:101420000048B619524141EB0101A3F10103704795
:1014300080807F7E7D7C7B7A797877767675747311
:10144000727171706F6E6E6D6C6C6B6A6A696868D0
:10145000676666656464636362616160605F5F5E66
:101460005E5D5D5C5C5B5B5A5A59595858575756DC
:101470005655555554545353525252515150505041
:101480004F4F4F4E4E4D4D4D4C4C4C4B4B4B4A4A93
:101490004A494949484848474747474646464545D7
:1014A0004544444444434343434242424241414110
:1014B000002B26D4770021D01CB54FEA370703B4A0
:1014C0004FF010004FF010014FF000000FBCBDE8CE
:1014D00010400BF1010BBBF1010F08BF5FEA1707CA
:1014E00022BF12F1010211F101014FF0004143F15D
:1014F000000300F0004043EA00007047F9D35708AA
:10150000DAE746EA064613F1400F4FEA16461FDDBA
:1015100013F1200FDFBF16430A46002120335B4240
:10152000C8D0C3F1200746EA064602FA07F74FEA99
:10153000164646EA0706C3F1200722FA03F201FA2B
:1015400007F721FA03F14FF0000342EA0702B1E77F
:1015500046EA020646EA06464FEA164646EA01060B
:10156000BCBF46EA0646360C4FF000034FF00002BF
:101570004FF000019EE72DE9C048934630B491E852
:10158000380007C831EA400C48BF34EA430C03D5A1
:10159000FFF7F2FDFFF78CFFF0BCBDE800882DE9F6
:1015A000C048934630B491E8380007C810F0804F27
:1015B00008BF13F0804F03D100F005F8FFF778FF64
:1015C000F0BCBDE8008820F07F4780EA030023F0EC
:1015D0007F4C07EB0C03A3F57C5300F00040A3F114
:1015E000FE0392F0000F00F0B38095F0000F00F0C2
:1015F00077802DE901494FEA11404FEA144621EA6C
:10160000004800FB06FC24EA064708FB06F607FB39
:1016100008F800FB07F718EB06484CEB164C4FEAAE
:10162000124B18EB07484FEA15464CEB174022EADD
:101630000B4E0BFB06FC25EA06470EFB06F607FBE6
:101640000EFE0BFB07F71EEB064E4CEB164C4FF055
:1016500000061EEB074E4CEB174B18EB0B0840F146
:10166000000018EB0E0B58EB000840F100008F1A39
:101670004FF000013CBFC943661B14BFB5EB040C1F
:1016800000213CBFC943F61B4FEA17444EEA8E0EB9
:1016900027EA04454FEA1C4704FB07622CEA074C83
:1016A00005FB07F70CFB05F604FB0CFC16EB0746E5
:1016B00042EB174216EB0C4642EB1C421BEB0606B4
:1016C00058EB0202414146EA9E0601D5BDE8018978
:1016D000B619524141EB0101A3F10103BDE80189B3
:1016E0004FEA14454FEA114724EA054621EA074C20
:1016F00005FB07F406FB07F70CFB06F105FB0CFCEA
:1017000011EB074144EB17444FEA124711EB0C4130
:1017100044EB1C4422EA074C05FB07F206FB07F7E3
:101720000CFB06F605FB0CFC16EB074642EB1742DA
:1017300016EB0C4642EB1C456A1854F1000148BFF9
:101740007047B619524141EB0101A3F10103704703
:1017500095F0000F37D04FEA11424FEA144721EAC3
:10176000024624EA074C02FB07F106FB07F70CFBD5
:1017700006F402FB0CFC14EB074441EB17414FEA63
:10178000154714EB0C4441EB1C4125EA074C02FBC6
:1017900007F506FB07F70CFB06F602FB0CFC16EB45
:1017A000074645EB174516EB0C4645EB1C42121954
:1017B00051F1000148BF7047B619524141EB010198
:1017C000A3F1010370474FEA14454FEA114724EA99
:1017D000054621EA074C05FB07F106FB07F70CFB62
:1017E00006F24FF0000605FB0CFC12EB074241EB42
:1017F000174112EB0C4251EB1C4148BF7047921845
:1018000041EB0101A3F1010370470000000000005B
:1018100008B50121102001F029FF2020ADF80000BB
:1018200010208DF8030003208DF80200694604485B
:1018300000F0A2FE2021024801F00DF808BD0000D2
:101840000010014010B504F043FA06F09BFB02F0D3
:1018500045FC02F081FC02F04FFD02F0A1FD04F016
:10186000D5FCFFF7D5FF01F067FA04F08BFF0249C2
:10187000C86C804710BD00005000002010B502F079
:10188000E3FB02F0C9FD04F0EDFC01F0B7FB0249F7
:10189000C86C804710BD00000000002000BFFEE7BC
:1018A00070B53648407802281ED13548006800F0EF
:1018B000100058B110203249086032480068B0B1B9
:1018C0003048062102680120904710E02C4800684B
:1018D00000F0030058B12B48006840B129480221AC
:1018E00002680120904702E0202025490860244832
:1018F00008300468001F056804F0040088B905F486
:10190000806070B91E48001D006840F480601C496A
:10191000091D08601C48006818B11B4801680320B5
:10192000884704F0020088B905F4007070B91448C3
:10193000001D006840F400701149091D086012483C
:10194000006818B1104801680120884704F00100C0
:1019500090B905F4807078B9C4F307405F280BD2C2
:101960005F20B0EB146F07D10548001D006840F4FC
:1019700080700349091D086070BD00002601002029
:1019800010640040300100202C01002070B5224876
:10199000006800283FD021480468001F0568042023
:1019A0001E491439086004F0040078B105F4806021
:1019B00060B11A48001F006820F480601749091FB1
:1019C0000860154801680420884724E004F00200FC
:1019D00078B105F4007060B11048001F006820F471
:1019E00000700E49091F08600B48016803208847F2
:1019F00011E004F0010070B105F4807058B107489F
:101A0000001F006820F480700449091F0860024824
:101A100001680220884770BD2C0100201864004036
:101A20002DE9F041074688460025002600240120C4
:101A30004C49086000BF8FE0002688E001F0A0FE5E
:101A4000B8F1000F06D0B8F1010F1DD0B8F1020FA8
:101A50005ED133E001204349283908600020424923
:101A6000C1F89C0100240AE0C4F1070107EB011151
:101A700006EBC502885C02F01BF8601CC4B2082C9F
:101A8000F2DB01F0BDFD55E0002036492839086041
:101A900001203549C1F89C0100240AE0C4F1070186
:101AA00007EB011106EBC502885C01F0DDFF601C4D
:101AB000C4B2082CF2DB01F08DFD3BE00120294986
:101AC000283908602849C1F89C0100240AE0C4F1C3
:101AD000070107EB011106EBC502885C01F0E8FF86
:101AE000601CC4B2082CF2DB00240AE0C4F1070138
:101AF00007EB011106EBC502885C01F0B5FF601C25
:101B0000C4B2082CF2DB01F07BFD01F063FD11E0B3
:101B100000240AE0C4F1070107EB011106EBC5023E
:101B2000885C01F0C5FF601CC4B2082CF2DB01F038
:101B300067FD00BF00BF711C082202FB0511C8B27F
:101B400001F026FE142004F0E9F9701CC6B2082E3C
:101B5000FFF674AF681CC5B2022DFFF66DAFBDE88D
:101B6000F0810000AC8122420080224270B506461E
:101B70000025002401203549086000203449C1F8BF
:101B80008401012031491039086000BF5BE0002466
:101B900055E001F0F5FDA91D06EB0111012202EB54
:101BA0004402885C01F060FFA91D06EB01110022D0
:101BB00002EB4402885C01F057FF291D06EB01117E
:101BC000012202EB4402885C01F04EFF291D06EB66
:101BD0000111002202EB4402885C01F045FFA91CC0
:101BE00006EB0111012202EB4402885C01F03CFF8C
:101BF000A91C06EB0111002202EB4402885C01F0F3
:101C000033FF06EB0511012202EB4402885C01F070
:101C10002BFF06EB0511002202EB4402885C01F069
:101C200023FF01F0D7FC611C082202FB0511C8B29A
:101C300001F0AEFD142004F071F9601CC4B2082C50
:101C4000A7DB681CC5B2022DA1DB70BDAC812242AE
:101C50000080224270B50646002500240120354947
:101C600008603549C1F88401002032491039086004
:101C700000BF5BE0002455E001F082FDA91D06EBEA
:101C80000111012202EB4402885C01F011FFA91D41
:101C900006EB0111002202EB4402885C01F008FF10
:101CA000291D06EB0111012202EB4402885C01F0C0
:101CB000FFFE291D06EB0111002202EB4402885CA5
:101CC00001F0F6FEA91C06EB0111012202EB440211
:101CD000885C01F0EDFEA91C06EB0111002202EB6D
:101CE0004402885C01F0E4FE06EB0511012202EBE0
:101CF0004402885C01F0DCFE06EB0511002202EBD9
:101D00004402885C01F0D4FE01F07AFC611C0822D8
:101D100002FB0511C8B201F03BFD142004F0FEF8EF
:101D2000601CC4B2082CA7DB681CC5B2022DA1DB65
:101D300070BD0000AC8122420080224270B5064690
:101D4000002500240120594908605949C1F884013F
:101D500056491039086000BFA4E000249DE001F05E
:101D60000FFDA91D06EB0111012202EB4402885C64
:101D700001F09EFEA91D06EB0111002202EB4402B8
:101D8000885C01F095FE291D06EB0111012202EB92
:101D90004402885C01F08CFE291D06EB0111002233
:101DA00002EB4402885C01F083FEA91C06EB0111E2
:101DB000012202EB4402885C01F07AFEA91C06EBCA
:101DC0000111002202EB4402885C01F071FE06EB77
:101DD0000511012202EB4402885C01F069FE06EB6A
:101DE0000511002202EB4402885C01F061FEA91D8E
:101DF00006EB0111012202EB4402885C01F034FE83
:101E0000A91D06EB0111002202EB4402885C01F0DF
:101E10002BFE291D06EB0111012202EB4402885C16
:101E200001F022FE291D06EB0111002202EB440203
:101E3000885C01F019FEA91C06EB0111012202EBDE
:101E40004402885C01F010FEA91C06EB011100227F
:101E500002EB4402885C01F007FE06EB051101224B
:101E600002EB4402885C01F0FFFD06EB0511002245
:101E700002EB4402885C01F0F7FD01F0C1FB01F0C8
:101E8000A9FB611C082202FB0511C8B201F080FC0D
:101E9000142004F043F8601CC4B2082CFFF65FAFB6
:101EA000681CC5B2022DFFF658AF70BDAC8122424E
:101EB000008022422DE9FF4F89B0074688469146AF
:101EC00020216846FEF7D2FC002615E007EB4611FC
:101ED000AC4B03EB46101022FEF72FFC7200521C95
:101EE00007EB02117200521CA64B03EB02101022EA
:101EF000FEF723FC701C86B2042EE7DB042008905A
:101F0000169820B1012806D002280CD107E09D4880
:101F1000FFF7A0FE0BE09B48FFF728FE07E099487B
:101F2000FFF70CFF03E09748FFF794FE00BF00BFE8
:101F3000B9F1000F7ED0089E1DE107EB461110227B
:101F40006846FEF7FAFB012000EB460007EB0011A4
:101F5000102204A8FEF7F1FB4FF0000A05E100246F
:101F6000DAE0002541E0874800EB051010F8140086
:101F70004006000E834901EB051101F81400814869
:101F800000EB051010F814107E4800EB05126000FD
:101F9000401C105C41EAE0107A4901EB051101F8A0
:101FA0001400784800EB05116000401C085C4006F6
:101FB000010E744800EB05126000401C115471487A
:101FC00000EB05116000401C095C6E4AA81C02EB86
:101FD000001010F8140041EAE011104600EB051261
:101FE0006000401C1154681C85B2062DBBDB65489F
:101FF000603010F814004006010E6248603000F8AE
:10200000141010F814206000401C5E496031085C18
:1020100042EAE0115B48603000F814106000401C98
:1020200058496031085C4006020E6000401C0A54AA
:10203000600000E0A2E0401C085C1DF8141040EABB
:10204000E1126000401C4F4960310A541DF8140031
:102050004006000E0DF814001DF814106000401C1E
:102060001DF8000041EAE0100DF814006000401C6B
:102070001DF800004006010E6000401C0DF8001025
:102080004048703010F814004006010E3D48703092
:1020900000F8141010F814206000401C3949703109
:1020A000085C42EAE0113748703000F81410600014
:1020B000401C34497031085C4006020E6000401C30
:1020C0000A546000401C095C04A810F8140041EA9E
:1020D000E0126000401C2B4970310A5404A810F82B
:1020E00014004006010E04A800F8141010F8142083
:1020F0006000401C04A9085C42EAE01104A800F852
:1021000014106000401C04A9085C4006020E600028
:10211000401C0A54601C84B2082CFFF622AF4FF01A
:10212000000B1BE0169820B1012806D002280CD124
:1021300007E01448FFF78EFD0BE01248FFF716FD8D
:1021400007E01048FFF7FAFD03E00E48FFF782FDB5
:1021500000BF00BF0BF101001FFA80FB0C98834504
:10216000E0DB0AF101001FFA80FABAF1100FFFF666
:10217000F6AE701C86B24645FFF6DFAE0DB0BDE888
:10218000F08F0000000300207047000010B50548E4
:10219000006800F00F04034844602046FFF7F4FF96
:1021A00010BD0000000002407047000010B5054857
:1021B0000068C0F303142001024948602046FFF77D
:1021C000F3FF10BD000002407047000010B5054845
:1021D0000068C0F303242002024948602046FFF74C
:1021E000F3FF10BD000002407047000010B5054825
:1021F0000068C0F303342003024948602046FFF71B
:10220000F3FF10BD000002407047000010B5054804
:102210000068C0F303442004024948602046FFF7E9
:10222000F3FF10BD000002407047000010B50548E4
:102230000068C0F303542005024948602046FFF7B8
:10224000F3FF10BD000002407047000010B50548C4
:102250000068C0F303642006024948602046FFF787
:10226000F3FF10BD000002407047000010B50548A4
:10227000006800F00F040348001D04602046FFF7CB
:10228000F3FF10BD000402407047000010B506487F
:102290000068C0F3031420010349091D08602046AB
:1022A000FFF7F2FF10BD000000040240704700007D
:1022B00010B506480068C0F3032420020349091D35
:1022C00008602046FFF7F2FF10BD00000004024046
:1022D00010B50C480068C0F3033434B12003094939
:1022E000091D0860204600F00FF806480068C0F39A
:1022F000034434B120040349091D0860204600F05E
:1023000004F810BD00040240704770477047000099
:102310002DE9F74F84B0074691463846FEF7E2F9BB
:1023200000F0FF0ABAF1090F1EDA002619E017F8CB
:10233000013B424A02EB0311414A02EB0610102214
:10234000FEF7FBF94FF0000807E03D480599FFF75D
:1023500067FB08F1010000F0FF08C845F5DB701CC1
:10236000C6B25645E3DB65E04FF0000B60E017F8BE
:10237000012B324800EB021110226846FEF7DDF90E
:1023800000264FE0002520E000241AE02C4800EB56
:102390000510005D4006000E294901EB05110855A6
:1023A000274800EB0510015D254A681C02EB001070
:1023B000005D41EAE010114601EB05110855601C73
:1023C000C4B2102CE2DB681CC5B2072DDCDB002494
:1023D00017E01B487030005D4006010E1848703051
:1023E0000155005D1DF8041040EAE11114487030F9
:1023F00001551DF804004006000E0DF80400601C95
:10240000C4B2102CE5DB4FF0000807E00C4805993A
:10241000FFF706FB08F1010000F0FF08C845F5DBF7
:10242000701CC6B2082EADDB0BF1010000F0FF0BF3
:10243000D3459CDB07B0BDE8F08F0000D8A30008AF
:102440000003002018B5002844D0C0F34211C0F3A7
:102450000322214B9B6903F001032BB91E4B9B699F
:1024600043F001031C4CA36100F48053A3B11B4B48
:10247000DB69009300F01F0301FA03F3009C9C4307
:10248000009400F01F0302FA03F3009C234300931F
:10249000124C009BE3611DE0104B5B68009300F061
:1024A0001F0301FA03F3009C9C43009400F01F03F8
:1024B00002FA03F3009C2343009307210022009BB0
:1024C00023EA01630093009B43EA02630093034CF9
:1024D000009B636018BD0000001002400000014036
:1024E00001461D48814204D11C488069C0F3800028
:1024F00070471B48814204D118488069C0F3C0006E
:10250000F6E71848814204D114488069C0F30010EE
:10251000EEE71548814204D110488069C0F34010AD
:10252000E6E71248814204D10C488069C0F380106C
:10253000DEE70F48814204D108488069C0F3C0102B
:10254000D6E70C48814204D104488069C0F30020DA
:10255000CEE70020CCE70000000801400010024058
:10256000000C01400010014000140140001801401F
:10257000001C0140002001402DE9F04102460025E9
:102580000026002000230024002791F803C00CF04F
:102590000F0591F803C00CF0100CBCF1000F03D034
:1025A00091F802C04CEA050591F800C0BCF1000F9B
:1025B00031D0146800202BE04FF0010C0CFA00F32E
:1025C000B1F800C00CEA03069E4220D183004FF010
:1025D0000F0C0CFA03F7BC4305FA03FC4CEA0404A5
:1025E00091F803C0BCF1280F06D14FF0010C0CFA92
:1025F00000FCC2F814C00AE091F803C0BCF1480F17
:1026000005D14FF0010C0CFA00FCC2F810C0401CC0
:102610000828D1D31460B1F800C0BCF1FF0F34DD3D
:10262000546800202EE000F1080C4FF0010808FA71
:102630000CF3B1F800C00CEA03069E4221D18300DE
:102640004FF00F0C0CFA03F7BC4305FA03FC4CEAFD
:10265000040491F803C0BCF1280F05D100F1080C67
:1026600008FA0CF8C2F8148091F803C0BCF1480FC6
:1026700007D100F1080C4FF0010808FA0CF8C2F875
:102680001080401C0828CED35460BDE8F0812DE9AD
:10269000F04105460C46174698460F2C02D90020FB
:1026A000BDE8F0812846FFF71BFF18B90121284635
:1026B00000F02AF8B8F1000F10D1022F05D1E86818
:1026C0000121A1408843E86008E0032F06D127F0EC
:1026D0000107E8680121A1400843E860082C01D205
:1026E0002E4601E0083C2E1D3068A2000F219140CB
:1026F0008843306048EA8700A10088403168084379
:1027000030600120CCE70000002945D0454A9042C6
:1027100006D1454A926942F00402434B9A6180E037
:10272000424A904206D1404A926942F008023E4B2A
:102730009A6176E03E4A904206D13B4A926942F065
:102740001002394B9A616CE03A4A904206D1364AFF
:10275000926942F02002344B9A6162E0364A90421C
:1027600006D1314A926942F040022F4B9A6158E0FB
:10277000324A904206D12C4A926942F080022A4B9A
:102780009A614EE02E4A90424BD1274A926942F418
:102790008072254B9A6144E0224A904206D1224A37
:1027A000926922F00402204B9A613AE01F4A90425B
:1027B00006D11D4A926922F008021B4B9A6130E053
:1027C0001B4A904206D1184A926922F01002164B19
:1027D0009A6126E0174A904206D1134A926922F084
:1027E0002002114B9A611CE0134A904206D10E4A16
:1027F000926922F040020C4B9A6112E00F4A90421B
:1028000006D1094A926922F08002074B9A6108E0DA
:102810000B4A904205D1044A926922F48072024B1D
:102820009A6170470008014000100240000C01400E
:10283000001001400014014000180140001C01403C
:10284000002001400246002093680B400BB101209C
:1028500000E000207047016170470AB1016100E0AB
:10286000416170472DE9FC5F0546884691469A46CE
:10287000DDF830B000950720019000245FE004EB04
:102880000410374911F810009BF80010884253D10A
:1028900004EB0410324901EB400040789BF8011032
:1028A000884249D108F10F0083B205F10F0082B2CE
:1028B0004146284600F012FC00263BE0002734E0A9
:1028C0000D9890B904EB0410254901EB4000801CE1
:1028D000805D80213941084018B1484600F04CFD28
:1028E00021E0504600F048FD1DE01E48A0F8009091
:1028F00004EB04101A4901EB4000801C805D80212C
:102900003941084018B14146284600F0A7FB681C31
:1029100085B20098281A102805D1009D08F1010001
:102920001FFA80F803E0781CC7B2082FC8DB00BF8D
:10293000701CC6B2202EC1DB00BF601C84B201989F
:1029400084429CDB08484088401E83B206480088C9
:10295000401E82B20021084600F0C0FBBDE8FC9F8B
:102960007A980008D4000020740200202DE9FC5F52
:102970000546884691469A46DDF830B000950E200F
:102980000190002467E004EB840000EB44103A4916
:1029900011F810009BF80010884259D104EB840014
:1029A00000EB4410344901EB400040789BF80110E3
:1029B00088424DD108F1170083B205F1170082B2A9
:1029C0004146284600F08AFB00263FE0002738E019
:1029D0000D98A0B904EB840000EB4410264901EBEC
:1029E0004000801C805D80213941084018B1484674
:1029F00000F0C2FC23E0504600F0BEFC1FE01F4880
:102A0000A0F8009004EB840000EB44101A4901EB9D
:102A10004000801C805D80213941084018B141464A
:102A2000284600F01BFB681C85B20098281A18285D
:102A300005D1009D08F101001FFA80F803E0781C21
:102A4000C7B2082FC4DB00BF701CC6B2482EBDDB66
:102A500000BF601C84B20198844294DB084840881F
:102A6000401E83B206480088401E82B200210846FC
:102A700000F034FBBDE8FC9F68990008D4000020FA
:102A8000740200202DE9FC5F0546884691469A466F
:102A9000DDF830B000950120019000245FE004EBE8
:102AA0008410374911F810009BF80010884253D168
:102AB00004EB8410324901EB400040789BF8011090
:102AC000884249D108F11F0083B205F11F0082B28C
:102AD0004146284600F002FB00263BE0002734E098
:102AE0000D9890B904EB8410254901EB4000801C3F
:102AF000805D80213941084018B1484600F03CFC17
:102B000021E0504600F038FC1DE01E48A0F800907F
:102B100004EB84101A4901EB4000801C805D802189
:102B20003941084018B14146284600F097FA681C20
:102B300085B20098281A202805D1009D08F10100CF
:102B40001FFA80F803E0781CC7B2082FC8DB00BF6B
:102B5000701CC6B2802EC1DB00BF601C84B201981D
:102B600084429CDB08484088401E83B206480088A7
:102B7000401E82B20021084600F0B0FABDE8FC9F7A
:102B8000749D0008D40000207402002000BFFEE7FE
:102B900008B50121082000F069FD0320ADF8000010
:102BA00010208DF8030003208DF8020069460448C8
:102BB000FFF7E2FC03210248FFF74DFE08BD0000CD
:102BC000000C01400EB585E0002000F023FA48F229
:102BD0003040414908800020102140A24FF6FF7389
:102BE000CDE9002102901F220521202001F0A4F848
:102BF000012018213CA24FF6E073CDE9002102909C
:102C00004FF478421921052001F096F8012018218F
:102C100038A24FF6E073CDE9002102904FF47842DC
:102C20001921352000F018FB0120182132A24FF69F
:102C3000E073CDE9002102901A463221052001F00F
:102C40007BF8012018212FA24FF6E073CDE9002177
:102C500002901A463221352000F0FEFA0120182198
:102C600029A24FF6E073CDE9002102904FF6FF72E2
:102C70004B21052001F060F80120182126A24FF613
:102C8000E073CDE9002102904FF6FF724B21352011
:102C900000F0E2FA0120182121A24FF6E073CDE9FD
:102CA000002102904FF4FC626421052001F044F8F9
:102CB000012018211EA24FF6E073CDE900210290F9
:102CC0004FF4FC626421352000F0C6FA40F2DC507B
:102CD00003F066FD78E70000D4000020CFB5CDB347
:102CE000BCE0BFD800000000CEC2B6C82020202023
:102CF00020A1E6003A323400CAAAB6C8202020201B
:102D000020A3A5003A333200B5E7D1B92020202016
:102D10002020A3D6000000003A332E32000000002D
:102D2000B5E7C1F7202020202020A3C1000000002B
:102D30003A302E320000000010B500F0DDFE00F049
:102D40009BF9112000F036FB142003F029FD26200A
:102D500000F030FB042000F0F5FAB12000F02AFB6F
:102D60000E2000F0EFFA102000F0ECFAC02000F086
:102D700021FB082000F0E6FA002000F0E3FAC12071
:102D800000F018FB052000F0DDFAC52000F012FB72
:102D9000382000F0D7FA402000F0D4FA3A2000F0B2
:102DA00009FB052000F0CEFA362000F003FB1C20C2
:102DB00000F0C8FA2A2000F0FDFA002000F0C2FA64
:102DC000002000F0BFFA002000F0BCFA7F2000F0E5
:102DD000B9FA2B2000F0EEFA002000F0B3FA202020
:102DE00000F0B0FA002000F0ADFA9F2000F0AAFA3F
:102DF000B42000F0DFFA002000F0A4FAF22000F086
:102E0000D9FA012000F09EFAE02000F0D3FA3F202A
:102E100000F098FA222000F095FA202000F092FAB3
:102E2000302000F08FFA292000F08CFA0C2000F0FE
:102E300089FA4E2000F086FAB72000F083FA3C2091
:102E400000F080FA192000F07DFA222000F07AFAD2
:102E50001E2000F077FA022000F074FA012000F042
:102E600071FA002000F06EFAE12000F0A3FA0020D1
:102E700000F068FA1B2000F065FA1F2000F062FAEB
:102E80000F2000F05FFA162000F05CFA132000F02B
:102E900059FA312000F056FA842000F053FA43200A
:102EA00000F050FA062000F04DFA1D2000F04AFA1A
:102EB000212000F047FA3D2000F044FA3E2000F0C7
:102EC00041FA3F2000F03EFA292000F073FA2C204E
:102ED00000F070FA00F0ECF810BD000086B000BF02
:102EE0003A4903C9CDE9030132208DF8140030209E
:102EF0008DF815003649C87CC11700EB1171091116
:102F000030318DF80E103249C87CC11700EB1171B9
:102F10000911A0EB01113031C9B28DF80F1000205A
:102F200000F078F801200C212AA20023CDE900212D
:102F300002904FF6FF720321052000F0FDFE0120F4
:102F40000C2105AA0023CDE9002102904FF478421C
:102F50000321412000F0F0FE01200C2120A20023DB
:102F6000CDE9002102904FF6FF720321522000F0BC
:102F7000E3FE01200C211CA20023CDE900210290D8
:102F80004FF61F020321702000F0D6FE01200C2115
:102F900016A20023CDE9002102904FF6FF720D2109
:102FA000052000F0C9FE01200C2103AA0023CDE971
:102FB000002102901F220D214B2000F0BDFE03E0F6
:102FC0004FF4FA7003F0ECFBFAE70000189E0008DB
:102FD0007C8B00084D6F75646C655F49443A000056
:102FE000415454523A000000444E00004D6F756445
:102FF0006C655F547970653A0000000010B50021DF
:10300000024803F067FC0249086010BD089E0008F2
:10301000D000002070B506460F484088401E83B29D
:103020000D480088401E82B20021084600F056F884
:1030300000240CE0002504E0304600F09DF9681CF7
:1030400085B205484088A842F6DC601C84B202487C
:103050000088A042EEDC70BD7402002030B504464A
:103060000D462946204600F019F80248008800F075
:1030700083F930BDD400002010B540200649086017
:10308000642003F08DFB40200349091F08603220B3
:1030900003F086FB10BD00001418014030B5044653
:1030A0000D462B4622462946204600F017F830BD33
:1030B00000B52C20084908810020887182200880F2
:1030C000832048802A2048812B208881C8213620EF
:1030D00000F092F900BD000074020020F0B5064631
:1030E0000C4617461D461149488900F063F9301215
:1030F00000F028F9F0B200F025F9381200F022F9BA
:10310000F8B200F01FF90949888900F053F920123C
:1031100000F018F9E0B200F015F9281200F012F9E9
:10312000E8B200F00FF900F05FF9F0BD7402002082
:103130002DE9FF4F83B081468A469346DDE910644E
:10314000414800880290A6F12000C6B204EBD4707A
:1031500009EB6000401E82B20AEB0400401E83B2FD
:10316000514648460194FFF7B9FF129860BB00250D
:1031700027E00C2C07D106EB4600344901EB800018
:1031800010F8058004E0324800EB061010F80580C6
:1031900000270FE008F0010020B10BF0FF0000F065
:1031A000D1F803E00699C8B200F0CCF84FEA6808FD
:1031B000781CC7B204EBD471B7EB610FEADB681C73
:1031C000C5B2A542D5DB2DE0002529E00C2C07D1A6
:1031D00006EB46001D4901EB800010F8058004E075
:1031E0001B4800EB061010F80580002711E0164878
:1031F000A0F800B008F0010038B10AEB050291B266
:1032000009EB070290B2FFF729FF4FEA6808781C24
:10321000C7B204EBD471B7EB610FE8DB681CC5B231
:10322000A542D3DB0849029808800A484088401E1E
:1032300083B208480088401E82B200210846FFF78A
:103240004DFF07B0BDE8F08FD4000020D68B0008FA
:103250004A900008740200202DE9FE4F04460E46F5
:1032600091460C9F344800880290019400960025F6
:1032700057E032480088401EA04204DB2F484088B7
:10328000401EB04201DABDE8FE8F3D783A2D01D1F3
:103290000A2506E02E2D01D10B2502E0A5F1300014
:1032A000C5B201944FF000082DE005EB450024491C
:1032B00001EB001010F808A04FF0000B1BE01E48B7
:1032C000A0F800900AF0800018B131462046FFF7C0
:1032D000C5FE4FF6FF7000EA4A0A601C84B20198EE
:1032E000201A0C2803D1019C701C86B206E00BF159
:1032F000010000F0FF0BBBF1080FE0DB00BF08F19D
:10330000010000F0FF08B8F1300FCEDB0A2D03DA20
:1033100004F1100084B202E004F1080084B2009EBF
:103320007F1C38787E2802DC38782028A1DA024910
:103330000298088000BFA6E7D40000207402002095
:103340003A96000800B503464FF4805007490860DC
:103350002020074908601946064800F055FC4FF444
:1033600080500249091F086000BD0000140C014094
:10337000101801400038004000B503464FF480505B
:10338000094908602020094908601912084800F01E
:103390003BFCD9B2064800F037FC4FF4805002499C
:1033A000091F086000BD0000140C01401018014006
:1033B0000038004000B503464FF4805007490860CC
:1033C000202007490860D9B2064800F01DFC4FF4E0
:1033D00080500249091F086000BD0000140C014024
:1033E000141801400038004000B502490889FFF771
:1033F000E1FF00BD7402002030B505460C462846AA
:10340000FFF7D8FFE0B2FFF79DFF30BD10B5084AC7
:103410000121084803F092FA04466421204603F093
:10342000A3FA0021044803F055FA0449086010BDCE
:10343000C93F0008209E0008289E0008E0000020E8
:1034400000BF00F027F8FCE708B50121602000F07C
:103450000DF94CF6F240ADF8000010208DF8030095
:1034600003208DF8020069460848FFF785F840F20E
:103470008230ADF8000010208DF8030003208DF895
:10348000020069460248FFF777F808BD00140140C2
:10349000001801402DE9F843204800784FEAD01881
:1034A0001E480078C0F341141C480078C0F3001691
:1034B0001A48007800F00F00C0F10F050E27B8F190
:1034C000000F24D01648007820B101280BD0022824
:1034D0001BD111E004272B4632463946114800948F
:1034E000FEF7E8FC12E01B272B46324639460E4811
:1034F0000094FEF7DFFC09E00E272B4632463946E2
:103500000A480094FEF7D6FC00E000BF04E02A461B
:1035100021460348FEF7FCFEBDE8F883DC000020EE
:1035200084020020389E0008B89E000818A20008F7
:1035300000BFFEE77047000070B5002100230F2296
:10354000C47804B3154C246804F4E064C4F5E06462
:10355000210AC1F10403CA40447804FA03F18478D3
:103560001440214309010E4C0678A155047804F05B
:103570001F050124AC4005786D11AD0005F1E02573
:10358000C5F8004109E0047804F01F050124AC40AF
:10359000044D0678761145F8264070BD0CED00E02C
:1035A00000E400E080E100E010B501200749086078
:1035B00002F0B4FC00200649C1F88401012002F0A9
:1035C000ADFC01200149086010BD000084012342C8
:1035D0000000234210B501200749086002F09EFC5C
:1035E00000200649C1F89401012002F097FC012057
:1035F0000149086010BD00009481224200802242EF
:1036000010B501200749086002F088FC0020064937
:10361000C1F8A401012002F081FC012001490860E9
:1036200010BD0000A40123420000234229B1064A34
:10363000D2690243044BDA6104E0034AD26982434F
:10364000014BDA61704700000010024029B1064AC0
:1036500012690243044B1A6104E0034A126982436F
:10366000014B1A61704700000010024029B1064A60
:1036700092690243044B9A6104E0034A92698243CF
:10368000014B9A61704700000010024029B1064AC0
:10369000D2680243044BDA6004E0034AD2688243F2
:1036A000014BDA60704700000010024030B5002185
:1036B0000022002400232D4D6D6805F00C0121B17E
:1036C000042905D0082923D105E0294D056022E011
:1036D000274D05601FE0254D6D6805F47012234DE0
:1036E0006D6805F48034022505EB92421CB9214D2A
:1036F000554305600BE01D4D6D6805F400351DB1A7
:103700001C4D5543056002E0194D5543056002E02C
:10371000174D056000BF00BF144D6D6805F0F00146
:103720000909154D6B5C0568DD4045600F4D6D68FE
:1037300005F4E061090A104D6B5C4568DD40856069
:103740000A4D6D6805F46051C90A0B4D6B5C456804
:10375000DD40C560054D6D6805F44041890B074D9E
:103760006B5CC568B5FBF3F5056130BD0010024028
:1037700000127A0000093D003401002044010020BD
:1037800010B54FF6FF7000F075F8FFF70DFF10BD94
:1037900070B50446082C15DC012C13DB611E0122D8
:1037A0008A40D0B200F0B6FAC043C5B2284600F055
:1037B00037F9FF2000F0AEFA054600F031F9FFF7C7
:1037C000F3FE17E0102C15DC092C13DBFF2000F0B2
:1037D000A1FA054600F024F9A4F1090101228A406A
:1037E000D0B200F097FAC043C5B2284600F018F9ED
:1037F000FFF7DAFE70BD000010B58C2000F0B0FBC2
:10380000154908708D2000F0ABFB14490870124870
:10381000007809784FF4807202FB0100104908809B
:103820008E2000F09DFB0F4908708F2000F098FB60
:103830000D4908700B48007809784FF4807202FB3C
:1038400001000A490880084601880548008802F0FE
:1038500053FA0749086010BD04010020050100204B
:103860000801002006010020070100200A010020B5
:103870000C01002070B50446002519E001200E4916
:10388000086002F04BFB04F0010020B100200A495F
:10389000091D086003E001200749091D0860002098
:1038A00005490860012002F039FB6410681CC5B2AC
:1038B000102DE3DB70BD0000B881224210B500215D
:1038C000024803F007F80249086010BDD8AB0008B1
:1038D000FC0000208CB033E00AA90BA803F0A2F88A
:1038E000BDF82C0004F082FF16490860BDF82E00D8
:1038F00004F07CFF144908601249134802F05AFA98
:103900001048006804F0D8FE04460D460E480068D2
:1039100004F0D2FE064632460B460CA102A8CDE9C1
:103920000045FCF7C9FD02A8FCF7DCFE044615487B
:103930002146426902A890474FF47A7002F030FFA6
:10394000CAE70000F8000020F40000200A0D4375CB
:103950007272656E742068756D6964697479203D52
:1039600020252E32662070657263656E742C20747B
:10397000656D7065726174757265203D20252E320B
:10398000660A0D008CAC00087047000008B50121E4
:103990001420FFF76BFE4FF48070ADF8000010208C
:1039A0008DF8030003208DF8020069460848FEF7F1
:1039B000E3FD1020ADF8000048208DF8030003203F
:1039C0008DF8020069460348FEF7D6FD08BD0000E9
:1039D000001001400008014008B501211420FFF744
:1039E00045FE4FF48070ADF8000010208DF8030004
:1039F00003208DF8020069460748FEF7BDFD102040
:103A0000ADF800008DF8030003208DF80200694630
:103A10000248FEF7B1FD08BD00100140000801405A
:103A200070B50446002519E001200E49086002F037
:103A300075FA04F0010020B100200A49091D086050
:103A400003E001200749091D0860002005490860BE
:103A5000012002F063FA6410681CC5B2082DE3DB94
:103A600070BD0000B881224270B50446002519E0FF
:103A700001200E49086002F051FA04F0010020B163
:103A800000200A491831086003E001200749183175
:103A90000860002005490860012002F03FFA641028
:103AA000681CC5B2082DE3DB70BD00009081224286
:103AB00070B50446002519E001200E49086002F0A7
:103AC0002DFA04F0010020B100200A49091D086008
:103AD00003E001200749091D08600020054908602E
:103AE000012002F01BFA6410681CC5B2082DE3DB4C
:103AF00070BD00009C01234200B587B00121492020
:103B0000FFF7B4FD4FF42040ADF8040003208DF81A
:103B1000060018208DF8070001A92348FEF72CFDA8
:103B20006020ADF8040003208DF8060010208DF809
:103B3000070001A91D48FEF71FFD4FF48050ADF8A6
:103B4000040003208DF8060010208DF8070001A95D
:103B50001548FEF711FD01218803FFF767FD0020DE
:103B6000ADF808004FF48270ADF80A000020ADF8FF
:103B70000C000220ADF80E000120ADF8100040024C
:103B8000ADF812000020ADF81400ADF816000720C3
:103B9000ADF8180002A9064800F018F80121044801
:103BA00000F008F807B000BD000C0140001801400B
:103BB0000038004021B1028842F04002028004E057
:103BC00002884FF6BF731A400280704710B500227A
:103BD000028802F441520B884C8823438C8823438B
:103BE000CC8823430C8923434C8923438C8923436A
:103BF000CC8923431A430280838B4FF2FF74234006
:103C000083830B8A038210BD024600BF108900F037
:103C100002000028FAD0918100BF108900F0010055
:103C20000028FAD09089C0B2704710B500F002F8B1
:103C300010BD00000CB500200190009033480068D2
:103C400040F480303149086000BF3048006800F41B
:103C5000003000900198401C0190009818B901981C
:103C6000B0F5A06FF1D12948006800F4003010B120
:103C70000120009001E0002000900098012843D12D
:103C80002348006840F01000214908600846006899
:103C900020F0030008600846006840F00200086059
:103CA0001A48406819494860084640684860084614
:103CB000406840F4806048600846406820F47C100A
:103CC00048600846406840F4E810486008460068CC
:103CD00040F08070086000BF0C48006800F0007081
:103CE0000028F9D00948406820F0030007494860DF
:103CF0000846406840F00200486000BF0348406842
:103D000000F00C000828F9D10CBD000000100240A2
:103D1000002002400246002000210AE042FA01F39E
:103D200003F001031843072901DA4306180E4B1C60
:103D3000D9B20829F2DB70472DE9FF4F83B0064660
:103D400088469146DDE91147109DB2464FF0000BC1
:103D500073E0BBF1000F42D104EBD471394A1288F1
:103D6000A2EB6101B14204DB36494988091B414598
:103D700002DA07B0BDE8F08F2878802802DD4FF026
:103D8000010B5AE028780D2806D108EB04001FFA31
:103D900080F856466D1C20E00C2C01D0102C0FD161
:103DA00028788DE891004A4641463046069BFFF749
:103DB000BFF9204604EBD07106EB61018EB20CE036
:103DC000102128788DE883004A4641463046069BFC
:103DD000FFF7AEF906F1080086B26D1C2DE0194818
:103DE0000088001BB04204DB16484088001B404599
:103DF00000DABEE74FF0000B202C08D1CDE90057C8
:103E00004A4641463046069BFEF73CFE12E0182C1F
:103E100008D1CDE900574A4641463046069BFEF799
:103E2000A5FD07E0CDE900574A4641463046069BCE
:103E3000FEF718FDAD1C301986B22878002888D10D
:103E400000BF96E77402002010B51348006840F0E8
:103E500001001149086008464068104908400E49B1
:103E60004860084600680E4908400B49086008464B
:103E7000006820F4802008600846406820F4FE00B6
:103E800048604FF41F008860FFF7CFFE4FF00060DE
:103E90000449086010BD0000001002400000FFF857
:103EA000FFFFF6FE08ED00E010B50021024802F029
:103EB00011FD0249086010BDE8AB000800010020B8
:103EC00088B000BFFFF798FC09480AA1026868465D
:103ED000FCF7F2FA6846FCF705FC04460C4821465C
:103EE0004269684690474FF47A7002F059FCE9E75E
:103EF0000C010020B5B1C7B0B9E2D5D5C7BFB6C86F
:103F0000CEAAA3BA2564204C7578200D0A000000C3
:103F10008CAC000810B5FEF73BFE0E48006820F0A0
:103F2000F0000C4908600846006840F03000086066
:103F30000120094908600949C1F884010321802052
:103F400000F02AF8642002F02BFC0221812000F00E
:103F500023F810BD000C01408081214200802142E5
:103F600070B5044604F028F8722004F04BF802F013
:103F700063FE204604F046F802F05EFE04F01CF8F2
:103F8000732004F03FF802F057FE02F0A5FD05464D
:103F900003F0FCFD284670BD70B505460C4604F0E4
:103FA0000BF8722004F02EF802F046FE284604F0CA
:103FB00029F802F041FE204604F024F802F03CFE0D
:103FC00003F0E4FD70BD000010B50446164800780B
:103FD00016490978884204D115491648FCF76EFC49
:103FE00008B31548012142690F48904780211348C2
:103FF000FCF73CFC64210E48FCF738FC0D490C48EA
:10400000FCF74CFB08480078084908700C48006829
:1040100002F082FC642002F0C3FB0021094802F098
:1040200059FC0749086010BDDC000020E4000020B6
:1040300080030020840200208CAC000800030020D4
:10404000E0000020289E000810B50021024802F080
:1040500041FC0249086010BD988B0008C800002090
:1040600088B0202218496846FCF7ACFB00BF0A2044
:1040700002F096FB15490868FCF734FB0446144827
:104080002146826968469047104908686946FCF7EE
:1040900015FC0028EBD1411E0E48006802F00EFC12
:1040A0000D490868FCF71EFB04460B4908680849DF
:1040B0004A69214690470748006802F0F3FB202137
:1040C0006846FCF7D3FBD2E7B88B0008C00000209D
:1040D0008CAC0008A0000020C400002000B585B012
:1040E000012144F20400FFF7C1FA4FF40070ADF86B
:1040F000100018208DF8130003208DF8120004A979
:104100001348FEF739FA4FF48060ADF81000042030
:104110008DF8130004A90E48FEF72EFA4FF4E13093
:1041200000900020ADF80400ADF80600ADF80800DE
:10413000ADF80C000C20ADF80A006946054801F006
:10414000D3F80121034800F047FA05B000BD000094
:10415000000801400038014010B514488168144837
:104160008847124801690220884710484FF4E1311E
:10417000826A012090470D480121826A15209047EC
:104180000A480121826A162090474FF0FF31094802
:10419000006802F093FB05482D21426906A0904774
:1041A0000448006802F07EFB10BD00008CAC0008E3
:1041B0009D670008A000002069276D20757361725B
:1041C00074312C507265737320456E74657220745F
:1041D0006F20726563656976652061206D65737314
:1041E0006167650D0A00000070B504460D46034A7C
:1041F0002946204600F0FCF970BD00000CAC000818
:1042000008B5024800F052FE009008BD0CAC000852
:1042100008B5024800F04DFE009008BD0CAC000847
:1042200010B5024800F08DFE10BD00000CAC000877
:1042300008B5024800F089FE009008BD0CAC0008EB
:1042400010B5024800F0EBFE10BD00000CAC0008F9
:1042500010B5024800F0E7FE10BD00000CAC0008ED
:1042600010B504460249204601F0AAF810BD00002E
:104270000CAC000810B504460249204601F05EF976
:1042800010BD00000CAC000870B504460D46034A92
:104290002946204601F066FA70BD00000CAC00080B
:1042A00070B504460D46034A2946204601F0ABFA94
:1042B00070BD00000CAC000810B504460249204651
:1042C00001F0E5FA10BD00000CAC000870B5044622
:1042D0000D461646034B32462946204601F025FB83
:1042E00070BD00000CAC000810B5024801F052FB94
:1042F00010BD00000CAC000800B587B001210420FF
:10430000FFF7B4F901214804FFF790F9224800F0C3
:104310007FFD0420ADF8180018208DF81B00032045
:104320008DF81A0006A91D48FEF726F90820ADF8F9
:10433000180004208DF81B0006A91848FEF71CF988
:104340004FF4E13002900020ADF80C00ADF80E0003
:10435000ADF81000ADF814000C20ADF8120002A961
:104360000D4800F0C1FF26208DF8040001208DF8D3
:1043700005008DF806008DF8070001A8FFF7DCF8AE
:10438000012240F22551044800F088FF0121024833
:1043900000F022F907B000BD0044004000080140D1
:1043A00010B50F4881680F4888470D480169022001
:1043B00088470B484FF4E131826A01209047084852
:1043C0000121826A1520904705480121826A162042
:1043D000904703482D21426903A0904710BD00007B
:1043E000C4AC00089F67000869276D20757361726F
:1043F00074322C507265737320456E74657220742C
:104400006F20726563656976652061206D657373E1
:104410006167650D0A00000010B50021024802F036
:1044200059FA0249086010BDA88B0008CC00002092
:1044300088B000BF1F48C82182691F4890471F49A4
:104440001D48FCF719F904467CB30A2103A8FCF7C0
:104450000DFA14216846FCF709FAA07900F1080268
:10446000214603A8FCF769F99DF810001449C97C9E
:10447000884216D19DF81200C01D03A9085C0D28C2
:104480000FD19DF8110010280BD19DF81220C91DE5
:104490006846FCF752F99DF812100A4842696846CE
:1044A00090471E210448FCF7BFF9142002F078F968
:1044B000C0E70000C4AC0008AC010020908B0008ED
:1044C0007C8B00088CAC000870B504460D46034A8E
:1044D0002946204600F08CF870BD000054AC00085E
:1044E00008B5024800F0E2FC009008BD54AC00089A
:1044F00008B5024800F0DDFC009008BD54AC00088F
:1045000010B5024800F01DFD10BD000054AC0008BD
:1045100008B5024800F019FD009008BD54AC000831
:1045200010B5024800F07BFD10BD000054AC00083F
:1045300010B5024800F077FD10BD000054AC000833
:1045400010B504460249204600F03AFF10BD0000B5
:1045500054AC000810B504460249204600F0EEFFB6
:1045600010BD000054AC000870B504460D46034A67
:104570002946204601F0F6F870BD000054AC000852
:1045800070B504460D46034A2946204601F03BF922
:1045900070BD000054AC000810B504460249204626
:1045A00001F075F910BD000054AC000870B5044668
:1045B0000D461646034B32462946204601F0B5F912
:1045C00070BD000054AC000810B5024801F0E2F9DB
:1045D00010BD000054AC000821B1828942F40052A1
:1045E000828104E082894DF6FF731A408281704710
:1045F0002DE9FE4F07460D461446206BC07A00F0A9
:10460000020018B94FF0FF30BDE8FE8F0020009087
:1046100080468346F8B2153806287CD2DFE800F0E1
:10462000A3DC032C4E6CA5B1606B90F8210010B197
:104630006FF00100E8E70120616B81F82100616BF8
:1046400081F820006068808940F08100616888817D
:1046500010E0606B90F8200060B16068808920F005
:104660008000616888810020616B81F82000616BA7
:1046700081F821000020C7E76068808920F0C00031
:1046800061688881A06A88B1606B90F8210068B188
:104690006068808A20F0800061688882A16A08686A
:1046A000016821F00101016000BF00BF0020616BC3
:1046B00081F82000616B81F82100A5E7606880899E
:1046C00020F0200061688881E06A80B1206B407929
:1046D00068B16068808A20F0400061688882E16A81
:1046E0000868016821F00101016000BF00BF0021DE
:1046F000206B4171002087E76068808920F0E0002E
:1047000061688881A06A98B1606B90F8210078B1E7
:104710006068808A00E0C2E020F0800061688882E2
:10472000A16A0868016821F00101016000BF00BFB3
:10473000E06A80B1206B407968B16068808A20F0BF
:10474000400061688882E16A0868016821F001011F
:10475000016000BF00BF0021206B41710020616B30
:1047600081F8210050E7E06810B94FF0FF304BE7C7
:10477000BDB1206BC068062806D0E268918803238B
:1047800010680222FDF783FF206BC07A40F008001A
:10479000216BC8726068808940F008006168888178
:1047A00018E06068808920F0080061688881206BCB
:1047B000C07A20F00800216BC872206BC068062800
:1047C00008D0E06830B1E2689188002310681A468A
:1047D000FDF75DFF002017E7206910B94FF0FF30AB
:1047E00012E7E5B3206BC06806280AD0206BC068CA
:1047F000042806D022699188002310680122FDF761
:1048000046FF206BC07A40F01000216BC8726068D0
:10481000808A40F00100616888826068008A40F008
:104820004000616808826068808940F0100061681B
:104830008881206B407918B1E06A08B1012000E05E
:10484000002028B96068808940F020006168888174
:104850006068808940F00400616888811DE0FFE79E
:104860006068808920F0040061688881206BC07ACC
:1048700020F01000216BC872206BC06806280CD095
:10488000206BC068042808D0206930B12269918863
:10489000002310681A46FDF7FAFE0020B4E600BFB8
:1048A00000BF206B407918B9606B90F8210010B1FF
:1048B0006FF00100A8E66068808900F0080038B158
:1048C0006068008800F0400010B96FF001009BE6BE
:1048D000F8B2152872D2DFE800F0C90B0E1D2025B2
:1048E0002AC9C9C9C9C9C9C9C9C9373B697EB8007C
:1048F00001200290BDE02078C0F3400020B148F4D0
:10490000006848F4807802E06FF006007CE6022040
:104910000290AEE06FF0060076E64BF0080B042044
:104920000290A6E04BF0020B05200290A1E0207857
:10493000C0F3401010B14BF0200B02E06FF0060006
:1049400062E60620029094E0616B4D8300205BE6F6
:10495000206BC068052824D015B36068808A40F0B9
:10496000040061688882D4F808A0FE48B0FBFAFA17
:10497000012605E00AFB06F0A84200D902E0761CF9
:10498000FF2EF7D900BFB6F5807F02D14FF0FF3080
:104990003AE66068008B20F0FF00304361680883CE
:1049A00002E04FF0FF302FE600202DE6206BC068BC
:1049B00006280BD1FF2D02D9C01F25E656E06068FE
:1049C000008BC0B228436168088302E04FF0FF30DB
:1049D0001AE6002018E6206BC068062830D1D4F80B
:1049E00008A0E048B0FBFAFA012619E00AFB06F03D
:1049F00040006421484305EB051101EB4101B0EB98
:104A0000410F0CD20AFB06F040006421484305EB3D
:104A1000051101EB4511B0EB410F00D902E0761C06
:104A2000402EE3D300BF402E02D14FF0FF30EBE524
:104A30006068008B20F0FF0030436168088302E06B
:104A40004FF0FF30E0E50020DEE5206BC06806286F
:104A500007D14DB16068808A40F01000616888829B
:104A600002E04FF0FF30CFE50020CDE56FF003000E
:104A7000CAE500BF07F4E06060B1B0F5807F13D0F5
:104A8000B0F5E06F1DD107F4405010B96FF0080089
:104A9000BAE519E007F4405028B148F02008009822
:104AA00040F4805000900FE007F4405010B16FF0D8
:104AB0000800A9E548F02008009840F480500090D4
:104AC00002E06FF008009FE500BF07F4405030B1EE
:104AD000B0F5805F04D0B0F5005F0BD105E00CE0CD
:104AE000009840F48060009007E0009840F4C060B7
:104AF000009002E06FF0090086E500BF07F4404037
:104B000048B1B0F5804F07D0B0F5004F07D0B0F5F1
:104B1000404F0AD106E00BE048F4005808E048F4A2
:104B2000405805E048F4805802E06FF00A006BE559
:104B300000BF07F4403048B1B0F5803F09D0B0F570
:104B4000003F13D0B0F5403F2ED11CE04FF00009DC
:104B50002DE02078C0F3C01020B14FF480394BF421
:104B6000807B02E06FF00B004EE520E02088C0F370
:104B7000002020B14FF400394BF4C06B02E06FF01D
:104B80000B0041E513E02078C0F3C01040B120884D
:104B9000C0F3002020B14FF440394BF4E06B02E049
:104BA0006FF00B0030E502E06FF00B002CE500BF6A
:104BB000029802281DD107F4802018B1B0F5802F8B
:104BC00004D100E005E048F4806802E06FF00C00DA
:104BD0001AE500BF07F4002018B1B0F5002F04D18A
:104BE00000E005E048F4007802E06FF00D000BE50E
:104BF00000BFA06800EBC00101EB0010A900B0FBF2
:104C0000F1F06421B0FBF1F1A06800EBC00202EB0F
:104C10000010AA00B0FBF2F0A26802EBC20303EBA3
:104C20000212AB00B2FBF3F26423B2FBF3F202EB2D
:104C3000C20303EB0212A0EB8200322202EB00104F
:104C40006422B0FBF2FA61F31F1AA06800011FFA98
:104C50008AF1B0FBF1F0000901906421019848430A
:104C600005EB051101EB4101B0EB410F09D26421C5
:104C70000198484305EB051101EB4511B0EB410FDD
:104C800002D86FF00700BFE46068808920F400500C
:104C9000616888816168A1F808A00298216BC860EA
:104CA000206BC0F81090206BC068062809D1E0681E
:104CB00030B1E2689188032310680222FDF7E7FC17
:104CC00017E0206BC07A00F0080048B1E06880B1BE
:104CD000E2689188032310680222FDF7D8FC08E0FF
:104CE000E06830B1E2689188002310681A46FDF749
:104CF000CEFC00BF206BC068042802D006280BD170
:104D000000E000BF206930B122699188002310685B
:104D10001A46FDF7BCFC18E0206BC07A00F01000CA
:104D200048B1206980B1226991880023106801226E
:104D3000FDF7ADFC08E0206930B1226991880023BD
:104D400010681A46FDF7A3FC00BF00BF6069D0B130
:104D5000206BC068022802D006280BD100BF626910
:104D6000918801E000CA9A3B032310680222FDF7F4
:104D70008EFC07E062699188002310681A46FDF7EF
:104D800086FC00BF00BFA069A0B1B9F5803F02D08A
:104D9000B9F5403F07D1A269918803231068022228
:104DA000FDF775FC06E0A2699188002310681A4699
:104DB000FDF76DFCE069A0B1B9F5003F02D0B9F58F
:104DC000403F07D1E2699188002310680122FDF776
:104DD0005EFC06E0E2699188002310680122FDF77D
:104DE00056FC0098616888816168A1F8108061684C
:104DF000A1F814B06068808940F40050616888812F
:104E0000206BC07A40F00400216BC872002011E4CE
:104E100010B504462048844209D101218803FEF7D9
:104E200035FC00214FF48040FEF730FC32E01B4897
:104E3000844209D101214804FEF708FC00214FF407
:104E40000030FEF703FC25E01548844209D101211A
:104E50008804FEF7FBFB00214FF48020FEF7F6FBF1
:104E600018E01048844209D10121C804FEF7EEFB86
:104E700000214FF40020FEF7E9FB0BE00A488442D2
:104E800008D101210805FEF7E1FB00214FF4801055
:104E9000FEF7DCFB10BD000000380140004400407C
:104EA00000480040004C00400050004001460868A7
:104EB00070470CB50146019820F001000190086B85
:104EC000006920B1086B0069B0F5803F0ED1C86958
:104ED00060B1CB6998881A689368C34003F00103F6
:104EE00023B9019820F00100401C0190019820F0A6
:104EF00002000190019820F008000190019820F034
:104F0000040001900198009A60F300020092019859
:104F10004208009862F341000090019882080098CE
:104F200062F3820000900198C208009862F3C30007
:104F3000009001980209009862F31F1000900098F9
:104F40000CBD0146486B006970470CB50146486BC3
:104F500090F8210028B1019820F00100401C019038
:104F600008E048680088012222EA9012019862F362
:104F700000000190086B4279019862F341000190B2
:104F8000086B8279019862F382000190086BC27904
:104F9000019862F3C3000190086B027A019862F3F2
:104FA00004100190086B427A019862F34510019059
:104FB000086B827A019862F3861001900198009A3A
:104FC00060F30002009201984208009862F34100E9
:104FD000009001988208009862F382000090019886
:104FE000C208009862F3C30000900198020900987B
:104FF00062F30410009001984209009862F3451092
:10500000009001988209009862F386100090019840
:10501000C209009862F3DF10009000980CBD0146B1
:10502000486B406970472DE9F04104466068068886
:1050300000270025A84606F02000616889890840FD
:10504000002860D0206B407938B9606880880121E1
:10505000206BC17145F0200555E0206BC068022827
:1050600006D1606BC069012802D16068808802E0C7
:105070006068B0F80480606B8268501C636B986055
:1050800082F800806068878907F4806050B907F46F
:10509000805038B14FEA2821606B8268501C636BE6
:1050A00098601170606B0069401C616B0861606BF7
:1050B0000069616B0968884225D16068808920F0A9
:1050C0001000616888810021206B4171206BC068ED
:1050D000022816D1606BC7690020616BC861012F7F
:1050E00004D0022F05D0032F09D105E045F00105BA
:1050F00006E045F0020503E045F0040500E000BFCE
:1051000001E045F0020506F0100061688989084059
:1051100030B1606880880021206B417145F0400506
:1051200006F08000616889890840002863D0606BC0
:1051300090F8200030B16068808940F0010061681B
:10514000888158E0606B4068616B4969884222D071
:10515000206BC068022807D1606BC069022803D1A8
:10516000606BB0F81A8016E0606BC168481C626B17
:10517000D06091F800806068878907F4806050B93A
:1051800007F4805038B1606BC168481C626BD06016
:10519000087848EA0028606B4069401C616B4861F0
:1051A0006068A0F80480606B4068616B4969884260
:1051B00021D16068808920F0800061688881606802
:1051C000808940F04000616888810020616B81F82F
:1051D0002100206BC06802280BD1606BC0690128D8
:1051E00009D1206BC07A00F0100020B945F001050C
:1051F00001E045F0010506F040006168898908403A
:1052000038B16068808920F040006168888145F08D
:10521000080506F0080030B1606880880121206B25
:10522000C17145F0200506F0020030B16068808849
:105230000121206B417245F4807506F0010030B108
:10524000606880880121206B817245F4007506F446
:10525000807050B16068008820F4807061680880B8
:105260000121206B017245F0800506F4007038B111
:105270006068008820F400706168088045F48065EB
:1052800025B1206B006808B1012000E0002018B1B2
:10529000206B016828468847BDE8F081F0B50346D9
:1052A000002400260025002040F66A17B94200D1EC
:1052B00000BF1846C1F3421401F01F06012707FA88
:1052C00006F5012C01D10C3004E0022C01D1103084
:1052D00000E014301AB107682F43076002E0076846
:1052E000AF430760F0BD00002DE9F04786B00546EA
:1052F0000E460024A24600BFA1460027B08900B197
:1053000000BF2F462C8A4CF6FF700440F0880443FF
:105310002C82AC894EF6F3100440B08831890843E2
:10532000718908430443AC81AC8A4FF6FF400440C6
:10533000B0890443AC8201A8FEF7B8F91F48874240
:1053400002D1DDF810A001E0DDF80CA0A88900F47E
:10535000004040B10AEBCA0000EB0A103168490076
:10536000B0FBF1F807E00AEBCA0000EB0A10316865
:105370008900B0FBF1F86420B8FBF0F004012009CB
:10538000642101FB1089A88900F4004040B132205B
:1053900000EBC900B0FBF1F000F00700044308E0A7
:1053A000322000EB09106421B0FBF1F000F00F0097
:1053B00004432C8106B0BDE8F087000000380140AE
:1053C00070B505460C46206BC07A00F0010008B1AC
:1053D000002070BD206B05600020216B087100214A
:1053E000206B4171206B8171206BC171206B017248
:1053F000206B4172206B81720020216BC860616B51
:1054000081F821002421606BFBF730FA608CFDF7F6
:1054100019F8E06820B1E16808680121FDF774F926
:10542000206920B1216908680121FDF76DF96069E3
:1054300020B1616908680121FDF766F9A06920B112
:10544000A16908680121FDF75FF9E06920B1E16910
:1054500008680121FDF758F90120216BC87200206E
:10546000B7E700002F49884205D12F49C96841F4A8
:1054700080412D4AD1602D49884205D12A490969C8
:1054800041F40031284A11612949884205D1264951
:10549000096941F48021244A11612649884205D1D5
:1054A0002149096941F400211F4A116122498842BA
:1054B00005D11D49096941F480111B4A116100BFE2
:1054C00000BF00BF00BF1749884205D11649C9680F
:1054D00021F48041144AD1601449884205D112490F
:1054E000096921F40031104A11611149884205D13E
:1054F0000D49096921F480210B4A11610D49884247
:1055000005D10949096921F40021074A11610A49B5
:10551000884205D10449096921F48011024A1161C8
:105520007047000000380140001002400044004075
:1055300000480040004C00400050004070B5054657
:105540000C4625B1012D71D0022D6ED171E060683D
:10555000FFF788FF94F92400002817DB00F01F02F2
:1055600001219140774A430942F8231000BF00BF50
:1055700000BFBFF34F8F00BF00BF00BF00BF00BF21
:1055800000BFBFF36F8F00BF00BF00BF00BF6E49F9
:105590006068884205D16D48806920F480406B497D
:1055A00088616B496068884205D16848C06920F409
:1055B00000306649C86167496068884205D1634820
:1055C000C06920F480206149C861634960688842ED
:1055D00005D15E48C06920F400205C49C8615F497C
:1055E0006068884205D15948C06920F48010574945
:1055F000C8610020216B08710021206B4171206B74
:105600008171206BC171206B0172206B4172206B24
:1056100081720020616B81F82100206BC07A20F03C
:105620000200216BC8728AE000E085E06FF00300A1
:1056300070BD206BC07A00F0010010B94FF0FF3050
:10564000F6E7206BC07A00F0020008B10020EFE717
:105650000020216B08710021206B4171206B81714A
:10566000206BC171206B0172206B4172206B8172C3
:105670000020616B81F82100616B4883616BC86118
:10568000616B81F82000216BC860216B08610320E9
:10569000216BC8722C496068884205D12B4880690B
:1056A00040F480402949886129496068884205D1D1
:1056B0002648C06940F400302449C8612549606823
:1056C000884205D12148C06940F480201F49C86143
:1056D00021496068884205D11C48C06940F4002017
:1056E0001A49C8611D496068884205D11748C069D8
:1056F00040F480101549C86194F92400002807DBA4
:1057000000F01F0201219140154A430942F823107D
:1057100000BF94F92400002809DB00F01F020121DA
:1057200091404209920002F1E022C2F8001100BF4C
:105730006068FFF797FE02E06FF0030078E700BFB4
:10574000002075E780E100E00038014000100240D1
:105750000044004000480040004C00400050004021
:1057600080E200E02DE9F04105460E46144605B101
:105770001EB96FF00400BDE8F081206BC07A00F024
:10578000040010B94FF0FF30F5E7206B4079012895
:1057900001D1C01EEFE76068808920F020006168B9
:1057A0008881606B06600021206B0172206B417262
:1057B000206BC171206B8172606B85600020616B12
:1057C00008610121206B41716068808940F03000E0
:1057D00061688881206BC068022812D1606BC06943
:1057E00078B90220616BC861616B01F11A00224631
:1057F000314600F008F80746B81C10B96FF00100F8
:10580000B9E70020B7E72DE9F04105460E461446FA
:1058100005B11EB96FF00400BDE8F081206BC07ABD
:1058200000F0040010B94FF0FF30F5E7606B90F81E
:10583000210010B16FF00100EEE70120616B81F8EB
:105840002100606BC560606B46600020616B486141
:10585000206BC068022812D1606BC06978B9012042
:10586000616BC861616B01F1180022463146FFF798
:1058700079FF0746B81C10B96FF00100CCE76068EB
:10588000808940F08000616888810020C4E770B59D
:10589000044634B1012C22D0022C3FD0032C3CD141
:1058A0003DE0086B006920B1086B0069B0F5003F6E
:1058B00011D1886990B18D69AA88012328681BB12C
:1058C00001259540056104E002F110050126AE4076
:1058D000066100BF02E04FF0FF3070BD22E0086BB0
:1058E000006920B1086B0069B0F5003F11D18869EB
:1058F00090B18D69AA88002328681BB101259540C5
:10590000056104E002F110050126AE40066100BF0A
:1059100002E04FF0FF30E0E704E000BF00BF4FF0CF
:10592000FF30DAE700BF0020D7E72DE9F0418046DD
:105930000E4617461C46B8F1000F01D006B11FB93C
:105940006FF00400BDE8F081206BC07A00F0040025
:1059500010B94FF0FF30F5E7206BC068022814D172
:105960000320616BC861224639463046FFF7FAFED4
:1059700005460DB12846E5E7224639464046FFF781
:1059800042FF054625B12846DCE74FF0FF30D9E756
:105990000020D7E710B50446E06830B1E26891888E
:1059A000002310681A46FCF772FE206930B12269A4
:1059B0009188002310681A46FCF769FE606930B1CF
:1059C00062699188002310681A46FCF760FEA0699E
:1059D00030B1A2699188002310681A46FCF757FE7F
:1059E000E06930B1E2699188002310681A46FCF73B
:1059F0004EFE208CFCF726FD0020216BC87210BDE6
:105A000008B502480068009008BD0000F8AB000827
:105A100070B54148006800F0020070B13F488078DE
:105A2000012807D13E48006820B13D4801210268A5
:105A3000022090470120384908603748006800F488
:105A4000007078B13548C078012807D13448006823
:105A500020B1334801210268032090474FF4807041
:105A60002D4908602C48006800F4003078B12B48BC
:105A70000079012807D12A48006820B1284801216F
:105A80000268042090474FF4803023490860224880
:105A900010300468001F056804F0040088B905F49C
:105AA000806070B91C480C30006840F480601A496E
:105AB0000C3108601B48006818B11A4801680320BF
:105AC000884704F0020088B905F4007070B91248E4
:105AD0000C30006840F400700F490C310860114828
