:020000040800F2
:10000000C8B200208503000885C2000843570008D5
:10001000ABC10008B52100088105010800000000FF
:10002000000000000000000000000000BD02000809
:10003000752F000800000000350300087103000858
:100040009F0300089F0300089F0300089F03000808
:100050009F0300089F0300089F0300089F030008F8
:100060009F0300089F0300089F0300082D2C000831
:10007000492C0008652C0008812C00089D2C0008E4
:10008000B92C0008D52C00089F030008F1030108D3
:10009000C5040108B9210008752200089F03000863
:1000A0009F0300089F0300089F0300089F030008A8
:1000B0009F0300089F0300089F0300089F03000898
:1000C0009F0300089F0300089F0300089F03000888
:1000D0009F03000811EB000839EE00089F03000899
:1000E0002D3100089F0300089F0300089F030008AC
:1000F0009F0300089F0300089F0300089F03000858
:100100009F0300089F0300089F0300089F03000847
:1001100039E900089F0300089F0300089F030008B7
:10012000F12C0008112D0008312D00084D2D00087C
:1001300000F002F800F06DF80AA090E8000C82448C
:100140008344AAF10107DA4501D100F062F8AFF269
:10015000090EBAE80F0013F0010F18BFFB1A43F0A5
:1001600001031847D4050200F40502000A444FF0C9
:10017000000C10F8013B13F0070408BF10F8014B06
:100180001D1108BF10F8015B641E05D010F8016B4B
:10019000641E01F8016BF9D113F0080F1EBF10F8AF
:1001A000014BAD1C0C1B09D16D1E58BF01F801CBD2
:1001B000FAD505E014F8016B01F8016B6D1EF9D555
:1001C0009142D6D37047000000230024002500266A
:1001D000103A28BF78C1FBD8520728BF30C148BFAA
:1001E0000B607047662919F00B81642900F0A28129
:1001F000782900F0DB81002070471FB500F020FF58
:1002000004000020002117F085FFE0601FBD10B53D
:1002100010BD01F015F81146FFF7EFFF0FB400F025
:100220000BF80FBC15F0FCFB00F088FA03B4FFF7E5
:10023000EEFF03BC00F0FEFF04B015F023FC044801
:10024000002115F0ADFC15F02FFC00F077FA00004E
:10025000E4EF010880F309887047EFF309807047E5
:10026000684680F3098804480078C00714BF02205C
:10027000032080F314887047A4EF0108DFF818C04A
:10028000EFF305831B0618BF6047EFF31483DB070A
:1002900008BF604700DF7047D9680108DFF818C061
:1002A000EFF305831B0618BF6047EFF31483DB07EA
:1002B00008BF604700DF7047BD6A0108EFF309809F
:1002C000816911F8021CF1B990E80F10E047EFF3D3
:1002D000098C8CE80700144B93E8060091420FD07C
:1002E00039B12CE9F00FC1F828C00CB416F08AFF20
:1002F0000CBC1A60D2F828C0BCE8F00F8CF3098857
:100300006FF0020E704710B5084A1268914209D882
:10031000074C54F8214090E80F10A047EFF3098CE8
:100320008CE80F0010BD0000D4030020041A000860
:10033000041A000816F038FE0C4B93E806009142B0
:1003400010D0EFF3098C2CE9F00FC1F828C00CB4E1
:1003500016F058FF0CBC1A60D2F828C0BCE8F00FA9
:100360008CF309886FF0020E70470000D403002060
:1003700017F010F8E0E7000015F094FC17F00AF809
:10038000DAE700000948804709480047FEE7FEE732
:10039000FEE7FEE7FEE7FEE7FEE7FEE7FEE7FEE735
:1003A00004480549054A064B704700000DD900086E
:1003B00031010008C8AC0020C8B20020C8AE00203F
:1003C000C8AE00200048704768AC002053EA020C19
:1003D00000F069802DE9F04B4FF00006002B1FBFA5
:1003E000B3FA83F503FA05F424FA05F65E4012BF6A
:1003F0001643B2FA82F502FA05F4C5F120051EBFD4
:1004000022FA05FC44EA0C04203556EA044C4FEA73
:10041000144418BF641C4FF000084FF000099042CC
:1004200071EB030C39D3002919BFB1FA81F701FA36
:1004300007F6B0FA80F700FA07F6C7F120071EBFEB
:1004400020FA07FC46EA0C062037B6FBF4FCA7EBC3
:100450000507103F07F01F0BCBF120060CFA0BFB32
:100460002CFA06F644BFB3460026202FA4BF5E46F2
:100470004FF0000B5BEA060C08BF4FF0010B19EBC5
:100480000B09ABFB027C48EB0608C01B06FB02CC49
:100490000BFB03CC71EB0C01C1E70B460246414656
:1004A0004846BDE8F08B13B54FF000004FF0000157
:1004B000AFF30080BDE81C40704700000FB41CB5CE
:1004C000074B06AA7B4469460090059800F063FD3F
:1004D0000020694600F072FD1CBC5DF814FB0000B2
:1004E000F50A000070B5044685690068C10601D5AB
:1004F000302600E02026C00707D070BDD4E90121D6
:1005000030469047206A401C20626D1EF6D570BDB3
:1005100070B5044685690078C00707D170BDD4E97D
:10052000012120209047206A401C20626D1EF6D5D4
:1005300070BD00002DE9F0410646002410687529C1
:10054000314616A510D0AFF30080002802DA4042F1
:1005500013A507E031688A0701D512A502E0490713
:1005600004D511A5012401E0AFF3008000210A2287
:1005700006F1240709E0B0FBF2FCB0FBF2F302FB4A
:100580001C00303078541846491C0028F3D123460B
:100590002A463046BDE8F04100F092BA0000000063
:1005A0002D0000002B0000002000000070B5044664
:1005B0000D4621461068AFF300802188090502D559
:1005C0000F4A7A4402E00E4A7A440E32002104F1C6
:1005D000240305E000F00F060009965D5E54491CF7
:1005E0000028F7D120780023000704D5702D02D011
:1005F00009B1022311322046BDE8704000F060BA14
:1006000032FF01002DE9F05F894604464FF0000AF1
:10061000DFF824B1FB44C0F820A02046E1688847F9
:1006200000287DD0252806D0D4E901219047206AF2
:10063000401C2062F1E700255F462046E1688847BC
:100640002028064607DB312E05D2B81910F8200CF9
:1006500008B10543F1E7A80701D525F00405C4F862
:100660001CA00027C4F818A02A2E09D0304613F089
:1006700092FF38B304EB8708303EC8F8186019E0E1
:1006800059F8041B204604EB87029161E168884712
:10069000012F064618D1E069002820DA25F0200550
:1006A0001DE0D8F8180000EB800006EB4000303861
:1006B000C8F818002046E1688847064613F06BFF2B
:1006C0000028EED1012F0AD02E2E08D12046E16855
:1006D00088477F1C0646022F45F02005C4DBA06931
:1006E000002803DA404245F00105A061E80701D087
:1006F00025F01005A6B1A6F14100192802D8203630
:1007000045F400654A463146204625604D46FFF7D0
:1007100069FD60B1012807D0ED1D25F0070000E05C
:1007200007E000F1080978E705F1040975E73046AC
:100730007AE7206ABDE8F09F08FF010010B5044683
:10074000AFF300802046BDE81040FFF76FBD30B525
:1007500005460B462A4613F8014B12F8010B08B167
:10076000A042F8D01CB1002802D06D1CF1E7284649
:1007700030BD40EA010310B59B070FD1042A0DD309
:1007800010C808C9121F9C42F8D020BA19BA884272
:1007900001D9012010BD4FF0FF3010BD1AB1D307B1
:1007A00003D0521C07E0002010BD10F8013B11F8E7
:1007B000014B1B1B07D110F8013B11F8014B1B1B10
:1007C00001D1921EF1D1184610BD10B5431C02E0B4
:1007D00010F8011B71B18107FAD14FF0013202C844
:1007E0008C1A8C4314EAC211F9D0C01A0A0603D03D
:1007F000C01E10BDC01A10BD0A0401D0801E10BD5D
:100800000902FCD0401E10BD421E12F8013F002B11
:10081000FBD111F8013B002B02F8013BF9D17047E5
:10082000032A40F2308010F0030C00F0158011F81C
:10083000013BBCF1020F624498BF11F801CB00F8F4
:10084000013B38BF11F8013BA2F1040298BF00F848
:1008500001CB38BF00F8013B11F0030300F06780C3
:10086000083AC0F0088051F8043B083A51F804CB2C
:10087000A0E80810F5E7121D5CBF51F8043B40F8F2
:10088000043BAFF30080D20724BF11F8013B11F8FD
:1008900001CB48BF11F8012B24BF00F8013B00F841
:1008A00001CB48BF00F8012B7047431A28BF9A427A
:1008B0007FF6B6AF032A1044114440F2268010F0B0
:1008C000030F1EBF11F8013D521E00F8013D10F04C
:1008D000030F7FF4F6AF11F0030300F08783083AAB
:1008E000C0F00B8051F8043D083A51F804CD40F8AF
:1008F000043D40F804CDFFF7F3BF121D5CBF51F873
:10090000043D40F8043DAFF30080D20724BF11F846
:10091000013D11F801CD48BF11F8012C24BF00F8AA
:10092000013D00F801CD48BF00F8012C704710B51B
:10093000203AC0F00B80B1E81850203AA0E81850D7
:10094000B1E81850A0E81850BFF4F5AF5FEA027C98
:1009500024BFB1E81850A0E8185044BF18C918C007
:10096000BDE810405FEA827C24BF51F8043B40F8A8
:10097000043B08BF7047D20728BF31F8023B48BF8D
:1009800011F8012B28BF20F8023B48BF00F8012BCB
:1009900070474FF000020429C0F0128010F0030CE1
:1009A00000F01B80CCF1040CBCF1020F18BF00F862
:1009B000012BA8BF20F8022BA1EB0C0100F00DB811
:1009C0005FEAC17C24BF00F8012B00F8012B48BF6F
:1009D00000F8012B70474FF0000200B51346944613
:1009E0009646203922BFA0E80C50A0E80C50B1F187
:1009F0002001BFF4F7AF090728BFA0E80C5048BF9B
:100A00000CC05DF804EB890028BF40F8042B08BF38
:100A1000704748BF20F8022B11F0804F18BF00F834
:100A2000012B70474FF0013C50F8042B51F8043B68
:100A30009A4221D1A2EB0C03934313EACC1317D1B2
:100A400050F8042B51F8043B9A4215D1A2EB0C0349
:100A5000934313EACC130BD150F8042B51F8043B09
:100A60009A4209D1A2EB0C03934313EACC13DBD0D7
:100A70004FF00000704700BFD01A01BAB1FA81F1FF
:100A800001F0180122FA01F0CB40C1F12001DBB2E4
:100A9000C0B2C01A2CFA01F3D11A914311EAC31162
:100AA000E6D1704770477047704710B500F0CDFA37
:100AB000006810BD10B5044600F0C7FA046010BD10
:100AC0002DE9F0470D4699469246044600F1240868
:100AD0000168880604D5E06921F01001216000E07A
:100AE0000120A84201DD471B00E00027A1697A1917
:100AF00002EB0900081AA0612078C00602D4204643
:100B0000FFF7F0FC002608E0D4E901211AF80600FE
:100B10009047206A401C761C20624E45F4DB20780A
:100B2000C0060AD52046FFF7DDFC06E0D4E9012126
:100B300030209047206A401C2062381EA7F1010730
:100B4000F4DC07E0D4E9012118F805009047206A99
:100B5000401C2062281EA5F10105F3DC2046FFF7AA
:100B6000D7FC2078000602D50220BDE8F0870120DE
:100B7000FBE770472DE9FF4F0C461E464FF0FF374D
:100B80008BB0D2E90001DDF860800A908A46C1F39B
:100B90000A5505B93D46002108464FF00000BAF15C
:100BA000000F00F4400005DA00EB80004FF4400134
:100BB00001EA50004FEA9059B9F1010F00DDB94642
:100BC0000A9850EA4A000ED044F61050A5F2FF35BC
:100BD00045432F14B8F1000F1ED07542291E1EDDAB
:100BE000C9F100021CE0B8F1010F4FF0000001D084
:100BF000302103E0F24305E02154401CB042FBDB0E
:100C000030460022002121540B99C1F80880C1E927
:100C100000200FB0BDE8F08FBD1B6D1CDEE74A461B
:100C200000DA694206A800F097FA06AB93E80700DD
:100C300003AB83E8070050460A9900F027FB8DE8D4
:100C40000700A0F500501F3800900398002D09DD23
:100C500042F21F014A46084403A90390684600F087
:100C600086FD08E0A0F500504A461F3803A903900E
:100C7000684600F090FD8DE807000004000C03D0EA
:100C80004FF0FF30410800E01046B8F1000F03D0EC
:100C90000022009215461EE0751E05D400F0D7F91B
:100CA000303262556D1EF9D5B3460122084302D099
:100CB00000227F1C04E02078302801D100227F1E12
:100CC000002A099786D01DE0112D07DA00F0BFF940
:100CD000303262556D1C50EA0102F5D1084302D052
:100CE0000098C8B10EE00021681E05E0235C625C3C
:100CF00063542254401E491C8142F7DBAB46A81BBB
:100D0000401E0990002004F80B000B98099AC0F8C7
:100D10000880C0E9002B7CE711264FF0000859E756
:100D20002DE9F04F88460446D21D22F0070191B00C
:100D3000D1E90001CDE90A0113F043FB02460B980B
:100D4000C00F01D02D2007E02068810701D52B209E
:100D500002E0202101EAC000032A099001D0072AFD
:100D600005DB03464146204600F0B6F90BE120784A
:100D7000800601D5E06900E00620B8F1650F8146E4
:100D800006D0B8F1660F18D0B8F1670F70D131E016
:100D90000020B9F1110F009001DB112301E009F1EE
:100DA00001030AAA01A90CA8FFF7E4FEDDE90C7013
:100DB000002609F10105834647E001204B460090DB
:100DC0004FF000470AAA01A90CA8FFF7D3FEDDE9FE
:100DD0000DB00C995D46002610B909F101000D18FF
:100DE000B9EB050003D4C0F1FF3609F10105A5EB0D
:100DF00009002BE0B9F1010F01DA4FF001090020E1
:100E0000B9F1110F0090484601DD112300E00346BF
:100E10000AAA01A90CA8FFF7ADFEDDE90C704D464A
:100E200000268346207800070AD4AB4500DA5D46E9
:100E300001A8012D04DD411911F8011C302907D04A
:100E40004F4502DA17F1040F04DA012082460FE061
:100E50006D1EEEE7002F02DCED1B3E4403E0781C24
:100E6000A84200DD7D1CB81B00F1010A4FF00047CD
:100E70002078000703D4AA4501DB4FF0FF3A002198
:100E8000B7F1004F0DF143088DF8431024D0022034
:100E90002B23002F01DA7F422D230A21021EA0F10D
:100EA000010000DC5FB197FBF1FC97FBF1F201FB65
:100EB0001C7C17460CF1300C08F801CDEEE7A8F1C8
:100EC000010003702188090501D5452100E0652155
:100ED000A0F1010800F8011C09980FA9A1EB08076F
:100EE000FF1D00B10120411901EBEA70A1693844EE
:100EF000081A401EA0612078C00602D42046FFF7E1
:100F0000F1FA099828B1D4E901219047206A401CE0
:100F100020622078C00622D52046FFF7E3FA1EE0C3
:100F2000002E04DBB34502DD01A8805D00E0302027
:100F3000D4E901219047206A401C2062761CAAF166
:100F400001005FEA000A0AD100F07AF8C06801687F
:100F5000405CD4E901219047206A401C2062281E91
:100F6000A5F10105DCDC07E0D4E9012118F8010B4B
:100F70009047206A401C2062381EA7F10107F3DC6D
:100F80002046FFF7C5FA032011B043E601694A1C69
:100F900002610878704700B58FB0CDE901310021BA
:100FA000059105497944CDE9031011466846FFF7DC
:100FB00029FB0FB000BD0000E5FFFFFF0A6802F843
:100FC000010B0A607047431A28BF9A427FF6AFAC04
:100FD000104410F0030F11441EBF11F8013D521EC2
:100FE00000F8013D10F0030F7FF4F6AF103AC0F0A7
:100FF0000A8010B531E91850103A20E91850BFF4B2
:10100000F9AFBDE81040530724BF31E9081020E9CB
:10101000081044BF51F8043D40F8043D12F0030F9E
:1010200008BF7047D20728BF31F8023D48BF11F80A
:10103000012C28BF20F8023D48BF00F8012C704762
:1010400010B5FFF7BFF9203010BD13F043BA30B52B
:10105000B0F10A024FEA900E71F100034EEA817E70
:10106000B0EB0E0061EB91014FEA101E4EEA017EDB
:1010700010EB0E0041EB11114FEA102E4EEA016EFB
:1010800010EB0E0041EB11214FEA104E4EEA014EDB
:1010900010EB0E0041EB1141401841F100014FEA05
:1010A000D00040EA41704FEAD10110EB80054FEAD1
:1010B000810444EA907444EB01046D1944EB040488
:1010C000521BA3414FF0000348BF0A3200D530BD88
:1010D000401C41F1000130BD2DE9F0411F4604469E
:1010E00003260168072A01F4006004DB08B116A595
:1010F00005E016A503E008B115A500E015A521F04F
:1011000010002060A069C01EA0610FB1401EA06148
:101110002046FFF7E7F94FB1D4E90121384690475F
:10112000206A401C2062C01C206206E0206AFAE7A8
:10113000D4E9012115F8010B9047761EF8D220461C
:10114000FFF7E6F9BDE8F0814E414E006E616E009A
:10115000494E4600696E66002DE9F0478146164605
:101160008AB0334878440DC88DE80D003048784483
:10117000801C03AC0DC884E80D0041F69B30084488
:10118000372190FBF1F290FBF1F5A5F1800501FB11
:1011900012041B3C02D56442012000E00020DFF86D
:1011A00090A080460027FA44AAF1BE0A0DE0E007AD
:1011B00009D03246684607EB47010AEB810100F08F
:1011C000EAFA8DE8070064107F1C002CEFD1184F5D
:1011D0007F44AC3F18E0E80714D007EB04100DF192
:1011E000180A90E80E008AE80E00C068F04201D1AB
:1011F00098190890324606A903A800F0CCFA03AB70
:1012000083E807006D10641C002DE4D13246694666
:10121000B8F1000F03A802D000F0A9FA01E000F035
:10122000BAFAC9E90001C9F808200AB0BDE8F08798
:10123000DCF4010001491820ABBEFEE726000200E5
:101240007546FFF7BFF8AE4605006946534620F0E5
:101250000700854618B020B5FFF7A2F8BDE820408A
:101260004FF000064FF000074FF000084FF0000B62
:1012700021F00701AC46ACE8C009ACE8C009ACE815
:10128000C009ACE8C0098D46704770475FEA400C62
:1012900008BF91F0000F4FEA8C234FEAC12243EAC6
:1012A00051514FEA1C5018BF00F5F0404FEA300092
:1012B00018BF41F000415FEA6C5C00F02980BCF18E
:1012C000FF3F08BF40F080407047130C06BF120478
:1012D0004FF0100C4FF0000C130E04BF12020CF173
:1012E000080C130F04BF12010CF1040C930F04BF80
:1012F00092000CF1020CD30F04BF52000CF1010C50
:1013000011464FF00002A0F11F00A0EB0C00704747
:1013100011F0004F08BF704731F000413FF4D5AFE6
:101320000B0C06BF09044FF0100C4FF0000C0B0E15
:1013300004BF09020CF1080C0B0F04BF09010CF1EA
:10134000040C8B0F04BF89000CF1020CCB0F04BFFF
:1013500049000CF1010CCCF12003A0EB0C0022FAA7
:1013600003F302FA0CF241EA030100F101007047B5
:1013700020F07F4C80EA030023F07F47ACEB0703AB
:1013800003F57C5300F0004003F1FF032DE9804991
:101390004FEA154B09B44FEA144325EA0B4E24EAF1
:1013A00003480FF2042606EB132749083E785FEA4C
:1013B000320203FB0667C7F5000707FB06F64FEA94
:1013C00054374FEAD64606F1020607FB066CCCF10D
:1013D000005C4FEA1C472CEA074C07FB06F40CFBA9
:1013E00006F504EB15464FEA961634BF00204FF081
:1013F00000404FEAD13706FB07FC4FEA1C4C0CFBC0
:101400000BF7D21B03FB0CF761EB07010CFB0EF78C
:10141000B0EB074072EB17420CFB08F734BFA2EBAE
:101420000742B2EB074261EB17414FEA0C444FEA27
:10143000910706FB07FC4FEA1C4C0CFB0BF7B0EBCB
:10144000C74072EB573203FB0CF734BFA2EBC74225
:10145000B2EBC74261EB57310CFB0EF7B0EBC700A4
:1014600072EB57720CFB08F734BFA2EBC702B2EB6A
:10147000C70261EB5771039F4FEA816141EA921104
:1014800004EBCC044FEAD1374FEA826206FB07FC3B
:1014900042EA90124FEA80604FEA1C4C0CFB0BF7BB
:1014A000D21B03FB0CF761EB07010CFB0EF7B0EB53
:1014B000074072EB17420CFB08F734BFA2EB074260
:1014C000B2EB074261EB17414FEA8C554FEA9107A7
:1014D00004EB9C2406FB07FC4FEA1C4C0CFB0BF7AF
:1014E000B0EBC74072EB573203FB0CF734BFA2EBF3
:1014F000C742B2EBC74261EB57310CFB0EF7B0EBC2
:10150000C70072EB57720CFB08F734BFA2EBC7029F
:10151000B2EBC70261EB577115EB4C254FEA8161C5
:1015200041EA92114FEA82624FEAD13742EA9012C1
:1015300006FB07FC44F100044FEA80604FEA1C4CB4
:101540000CFB0BF7D21B03FB0CF761EB07010CFB49
:101550000EF7B0EB074072EB17420CFB08F734BFF5
:10156000A2EB0742B2EB074261EB174115EB1C15EA
:101570004FEA813141EA92414FEA823242EA904297
:101580004FEA80304FEA0C7644F1000448EA034306
:101590004EEA0B484FF0000EB2EB080C71EB03075C
:1015A00024BF624639464EEB0E0E4FF0000B00187A
:1015B000524149414BEB0B0BB2EB080C71EB0307AB
:1015C0007BF1000B24BF624639464EEB0E0E4FF006
:1015D000000B0018524149414BEB0B0BB2EB080CCE
:1015E00071EB03077BF1000B24BF624639464EEBDB
:1015F0000E0E51EA020718BF46F0010616EB0E76F2
:1016000055F1000254F1000103D5BDE88901BDE8A0
:101610000088BDE88901BDE80048B619524141EB98
:101620000101A3F10103704780807F7E7D7C7B7A7E
:101630007978777676757473727171706F6E6E6D7E
:101640006C6C6B6A6A696868676666656464636324
:1016500062616160605F5F5E5E5D5D5C5C5B5B5AAA
:101660005A59595858575756565555555454535317
:1016700052525251515050504F4F4F4E4E4D4D4D72
:101680004C4C4C4B4B4B4A4A4A49494948484847BD
:1016900047474746464645454544444444434343FB
:1016A0004342424242414141002B26D4770021D09F
:1016B0001CB54FEA370703B44FF010004FF010018C
:1016C0004FF000000FBCBDE810400BF1010BBBF167
:1016D000010F08BF5FEA170722BF12F1010211F1E3
:1016E00001014FF0004143F1000300F0004043EAE4
:1016F00000007047F9D35708DAE746EA064613F1C7
:10170000400F4FEA16461FDD13F1200FDFBF1643CF
:101710000A46002120335B42C8D0C3F1200746EAC5
:10172000064602FA07F74FEA164646EA0706C3F1ED
:10173000200722FA03F201FA07F721FA03F14FF02A
:10174000000342EA0702B1E746EA020646EA064615
:101750004FEA164646EA0106BCBF46EA0646360C84
:101760004FF000034FF000024FF000019EE72DE91B
:10177000C048934630B491E8380007C831EA400CBD
:1017800048BF34EA430C03D5FFF7F2FDFFF78CFFA7
:10179000F0BCBDE800882DE9C048934630B491E81C
:1017A000380007C810F0804F08BF13F0804F03D1F6
:1017B00000F005F8FFF778FFF0BCBDE8008820F0E6
:1017C0007F4780EA030023F07F4C07EB0C03A3F56F
:1017D0007C5300F00040A3F1FE0392F0000F00F0F4
:1017E000B38095F0000F00F077802DE901494FEAB2
:1017F00011404FEA144621EA004800FB06FC24EAA7
:10180000064708FB06F607FB08F800FB07F718EB8E
:1018100006484CEB164C4FEA124B18EB07484FEAC0
:1018200015464CEB174022EA0B4E0BFB06FC25EA53
:1018300006470EFB06F607FB0EFE0BFB07F71EEB3B
:10184000064E4CEB164C4FF000061EEB074E4CEBD1
:10185000174B18EB0B0840F1000018EB0E0B58EB80
:10186000000840F100008F1A4FF000013CBFC9434F
:10187000661B14BFB5EB040C00213CBFC943F61B2B
:101880004FEA17444EEA8E0E27EA04454FEA1C47FA
:1018900004FB07622CEA074C05FB07F70CFB05F677
:1018A00004FB0CFC16EB074642EB174216EB0C460A
:1018B00042EB1C421BEB060658EB0202414146EA92
:1018C0009E0601D5BDE80189B619524141EB0101DF
:1018D000A3F10103BDE801894FEA14454FEA11471E
:1018E00024EA054621EA074C05FB07F406FB07F747
:1018F0000CFB06F105FB0CFC11EB074144EB174414
:101900004FEA124711EB0C4144EB1C4422EA074C0E
:1019100005FB07F206FB07F70CFB06F605FB0CFCC4
:1019200016EB074642EB174216EB0C4642EB1C4502
:101930006A1854F1000148BF7047B619524141EB93
:101940000101A3F10103704795F0000F37D04FEA72
:1019500011424FEA144721EA024624EA074C02FBEF
:1019600007F106FB07F70CFB06F402FB0CFC14EB7B
:10197000074441EB17414FEA154714EB0C4441EB88
:101980001C4125EA074C02FB07F506FB07F70CFB99
:1019900006F602FB0CFC16EB074645EB174516EB6B
:1019A0000C4645EB1C42121951F1000148BF70472B
:1019B000B619524141EB0101A3F1010370474FEA0F
:1019C00014454FEA114724EA054621EA074C05FB76
:1019D00007F106FB07F70CFB06F24FF0000605FBCC
:1019E0000CFC12EB074241EB174112EB0C4251EB9E
:1019F0001C4148BF7047921841EB0101A3F101035C
:101A00007047000000000000002904D0816841F008
:101A1000010181607047816821F001018160704798
:101A200010B5154988420AD14415012120460BF012
:101A300047F92046BDE8104000210BF041B90F499D
:101A400088420AD10415012120460BF039F92046BD
:101A5000BDE8104000210BF033B9094988420AD192
:101A60000121CC0320460BF02BF92046BDE81040A5
:101A700000210BF025B910BD0024014000280140D1
:101A8000003C0140014600208968490700D501203B
:101A90007047C06C80B270470246002012680A424C
:101AA00000D001207047014600208968090700D551
:101AB0000120704710B542680E4B1A400C790B6834
:101AC00042EA04221343436082680B4B1A40D1E977
:101AD000024323434C7942EA440213438360C26ABF
:101AE00022F47002097C491EC9B242EA0151C16266
:101AF00010BD0000FFFEF0FFFDF7F1FF70B50726F7
:101B000009290AD9C568A1F10A0404EB4404A640D6
:101B1000B543A3401D43C56007E0056901EB4104DF
:101B2000A640B543A3401D4305611F23072A09D2E0
:101B3000446B521E02EB820293409C4391400C4343
:101B4000446370BD0D2A09D2046BD21F02EB8202DE
:101B500093409C4391400C43046370BDC46A0D3AAA
:101B600002EB820293409C4391400C43C46270BDDF
:101B7000816841F0080181607047002904D08168C4
:101B800041F4A00181607047816821F4A001816067
:101B90007047816841F004018160704703F0EEBD39
:101BA0002DE9F04102460E4600200024971908E076
:101BB0000502381B401E80B200F007F82844641C60
:101BC000E4B2B442F4D3BDE8F08110B5044603F0AA
:101BD00079FE200AA02101EB4000C0B203F042FED2
:101BE00003F0AAFEE0B203F03DFE03F0A5FE03F011
:101BF00069FEA12003F036FE03F09EFE002003F0F4
:101C0000FBFD044603F07AFE204610BD2DE9F041AD
:101C100006460D461746002409E0E00025FA00F0CC
:101C2000C1B2301980B200F006F8641CE4B2BC42C4
:101C3000F3D3BDE8F08170B504460D4603F042FED3
:101C4000200AA02101EB4000C0B203F00BFE03F01C
:101C500073FEE0B203F006FE03F06EFE284603F0CA
:101C600001FE03F069FE03F049FEBDE870400A2062
:101C700013F0FCBE30B587B001214FF404700BF0B7
:101C800011F84FF400400AF0D9FF3F20ADF80400EE
:101C900000248DF8074001A9164801F04BFC164DB1
:101CA0002846FFF7BDFE02948DF80C408DF80D40DC
:101CB0004FF460210491059401218DF8181002A9B8
:101CC0002846FFF7F7FE01212846FFF79DFE28462C
:101CD000FFF74EFF2846FFF7E6FE0028FAD1284618
:101CE000FFF757FF2846FFF7CDFE0028FAD107B0CF
:101CF00030BD0000001001400024014038B5012132
:101D000010200AF0CFFF2020ADF8000010208DF841
:101D1000030003208DF80200044C6946204601F0C0
:101D200009FC2021204601F044FD38BD001001408F
:101D300010B517F01FF800220A4B16F0EFFA0A4A06
:101D40000A4B13F0C3FF0022094B16F037FE0022A6
:101D5000084B16F0FFFCBDE810400022064B16F0C1
:101D6000F9BC0000D0BCF8406C45D9CC955BC83FAD
:101D70000000F03F40A5E5400000594010B50021AB
:101D8000024813F00DFF0249486210BDECDF010864
:101D9000100100208CB0DFF88080DFF880A0DFF831
:101DA00080B0DFF8809012F0B9FCD8F81C00FFF783
:101DB000BFFF16F0C5F9514617F070F8C8F82000BB
:101DC00016F0D8FF04460D465946D8F8180017F00B
:101DD00065F816F0CFFF06460F461349D8F81C00E9
:101DE00017F05CF816F0C6FF02460B460F4904A830
:101DF000CDE90067CDE90245FEF760FB04A8FEF7D8
:101E0000E4FC0146D9F8142004A890474FF47A70F6
:101E100013F02CFEC7E70000100100200000C842AC
:101E20000000204164E3010800007A4478060208BB
:101E300010B500F051F8AA200AF0B8F9154C20802E
:101E4000AC200AF0B3F96080AE200AF0AFF9A080B0
:101E5000B0200AF0ABF9E080B2200AF0A7F92081A7
:101E6000B4200AF0A3F96081B6200AF09FF9A0819E
:101E7000B8200AF09BF9E081BA200AF097F9208295
:101E8000BC200AF093F96082BE200AF08FF9A0828C
:101E900010BD00001001002070B50C4C002525601D
:101EA0000B48016821F470210160016841F4403160
:101EB000016008480560022012F036FF0120206012
:101EC000022012F031FF256070BD00008401224223
:101ED000000801409001214238B5012114200AF088
:101EE000E1FE1024ADF800408DF8034003258DF885
:101EF000025069460A4801F01DFB0220ADF80000BF
:101F00008DF803408DF802506946064801F012FB37
:101F10000549012008600549C1F8900138BD00005D
:101F200000080140001001408401224200002142CB
:101F300070B50C4C002525600B48016821F4702118
:101F40000160016841F440310160084801260660E3
:101F5000022012F0E9FE2660022012F0E5FE256064
:101F600070BD00008401224200080140900121421E
:101F70002DE9F047824600241748016821F47021BA
:101F80000160016841F4002101600025134EDFF873
:101F9000509000274FF00108C6F88471022012F01B
:101FA000C3FEC6F884816006040ED9F8100108B19A
:101FB000641CE4B2012012F0B7FE6D1CEDB2082DD6
:101FC000EAD3BAF1000F04D0FFF766FF2046BDE860
:101FD000F087FFF7ADFFF9E700080140000022425B
:101FE000000021422DE9F04705461548016821F41B
:101FF00070210160016841F440310160114E4FF0E1
:102000000008C6F884810024DFF83C900127E80925
:10201000C9F890016806050E022012F085FEC6F888
:102020008471022012F080FEC6F88481022012F032
:102030007BFE641CE4B2082CE9D3BDE8F087000005
:1020400000080140000022420000214270B50C4807
:10205000016821F470210160016841F440310160A0
:10206000084D01202860084E3060042012F05CFE0C
:1020700000242C60042012F057FE346070BD000074
:1020800000080140900121428401224270B50C48B1
:10209000016821F470210160016841F44031016060
:1020A000084D00202860084C2060042012F03CFEFF
:1020B000012028602060BDE87040042012F034BE8A
:1020C0000008014084012242900121422DE9F041A3
:1020D00000241348016821F470210160016841F473
:1020E000002101600F4D0127C5F89071012012F009
:1020F0001BFE0D4EC6F88471012012F015FE08E09B
:10210000641CE4B2FA2C04D9FFF7C0FF0120BDE83B
:10211000F081D5F810010028F2D1C6F88401F6E765
:1021200000080140000021420000224210B512F0D8
:102130009FFB15F0BDFE0CF047FC0CF083FC0CF08F
:1021400017FD0CF06BFD13F0B1F8FFF7D7FD04F0AD
:1021500059F813F071FC0248806BBDE8104000474D
:102160005800002010B50CF0EDFB0CF08FFD13F0C3
:10217000CBF804F06BFA0248806BBDE810400047D2
:102180000000002070B50546094C002220212046A1
:1021900001F011FB284613F069FC012220212046A2
:1021A00001F009FB2846BDE8704013F05FBC000059
:1021B00000100140FEE700002DE9F0412B48417876
:1021C0002B48022910D020210160294808300468DA
:1021D000061F3568254F04F0040005F480610843AC
:1021E000A7F1080718D01FE00168CB061F49A1F12D
:1021F00004010A6807D510210160002AE5D00621F4
:1022000001209047E1E700688007DED0002ADCD09B
:10221000022101209047D8E7306840F480603060A8
:10222000396809B10320884704F0020005F4007101
:10223000084307D1306840F400703060396809B154
:102240000120884704F0010005F4807108430BD198
:10225000C4F307405F2807D25F20B0EB146F03D1AF
:10226000306840F480703060BDE8F081800200206A
:102270001064004030B418480168002929D017487C
:102280000068164B1B1F1A68144D0424143D2C6063
:10229000440708D5540506D5186820F480601860F6
:1022A00030BC04200847840708D5940506D5186873
:1022B00020F40070186030BC03200847C00708D025
:1022C000D00506D5186820F48070186030BC022054
:1022D000084730BC704700007802002018640040B6
:1022E0000A2012F021BD000070B50A4C00252560BF
:1022F0000948016821F070410160016841F04051D6
:1023000001606560FFF7ECFF01202060FFF7E8FF48
:10231000256070BD98812142000C014038B5012133
:1023200008200AF0BFFC4020ADF8000010208DF816
:10233000030003208DF802000A4C6946204601F094
:10234000F9F84021204601F034FA8021ADF8001060
:102350006946204601F0EEF88021204601F029FA76
:1023600038BD0000000C014070B50A4C0025256006
:102370000948016821F070410160016841F0405155
:10238000016001266660FFF7ABFF2660FFF7A8FF3C
:10239000256070BD98812142000C01402DE9F04775
:1023A000814600241548016821F0704101600168F0
:1023B00041F0004101600025114E00274FF0010857
:1023C000C6F898711E2012F0AFFCC6F8988160061E
:1023D000040ED6F81C0108B1641CE4B26D1CEDB209
:1023E000082DEDD3B9F1000F04D0FFF77DFF204693
:1023F000BDE8F087FFF7B8FFF9E70000000C0140E7
:10240000008021422DE9F04105461148016821F084
:1024100070410160016841F0405101600D4E4FF084
:102420000008C6F8988100240127E809C6F89C0135
:102430006806050EC6F89871FFF752FFC6F8988136
:10244000FFF74EFF641CE4B2082CEED3BDE8F08128
:10245000000C01400080214270B50A48016821F05B
:1024600070410160016841F040510160064C01205B
:1024700060602060FFF734FF00256560FFF730FFE4
:10248000256070BD000C01409881214270B50B4859
:10249000016821F070410160016841F04051016024
:1024A000074C01252560FFF71BFF00206060FFF748
:1024B00017FF6560BDE87040FFF712BF000C0140D8
:1024C0009881214270B500241248016821F07041C2
:1024D0000160016841F0004101600F4D0126C5F81F
:1024E0009C61012012F020FCC5F89861012012F0D7
:1024F0001BFC07E0641CE4B2FA2C03D9FFF7C6FF0B
:10250000012070BDD5F81C010028F3D1C5F8980151
:1025100070BD0000000C01400080214270B50546EE
:102520000C4628460AF0BCFC20EA04012846BDE817
:1025300070400EF0C7BC000008B5012110200AF061
:10254000B1FB4FF40070ADF8000003208DF80200DD
:1025500010208DF803006946014800F0EBFF08BD2C
:102560000010014010B50021074813F019FB07497E
:10257000C8600548064A0121083813F045FBBDE84C
:102580001040022113F056BB78E201080C02002033
:102590009525000810B50C4C0120206013F066FA58
:1025A00000202060012013F061FA0848017800291A
:1025B00004D0417819B10189491C018110BD0189FC
:1025C000491E018110BD0000BC0123420C02002005
:1025D00088B020216846FEF7FEF9DFF8E89048460B
:1025E0000AF0E5FE384D288121276E1D01244FF0A9
:1025F0000008AC70002003F027FB032804D0042857
:102600000CD0052815D039E034702889B0FBF7F0DC
:102610007070AC705020FFF7B5FD2FE002203070D5
:102620002889B0FBF7F07070AC705020FFF7AAFD5E
:1026300024E0032030702889B0FBF7F07070AC7094
:1026400021490122083148460AF0B4FE202168469B
:10265000FEF7C1F92A891DA16846FDF72FFF0A2060
:1026600013F004FA6846FEF7B0F801461B484269C9
:1026700068469047AC705020FFF784FDE878012849
:1026800008D12889B0FBF7F0707085F803805020DE
:10269000FFF778FD3078012808D002280BD00328F6
:1026A000A7D185F8008012F0C7FAA2E76C702C70F1
:1026B00012F094FA9DE785F801802C7012F064FA0C
:1026C00097E70000000104080C020020C0DBBCC634
:1026D000C2F6B3E5A3BA2564200D0A0064E301083D
:1026E00010B5FFF70BFBBDE8104003F0A7B90000E1
:1026F0002DE9F35F06460025DFF808914FF0010A47
:10270000C9F8ACA1AB4600240AF044FB019838B3E9
:1027100001283BD002284FD0002704EBC508C7F1A1
:10272000070006EB001010F808000AF027FD7F1CD8
:10273000FFB2082FF3D309F063FF04EBC500401C80
:10274000C0B20AF030FB142012F0EEFA641CE4B2BE
:10275000082CD9D36D1CEDB2022DD4D3BDE8FC9F5B
:10276000C9F884A1C9F89CB1002704EBC508C7F1DA
:10277000070006EB001010F808000AF0FFFC7F1CB1
:10278000FFB2082FF3D309F03BFFD6E7C9F884B1B5
:10279000C9F89CA1002704EBC508C7F1070006EBA8
:1027A000001010F808000AF0C7FC7F1CFFB2082FC9
:1027B000F3D309F015FFC0E7C9F884A1C9F89CA1BB
:1027C000002704EBC508C7F1070006EB001010F85E
:1027D00008000AF0D3FC7F1CFFB2082FF3D30027B8
:1027E000C7F1070006EB001010F808000AF0A4FC7F
:1027F0007F1CFFB2082FF3D309F002FF09F0F0FEAF
:102800009BE70000008022422DE9F04706460025A4
:102810002648012181620022026081610024A81CF7
:1028200006EB0018281D06EB0019A81D06EB05177E
:1028300006EB001A0AF0AEFA0AEB440040780AF000
:102840007BFC1AF814000AF077FC09EB440040788E
:102850000AF072FC19F814000AF06EFC08EB440050
:1028600040780AF069FC18F814000AF065FC07EBE0
:10287000440040780AF060FC17F814000AF05CFC91
:1028800009F0AEFE04EBC500401CC0B20AF08BFAA2
:10289000142012F049FA641CE4B2082CCAD36D1C4F
:1028A000EDB2022DBAD3BDE8F08700008481224248
:1028B0002DE9F04706460025264801218162016086
:1028C000002181610024A81C06EB0018281D06EBDE
:1028D0000019A81D06EB051706EB001A0AF05AFAB4
:1028E0000AEB440040780AF049FC1AF814000AF098
:1028F00045FC09EB440040780AF040FC19F814004C
:102900000AF03CFC08EB440040780AF037FC18F869
:1029100014000AF033FC07EB440040780AF02EFC68
:1029200017F814000AF02AFC09F06AFE04EBC5004F
:10293000401CC0B20AF037FA142012F0F5F9641CFA
:10294000E4B2082CCAD36D1CEDB2022DBAD3BDE897
:10295000F0870000848122422DE9FE4F8246002547
:10296000384901208862086088610024A81C0AEBAD
:102970000017281D0AEB0018A81D0AEB05160AEB24
:1029800000190AF007FA09EB4400029040780AF0B7
:10299000F5FB19F814000AF0F1FB08EB4400019074
:1029A00040780AF0EBFB18F814000AF0E7FB07EB9D
:1029B000440B9BF801000AF0E1FB17F814000AF041
:1029C000DDFB06EB4400009040780AF0D7FB16F8D8
:1029D00014000AF0D3FB029840780AF0ADFB19F816
:1029E00014000AF0A9FB019840780AF0A5FB18F83A
:1029F00014000AF0A1FB9BF801000AF09DFB17F8F8
:102A000014000AF099FB009840780AF095FB16F83C
:102A100014000AF091FB09F0F3FD09F0E1FD04EB6D
:102A2000C500401CC0B20AF0BEF9142012F07CF9B7
:102A3000641CE4B2082CA4D36D1CEDB2022D94D317
:102A4000BDE8FE8F848122422DE9FF4F89B0074601
:102A5000DDF858801646202101A8FDF7BCFF0024B0
:102A6000DFF890A14FF0010B07EB44110AEB441083
:102A70001022FDF7D5FE0BEB440007EB00110AEB2B
:102A800000101022FDF7CCFE641CA4B2042CEBD382
:102A90000425B8F1000F0DD0B8F1010F0ED0B8F138
:102AA000020F0FD05348FFF703FF002E79D10DB06E
:102AB000BDE8F08F4F48FFF7FBFEF6E74D48FFF704
:102AC000A3FEF2E74B48FFF747FFEEE707EB4511A0
:102AD000102201A8FDF7A4FE0BEB450007EB001147
:102AE000102205A8FDF79CFE0026002000210AEB1D
:102AF000011212F810304FEA430C02EB40035C78ED
:102B00004CEAD41C02F810C062005A708C1C0AEB0C
:102B1000041414F8104042EAD4125A70491C89B2C5
:102B20000629E4D30AEB400111F8602F53004A78DC
:102B300043EAD2130B70530001AC14F8102043EA9F
:102B4000D2134B70530004F8103004EB400292F89B
:102B500001C043EADC1304F810304FEA4C03537011
:102B60000B7C5C004B7C44EAD3140C745C00137C3B
:102B700044EAD3144C7459001174537C41EAD311C4
:102B8000117459005174401C80B20828AED31A4801
:102B9000007800F00F01C1F11008C0F341190024C2
:102BA0000EE015E0B9F1000F17D0B9F1010F18D000
:102BB000B9F1020F19D00F48FFF77AFE641CA4B2D6
:102BC0004445EFD3761CB6B2102E8ED36D1CADB239
:102BD0000A988542FFF47AAF69E70648FFF768FE76
:102BE000ECE70448FFF710FEE8E70248FFF7B4FE01
:102BF000E4E700008A140020EC00002008B5012161
:102C000010200AF04FF84FF48050ADF80000482033
:102C10008DF8030003208DF802006946014800F09A
:102C200089FC08BD001001407047000010B5044940
:102C3000086800F00F004860FFF7F6FF10BD0000C5
:102C4000000002407047000010B504490868C0F356
:102C5000031002014A60FFF7F5FF10BD00000240BB
:102C60007047000010B504490868C0F30320020251
:102C70004A60FFF7F5FF10BD0000024070470000FA
:102C800010B504490868C0F3033002034A60FFF737
:102C9000F5FF10BD000002407047000010B5044968
:102CA0000868C0F3034002044A60FFF7F5FF10BD57
:102CB000000002407047000010B504490868C0F3E6
:102CC000035002054A60FFF7F5FF10BD0000024007
:102CD0007047000010B504490868C0F3036002069D
:102CE0004A60FFF7F5FF10BD00000240704700008A
:102CF00010B50548006800F00F000349091D086081
:102D0000FFF7F4FF10BD0000000402407047000010
:102D100010B505480068C0F30310034A0101121DF5
:102D20001160FFF7F3FF10BD000402407047000080
:102D300010B505480068C0F30320034A0102121DC4
:102D40001160FFF7F3FF10BD0004024070B50A4C9C
:102D50002068C0F30330251D002803D0010329603B
:102D600000F00CF82068C0F30340002803D00104F1
:102D7000296000F004F870BD0004024070477047FD
:102D800070B50024104D04E0641CE4B2012011F081
:102D9000CBFFD5F8380108B1C82CF5D3C82C01D326
:102DA000012070BD002404E0641CE4B2012011F095
:102DB000BBFFD5F8380108B9F02CF5D3F02C01D3BE
:102DC000012070BD002070BD0080224270B500F06F
:102DD0009BF800F087F8FFF7D3FFCC2000F0A2F8B3
:102DE000BE2000F09FF800F06DF8044600F06AF88D
:102DF000072805D9C043C0B2E143CCB2002500E0AA
:102E000001250002204400B215F03DFC00220E4BCB
:102E100015F0A0FC15F0DAFB00B20C4C4DB115F02A
:102E200032FC0022234615F079FABDE8704015F017
:102E300087B9404215F027FC0022234615F06EFAB0
:102E4000BDE8704015F07CB90000E43F000024406C
:102E500008B50121202009F025FF4FF48040ADF88E
:102E6000000003208DF8020014208DF8030069464D
:102E7000054800F05FFB05490120086000F032F8CA
:102E8000FFF77EFF08BD000000140140B881224218
:102E900010B50B4C00202060022011F045FF0120EE
:102EA00020600C2011F040FF54F8800C08B1012480
:102EB00000E00024322011F037FF204610BD000052
:102EC000B881224270B500250124FFF7E1FFC0015F
:102ED00040EA5500C5B2641CE4B2082CF5D9284676
:102EE00070BD000010B5074C0020206040F2EE20BD
:102EF00011F01AFF01202060BDE810400F2011F0F2
:102F000013BF0000B881224210B5FFF7EBFFFFF7B7
:102F100037FFCC2000F006F8BDE81040442000F058
:102F200001B800002DE9F04105460124104E0027AC
:102F3000A04605F001006D0850B1C6F8B871022036
:102F400011F0F2FEC6F8B8813C2011F0EDFE09E068
:102F5000C6F8B8713C2011F0E7FEC6F8B88102202F
:102F600011F0E2FE641CE4B2082CE2D9BDE8F08165
:102F7000008022427047401E411CFCD17047000077
:102F80002DE9F74F84B0044617462046FDF71DFC97
:102F900000F0FF08DFF8D8B0DFF8D890B8F1090FDB
:102FA0001CD20026DA4614E014F8010B10220AEBBA
:102FB000001109EB0610FDF733FC002505E02D4854
:102FC0000599FFF795FB6D1CEDB2BD42F7D3761C5A
:102FD000F6B24645E8D307B0BDE8F08F002644E0DE
:102FE00014F8011B10220BEB01116846FDF718FCC9
:102FF000002500200021421C09EB021C09EB0013F4
:10300000585C400058541CF801A040EADA105854AB
:10301000491CC9B21029F3D3D0B20728EAD3002043
:10302000EC4609EB000212F8701F4B001CF8001070
:1030300043EAD113137049000CF80010401CC0B2D1
:103040001028EED34FF0000A07E00A480599FFF771
:103050004FFB0AF1010A0AF0FF0ABA45F5D36D1CCD
:10306000EDB2082DC5D3761CF6B24645B8D3B2E70B
:10307000CCD701088A1400202DE9FC4F074688466A
:10308000002415460320A0EB42064BE0A8EB050008
:1030900081B207EB040A01901FFA8AF003F090FC5A
:1030A000A8EB040081B207EB050900901FFA89F034
:1030B00003F086FC08EB040B1FFA8BF11FFA89F072
:1030C00003F07EFC08EB05091FFA89F11FFA8AF06C
:1030D00003F076FC1FFA89F1A7EB04091FFA89F0C7
:1030E00003F06EFCA7EB050A1FFA8BF11FFA8AF0BA
:1030F00003F066FC019881B21FFA89F003F060FCCE
:10310000009881B21FFA8AF003F05AFC641C002E6A
:1031100003DA06EB8406B61D04E0601B06EB8006AE
:103120000A366D1EAC42B1DDBDE8FC8F10B54FF420
:103130008054204600F022F8002809D009F006FC4F
:10314000204600F007F82046BDE8104000F008B81F
:1031500010BD0000014908607047000014040140E0
:1031600001490860704700001404014002490A68E0
:1031700002430A607047000010040140014600202D
:10318000054A12680A40044B14331B680B4202D0F4
:10319000002A00D0012070470004014030B51B4ACE
:1031A00083790168002B2AD013688B431360111DAB
:1031B0000B680468A3430B60017911440B68046831
:1031C00023430B60114C0834216803689943216044
:1031D000231D19680568A94319604179102905D094
:1031E00011440A68006802430A6030BD2168026821
:1031F00011432160196800680143196030BD0079EE
:10320000104402688A43026030BD0000000401409F
:1032100070B505464FF43026304600F059F80428C2
:1032200011D1094C206940F00200206165612069DC
:1032300040F040002061304600F04AF8216941F634
:10324000FD721140216170BD002002400420084938
:10325000CA68D20701D001207047CA68520701D559
:1032600002207047C968C906FBD5032070470000DB
:10327000002002400248016941F08001016170476D
:1032800000200240F0B506460D464FF40057384680
:1032900000F01EF804280CD1064C206940F0010013
:1032A00020613580384600F013F82169BA1E1140BC
:1032B0002161F0BD002002400348024941600349FA
:1032C000416070472301674500200240AB89EFCD84
:1032D00000B50346FFF7BAFF02E0FFF7B7FF5B1E3A
:1032E000012801D1002BF8D1002B00D1052000BD11
:1032F00070B506460D46042209490A48FDF790FAC2
:10330000084C3020207110206071A571E01D2A4604
:103310003146FDF785FAED1DE8B20D21215470BD4F
:103320006C950108AC0C00208000A0F1C040002981
:1033300004D0016841F00101016070470168024A50
:103340001140016070470000FEFF0F0010B5D0E98A
:1033500001121143D0E903231A4311434269114377
:1033600082691143C2691143026A1143426A1143DF
:10337000826A1143C26A1143026B114302689200D0
:10338000A2F1C04211608168082907D10168890053
:10339000A1F1C0410A6842F040020A60416BD1E9E4
:1033A000002342EA03128B688C891B0243EA044320
:1033B0001A430B8A42EA03520B7D896942EA03628F
:1033C0000A430168491C8900A1F1C0410A60C16A31
:1033D000B1F5804F08D000686FF070418000A0F117
:1033E000C040C0F8041110BD816BD1E9002342EA4E
:1033F00003128B680C8A1B0243EA04531A430B7DA9
:10340000896942EA036200680A438000A0F1C04073
:10341000C0F8042110BD000018B500281ED01749BF
:103420008A69D20703D18A6942F001028A61C40421
:10343000C0F3421100F01F02114BC0F3032001FA48
:1034400002F100FA02F00AD5DA690092009A8A4382
:1034500000920099084300900098D86118BD5A68FE
:103460000092009A8A4300920099084300900098C5
:1034700020F0E06000900098586018BD00100240F5
:103480000000014010B58A07120F0F23934021F06E
:103490000304054921448C689C438C608B689040F0
:1034A00003438B6010BD000000000140194A1A4917
:1034B000904203D18869C0F380007047174A904258
:1034C00003D18869C0F3C0007047154A904203D108
:1034D0008869C0F300107047124A904203D188698E
:1034E000C0F340107047104A904203D18869C0F37E
:1034F000801070470D4A904203D18869C0F3C01014
:1035000070470B4A904203D18869C0F3002070478E
:10351000002070470008014000100240000C0140EC
:10352000001001400014014000180140001C01403F
:10353000002001402DE9F0410022CC7804F00F0377
:10354000E40601D58C7823430C784FF00F0714F074
:10355000FF0F4FF0010C1CD005680CFA02F40E8826
:103560002640A64211D1960007FA06F825EA08057A
:1035700003FA06F848EA0505CE78282E02D0482E30
:1035800002D002E0446100E00461521C082AE4D346
:1035900005600A88FF2A1ED94568002202F1080644
:1035A0000CFA06F40E882640A64210D1960007FABF
:1035B00006F825EA080503FA06F848EA0505CE7874
:1035C000282E00D14461CE78482E00D10461521CCF
:1035D000082AE3D34560BDE8F081F0B504460D4606
:1035E00016461F460F2D01D90020F0BD2046FFF7DB
:1035F0005DFF18B90121204600F050F877B901208D
:10360000A840022E02D0032E04D007E0E1688143D7
:10361000E16003E00226E1680143E160082D01D387
:10362000083D241D2168A8000F228240914321609B
:1036300047EA860181402068014321600120F0BDF6
:10364000F0B5154C002801DAE36900E06368C0F3C7
:103650000346420D120185B2C0F301579540032F76
:1036600007D0C2020CD50322B240934343F07062EC
:1036700009E023F07062636823F07063636002E026
:10368000AB4343F0706201B12A43002801DAE261E2
:10369000F0BD6260F0BD0000000001402DE9F04186
:1036A000374A384CDFF8E080384B394E394FDFF875
:1036B000E8C03A4D002931D0A84205D1906940F0C8
:1036C00004009061BDE8F081A04204D1906940F00F
:1036D00008009061F6E7404504D1906940F0100081
:1036E0009061EFE7984204D1906940F0200090612A
:1036F000E8E7B04204D1906940F040009061E1E712
:10370000B84204D1906940F080009061DAE76045EA
:10371000D8D1906940F480709061D3E7A84204D179
:10372000906920F004009061CCE7A04204D1906938
:1037300020F008009061C5E7404504D1906920F071
:1037400010009061BEE7984204D1906920F02000FB
:103750009061B7E7B04204D1906920F040009061D9
:10376000B0E7B84204D1906920F080009061A9E7E9
:103770006045A7D1906920F480709061A2E70000B5
:1037800000100240000C01400010014000140140F4
:1037900000180140001C01400020014000080140C9
:1037A0000246002092680A4200D001207047416121
:1037B000704701617047002A01D001617047416183
:1037C00070470000FEB50121142009F06BFA0125B5
:1037D000ADF8005010248DF8034003208DF802004E
:1037E0002F4E69463046FFF7A5FE01213046FFF710
:1037F000E0FFADF800402B4F69463846FFF79AFED0
:1038000010213846FFF7D5FFFEF788FD264E00242D
:1038100034600A2012F02AF935600A2012F026F9E5
:1038200028208DF8030069463846FFF783FE1021F3
:103830003846FFF7BCFF642012F018F9042201A9F2
:1038400048F2401000F036F88DF8084017A101A8A2
:10385000FDF7E8F808B10120FEBD02208DF8040054
:1038600048F24005012201A9284600F01FF9012273
:1038700001A9E81D00F01EF89DF80410602902D28D
:10388000012000F0EBF80A2012F0F0F88DF8044067
:10389000012201A9284600F009F90020FEBD000020
:1038A00000080140001001408001214239313437C5
:1038B000000000002DE9F04104460D461646FEF7D3
:1038C000CBFD2820FEF79EFDFEF7FCFD200AFEF74B
:1038D00099FDFEF7F7FDE0B2FEF794FDFEF7F2FD6D
:1038E000FEF7BAFD2920FEF78DFDFEF7EBFD002463
:1038F000771E09E0BC4201D0012000E00020FEF765
:103900004DFD2855641CE4B2B442F3D3BDE8F04148
:10391000FEF7BCBD2DE9F14783B00024A1464D4E12
:103920003079401CC0B230714FF00A08B0FBF8F19A
:1039300008FB110106F10C05002901D00A2869D203
:1039400048F24E1A012203A95046FFF7B3FF9DF833
:103950000C004FF0000701074ED000F00F010629C0
:103960004AD2FF2088400190C04340F0C00085F853
:1039700020004FF0010995F8200009FA04F10842EF
:103980002DD03548042202A930F81400FFF792FF29
:1039900095F83000C00712D09DF808009DF8091076
:1039A00000EB012005EB4401C0F5F070C8829DF8E2
:1039B0000A009DF80B2000EB022088810FE09DF8A3
:1039C00008009DF8091000EB012105EB44008181FE
:1039D0009DF80A109DF80B2001EB0221C182641CA6
:1039E000E4B2052CC7D34FF00109A989284611B9C3
:1039F000C08A00B9039737719DF80C00010609D5FC
:103A000000F00F00062805D20197012201A95046B7
:103A100000F04CF89DF80C0000F08F00802810D1C9
:103A200095F82000010604D520F0800085F82000DC
:103A300007E04FF6FF71A981E98200F0E00085F808
:103A400020003079F02801D986F8048004B0484677
:103A5000BDE8F0872402002054EF010808B50021DA
:103A600000228DF800208DF801000F489DF80020FD
:103A7000435C1A448DF80020491CC9B2B829F5D31B
:103A80009DF80000C043401C8DF80000B822064994
:103A900048F2470000F00AF80222694648F2FF00A7
:103AA00000F004F8002008BD92EE01082DE9F04175
:103AB00004460E4615460027FEF7CEFC2820FEF7EA
:103AC000A1FCFEF7FFFC200AFEF79CFCFEF7FAFCC7
:103AD000E0B2FEF797FCFEF7F5FC002409E0305D4C
:103AE000FEF790FCFEF7EEFC0746380003D1641C9D
:103AF000E4B2AC42F3D3FEF7C9FC3846BDE8F0812E
:103B00002DE9F04FDFF828B191B04FF0FF35DBF829
:103B10000030B3F922100691DE69B3F924A0F469EC
:103B2000A189814206D8E289824203D3471AD4F898
:103B3000008012E0D4E90181002970D00A88824215
:103B40006DD84D8885426AD3801A82B2486800EBEE
:103B50008200B0F90070B0F90250781C5FD0307E5E
:103B6000A27C014600FB02F9207CCDE90710B3F9E5
:103B70002A60304607F08AFBC0B20E90DBF80010D6
:103B800007FB0980A37C8A6B0127CDE90402CDE9FC
:103B90000273C869089AC17E807ECDE90001DDE923
:103BA0000603514607F030F8681C18D046F00200B2
:103BB00007F06CFBDBF80000A37C05FB0981826B3E
:103BC000CDE90273CDE90412C069089AC17E807EF6
:103BD000CDE90001DDE90603514607F015F8DBF8F1
:103BE00000005D46C069417E007E814214D9022EEC
:103BF00012D086F0040007F049FB2868C069027EF5
:103C0000C37E857E02FB03A1437E089A0698534437
:103C100002FB050207F05AF90E9807F037FBDBF8B4
:103C20000000627C418C1144418411B0BDE8F08FEA
:103C3000C402002004480068C069C06909B1027C60
:103C40000A60407C70470000C40200200220088007
:103C50007047C06982898A4202D8C2898A4210D2DA
:103C6000806880B102888A420DD843888B420AD38B
:103C7000406800EB8100A0EB8200B0F90000002852
:103C800001DB012070470020704700002DE9F04360
:103C90002F4C034687B020681946B0F92A80C069C6
:103CA000C06900F082F800284ED041680088181AD8
:103CB00001EBC0054046AE7807F0E8FA814620687F
:103CC0006A680123816BCDE90236CDE90421C1691F
:103CD000CB7E8A7ECDE900230B7EB0F924102A78B2
:103CE000B0F9220006F090FF2068C069477E067E8A
:103CF000B7421DD9C07E47434643B8F1020F17D0E3
:103D000000F02AFC804600F0F5FB00F06CFE216814
:103D10002A78CB69B1F92200B1F92410DB7E02FBCD
:103D20000302CB19314407F0D1F8404600F05BFEA6
:103D3000484607F0ABFA20686A78C369B0F92210E8
:103D40009B7E02FB0311418407B0BDE8F0830000B5
:103D5000C402002030B50E4C05460B4620682946AB
:103D6000C069C06900F021F8002810D041680088BF
:103D700024682A1A0120E46900EBC200085CA47ED2
:103D80006043002B03D011F832106143196030BD3D
:103D9000C402002001200880704700B5C06900F00F
:103DA00004F8002800D0012000BD06E002888A4205
:103DB00002D842888A4202D280680028F6D1704731
:103DC0002DE9F0410025154E154C18E02069C5EB92
:103DD000051700EBC7007022001D3168FCF7A7FD36
:103DE0002069002140F8371000EBC70000F10C01FA
:103DF0008161011D0A1DC0E90F126D1C4164A0689C
:103E00008542E3DB0FF0C6F82169C0EB001001EB3F
:103E1000C000001D3060BDE8F0810000C402002039
:103E20002404002070B50F490D480860084601F0D1
:103E30000BFC0C4C143CA068C0EB0010C5002846DD
:103E400000F06AF82A460021206101F005FC4FF0DD
:103E5000FF30206001F04AF9BDE870400FF09AB8D9
:103E6000693601083804002010B5040009D000F0BC
:103E7000F7FB20460DF086F8044601F017F92046BE
:103E800010BD002010BD38B5054600F0E9FB2846FE
:103E9000FFF7EAFF040009D000F096F82A46002157
:103EA000009001F0D9FB684600F0AAF801F0FEF896
:103EB000204638BD024A106021F003005060704770
:103EC000B8AA002010B5040016D000F0C9FB0B48BA
:103ED000406B10F8341059B1022909D2042101EBCA
:103EE000C401415848680DF005F820460FF0F0FB7A
:103EF000BDE8104001F0DAB810BD0000F8A90020BC
:103F0000002805D0034AD16B016001B14860D0633D
:103F100070470000F8A900202DE9F04104460FF099
:103F2000F3F92848E41C24F00305016C2D1DA94277
:103F300000D90D46C46B13E054F8042CAA420ED1EC
:103F400084B1216809B162684A60616809B1226878
:103F50000A60C26BA24231D12168C1632EE024689D
:103F6000002CE9D18046816BC0680F1857F8040C0B
:103F70003E1A306838B100200FF022FC57F8040CCC
:103F80003E1A3068D0B97068A84217DB3044441B31
:103F90003046241D0FF0FAFBD8F80C10491BC8F866
:103FA0000C10D8F814102944C8F814107068401B7D
:103FB00002D031460CF09EFF44F8045C2046BDE878
:103FC000F0810000F8A900200549CA69521CCA61A5
:103FD000496B01EBC0010A78521C0A7000F028B846
:103FE000F8A900200549102805D94A68B0EB520FFE
:103FF00002D3500800E0102088607047B8AA002063
:104000000A4902684B6B52F8082C03EBC202137882
:10401000022B03D3CB690BB15B1ECB611178491E18
:10402000117000210160084670470000F8A90020C7
:10403000002806D00349042202EBC000496B08584F
:1040400008307047F8A9002010B5C2B2CBB2D21A1E
:1040500000D5524293B25B43C0F30722C1F3072459
:10406000121B00D55242000C92B2A0EB114002FB91
:10407000023200B2002801DA404200B280B200FBF6
:10408000002010BD10B50021084600F0ADFA43F63F
:10409000FF725042BDE8104013460146AFF3008066
:1040A0002DE9FC411C4615460E46074600F0D8FA9D
:1040B000042007F0EBF880461248C068C16C006D20
:1040C0000F4406440D440444ADF80070ADF80450AC
:1040D000ADF80260ADF8064068460CF061FD07E0FF
:1040E00023462A463146384606F0F0FE0CF01AFD0B
:1040F0000028F5D1404607F0C9F800F0D7FFBDE829
:10410000FC810000B80200202DE9F0411C46164653
:104110000D460746022B02DB0020BDE8F0811C2083
:10412000FFF7FAFE0028F8D00DB105610AE0094A50
:1041300052F8241009B905E011460A68002AFBD19B
:104140000969016184618682002101604160C0E9E2
:104150000217E2E7DC02002070B51D46FFF7D4FF2E
:10416000040009D000F00EF8E068006820B90348A8
:10417000006800EB85008465204670BDC402002005
:10418000FFF7BEBE70B590B38269022A30DA1E4CCA
:1041900054F8221019B944F8220032E019464B684D
:1041A000002BFBD106E0CB68C5681B682D68AB42CD
:1041B00003DD09680029F6D11AE0C1B1CB68C668F1
:1041C0001B683668B3420CD1838A012B05D008E006
:1041D0001946DB681B68AB4203DB0B68002BF7D189
:1041E00029B14B6833B118604A68426004E0FFE7C8
:1041F000012070BD44F822004860884200D10021AF
:104200000160002070BD0000DC02002010B503E05A
:104210000468FFF7B7FF20460028F9D110BD000061
:104220000A4A816952F82130834202D1036842F878
:104230002130416809B102680A60016809B1426829
:104240004A6000210160416070470000DC020020EC
:1042500000207047022801DB00207047054A52F811
:10426000200004E0C26812688A42F6D00068002884
:10427000F8D17047DC020020022801DB00207047E3
:10428000054951F8200004E0C16809680029F6D00A
:1042900000680028F8D17047DC0200202DE9FC47B7
:1042A00006005FD000F0DCF900F062F93C4C81467A
:1042B0002068B0F9228000F069F9216807468A8CED
:1042C000D01B888441E000BF47F6FF71304601F003
:1042D000ABF882460146304601F07CF8216805467D
:1042E00091F82C0000F00300012841D002283BD0B7
:1042F00000204A8C101A4884ADF800006A1E104451
:10430000ADF80400888CADF80200A9F10101084461
:10431000ADF806006A465146304600F099FF216824
:10432000BDF8020088845146304600F081FE064404
:1043300030780A281ED00D281CD0BDF80000216856
:1043400028444884307818B1761C30780028BBD1D6
:104350002068818C39448184818D21F0030181851D
:1043600000F0A4FEBDE8FC8705EBD5704010C0E767
:104370002846BEE7206890F82C1001F003010129BF
:104380000BD0022909D0018C418431780A29D9D176
:10439000828C02EB09018184D4E7A0F82280F4E743
:1043A000C402002070B514460D46064600F058F9C8
:1043B00005480068458484843046FFF76FFFBDE8F8
:1043C000704000F073BE0000C40200202DE9F041EF
:1043D00007460A4815460E460068B0F92C0040F022
:1043E000020000F031FB04462A4631463846FFF70A
:1043F000D9FF2046BDE8F04100F026BBC4020020F2
:1044000070B5054600F02CF91B4C6069E0B904F169
:1044100024011A480860084601F016F9012000F04E
:104420009BFAC0B200F098FA154900231A4601F130
:104430001800FFF769FE606106F0B4FDC01DC008FA
:10444000E061FFF769FD20610E48E1684DB109B1F7
:1044500001250DE00168E160094900254C3101604A
:1044600006E021B1012501600020E06000E00025A8
:1044700000F01CFE284670BDF4020020E135010862
:10448000FCEF0108680400202DE9FC411C4615469C
:104490000E46074600F0E4F810480068C16C006D55
:1044A0000F4406440D440444ADF80070ADF80450C8
:1044B000ADF80260ADF8064068460CF071FB07E00D
:1044C00023462A463146384606F000FD0CF02AFB0A
:1044D0000028F5D100F0EAFDBDE8FC81C40200200F
:1044E000034951F82000C1688A6A0821104700007A
:1044F000DC02002010B500F0B3F806F017FD06F05E
:1045000093FD044600F0D2FD204610BD10B50446D0
:1045100000F0A6F8054800210068C06942682046FE
:104520009047044600F0C2FD204610BDC4020020A2
:1045300070B50C46054600F093F806482146006821
:10454000C069426828469047044600F0AFFD204607
:1045500070BD0000C402002010B500F081F806F024
:10456000EDFC06F061FD044600F0A0FD204610BD04
:1045700010B500F075F804480068C069447E00F08A
:1045800095FD204610BD0000C402002010B5002497
:1045900000F066F80B48006890F82C1001F00C0150
:1045A000042904D0082906D00C2907D103E0C069EA
:1045B000047E641E02E0C069007E440800F076FDBF
:1045C000204610BDC4020020024951F820000069B5
:1045D00000687047DC020020024951F820000069A1
:1045E00040687047DC02002070B50D46044600F0BC
:1045F00037F820460EF0ECFC044628460EF0F0FC9E
:10460000044300F053FD204670BD000070B500F07B
:1046100003FE114D2E20287000F067FD0F480EF0AC
:1046200023FE06F025FD064606F0C0FC10B106F09C
:10463000C9FC38B906F0CFFC044606F0C0FC2146A0
:1046400006F01EFE0021084600F0DEF90CF0D8F856
:1046500001206870304670BDB8020020C4AA002056
:1046600070B5184CE06820B100F03DFD61688842EB
:1046700004D000F03CFD00F036FD6060E068401CB6
:10468000E06001281CD10EF085FC054620688542BB
:1046900016D0002813DBFFF7DBFD01462068C0EBD6
:1046A0000012206900EBC2025167C5EB0511064AF2
:1046B00000EBC100011D1160406FFFF7A7FD2560F1
:1046C00070BD000024040020C402002038B504009E
:1046D0001CD0FFF7C5FF0E480068006EA04201D154
:1046E00000F010F92046FFF76FFC0090406908B118
:1046F00000F0C6FC00980068FFF742FD6846FFF72F
:104700007FFC2046FFF7DEFB00F0D0FC38BD000048
:10471000C402002038B505004FF0000411D0FFF7A7
:104720009FFF2846FFF750FC0090006800698068F2
:10473000804706F047FF04466846FFF761FC00F03B
:10474000B5FC204638BD38B504000ED0FFF788FF11
:104750002046FFF739FC00F1180400906846FFF787
:104760004FFC00F0A3FC204638BD002038BD0000FF
:1047700038B504460025FFF773FF1CB908480068E8
:10478000046E44B12046FFF71FFC0090B0F90450BE
:104790006846FFF735FC00F089FC284638BD00006C
:1047A000C402002038B504460025FFF759FF1CB9A4
:1047B00008480068046E44B12046FFF705FC0090ED
:1047C000B0F908506846FFF71BFC00F06FFC284664
:1047D00038BD0000C402002038B504460025FFF7AC
:1047E0003FFF1CB908480068046E44B12046FFF73B
:1047F000EBFB0090B0F906506846FFF701FC00F0B3
:1048000055FC284638BD0000C4020020014908605C
:10481000704700007C040020F8B516460F460500DE
:1048200012D0FFF7D1FB009044696846FFF7E8FB20
:104830002846FFF76FFF0346082800DD2CB13246FB
:10484000394628460FF000FAF8BD32463946284668
:104850000FF09AFBF8BD10B5002821D009B30AB3B8
:10486000B1F90040B2F900309C4200DA23460380DF
:10487000B1F90240B2F902309C4200DA234643808B
:10488000B1F90440B2F904309C4200DD2346838034
:10489000B1F90610B2F90620914200DC1146C18040
:1048A00010BD11460A6802604968416010BD0028C9
:1048B0000BD003880B44038083881944818041888E
:1048C00011444180C1881144C1807047B0F9022071
:1048D000B1F906309A4213DCB1F90220B0F9063082
:1048E0009A420DDCB0F90020B1F904309A4207DC9D
:1048F000B1F90010B0F90400814201DC01207047D9
:104900000020704710B5FFF7ABFE06F04FFC06F035
:1049100005FD0BF037FEBDE8104000F0C7BB0000FE
:1049200070B50B4D04462868467CFFF799FE022CB3
:1049300009D22046FFF7A0FC28B128684474FFF78D
:10494000E1FF0448046000F0B1FB304670BD000098
:10495000C4020020740300202DE9F041194E050027
:1049600019493068194F407C51F820108C6917F8AC
:10497000048003D00EF02CFC60B11FE00521FFF78E
:1049800069FC06001AD00020FFF740FF3046FFF711
:1049900047FC12E030680521407CFFF75BFC60B902
:1049A000AFF24B00FFF732FF30680849407C14310A
:1049B00051F8200008B1FFF7E5FB3D554046BDE842
:1049C000F0810000C4020020DC0200200804002066
:1049D00010B50446FFF744FE204606F007FCBDE88C
:1049E000104000F063BB10B50446FFF739FE2046C7
:1049F00006F034FCBDE8104000F058BB0149886067
:104A000070470000B802002070B50C460546FFF75D
:104A100027FE0948224605800848048008480068A7
:104A2000417C084850F82100C1680B6A2946984724
:104A3000BDE8704000F03ABBF0020020F202002016
:104A4000C4020020DC02002070B50446FFF708FE17
:104A500004480068B0F92C50848500F027FB2846F4
:104A600070BD0000C402002002480068002800D089
:104A7000004770475C04002002498A6802B98860D8
:104A8000FFF7F2BFF80300202DE9F04F97B01D4665
:104A90001646894604464FF00008FE49DDF888B006
:104AA000DDF880A0C1F80080CDF84080022828D031
:104AB0006A4603AB0BAF0DF1200C032C7EDB55D106
:104AC0004FEA0C0755F8280014F0E6FA4DF82800D4
:104AD0005AF8280014F0E0FA03A941F8280059F820
:104AE000280014F0D9FA0BA941F8280056F828003C
:104AF00014F0D2FA47F8280008F10108A045E1DBDC
:104B0000E6E068681F68C01B14F0C6FA0446D9E9DD
:104B10000001081A14F0C0FA214614F0BFF9DE4C67
:104B20000546C4E90008384614F0B6FA294614F0E0
:104B3000DFFA80F00040C4E90208DAE90071C81B1E
:104B400014F0AAFA0546D6E90010401A14F0A4FAA7
:104B5000294614F0A3F905462061384614F09CFA62
:104B6000294614F0C5FA80F00040AFE1002041462C
:104B70004CF8201047F8201043F8201042F820107D
:104B8000401C0328F4DB002760E000BF55F8270035
:104B900014F082FA1190029914F018F902905AF860
:104BA000270014F079FA8046059914F00FF9059062
:104BB00059F8270014F070FA139000E0BAE10D994B
:104BC00014F004F90D9056F8270014F065FA1290CD
:104BD0000A9914F0FBF80A901198014614F088FA2B
:104BE000009914F0F3F800904146119814F080FAFF
:104BF000019914F0EBF8019003904146404614F0FF
:104C000077FA049914F0E2F804901399119814F0CB
:104C10006FFA0B9914F0DAF80B904046139914F0E0
:104C200067FA0C9914F0D2F80C90DDE9110114F038
:104C30005FFA089914F0CAF808904046129914F0E7
:104C400057FA099914F0C2F87F1C0990A7429DDB1E
:104C50000299009814F022F900900599019814F037
:104C60001DF90190DDE9021014F018F90390DDE957
:104C7000040114F013F9049002990B9814F00EF942
:104C80000B9005990C9814F009F90C90029908986A
:104C900014F004F908900599099814F0FFF80990A8
:104CA000204614F0F9F904462146029814F0F6F86B
:104CB00002902146059814F0F1F8059021460D98D0
:104CC00014F0ECF80D9021460A9814F0E7F80A90D9
:104CD0000599039814F0E2FA0646DDE9010134462D
:104CE00014F0DCFA214614F003FA0446DDE904016D
:104CF00014F0D4FA05460299009814F0CFFA294628
:104D000014F0F6F9214614F0C9FA054610F0FF4FE9
:104D10007ED0DDE90C01B046444614F0BFFA81466E
:104D2000214614F0E5F90746DDE9040114F0B6FA6E
:104D3000824654460D990B9814F0B0FA0646214667
:104D400014F0D6F9394614F0A9FA294614F0A6F859
:104D5000514C2060DDE9010114F0A0FA01461490E5
:104D6000304614F0C5F906460299009814F096FAF8
:104D700001461590484614F0BBF9314614F08EFAFE
:104D8000294614F08BF860600C99009814F0B0F983
:104D900006460B99019814F0ABF9314614F07EFAEF
:104DA000059914F0A5F907460B99029814F0A0F99B
:104DB00006460D99009814F09BF9314614F06EFAEE
:104DC000049914F095F906460D99019814F090F99C
:104DD00081460C99029814F08BF9494614F05EFA5A
:104DE000039914F085F9314613F0F0FF394613F0BA
:104DF000EDFF294614F052F8A060DDE909014646AE
:104E000014F04CFA8046314614F072F9064600E080
:104E100061E0D1460A99089814F040FA07464946DD
:104E200014F066F9314614F039FA294614F036F8D0
:104E3000E0603846149914F05BF90646404615992F
:104E400014F056F9314614F029FA294614F026F8E0
:104E500020610999009814F04BF9064608990198C9
:104E600014F046F9314614F019FA059914F040F996
:104E700007460899029814F03BF906460A990098EB
:104E800014F036F9314614F009FA049914F030F9A7
:104E9000064603E040040020D8AB00200A990198A0
:104EA00014F026F980460999029814F021F9414638
:104EB00014F0F4F9039914F01BF9314613F086FF4E
:104EC000394613F083FF294613F0E8FF1A49606161
:104ED0000120086001E0109860B3174C2198002170
:104EE000C4E9010B08460EF0A3FA0021E060084671
:104EF0000EF0C8FA20612198ABF10101401E0EF0BE
:104F000097FA60612198ABF10101401E0EF0BAFAE8
:104F1000A0616269E168914201DDE260616121693D
:104F2000814201DDA1612061206818B1002017B025
:104F3000BDE8F08F0120FAE7400400202DE9FE4390
:104F4000DFF8B89005000A9ED9F814C04FF00000B1
:104F5000CCF3410709F1300439D0012D02D00120F2
:104F6000BDE8FE83DFF8948008F12008C8E900124C
:104F7000052131EA0C013ED0012F3CD0C4E90036B6
:104F8000012199F80030A9404A46194201D0002376
:104F9000137013781943C9B289F800100329DFD1BF
:104FA000174E3068407C06F007F805463068407CB4
:104FB00006F00EF8114B0094CDE901502833A3F10F
:104FC0000802A2F108010220FFF75EFDC8E7DFF842
:104FD0002C80032F08F11808C8E9001208F110010D
:104FE00006D00CF00502012A02D0C1E90036C7E75D
:104FF000C1E90063C4E7C4E90063C1E720030020FE
:10500000C40200202DE9F041084E044605683068CE
:10501000016828468847074630684168284688471F
:10502000284420603846BDE8F0810000C802002016
:105030002DE9F0410C4606460025064F05E038688C
:1050400041683046884706440544641EF7D2284626
:10505000BDE8F081C80200202DE9F0411E46069C03
:105060001746884605463A46A8687F1C3346D0F85E
:1050700004C041462846E047641EF4D1BDE8F081F3
:1050800038B50546FFF7ECFA2846FEF79DFF00907D
:105090008189491E0CB284816846FEF7B1FF14B9BC
:1050A0002846FEF70FFF00F001F838BD0348C1683D
:1050B000491EC16001D100F01BB8704724040020D4
:1050C00010B54FF440510548FEF7F4FE8020FEF77E
:1050D00089FFBDE810400248FFF790BCDC190020B2
:1050E00060F90108704701207047704770477047AA
:1050F0007047000010B5082A0EDC0346012A18D0BC
:10510000022A56D0042A76D010F8042B03F8012B7B
:10511000491EF9D1012010BD102A08DC4FEA000217
:1051200030F8043B22F8023B491EF9D1F2E7002097
:1051300010BD10F8042BD207120E491E34D010F8FF
:10514000044B491E04F0010442EA84122CD010F8EA
:10515000044B491E04F0010442EA441224D010F822
:10516000044B491E04F0010442EA04121CD010F85A
:10517000044B491E04F0010442EAC40214D010F8A2
:10518000044B491E04F0010442EA84020CD010F8DA
:10519000044B491E04F0010442EA440204D010F812
:1051A000044B04F00104224303F8012B0029C0D171
:1051B000B0E710F8042B9207120E491E15D010F814
:1051C000044B491E04F0030442EA04120DD010F807
:1051D000044B491E04F0030442EA840205D010F88F
:1051E000044B04F003042243491E03F8012B002959
:1051F000DFD18FE7FFE710F8042B1207120E491ECC
:1052000005D010F8044B04F00F042243491E03F8A4
:10521000012B0029EFD17DE70B4810B581690029EA
:1052200010D101218161FFF74BFFFEF7FBFD06F076
:1052300087F8054905481C310860BDE8104008465C
:1052400000F002BA10BD0000B8020020B535010818
:105250007CB5064628480D46006868B100200BF072
:105260009FFC06E06A46294630460CF03DF80BF0FC
:1052700059FC0028F6D17CBD106800901F4C506886
:1052800001902268BDF8000032F84C1F0844ADF8C8
:105290000000BDF8020091880844ADF80200BDF896
:1052A000040011880844ADF80400BDF80600918898
:1052B0000844ADF8060068460BF072FC0EE000BF33
:1052C0002068BDF800106A464184BDF80210818450
:1052D000294630460CF008F80BF024FC0028EFD1EA
:1052E000206830F8221F428D891A01804188C28DC2
:1052F000891A41807CBD0000EC020020C40200201D
:10530000F0B500EB8103082A0ADC01254C1E092AAE
:1053100010D2DFE802F00F10263E3E5555555500DD
:10532000102A07DC00EB4100491E30F8022D43F83B
:10533000042DF9D1F0BD04F00702C2F1070200EB21
:10534000E40005FA02F604783440D440521C43F8D5
:10535000044DA0EBE20022F007042241491EF0D1E7
:10536000F0BD04F0030200EBA400C2F10302032429
:105370000578560004FA06F73D40F540521C43F804
:10538000045DA0EBA20022F003052A41491EEFD1E3
:10539000F0BD8D4300EB6400C5F101020F240578D8
:1053A000960004FA06F73D40F540521C43F8045DB0
:1053B000A0EB620022F001052A41491EEFD1F0BDA9
:1053C00000EB0100491E10F8012D43F8042DF9D11E
:1053D000F0BD000073B5124A01A900981268904709
:1053E00000240090C8B10F4900250968C9694969BE
:1053F00059B10A684AB1019990477CBD6846FFF7E8
:1054000001FE0546FFF782F804440198401E019012
:10541000F4D5284600F024F8044420467CBD000062
:10542000F4030020C402002073B50D460098002448
:1054300090B10A490968C969496959B14A684AB1CC
:10544000294690477CBD6846FFF7DCFD20B10A285D
:1054500002D0641CAC42F6DB20467CBDC4020020B6
:1054600038B5002469460094FFF762F8009981423C
:1054700000DD0C1A204638BDB0F90030B1F900202B
:10548000934200DA0280B0F90230B1F9022093426F
:1054900000DA4280B0F90430B1F90420934200DD13
:1054A0008280B0F90620B1F906108A4200DDC18081
:1054B000704770B5B1F90040B2F900309C4200DD90
:1054C00023460380B1F90250B2F90240A54200DD43
:1054D0002C464480B1F90460B2F90450AE4200DABF
:1054E00035468580B1F90610B2F90620914200DBFD
:1054F0001146C1809D4201DBA14201DA002070BD4E
:10550000012070BD014602480068407C00F002B8EE
:10551000C40200202DE9F8430126894604460228EA
:105520005DDA304F7A6802B190472E4D5FEA09008C
:1055300005F1100532D0012803D0B9F1020F4ED188
:1055400018E055F8240088B92046FEF795FE009033
:1055500018B3C0680D21426A6846904702003ED0E9
:1055600049460098904755F824000026401C45F80D
:10557000240034E02046FEF77FFE009068B1C0684A
:105580000D21426A68469047040028D0386800B16F
:10559000804749460098A047002620E055F824009F
:1055A000A846012812D12046FEF766FE009068B199
:1055B000C0680D21426A68469047050006D03868E9
:1055C00000B1804749460098A847002658F82410A3
:1055D00009B1012200E00022891A48F8241030465F
:1055E000BDE8F883DC03002070B5FF23B3EB116F37
:1055F00029D0C3B200F47F4500F47F04060E534364
:10560000554354435643C2F1FF00CAB202FB003275
:1056100001F47F4303FB005301F47F0505FB0044C5
:10562000090E01FB0065C2F307204FF47F4101EA38
:105630001322090201EA14214FF07F43104303EAC9
:1056400005430843184370BD02494A6942604861F6
:1056500070470000B802002010B502E000F8011BFE
:10566000521E0AB18307F9D1930818D001EB014407
:1056700002F0030204EB042406E010C01B1F10C05C
:1056800040F8084B40F8044C042BF6DA01E010C057
:105690005B1E002BFBD102E000F8011B521E002A0A
:1056A000FAD110BD10B5830702D520F8021B521E97
:1056B000530811D001EB0144042B09DB10C01B1F60
:1056C00010C0042B40F8084B40F8044CF6DA01E017
:1056D00010C05B1E002BFBD1D20700D0018010BD93
:1056E00010B50B4C0146072301222046FCF706FAB1
:1056F00001212046FCF741FA02212046FCF7CCF9B3
:105700000028F9D02046BDE81040FCF7C2B90000DF
:10571000002401402DE9F04107460E4600250024F3
:1057200008E03846FFF7DCFF0544052010F09EF93D
:10573000641CE4B2B442F4D3B5FBF6F080B2BDE829
:10574000F081FEE770B50B4C002525600A48016822
:1057500021F470410160016841F4405101606560CD
:1057600002200FF0E1FA0120206002200FF0DCFAA5
:10577000256070BDA8812142040C014038B501218B
:10578000082007F08FFA4FF44064ADF80040102075
:105790008DF8030003208DF80200074D6946284666
:1057A000FDF7C8FE21462846FEF703F8034801210D
:1057B0000160416038BD0000000C0140A881214219
:1057C00070B50B4C002525600A48016821F4704132
:1057D0000160016841F440510160012666600220C9
:1057E0000FF0A2FA266002200FF09EFA256070BD2D
:1057F000A8812142040C01402DE9F0478146002494
:105800001648016821F470410160016841F40041CB
:1058100001600025124E00274FF00108C6F8A8715C
:1058200002200FF081FAC6F8A8816006040ED6F8AF
:105830002C0108B1641CE4B201200FF075FA6D1C54
:10584000EDB2082DEAD3B9F1000F04D0FFF77AFFCB
:105850002046BDE8F087FFF7B3FFF9E7040C0140ED
:10586000008021422DE9F04105461448016821F4E9
:1058700070410160016841F440510160104E4FF0E9
:105880000008C6F8A88100240127E809C6F8AC0181
:105890006806050E02200FF047FAC6F8A87102202C
:1058A0000FF042FAC6F8A88102200FF03DFA641CFE
:1058B000E4B2082CE9D3BDE8F0810000040C0140FB
:1058C0000080214270B50B48016821F470410160ED
:1058D000016841F440510160074C01206060206084
:1058E00004200FF021FA0025656004200FF01CFA57
:1058F000256070BD040C0140A881214210B50C4800
:10590000016821F470410160016841F44051016077
:10591000084C00202060606004200FF005FA012090
:1059200020606060BDE8104004200FF0FDB9000069
:10593000040C0140A881214270B50024124801687E
:1059400021F470410160016841F4004101600F4D94
:105950000126C5F8AC6101200FF0E6F9C5F8A86191
:1059600001200FF0E1F907E0641CE4B2FA2C03D93E
:10597000FFF7C4FF012070BDD5F82C010028F3D13A
:10598000C5F8A80170BD0000040C01400080214250
:1059900038B50121082007F085F90320ADF8000093
:1059A00010218DF803108DF80200054C6946204641
:1059B000FDF7C0FD03212046FDF7FBFE38BD0000CA
:1059C000000C0140F8B501211C2007F06BF94FF4E1
:1059D0004350ADF8000048208DF8030003248DF8F3
:1059E0000240134F69463846FDF7A4FDBE15ADF8D9
:1059F000006010258DF803508DF802406946384646
:105A0000FDF798FDADF800608DF803508DF8024069
:105A100069460848FDF78EFD2002ADF800008DF8BC
:105A200003508DF8024069460348FDF783FDF8BD39
:105A30000010014000080140000C0140F8B50121B0
:105A4000602007F02FF90324ADF800408DF80240E4
:105A500028208DF80300154F69463846FDF76AFD8A
:105A6000A603ADF800608DF8024010258DF80350B4
:105A700069463846FDF75EFD48F20300ADF80000C8
:105A80008DF8024048208DF80300094F69463846DA
:105A9000FDF750FDADF800608DF802408DF8035021
:105AA00069463846FDF746FDF8BD00000018014084
:105AB00000140140F8B50121702007F0F3F8032429
:105AC000ADF8004048258DF803508DF80240694636
:105AD0000E48FDF72FFD8020ADF800008DF8035033
