:020000040800F2
:10000000B070002085030008BD470008E3330008F6
:10001000D1460008E91D00081D7700080000000017
:10002000000000000000000000000000BD02000809
:10003000192A0008000000003503000871030008B9
:100040009F0300089F0300089F0300089F03000808
:100050009F0300089F0300089F0300089F030008F8
:100060009F0300089F0300089F03000899280008C9
:10007000B9280008D9280008F9280008192900081B
:1000800039290008592900089F030008197500083C
:1000900031760008ED1D0008D91E00089F030008F6
:1000A0009F0300089F0300089F0300089F030008A8
:1000B0009F0300089F0300089F0300089F03000898
:1000C0009F0300089F0300089F0300089F03000888
:1000D0009F030008A15D0008396000089F03000825
:1000E0009F0300089F0300089F0300089F03000868
:1000F0009F0300089F0300089F0300089F03000858
:100100009F0300089F0300089F0300089F03000847
:100110009F0300089F0300089F0300089F03000837
:100120007929000899290008BD290008DD2900085F
:1001300000F002F800F06DF80AA090E8000C82448C
:100140008344AAF10107DA4501D100F062F8AFF269
:10015000090EBAE80F0013F0010F18BFFB1A43F0A5
:100160000103184738F2000058F200000A444FF02B
:10017000000C10F8013B13F0070408BF10F8014B06
:100180001D1108BF10F8015B641E05D010F8016B4B
:10019000641E01F8016BF9D113F0080F1EBF10F8AF
:1001A000014BAD1C0C1B09D16D1E58BF01F801CBD2
:1001B000FAD505E014F8016B01F8016B6D1EF9D555
:1001C0009142D6D37047000000230024002500266A
:1001D000103A28BF78C1FBD8520728BF30C148BFAA
:1001E0000B60704766290BF05286642900F0A281EB
:1001F000782900F0DB81002070471FB500F087FEF2
:100200000400002000210AF053FDE0601FBD10B57E
:1002100010BD00F07DFF1146FFF7EFFF0FB400F0B7
:100220000BF80FBC08F0ACFB00F088FA03B4FFF742
:10023000EEFF03BC00F066FF04B008F0C7FB044803
:10024000002108F051FC08F0D3FB00F077FA000021
:10025000CCF1000880F309887047EFF309807047FC
:10026000684680F3098804480078C00714BF02205C
:10027000032080F3148870478CF10008DFF818C061
:10028000EFF305831B0618BF6047EFF31483DB070A
:1002900008BF604700DF704775980008DFF818C096
:1002A000EFF305831B0618BF6047EFF31483DB07EA
:1002B00008BF604700DF7047599A0008EFF30980D4
:1002C000816911F8021CF1B990E80F10E047EFF3D3
:1002D000098C8CE80700144B93E8060091420FD07C
:1002E00039B12CE9F00FC1F828C00CB409F058FF5F
:1002F0000CBC1A60D2F828C0BCE8F00F8CF3098857
:100300006FF0020E704710B5084A1268914209D882
:10031000074C54F8214090E80F10A047EFF3098CE8
:100320008CE80F0010BD0000E4010020D418000884
:10033000D418000809F006FE0C4B93E80600914221
:1003400010D0EFF3098C2CE9F00FC1F828C00CB4E1
:1003500009F026FF0CBC1A60D2F828C0BCE8F00FE8
:100360008CF309886FF0020E70470000E401002052
:1003700009F0DEFFE0E7000008F04AFC09F0D8FFD2
:10038000DAE700000948804709480047FEE7FEE732
:10039000FEE7FEE7FEE7FEE7FEE7FEE7FEE7FEE735
:1003A00004480549054A064B70470000A957000854
:1003B00031010008B06A0020B0700020B06C00204D
:1003C000B06C0020004870474C6A002053EA020CD1
:1003D00000F069802DE9F04B4FF00006002B1FBFA5
:1003E000B3FA83F503FA05F424FA05F65E4012BF6A
:1003F0001643B2FA82F502FA05F4C5F120051EBFD4
:1004000022FA05FC44EA0C04203556EA044C4FEA73
:10041000144418BF641C4FF000084FF000099042CC
:1004200071EB030C39D3002919BFB1FA81F701FA36
:1004300007F6B0FA80F700FA07F6C7F120071EBFEB
:1004400020FA07FC46EA0C062037B6FBF4FCA7EBC3
:100450000507103F07F01F0BCBF120060CFA0BFB32
:100460002CFA06F644BFB3460026202FA4BF5E46F2
:100470004FF0000B5BEA060C08BF4FF0010B19EBC5
:100480000B09ABFB027C48EB0608C01B06FB02CC49
:100490000BFB03CC71EB0C01C1E70B460246414656
:1004A0004846BDE8F08B13B54FF000004FF0000157
:1004B000AFF30080BDE81C40704700000FB41CB5CE
:1004C000074B06AA7B4469460090059800F007FD9B
:1004D0000020694600F016FD1CBC5DF814FB00000E
:1004E0003D0A000070B5044685690068C10601D563
:1004F000302600E02026C00707D070BDD4E90121D6
:1005000030469047206A401C20626D1EF6D570BDB3
:1005100070B5044685690078C00707D170BDD4E97D
:10052000012120209047206A401C20626D1EF6D5D4
:1005300070BD00002DE9F0410646002410687529C1
:10054000314616A510D0AFF30080002802DA4042F1
:1005500013A507E031688A0701D512A502E0490713
:1005600004D511A5012401E0AFF3008000210A2287
:1005700006F1240709E0B0FBF2FCB0FBF2F302FB4A
:100580001C00303078541846491C0028F3D123460B
:100590002A463046BDE8F04100F036BA00000000BF
:1005A0002D0000002B0000002000000070B5044664
:1005B0000D4621461068AFF300802188090502D559
:1005C0000F4A7A4402E00E4A7A440E32002104F1C6
:1005D000240305E000F00F060009965D5E54491CF7
:1005E0000028F7D120780023000704D5702D02D011
:1005F00009B1022311322046BDE8704000F004BA70
:1006000016EC00002DE9F05F894604464FF0000A21
:10061000DFF824B1FB44C0F820A02046E1688847F9
:1006200000287DD0252806D0D4E901219047206AF2
:10063000401C2062F1E700255F462046E1688847BC
:100640002028064607DB312E05D2B81910F8200CF9
:1006500008B10543F1E7A80701D525F00405C4F862
:100660001CA00027C4F818A02A2E09D0304607F095
:1006700032F938B304EB8708303EC8F8186019E047
:1006800059F8041B204604EB87029161E168884712
:10069000012F064618D1E069002820DA25F0200550
:1006A0001DE0D8F8180000EB800006EB4000303861
:1006B000C8F818002046E1688847064607F00BF99D
:1006C0000028EED1012F0AD02E2E08D12046E16855
:1006D00088477F1C0646022F45F02005C4DBA06931
:1006E000002803DA404245F00105A061E80701D087
:1006F00025F01005A6B1A6F14100192802D8203630
:1007000045F400654A463146204625604D46FFF7D0
:1007100069FD60B1012807D0ED1D25F0070000E05C
:1007200007E000F1080978E705F1040975E73046AC
:100730007AE7206ABDE8F09FECEB000010B50446B4
:10074000AFF300802046BDE81040FFF76FBD40EAE0
:100750000103024630B59B0710D14FF0013400E091
:1007600008C208C91D1B9D4315EAC41FF8D013F029
:10077000FF0102F8011B0DD01B0AF8E711F8013B3D
:10078000002B02F8013B05D011F8013B002B02F8C9
:10079000013BF3D130BD10B5431C02E010F8011B42
:1007A00071B18107FAD14FF0013202C88C1A8C4323
:1007B00014EAC211F9D0C01A0A0603D0C01E10BD37
:1007C000C01A10BD0A0401D0801E10BD0902FCD061
:1007D000401E10BD421E12F8013F002BFBD111F844
:1007E000013B002B02F8013BF9D17047032A40F28C
:1007F000308010F0030C00F0158011F8013BBCF1C3
:10080000020F624498BF11F801CB00F8013B38BFDA
:1008100011F8013BA2F1040298BF00F801CB38BFE8
:1008200000F8013B11F0030300F02580083AC0F006
:10083000088051F8043B083A51F804CBA0E80810AE
:10084000F5E7121D5CBF51F8043B40F8043BAFF3E1
:100850000080D20724BF11F8013B11F801CB48BF3B
:1008600011F8012B24BF00F8013B00F801CB48BF71
:1008700000F8012B704710B5203AC0F00B80B1E8AA
:100880001850203AA0E81850B1E81850A0E81850C5
:10089000BFF4F5AF5FEA027C24BFB1E81850A0E8CE
:1008A000185044BF18C918C0BDE810405FEA827CE8
:1008B00024BF51F8043B40F8043B08BF7047D207FF
:1008C00028BF31F8023B48BF11F8012B28BF20F8A0
:1008D000023B48BF00F8012B70474FF0000204298B
:1008E000C0F0128010F0030C00F01B80CCF1040C5F
:1008F000BCF1020F18BF00F8012BA8BF20F8022B93
:10090000A1EB0C0100F00DB85FEAC17C24BF00F838
:10091000012B00F8012B48BF00F8012B70474FF066
:10092000000200B5134694469646203922BFA0E83F
:100930000C50A0E80C50B1F12001BFF4F7AF09074B
:1009400028BFA0E80C5048BF0CC05DF804EB89003C
:1009500028BF40F8042B08BF704748BF20F8022B7F
:1009600011F0804F18BF00F8012B70474FF0013C89
:1009700050F8042B51F8043B9A4221D1A2EB0C030E
:10098000934313EACC1317D150F8042B51F8043BCE
:100990009A4215D1A2EB0C03934313EACC130BD16B
:1009A00050F8042B51F8043B9A4209D1A2EB0C03F6
:1009B000934313EACC13DBD04FF00000704700BF25
:1009C000D01A01BAB1FA81F101F0180122FA01F04E
:1009D000CB40C1F12001DBB2C0B2C01A2CFA01F346
:1009E000D11A914311EAC311E6D17047704770479D
:1009F000704710B500F090FA006810BD10B50446BD
:100A000000F08AFA046010BD2DE9F0470D469946C2
:100A10009246044600F124080168880604D5E0697E
:100A200021F01001216000E00120A84201DD471BF8
:100A300000E00027A1697A1902EB0900081AA061F9
:100A40002078C00602D42046FFF74CFD002608E0BF
:100A5000D4E901211AF806009047206A401C761C50
:100A600020624E45F4DB2078C0060AD52046FFF709
:100A700039FD06E0D4E9012130209047206A401C6E
:100A80002062381EA7F10107F4DC07E0D4E9012158
:100A900018F805009047206A401C2062281EA5F126
:100AA0000105F3DC2046FFF733FD2078000602D570
:100AB0000220BDE8F0870120FBE770472DE9FF4FDA
:100AC0000C461E464FF0FF378BB0D2E90001DDF82F
:100AD00060800A908A46C1F30A5505B93D46002157
:100AE00008464FF00000BAF1000F00F4400005DAAC
:100AF00000EB80004FF4400101EA50004FEA9059AA
:100B0000B9F1010F00DDB9460A9850EA4A000ED04B
:100B100044F61050A5F2FF3545432F14B8F1000FED
:100B20001ED07542291E1EDDC9F100021CE0B8F17D
:100B3000010F4FF0000001D0302103E0F24305E047
:100B40002154401CB042FBDB3046002200212154DE
:100B50000B99C1F80880C1E900200FB0BDE8F08F03
:100B6000BD1B6D1CDEE74A4600DA694206A800F0AC
:100B70005BFA06AB93E8070003AB83E80700504637
:100B80000A9900F0EBFA8DE80700A0F500501F3835
:100B900000900398002D09DD42F21F014A460844E7
:100BA00003A90390684600F04AFD08E0A0F5005054
:100BB0004A461F3803A90390684600F054FD8DE8AB
:100BC00007000004000C03D04FF0FF30410800E0A4
:100BD0001046B8F1000F03D00022009215461EE027
:100BE000751E05D400F09AF9303262556D1EF9D5A4
:100BF000B3460122084302D000227F1C04E0207883
:100C0000302801D100227F1E002A099786D01DE0DE
:100C1000112D07DA00F082F9303262556D1C50EA6E
:100C20000102F5D1084302D00098C8B10EE00021BE
:100C3000681E05E0235C625C63542254401E491C1C
:100C40008142F7DBAB46A81B401E0990002004F848
:100C50000B000B98099AC0F80880C0E9002B7CE7CC
:100C600011264FF0000859E72DE9F04F8846044659
:100C7000D21D22F0070191B0D1E90001CDE90A01AE
:100C800006F066FD02460B98C00F01D02D2007E04C
:100C90002068810701D52B2002E0202101EAC00055
:100CA000032A099001D0072A05DB03464146204666
:100CB00000F07AF90BE12078800601D5E06900E0C8
:100CC0000620B8F1650F814606D0B8F1660F18D03E
:100CD000B8F1670F70D131E00020B9F1110F009029
:100CE00001DB112301E009F101030AAA01A90CA803
:100CF000FFF7E4FEDDE90C70002609F101058346EB
:100D000047E001204B4600904FF000470AAA01A996
:100D10000CA8FFF7D3FEDDE90DB00C995D46002667
:100D200010B909F101000D18B9EB050003D4C0F1A9
:100D3000FF3609F10105A5EB09002BE0B9F1010F20
:100D400001DA4FF001090020B9F1110F0090484677
:100D500001DD112300E003460AAA01A90CA8FFF750
:100D6000ADFEDDE90C704D46002683462078000775
:100D70000AD4AB4500DA5D4601A8012D04DD411916
:100D800011F8011C302907D04F4502DA17F1040F82
:100D900004DA012082460FE06D1EEEE7002F02DC30
:100DA000ED1B3E4403E0781CA84200DD7D1CB81B0F
:100DB00000F1010A4FF000472078000703D4AA454C
:100DC00001DB4FF0FF3A0021B7F1004F0DF143086E
:100DD0008DF8431024D002202B23002F01DA7F420C
:100DE0002D230A21021EA0F1010000DC5FB197FB58
:100DF000F1FC97FBF1F201FB1C7C17460CF1300C67
:100E000008F801CDEEE7A8F101000370218809057B
:100E100001D5452100E06521A0F1010800F8011C81
:100E200009980FA9A1EB0807FF1D00B10120411986
:100E300001EBEA70A1693844081A401EA0612078CD
:100E4000C00602D42046FFF74DFB099828B1D4E92B
:100E500001219047206A401C20622078C00622D5DC
:100E60002046FFF73FFB1EE0002E04DBB34502DD0A
:100E700001A8805D00E03020D4E901219047206A7C
:100E8000401C2062761CAAF101005FEA000A0AD128
:100E900000F03DF8C0680168405CD4E9012190474A
:100EA000206A401C2062281EA5F10105DCDC07E059
:100EB000D4E9012118F8010B9047206A401C2062F8
:100EC000381EA7F10107F3DC2046FFF721FB0320C2
:100ED00011B043E601694A1C02610878704700B509
:100EE0008FB0CDE901310021059105497944CDE963
:100EF000031011466846FFF785FB0FB000BD0000E8
:100F0000E5FFFFFF0A6802F8010B0A60704710B5A1
:100F1000FFF758FA203010BD06F0A4BC30B5B0F190
:100F20000A024FEA900E71F100034EEA817EB0EBA7
:100F30000E0061EB91014FEA101E4EEA017E10EBAC
:100F40000E0041EB11114FEA102E4EEA016E10EB2C
:100F50000E0041EB11214FEA104E4EEA014E10EB0C
:100F60000E0041EB1141401841F100014FEAD00061
:100F700040EA41704FEAD10110EB80054FEA81044D
:100F800044EA907444EB01046D1944EB0404521BD1
:100F9000A3414FF0000348BF0A3200D530BD401CCA
:100FA00041F1000130BD00002DE9F0411F4604462B
:100FB00003260168072A01F4006004DB08B116A5C6
:100FC00005E016A503E008B115A500E015A521F080
:100FD00010002060A069C01EA0610FB1401EA0617A
:100FE0002046FFF77FFA4FB1D4E9012138469047F8
:100FF000206A401C2062C01C206206E0206AFAE7DA
:10100000D4E9012115F8010B9047761EF8D220464D
:10101000FFF77EFABDE8F0814E414E006E616E0032
:10102000494E4600696E66002DE9F0478146164636
:101030008AB0334878440DC88DE80D0030487844B4
:10104000801C03AC0DC884E80D0041F69B300844B9
:10105000372190FBF1F290FBF1F5A5F1800501FB42
:1010600012041B3C02D56442012000E00020DFF89E
:1010700090A080460027FA44AAF1BE0A0DE0E007DE
:1010800009D03246684607EB47010AEB810100F0C0
:10109000EAFA8DE8070064107F1C002CEFD1184F8E
:1010A0007F44AC3F18E0E80714D007EB04100DF1C3
:1010B000180A90E80E008AE80E00C068F04201D1DC
:1010C00098190890324606A903A800F0CCFA03ABA1
:1010D00083E807006D10641C002DE4D13246694698
:1010E000B8F1000F03A802D000F0A9FA01E000F067
:1010F000BAFAC9E90001C9F808200AB0BDE8F087CA
:10110000ECE2000001491820ABBEFEE72600020019
:101110007546FFF757F9AE4605006946534620F07D
:101120000700854618B020B5FFF73AF9BDE8204022
:101130004FF000064FF000074FF000084FF0000B93
:1011400021F00701AC46ACE8C009ACE8C009ACE846
:10115000C009ACE8C0098D46704770475FEA400C93
:1011600008BF91F0000F4FEA8C234FEAC12243EAF7
:1011700051514FEA1C5018BF00F5F0404FEA3000C3
:1011800018BF41F000415FEA6C5C00F02980BCF1BF
:10119000FF3F08BF40F080407047130C06BF1204A9
:1011A0004FF0100C4FF0000C130E04BF12020CF1A4
:1011B000080C130F04BF12010CF1040C930F04BFB1
:1011C00092000CF1020CD30F04BF52000CF1010C81
:1011D00011464FF00002A0F11F00A0EB0C00704779
:1011E00011F0004F08BF704731F000413FF4D5AF18
:1011F0000B0C06BF09044FF0100C4FF0000C0B0E47
:1012000004BF09020CF1080C0B0F04BF09010CF11B
:10121000040C8B0F04BF89000CF1020CCB0F04BF30
:1012200049000CF1010CCCF12003A0EB0C0022FAD8
:1012300003F302FA0CF241EA030100F101007047E6
:1012400020F07F4C80EA030023F07F47ACEB0703DC
:1012500003F57C5300F0004003F1FF032DE98049C2
:101260004FEA154B09B44FEA144325EA0B4E24EA22
:1012700003480FF2042606EB132749083E785FEA7D
:10128000320203FB0667C7F5000707FB06F64FEAC5
:1012900054374FEAD64606F1020607FB066CCCF13E
:1012A000005C4FEA1C472CEA074C07FB06F40CFBDA
:1012B00006F504EB15464FEA961634BF00204FF0B2
:1012C00000404FEAD13706FB07FC4FEA1C4C0CFBF1
:1012D0000BF7D21B03FB0CF761EB07010CFB0EF7BE
:1012E000B0EB074072EB17420CFB08F734BFA2EBE0
:1012F0000742B2EB074261EB17414FEA0C444FEA59
:10130000910706FB07FC4FEA1C4C0CFB0BF7B0EBFC
:10131000C74072EB573203FB0CF734BFA2EBC74256
:10132000B2EBC74261EB57310CFB0EF7B0EBC700D5
:1013300072EB57720CFB08F734BFA2EBC702B2EB9B
:10134000C70261EB5771039F4FEA816141EA921135
:1013500004EBCC044FEAD1374FEA826206FB07FC6C
:1013600042EA90124FEA80604FEA1C4C0CFB0BF7EC
:10137000D21B03FB0CF761EB07010CFB0EF7B0EB84
:10138000074072EB17420CFB08F734BFA2EB074291
:10139000B2EB074261EB17414FEA8C554FEA9107D8
:1013A00004EB9C2406FB07FC4FEA1C4C0CFB0BF7E0
:1013B000B0EBC74072EB573203FB0CF734BFA2EB24
:1013C000C742B2EBC74261EB57310CFB0EF7B0EBF3
:1013D000C70072EB57720CFB08F734BFA2EBC702D1
:1013E000B2EBC70261EB577115EB4C254FEA8161F7
:1013F00041EA92114FEA82624FEAD13742EA9012F3
:1014000006FB07FC44F100044FEA80604FEA1C4CE5
:101410000CFB0BF7D21B03FB0CF761EB07010CFB7A
:101420000EF7B0EB074072EB17420CFB08F734BF26
:10143000A2EB0742B2EB074261EB174115EB1C151B
:101440004FEA813141EA92414FEA823242EA9042C8
:101450004FEA80304FEA0C7644F1000448EA034337
:101460004EEA0B484FF0000EB2EB080C71EB03078D
:1014700024BF624639464EEB0E0E4FF0000B0018AB
:10148000524149414BEB0B0BB2EB080C71EB0307DC
:101490007BF1000B24BF624639464EEB0E0E4FF037
:1014A000000B0018524149414BEB0B0BB2EB080CFF
:1014B00071EB03077BF1000B24BF624639464EEB0C
:1014C0000E0E51EA020718BF46F0010616EB0E7623
:1014D00055F1000254F1000103D5BDE88901BDE8D2
:1014E0000088BDE88901BDE80048B619524141EBCA
:1014F0000101A3F10103704780807F7E7D7C7B7AB0
:101500007978777676757473727171706F6E6E6DAF
:101510006C6C6B6A6A696868676666656464636355
:1015200062616160605F5F5E5E5D5D5C5C5B5B5ADB
:101530005A59595858575756565555555454535348
:1015400052525251515050504F4F4F4E4E4D4D4DA3
:101550004C4C4C4B4B4B4A4A4A49494948484847EE
:10156000474747464646454545444444444343432C
:101570004342424242414141002B26D4770021D0D0
:101580001CB54FEA370703B44FF010004FF01001BD
:101590004FF000000FBCBDE810400BF1010BBBF198
:1015A000010F08BF5FEA170722BF12F1010211F114
:1015B00001014FF0004143F1000300F0004043EA15
:1015C00000007047F9D35708DAE746EA064613F1F8
:1015D000400F4FEA16461FDD13F1200FDFBF164301
:1015E0000A46002120335B42C8D0C3F1200746EAF7
:1015F000064602FA07F74FEA164646EA0706C3F11F
:10160000200722FA03F201FA07F721FA03F14FF05B
:10161000000342EA0702B1E746EA020646EA064646
:101620004FEA164646EA0106BCBF46EA0646360CB5
:101630004FF000034FF000024FF000019EE72DE94C
:10164000C048934630B491E8380007C831EA400CEE
:1016500048BF34EA430C03D5FFF7F2FDFFF78CFFD8
:10166000F0BCBDE800882DE9C048934630B491E84D
:10167000380007C810F0804F08BF13F0804F03D127
:1016800000F005F8FFF778FFF0BCBDE8008820F017
:101690007F4780EA030023F07F4C07EB0C03A3F5A0
:1016A0007C5300F00040A3F1FE0392F0000F00F025
:1016B000B38095F0000F00F077802DE901494FEAE3
:1016C00011404FEA144621EA004800FB06FC24EAD8
:1016D000064708FB06F607FB08F800FB07F718EBC0
:1016E00006484CEB164C4FEA124B18EB07484FEAF2
:1016F00015464CEB174022EA0B4E0BFB06FC25EA85
:1017000006470EFB06F607FB0EFE0BFB07F71EEB6C
:10171000064E4CEB164C4FF000061EEB074E4CEB02
:10172000174B18EB0B0840F1000018EB0E0B58EBB1
:10173000000840F100008F1A4FF000013CBFC94380
:10174000661B14BFB5EB040C00213CBFC943F61B5C
:101750004FEA17444EEA8E0E27EA04454FEA1C472B
:1017600004FB07622CEA074C05FB07F70CFB05F6A8
:1017700004FB0CFC16EB074642EB174216EB0C463B
:1017800042EB1C421BEB060658EB0202414146EAC3
:101790009E0601D5BDE80189B619524141EB010110
:1017A000A3F10103BDE801894FEA14454FEA11474F
:1017B00024EA054621EA074C05FB07F406FB07F778
:1017C0000CFB06F105FB0CFC11EB074144EB174445
:1017D0004FEA124711EB0C4144EB1C4422EA074C40
:1017E00005FB07F206FB07F70CFB06F605FB0CFCF6
:1017F00016EB074642EB174216EB0C4642EB1C4534
:101800006A1854F1000148BF7047B619524141EBC4
:101810000101A3F10103704795F0000F37D04FEAA3
:1018200011424FEA144721EA024624EA074C02FB20
:1018300007F106FB07F70CFB06F402FB0CFC14EBAC
:10184000074441EB17414FEA154714EB0C4441EBB9
:101850001C4125EA074C02FB07F506FB07F70CFBCA
:1018600006F602FB0CFC16EB074645EB174516EB9C
:101870000C4645EB1C42121951F1000148BF70475C
:10188000B619524141EB0101A3F1010370474FEA40
:1018900014454FEA114724EA054621EA074C05FBA7
:1018A00007F106FB07F70CFB06F24FF0000605FBFD
:1018B0000CFC12EB074241EB174112EB0C4251EBCF
:1018C0001C4148BF7047921841EB0101A3F101038D
:1018D000704700000000000021B1826842F0010260
:1018E000826003E0826822F001028260704700009B
:1018F00010B504461248844208D10121401503F076
:1019000025FA0021601503F021FA17E00D48844202
:1019100008D10121001503F019FA0021201503F068
:1019200015FA0BE00848844208D10121C80303F0EE
:101930000DFA00214FF4004003F008FA10BD00003A
:101940000024014000280140003C014001460020E5
:101950008A6802F004020AB1012000E0002070470A
:101960000146C86C80B270470246002013680B40E5
:101970000BB1012000E000207047014600208A687A
:1019800002F008020AB1012000E0002070470000C8
:1019900030B502460020002350680F4C20400D79DE
:1019A0000C6844EA05242043506090680B4C2040AA
:1019B000D1E902542C434D7944EA45042043906018
:1019C000D06A20F470000C7C641EE4B2234340EA29
:1019D0000350D06230BD0000FFFEF0FFFDF7F1FFC5
:1019E000F0B504460D4600200021092D11DDE06808
:1019F000A5F10A0606EB4607072606FA07F1884313
:101A0000A5F10A0606EB460603FA06F10843E06074
:101A10000CE0206905EB4507072606FA07F1884325
:101A200005EB450603FA06F108432061072A0FDAA1
:101A3000606B561E06EB86071F2606FA07F18843E1
:101A4000561E06EB860605FA06F10843606322E09F
:101A50000D2A0FDA206BD61F06EB86071F2606FA23
:101A600007F18843D61F06EB860605FA06F1084300
:101A7000206310E0E06AA2F10D0606EB86071F2640
:101A800006FA07F18843A2F10D0606EB860605FA71
:101A900006F10843E062F0BD816841F00801816011
:101AA000704721B1826842F4A002826003E082683C
:101AB00022F4A00282607047816841F004018160D5
:101AC0007047000000B587B001214FF4047003F0A7
:101AD0002DF94FF4004003F0FDF83F20ADF804006D
:101AE00000208DF8070001A9174801F0F5F8174804
:101AF000FFF7FEFE002002908DF80C008DF80D001F
:101B00004FF4602004900020059001208DF818000B
:101B100002A90E48FFF73CFF01210C48FFF7DCFE4D
:101B20000A48FFF7B9FF00BF0848FFF726FF002863
:101B3000FAD10648FFF7C0FF00BF0448FFF706FFD1
:101B40000028FAD107B000BD001001400024014078
:101B500008B50121102003F0E9F82020ADF80000BD
:101B600010208DF8030003208DF802006946044818
:101B700001F0B2F82021024801F067FA08BD000028
:101B8000001001402DE9F14F82B0029809F050FE9B
:101B90000022114BCDE9000109F08EF980460F4A71
:101BA0000F4B07F049F8064600220E4B09F064FC83
:101BB000824600220C4B09F02BFB04460D46002206
:101BC0000A4B2046294609F023FB04460D462046D1
:101BD000294603B0BDE8F08FD0BCF8406C45D9CCA5
:101BE000955BC83F0000F03F40A5E540000059402C
:101BF00010B50021024806F077FF0249086010BDC9
:101C0000B0EF0008340100208CB000BF05F088FE62
:101C10001F480068FFF7B6FF064600221D4B09F07B
:101C20004BF9044609F05AF81B4908600846006859
:101C300009F0FEFD04460D4618491948006809F0F0
:101C400091FE824609F0F4FD06460F4615491048FC
:101C5000006809F087FE824609F0EAFD80464246A8
:101C60000B46114904A8CDE90067CDE90245FEF70E
:101C700025FC04A8FEF78FFD04460C482146426966
:101C800004A890474FF47A7006F094FEBEE7000077
:101C900014010020000059401801002000002041DC
:101CA0001001002000007A4458F3000804F10008F5
:101CB00010B501F0C3FBAA2002F00CFD00B21E49D2
:101CC0000880AC2002F006FD00B21C490880AE205E
:101CD00002F000FD00B21A490880B02002F0FAFCC0
:101CE00018490880B22002F0F5FC17490880B4209A
:101CF00002F0F0FC15490880B62002F0EBFC00B2BF
:101D000013490880B82002F0E5FC00B211490880B0
:101D1000BA2002F0DFFC00B20F490880BC2002F0BC
:101D2000D9FC00B20D490880BE2002F0D3FC00B2FD
:101D30000B49088010BD00001C0100201E0100207E
:101D40002001002022010020240100202601002083
:101D5000280100202A0100202C0100202E01002053
:101D60003001002010B505F0B7FE08F027FF03F0A2
:101D70005DFF03F099FF04F067F804F0B9F806F08E
:101D8000A3F9FFF7E5FE01F017FF06F005FE024993
:101D90008869804710BD00005000002010B503F096
:101DA000FBFE04F0E1F806F0BBF902F0D9F80249B5
:101DB0008869804710BD00000000002010B504466F
:101DC00000222021074801F042F9204606F0F2FDEA
:101DD00001222021034801F03AF9204606F0EAFDED
:101DE00010BD00000010014000BFFEE770B536488E
:101DF000407802281ED13548006800F0100058B124
:101E000010203249086032480068B0B130480621DD
:101E100002680120904710E02C48006800F00300A1
:101E200058B12B48006840B12948022102680120BE
:101E3000904702E0202025490860244808300468C3
:101E4000001F056804F0040088B905F4806070B9CB
:101E50001E48001D006840F480601C49091D086090
:101E60001C48006818B11B4801680320884704F02B
:101E7000020088B905F4007070B91448001D0068AC
:101E800040F400701149091D08601248006818B13B
:101E9000104801680120884704F0010090B905F45A
:101EA000807078B9C4F307405F280BD25F20B0EB95
:101EB000146F07D10548001D006840F48070034985
:101EC000091D086070BD0000A601002010640040DC
:101ED000B0010020AC01002070B522480068002845
:101EE0003FD021480468001F056804201E491439AA
:101EF000086004F0040078B105F4806060B11A480D
:101F0000001F006820F480601749091F0860154809
:101F100001680420884724E004F0020078B105F449
:101F2000007060B11048001F006820F400700E4976
:101F3000091F08600B4801680320884711E004F07E
:101F4000010070B105F4807058B10748001F0068A7
:101F500020F480700449091F0860024801680220CB
:101F6000884770BDAC0100201864004010B5FF2008
:101F700003F080FB044603F089F90A2005F0D2FE45
:101F8000FF2003F077FB044603F080F90A2005F0F8
:101F9000C9FEFF2003F06EFB044603F077F90A2028
:101FA00005F0C0FE002003F065FB044603F06EF967
:101FB0000A2005F0B7FE002003F05CFB044603F0A6
:101FC00065F90A2005F0AEFE002003F053FB04463D
:101FD00003F05CF902F02CFC0A2005F0A3FE10BD12
:101FE00010B5002003F046FB044603F04FF90A2029
:101FF00005F098FE002003F03DFB044603F046F98F
:102000000A2005F08FFE002003F034FB044603F0A5
:102010003DF90A2005F086FEFF2003F02BFB044665
:1020200003F034F90A2005F07DFEFF2003F022FBC7
:10203000044603F02BF90A2005F074FEFF2003F09C
:1020400019FB044603F022F902F0F2FB0A2005F026
:1020500069FE10BD10B5002003F00CFB044603F030
:1020600015F90A2005F05EFE002003F003FB04468C
:1020700003F00CF90A2005F055FE002003F0FAFAEF
:10208000044603F003F90A2005F04CFE002003F09B
:10209000F1FA044603F0FAF80A2005F043FE0020A6
:1020A00003F0E8FA044603F0F1F80A2005F03AFEDE
:1020B000002003F0DFFA044603F0E8F802F0B8FB72
:1020C0000A2005F02FFE10BD70B505460C462846C7
:1020D00002F042FF064626EA0401284605F020FBEE
:1020E00070BD00002DE9F041074688460025002616
:1020F000002401204C49086000BF8FE0002688E0E2
:1021000002F09EFEB8F1000F06D0B8F1010F1DD00D
:10211000B8F1020F5ED133E001204349283908604D
:1021200000204249C1F89C0100240AE0C4F10701E3
:1021300007EB011106EBC502885C03F083F8601C15
:10214000C4B2082CF2DB02F09FFB55E000203649B8
:102150002839086001203549C1F89C0100240AE0B3
:10216000C4F1070107EB011106EBC502885C03F01F
:1021700045F8601CC4B2082CF2DB02F06FFB3BE0B8
:1021800001202949283908602849C1F89C01002408
:102190000AE0C4F1070107EB011106EBC502885CF8
:1021A00003F050F8601CC4B2082CF2DB00240AE0F3
:1021B000C4F1070107EB011106EBC502885C03F0CF
:1021C0001DF8601CC4B2082CF2DB02F05DFB02F0CB
:1021D00045FB11E000240AE0C4F1070107EB0111FF
:1021E00006EBC502885C03F02DF8601CC4B2082C15
:1021F000F2DB02F049FB00BF00BF711C082202FBAA
:102200000511C8B202F024FE142005F08BFD701CED
:10221000C6B2082EFFF674AF681CC5B2022DFFF6D9
:102220006DAFBDE8F0810000AC8122420080224207
:1022300070B50646002500240120354908600020BD
:102240003449C1F88401012031491039086000BFC8
:102250005BE0002455E002F0F3FDA91D06EB01113F
:10226000012202EB4402885C02F0C8FFA91D06EBC4
:102270000111002202EB4402885C02F0BFFF291D1D
:1022800006EB0111012202EB4402885C02F0B6FF6A
:10229000291D06EB0111002202EB4402885C02F0CA
:1022A000ADFFA91C06EB0111012202EB4402885C80
:1022B00002F0A4FFA91C06EB0111002202EB44026C
:1022C000885C02F09BFF06EB0511012202EB440241
:1022D000885C02F093FF06EB0511002202EB44023A
:1022E000885C02F08BFF02F0B9FA611C082202FB45
:1022F0000511C8B202F0ACFD142005F013FD601CFE
:10230000C4B2082CA7DB681CC5B2022DA1DB70BDCE
:10231000AC8122420080224270B50646002500248E
:102320000120354908603549C1F88401002032494F
:102330001039086000BF5BE0002455E002F080FD2A
:10234000A91D06EB0111012202EB4402885C02F098
:1023500079FFA91D06EB0111002202EB4402885C03
:1023600002F070FF291D06EB0111012202EB44026D
:10237000885C02F067FF291D06EB0111002202EBC9
:102380004402885C02F05EFFA91C06EB01110122E9
:1023900002EB4402885C02F055FFA91C06EB011118
:1023A000002202EB4402885C02F04CFF06EB0511B0
:1023B000012202EB4402885C02F044FF06EB0511A7
:1023C000002202EB4402885C02F03CFF02F05CFA5F
:1023D000611C082202FB0511C8B202F039FD14206D
:1023E00005F0A0FC601CC4B2082CA7DB681CC5B2B9
:1023F000022DA1DB70BD0000AC8122420080224290
:1024000070B5064600250024012059490860594945
:10241000C1F8840156491039086000BFA4E00024C7
:102420009DE002F00DFDA91D06EB0111012202EB5A
:102430004402885C02F006FFA91D06EB0111002290
:1024400002EB4402885C02F0FDFE291D06EB01113F
:10245000012202EB4402885C02F0F4FE291D06EB27
:102460000111002202EB4402885C02F0EBFEA91C81
:1024700006EB0111012202EB4402885C02F0E2FE4D
:10248000A91C06EB0111002202EB4402885C02F059
:10249000D9FE06EB0511012202EB4402885C02F032
:1024A000D1FE06EB0511002202EB4402885C02F02B
:1024B000C9FEA91D06EB0111012202EB4402885C52
:1024C00002F09CFEA91D06EB0111002202EB440262
:1024D000885C02F093FE291D06EB0111012202EB3C
:1024E0004402885C02F08AFE291D06EB01110022DD
:1024F00002EB4402885C02F081FEA91C06EB01118C
:10250000012202EB4402885C02F078FEA91C06EB73
:102510000111002202EB4402885C02F06FFE06EB20
:102520000511012202EB4402885C02F067FE06EB13
:102530000511002202EB4402885C02F05FFE02F00B
:10254000A3F902F08BF9611C082202FB0511C8B245
:1025500002F07EFC142005F0E5FB601CC4B2082CE0
:10256000FFF65FAF681CC5B2022DFFF658AF70BD15
:10257000AC812242008022422DE9FF4F89B00746FC
:102580008846914620216846FEF7C9F9002615E0E5
:1025900007EB4611B24B03EB46101022FEF726F96B
:1025A0007200521C07EB02117200521CAC4B03EB81
:1025B00002101022FEF71AF9701C86B2042EE7DB17
:1025C00004200890169820B1012806D002280CD1CA
:1025D00007E0A348FFF7A0FE0BE0A148FFF728FEA5
:1025E00007E09F48FFF70CFF03E09D48FFF794FECC
:1025F00000BF00BFB9F1000F7ED0089E29E107EBB4
:10260000461110226846FEF7F1F8012000EB460063
:1026100007EB0011102204A8FEF7E8F84FF0000ABB
:1026200011E10024DAE0002541E08D4800EB0510BF
:1026300010F814004006000E894901EB051101F85D
:102640001400874800EB051010F81410844800EBC4
:1026500005126000401C105C41EAE010804901EB6B
:10266000051101F814007E4800EB05116000401CC4
:10267000085C4006010E7A4800EB05126000401C21
:102680001154774800EB05116000401C095C744A46
:10269000A81C02EB001010F8140041EAE0111046EB
:1026A00000EB05126000401C1154681C85B2062D19
:1026B000BBDB6B48603010F814004006010E684820
:1026C000603000F8141010F814206000401C6449B9
:1026D0006031085C42EAE0116148603000F8141093
:1026E0006000401C5E496031085C4006020E6000DC
:1026F000401C0A54600000E0AEE0401C085C1DF87D
:10270000141040EAE1126000401C554960310A543F
:102710001DF814004006000E0DF814001DF81410EA
:102720006000401C1DF8000041EAE0100DF81400A4
:102730006000401C1DF800004006010E6000401CB7
:102740000DF800104648703010F814004006010ED5
:102750004348703000F8141010F814206000401C3A
:102760003F497031085C42EAE0113D48703000F8A2
:1027700014106000401C3A497031085C4006020E9B
:102780006000401C0A546000401C095C04A810F85A
:10279000140041EAE0126000401C314970310A54D3
:1027A00004A810F814004006010E04A800F8141044
:1027B00010F814206000401C04A9085C42EAE011F3
:1027C00004A800F814106000401C04A9085C40062E
:1027D000020E6000401C0A54601C84B2082CFFF6F4
:1027E00022AF2048007800F00F00C0F110000C90DC
:1027F0001C480078C0F3411016904FF0000B1BE00E
:10280000169820B1012806D002280CD107E0144800
:10281000FFF782FD0BE01248FFF70AFD07E01048C2
:10282000FFF7EEFD03E00E48FFF776FD00BF00BFA7
:102830000BF101001FFA80FB0C988345E0DB0AF1E5
:1028400001001FFA80FABAF1100FFFF6EAAE701C11
:1028500086B24645FFF6D3AE0DB0BDE8F08F00005E
:1028600080030020DC00002008B50121102002F0C8
:102870005DFA4FF48050ADF8000048208DF8030059
:1028800003208DF802006946014800F025FA08BDD2
:10289000001001407047000010B50548006800F0C6
:1028A0000F04034844602046FFF7F4FF10BD00000A
:1028B000000002407047000010B505480068C0F3F2
:1028C00003142001024948602046FFF7F3FF10BDC2
:1028D000000002407047000010B505480068C0F3D2
:1028E00003242002024948602046FFF7F3FF10BD91
:1028F000000002407047000010B505480068C0F3B2
:1029000003342003024948602046FFF7F3FF10BD5F
:10291000000002407047000010B505480068C0F391
:1029200003442004024948602046FFF7F3FF10BD2E
:10293000000002407047000010B505480068C0F371
:1029400003542005024948602046FFF7F3FF10BDFD
:10295000000002407047000010B505480068C0F351
:1029600003642006024948602046FFF7F3FF10BDCC
:10297000000002407047000010B50548006800F0F4
:102980000F040348001D04602046FFF7F3FF10BD4D
:10299000000402407047000010B506480068C0F30C
:1029A000031420010349091D08602046FFF7F2FFC8
:1029B00010BD0000000402407047000010B506483A
:1029C0000068C0F3032420020349091D0860204663
:1029D000FFF7F2FF10BD00000004024010B50C48E4
:1029E0000068C0F3033434B120030949091D0860AD
:1029F000204600F00FF806480068C0F3034434B1E5
:102A000020040349091D0860204600F004F810BDA9
:102A10000004024070477047704700002DE9F74FEF
:102A200084B0074691463846FDF7B5FE00F0FF0A30
:102A3000BAF1090F1EDA002619E017F8013B424AE5
:102A400002EB0311414A02EB06101022FDF7CEFE05
:102A50004FF0000807E03D480599FFF743FB08F1F8
:102A6000010000F0FF08C845F5DB701CC6B25645F2
:102A7000E3DB65E04FF0000B60E017F8012B324814
:102A800000EB021110226846FDF7B0FE00264FE071
:102A9000002520E000241AE02C4800EB0510005D22
:102AA0004006000E294901EB05110855274800EBA7
:102AB0000510015D254A681C02EB0010005D41EA2B
:102AC000E010114601EB05110855601CC4B2102C32
:102AD000E2DB681CC5B2072DDCDB002417E01B48D5
:102AE0007030005D4006010E184870300155005DE1
:102AF0001DF8041040EAE1111448703001551DF82A
:102B000004004006000E0DF80400601CC4B2102C36
:102B1000E5DB4FF0000807E00C480599FFF7E2FA03
:102B200008F1010000F0FF08C845F5DB701CC6B2D3
:102B3000082EADDB0BF1010000F0FF0BD3459CDB51
:102B400007B0BDE8F08F000090E700088003002088
:102B500070B506460D460024241D22460E490F4836
:102B6000FDF744FE0E4882792146641C0B4842540E
:102B700010222146641C42542146641C45540146DF
:102B800008192A463146FDF731FE6019C4B20D20FE
:102B90000249085570BD0000ACBF000814020020B7
:102BA00098BF000818B5002844D0C0F34211C0F304
:102BB0000322214B9B6903F001032BB91E4B9B6938
:102BC00043F001031C4CA36100F48053A3B11B4BE1
:102BD000DB69009300F01F0301FA03F3009C9C43A0
:102BE000009400F01F0302FA03F3009C23430093B8
:102BF000124C009BE3611DE0104B5B68009300F0FA
:102C00001F0301FA03F3009C9C43009400F01F0390
:102C100002FA03F3009C2343009307210022009B48
:102C200023EA01630093009B43EA02630093034C91
:102C3000009B636018BD00000010024000000140CE
:102C400001461D48814204D11C488069C0F38000C0
:102C500070471B48814204D118488069C0F3C00006
:102C6000F6E71848814204D114488069C0F3001087
:102C7000EEE71548814204D110488069C0F3401046
:102C8000E6E71248814204D10C488069C0F3801005
:102C9000DEE70F48814204D108488069C0F3C010C4
:102CA000D6E70C48814204D104488069C0F3002073
:102CB000CEE70020CCE700000008014000100240F1
:102CC000000C0140001001400014014000180140B8
:102CD000001C0140002001402DE9F0410246002582
:102CE0000026002000230024002791F803C00CF0E8
:102CF0000F0591F803C00CF0100CBCF1000F03D0CD
:102D000091F802C04CEA050591F800C0BCF1000F33
:102D100031D0146800202BE04FF0010C0CFA00F3C6
:102D2000B1F800C00CEA03069E4220D183004FF0A8
:102D30000F0C0CFA03F7BC4305FA03FC4CEA04043D
:102D400091F803C0BCF1280F06D14FF0010C0CFA2A
:102D500000FCC2F814C00AE091F803C0BCF1480FAF
:102D600005D14FF0010C0CFA00FCC2F810C0401C59
:102D70000828D1D31460B1F800C0BCF1FF0F34DDD6
:102D8000546800202EE000F1080C4FF0010808FA0A
:102D90000CF3B1F800C00CEA03069E4221D1830077
:102DA0004FF00F0C0CFA03F7BC4305FA03FC4CEA96
:102DB000040491F803C0BCF1280F05D100F1080C00
:102DC00008FA0CF8C2F8148091F803C0BCF1480F5F
:102DD00007D100F1080C4FF0010808FA0CF8C2F80E
:102DE0001080401C0828CED35460BDE8F0812DE946
:102DF000F04105460C46174698460F2C02D9002094
:102E0000BDE8F0812846FFF71BFF18B901212846CD
:102E100000F072F8B8F1000F10D1022F05D1E86868
:102E20000121A1408843E86008E0032F06D127F084
:102E30000107E8680121A1400843E860082C01D29D
:102E40002E4601E0083C2E1D3068A2000F21914063
:102E50008843306048EA8700A10088403168084311
:102E600030600120CCE70000F0B50A4600230024C2
:102E70000021002500F00046B6F1004F02D11D4EA2
:102E8000F16901E01B4E7168C0F3034583B200F4A1
:102E90004016B6F5401F08D121F07061154E7668D6
:102EA00026F07066134F7E6012E000F48016B6F5CF
:102EB000801F06D1032606FA05F4A14341F0706194
:102EC00006E0460D360103FA06F6B14341F07061A3
:102ED00022B1460D360103FA06F6314300F00046F2
:102EE000B6F1004F02D1034EF16101E0014E716075
:102EF000F0BD000000000140002945D0454A904245
:102F000006D1454A926942F00402434B9A6180E03F
:102F1000424A904206D1404A926942F008023E4B32
:102F20009A6176E03E4A904206D13B4A926942F06D
:102F30001002394B9A616CE03A4A904206D1364A07
:102F4000926942F02002344B9A6162E0364A904224
:102F500006D1314A926942F040022F4B9A6158E003
:102F6000324A904206D12C4A926942F080022A4BA2
:102F70009A614EE02E4A90424BD1274A926942F420
:102F80008072254B9A6144E0224A904206D1224A3F
:102F9000926922F00402204B9A613AE01F4A904263
:102FA00006D11D4A926922F008021B4B9A6130E05B
:102FB0001B4A904206D1184A926922F01002164B21
:102FC0009A6126E0174A904206D1134A926922F08C
:102FD0002002114B9A611CE0134A904206D10E4A1E
:102FE000926922F040020C4B9A6112E00F4A904223
:102FF00006D1094A926922F08002074B9A6108E0E3
:103000000B4A904205D1044A926922F48072024B25
:103010009A6170470008014000100240000C014016
:10302000001001400014014000180140001C014044
:10303000002001400246002093680B400BB10120A4
:1030400000E00020704741617047016170470AB19C
:10305000016100E0416170472DE9FC5F054688464B
:1030600091469A46DDF830B0009507200190002483
:103070005FE004EB0410374911F810009BF80010D2
:10308000884253D104EB0410324901EB40004078F0
:103090009BF80110884249D108F10F0083B205F175
:1030A0000F0082B24146284600F0EEFF00263BE0CA
:1030B000002734E00D9890B904EB0410254901EB8A
:1030C0004000801C805D80213941084018B148468D
:1030D00001F028F921E0504601F024F91DE01E48D6
:1030E000A0F8009004EB04101A4901EB4000801C8A
:1030F000805D80213941084018B14146284600F0E2
:1031000083FF681C85B20098281A102805D1009DFD
:1031100008F101001FFA80F803E0781CC7B2082FFD
:10312000C8DB00BF701CC6B2202EC1DB00BF601C14
:1031300084B2019884429CDB08484088401E83B2D8
:1031400006480088401E82B20021084600F09CFF1D
:10315000BDE8FC9F96CC0008D4000020F4020020BB
:103160002DE9FC5F0546884691469A46DDF830B069
:10317000009544200190002467E004EB840000EBFC
:1031800044103A4911F810009BF80010884259D1B8
:1031900004EB840000EB4410344901EB400040781C
:1031A0009BF8011088424DD108F1170083B205F158
:1031B000170082B24146284600F066FF00263FE035
:1031C000002738E00D98A0B904EB840000EB441010
:1031D000264901EB4000801C805D80213941084078
:1031E00018B1484601F09EF823E0504601F09AF8E5
:1031F0001FE01F48A0F8009004EB840000EB44108F
:103200001A4901EB4000801C805D80213941084053
:1032100018B14146284600F0F7FE681C85B20098B8
:10322000281A182805D1009D08F101001FFA80F81E
:1032300003E0781CC7B2082FC4DB00BF701CC6B205
:10324000482EBDDB00BF601C84B20198844294DB31
:1032500008484088401E83B206480088401E82B25B
:103260000021084600F010FFBDE8FC9F84CD000857
:10327000D4000020F40200202DE9FC5F05468846BA
:1032800091469A46DDF830B0009501200190002467
:103290005FE004EB8410374911F810009BF8001030
:1032A000884253D104EB8410324901EB400040784E
:1032B0009BF80110884249D108F11F0083B205F143
:1032C0001F0082B24146284600F0DEFE00263BE0A9
:1032D000002734E00D9890B904EB8410254901EBE8
:1032E0004000801C805D80213941084018B148466B
:1032F00001F018F821E0504601F014F81DE01E48D6
:10330000A0F8009004EB84101A4901EB4000801CE7
:10331000805D80213941084018B14146284600F0BF
:1033200073FE681C85B20098281A202805D1009DDC
:1033300008F101001FFA80F803E0781CC7B2082FDB
:10334000C8DB00BF701CC6B2802EC1DB00BF601C92
:1033500084B2019884429CDB08484088401E83B2B6
:1033600006480088401E82B20021084600F08CFE0C
:10337000BDE8FC9F2CE10008D4000020F4020020EE
:1033800010B504460723012221460948FEF728FB11
:1033900001210748FEF785FB00BF02210448FEF724
:1033A000E3FA0028F9D00248FEF7DAFA10BD00006F
:1033B000002401402DE9F04107460C460025002677
:1033C00008E03846FFF7DCFF0544052005F0F2FA77
:1033D000701CC6B2A642F4DBB5FBF4F080B2BDE8C7
:1033E000F08100BFFEE7000010B500200F49086023
:1033F0000F48006820F470200D49086008460068F6
:1034000040F44030086000200A49C1F890010220D1
:1034100004F088FC012005490860022004F082FCC9
:1034200000200549C1F8840110BD0000840122423A
:1034300000080140000021420000224208B501219D
:10344000142001F073FC1020ADF800008DF803008B
:1034500003208DF8020069460B48FFF73DFC02206F
:10346000ADF8000010208DF8030003208DF8020055
:1034700069460648FFF730FC012005490860054908
:10348000C1F8900108BD0000000801400010014093
:10349000840122420000214210B500200F4908603B
:1034A0000F48006820F470200D4908600846006845
:1034B00040F44030086001200A49C1F89001022020
:1034C00004F030FC012005490860022004F02AFCC9
:1034D00000200549C1F8840110BD0000840122428A
:1034E00000080140000021420000224270B505465C
:1034F00000241648006820F470201449086008462B
:10350000006840F400200860002615E00020104903
:103510000860022004F006FC01200E49C1F8840175
:103520006006040E0C48006808B1601CC4B201209B
:1035300004F0F8FB701CC6B2082EE7DB15B9FFF7E4
:10354000ABFF01E0FFF750FF204670BD00080140CF
:1035500084012242000022421001214270B504463B
:103560001448006820F4702012490860084600687A
:1035700040F44030086000200F490860002516E044
:10358000E0090E4908606006040E022004F0CAFB40
:1035900001200B49C1F88401022004F0C3FB002084
:1035A00005490860022004F0BDFB681CC5B2082D67
:1035B000E6DB70BD000801408401224290012142F7
:1035C0000000224210B50F48006820F470200D4919
:1035D00008600846006840F44030086001200A494D
:1035E00008600A49C1F88401042004F09BFB002014
:1035F00005490860042004F095FB00200349C1F848
:10360000840110BD000801409001214200002242C7
:1036100010B50F48006820F470200D490860084676
:10362000006840F44030086000200A4908600A49F8
:10363000C1F89001042004F075FB012005490860E1
:103640000549C1F89001042004F06CFB10BD000096
:1036500000080140840122420000214210B50024EC
:103660001348006820F4702011490860084600687B
:1036700040F40020086001200E49086004F052FB6D
:1036800001200D49C1F8840104F04CFB07E0601CE7
:10369000C4B2FA2C03DDFFF7BBFF012010BD0548C3
:1036A000803800680028F2D10449086000BFF5E7BF
:1036B0000008014090012142000022428401224280
:1036C00008B50121082001F031FB0320ADF800000E
:1036D00010208DF8030003208DF80200694604488D
:1036E000FFF7FAFA03210248FFF7AFFC08BD00001C
:1036F000000C014008B501211C2001F017FB4FF41C
:103700004350ADF8000048208DF8030003208DF8E9
:10371000020069461648FFF7DFFA4FF48070ADF8F3
:10372000000010208DF8030003208DF80200694688
:103730000F48FFF7D1FA4FF48070ADF80000102069
:103740008DF8030003208DF8020069460948FFF751
:10375000C3FA4FF44070ADF8000010208DF803005C
:1037600003208DF8020069460348FFF7B5FA08BD4B
:103770000010014000080140000C014008B5012183
:10378000702001F0D3FA0320ADF8000048208DF836
:10379000030003208DF8020069460848FFF79CFAF1
:1037A0008020ADF8000048208DF8030003208DF83C
:1037B000020069460248FFF78FFA08BD0014014075
:1037C0000018014008B50121602001F0AFFA032084
:1037D000ADF8000048208DF8030003208DF80200AA
:1037E00069460748FFF778FA4FF40060ADF800002B
:1037F00048208DF8030069460248FFF76DFA08BDBE
:10380000001801400014014008B50121102001F00A
:103810008DFA4FF44040ADF8000048208DF80300C9
:1038200069460248FFF758FA08BD00000010014041
:1038300008B501211C2001F079FA4FF44350ADF88E
:10384000000010208DF8030003208DF80200694667
:103850001648FFF741FA4FF48070ADF80000482099
:103860008DF8030003208DF8020069460F48FFF72A
:1038700033FA4FF48070ADF8000048208DF8030053
:1038800003208DF8020069460948FFF725FA4FF436
:103890004070ADF8000048208DF8030003208DF83B
:1038A000020069460348FFF717FA08BD00100140FF
:1038B00000080140000C014010B5044614B101207D
:1038C000254908702448007858B301212348FFF7A0
:1038D000B1FB50B102212148FFF7ACFB28B14FF4F6
:1038E00000611F48FFF7A6FBD8B90A2005F062F86F
:1038F00000201949087001211848FFF79BFB08B9FF
:10390000032010BD02211548FFF794FB08B90420DD
:10391000F7E74FF400611248FFF78CFBC8B90520A8
:10392000EFE701210D48FFF785FB01280CD10221AB
:103930000A48FFF77FFB012806D1C1020848FFF7BC
:1039400079FB012800D100E00020012801D10249C3
:1039500008700020D5E700007C010020001801401D
:103960000014014010B5044614B101201A49087032
:1039700019480078F8B14FF400411848FFF75AFB96
:1039800020B101211548FFF755FBA0B90A2005F029
:1039900011F80020104908704FF400410F48FFF75C
:1039A00049FB08B9032010BD01210C48FFF742FB79
:1039B00080B90420F7E74FF400410848FFF73AFBCD
:1039C000012807D101210548FFF734FB012801D167
:1039D000014908700020E6E76C0100200014014056
:1039E00010B50021024805F07FF80249086010BDBB
:1039F000D0EF00084401002088B000BF04F014FE9E
:103A00000948027809A16846FCF758FD6846FCF7AA
:103A1000C2FE04460A4821464269684690474FF470
:103A20007A7004F0C7FFE9E7400100200A0D7661D3
:103A30006C4B6579426172643A2025640A0D00007E
:103A400004F100080EB585E0002000F095FA48F278
:103A50003040414908800020102140A24FF6FF73FA
:103A6000CDE9002102901F220521202001F014FE43
:103A7000012018213CA24FF6E073CDE9002102900D
:103A80004FF478421921052001F006FE012018218B
:103A900038A24FF6E073CDE9002102904FF478424E
:103AA0001921352000F0AEFB0120182132A24FF67B
:103AB000E073CDE9002102901A463221052001F081
:103AC000EBFD012018212FA24FF6E073CDE9002174
:103AD00002901A463221352000F094FB0120182173
:103AE00029A24FF6E073CDE9002102904FF6FF7254
:103AF0004B21052001F0D0FD0120182126A24FF610
:103B0000E073CDE9002102904FF6FF724B21352082
:103B100000F078FB0120182121A24FF6E073CDE9D7
:103B2000002102904FF4FC626421052001F0B4FDF5
:103B3000012018211EA24FF6E073CDE9002102906A
:103B40004FF4FC626421352000F05CFB40F2DC5055
:103B500004F030FF78E70000D4000020CFB5CDB3EB
:103B6000BCE0BFD800000000CEC2B6C82020202094
:103B700020A1E6003A323400CAAAB6C8202020208C
:103B800020A3A5003A333200B5E7D1B92020202088
:103B90002020A3D6000000003A332E32000000009F
:103BA000B5E7C1F7202020202020A3C1000000009D
:103BB0003A302E320000000010B501F08BFB00F00F
:103BC00031FA112000F0CCFB142004F0F3FE262083
:103BD00000F0C6FB042000F08BFBB12000F0C0FB1E
:103BE0000E2000F085FB102000F082FBC02000F0CA
:103BF000B7FB082000F07CFB002000F079FBC1201F
:103C000000F0AEFB052000F073FBC52000F0A8FB20
:103C1000382000F06DFB402000F06AFB3A2000F0F5
:103C20009FFB052000F064FB362000F099FB1C2070
:103C300000F05EFB2A2000F093FB002000F058FB10
:103C4000002000F055FB002000F052FB7F2000F028
:103C50004FFB2B2000F084FB002000F049FB2020CC
:103C600000F046FB002000F043FB9F2000F040FBEB
:103C7000B42000F075FB002000F03AFBF22000F0C9
:103C80006FFB012000F034FBE02000F069FB3F20D7
:103C900000F02EFB222000F02BFB202000F028FB60
:103CA000302000F025FB292000F022FB0C2000F042
:103CB0001FFB4E2000F01CFBB72000F019FB3C203E
:103CC00000F016FB192000F013FB222000F010FB7F
:103CD0001E2000F00DFB022000F00AFB012000F086
:103CE00007FB002000F004FBE12000F039FB00207E
:103CF00000F0FEFA1B2000F0FBFA1F2000F0F8FA9B
:103D00000F2000F0F5FA162000F0F2FA132000F070
:103D1000EFFA312000F0ECFA842000F0E9FA4320B9
:103D200000F0E6FA062000F0E3FA1D2000F0E0FAC9
:103D3000212000F0DDFA3D2000F0DAFA3E2000F00C
:103D4000D7FA3F2000F0D4FA292000F009FB2C20FC
:103D500000F006FB00F082F910BD000086B000BF45
:103D60006A4903C9CDE9030130208DF814003720DA
:103D70008DF8150066498879C11700EB117109119A
:103D80008DF80E1062498879C11700EB1171091185
:103D9000A0EB0111C9B28DF80F109DF80E00092893
:103DA00006DD9DF80E003730C0B28DF80E0005E03C
:103DB0009DF80E003030C0B28DF80E009DF80F0057
:103DC000092806DD9DF80F003730C0B28DF80F00CE
:103DD00005E09DF80F003030C0B28DF80F000020D4
:103DE00000F0CAF801200C214AA20023CDE90021ED
:103DF00002904FF6FF720321052001F04DFC0120D7
:103E00000C2105AA0023CDE9002102904FF478424D
:103E10000321412001F040FC01200C2140A200239D
:103E2000CDE9002102904FF6FF720321522001F0EC
:103E300033FC01200C213CA20023CDE9002102909B
:103E40004FF61F020321702001F026FC01200C21F7
:103E500036A20023CDE9002102904FF6FF720D211A
:103E6000052001F019FC01200C2103AA0023CDE953
:103E7000002102901F220D214B2001F00DFC01209A
:103E800018212EA24FF6E073CDE9002102904AF2EC
:103E900051623221052001F0FFFB35E02A4800780D
:103EA0002A49097888422BD028480078264908708A
:103EB0007D2003464B2200210090084600F080F848
:103EC0002248007870B10120182121A24FF6E0733A
:103ED000CDE9002102904FF4FC625021282001F02E
:103EE000DBFB0DE0012018211BA24FF6E073CDE9AA
:103EF000002102904FF4FC625021282001F0CCFBFD
:103F00004FF4FA7004F056FDC8E70000D0E1000855
:103F100098BF00084D6F75646C655F49443A0000B6
:103F2000415454523A0000004D5300004D6F7564E7
:103F30006C655F547970653A00000000C8CBCCE531
:103F4000D5ECB2E2E86E0000DA0000204801002063
:103F5000D3D0C8CB00000000C3BBC8CB000000001A
:103F600010B50021024804F0BFFD0249086010BDF1
:103F7000C0E10008D000002070B506460F48408818
:103F8000401E83B20D480088401E82B200210846C0
:103F900000F07AF800240CE0002504E0304600F040
:103FA000C1F9681C85B205484088A842F6DC601C4F
:103FB00084B202480088A042EEDC70BDF40200200A
:103FC0002DE9F04782460C4615461E46089F781E8E
:103FD00083B2701E82B22946204600F055F8A046F2
:103FE0000EE0A94606E0504600F09CF909F10100F8
:103FF0001FFA80F9B945F6DB08F101001FFA80F8D5
:10400000B045EEDBBDE8F08730B504460D462946E5
:10401000204600F019F80248008800F083F930BD0E
:10402000D400002010B5402006490860642004F048
:10403000C1FC40200349091F0860322004F0BAFC8B
:1040400010BD00001418014030B504460D462B4643
:1040500022462946204600F017F830BD00B52C2036
:1040600008490881002088718220088083204880C8
:104070002A2048812B208881C821362000F092F91F
:1040800000BD0000F4020020F0B506460C461746BD
:104090001D461149488900F063F9301200F028F9F3
:1040A000F0B200F025F9381200F022F9F8B200F071
:1040B0001FF90949888900F053F9201200F018F916
:1040C000E0B200F015F9281200F012F9E8B200F0A1
:1040D0000FF900F05FF9F0BDF40200202DE9FF4F69
:1040E00083B081468A469346DDE9106441480088E2
:1040F0000290A6F12000C6B204EBD47009EB600078
:10410000401E82B20AEB0400401E83B2514648466C
:104110000194FFF7B9FF129860BB002527E00C2C33
:1041200007D106EB4600344901EB800010F805800A
:1041300004E0324800EB061010F8058000270FE07D
:1041400008F0010020B10BF0FF0000F0D1F803E00F
:104150000699C8B200F0CCF84FEA6808781CC7B2DC
:1041600004EBD471B7EB610FEADB681CC5B2A54262
:10417000D5DB2DE0002529E00C2C07D106EB46000D
:104180001D4901EB800010F8058004E01B4800EB9E
:10419000061010F80580002711E01648A0F800B0BE
:1041A00008F0010038B10AEB050291B209EB0702F1
:1041B00090B2FFF729FF4FEA6808781CC7B204EBFA
:1041C000D471B7EB610FE8DB681CC5B2A542D3DB45
:1041D0000849029808800A484088401E83B208486F
:1041E0000088401E82B200210846FFF74DFF07B04D
:1041F000BDE8F08FD4000020F2BF000866C40008BC
:10420000F40200202DE9FE4F04460E4691460C9F15
:1042100034480088029001940096002557E0324807
:104220000088401EA04204DB2F484088401EB04258
:1042300001DABDE8FE8F3D783A2D01D10A2506E06E
:104240002E2D01D10B2502E0A5F13000C5B201945D
:104250004FF000082DE005EB4500244901EB00106C
:1042600010F808A04FF0000B1BE01E48A0F80090CB
:104270000AF0800018B131462046FFF7C5FE4FF620
:10428000FF7000EA4A0A601C84B20198201A0C28C8
:1042900003D1019C701C86B206E00BF1010000F016
:1042A000FF0BBBF1080FE0DB00BF08F1010000F0DD
:1042B000FF08B8F1300FCEDB0A2D03DA04F110004D
:1042C00084B202E004F1080084B2009E7F1C3878BA
:1042D0007E2802DC38782028A1DA0249029808807A
:1042E00000BFA6E7D4000020F402002056CA000850
:1042F00000B503464FF48050074908602020074965
:1043000008601946064801F0BDF84FF48050024994
:10431000091F086000BD0000140C01401018014086
:104320000038004000B503464FF48050094908604A
:104330002020094908601912084801F0A3F8D9B2F1
:10434000064801F09FF84FF480500249091F0860A9
:1043500000BD0000140C014010180140003800405E
:1043600000B503464FF480500749086020200749F4
:104370000860D9B2064801F085F84FF48050024930
:10438000091F086000BD0000140C01401418014012
:104390000038004000B502490889FFF7E1FF00BD81
:1043A000F402002030B505460C462846FFF7D8FF3A
:1043B000E0B2FFF79DFF30BD10B5094A0121094861
:1043C00004F0C6FB04464FF4FA71204604F0D6FB15
:1043D0000021054804F088FB0449086010BD000076
:1043E0002D5B0008D8E10008E0E10008E0000020B3
:1043F00000BF00F027F8FCE708B50121602000F0BD
:1044000095FC4CF6F240ADF8000010208DF803004A
:1044100003208DF8020069460848FEF75DFC40F273
:104420008230ADF8000010208DF8030003208DF8D5
:10443000020069460248FEF74FFC08BD0014014027
:10444000001801402DE9F843204800784FEAD018C1
:104450001E480078C0F341141C480078C0F30016D1
:104460001A48007800F00F00C0F110050E27B8F1CF
:10447000000F24D11648007820B101280BD0022863
:104480001BD111E004272B463246394611480094CF
:10449000FEF772F812E01B272B46324639460E48CB
:1044A0000094FEF769F809E00E272B46324639469C
:1044B0000A480094FEF760F800E000BF04E02A46D6
:1044C00021460348FEF7AAFABDE8F883DC00002085
:1044D00004030020F0E1000870E20008D0E50008C5
:1044E00010B50021054804F0FFFA054908600021D5
:1044F000044804F0F9FA0449086010BD30F00008DF
:104500007401002040F00008780100208AB01148B2
:104510000088372190FBF1F080B2019000BF0D4878
:104520000088372190FBF1F080B2019001AA0AA126
:1045300002A8FBF7C3FF02A8FCF72DF904460D48BB
:104540002146426902A890474FF47A7004F032FA8B
:10455000E5E70000700100200A0D4C45445F4772FA
:104560006F772070776D206973203A202564250AC3
:104570000D00000004F1000800BF04F06FF910B551
:10458000FDF7E6FAFFF71EF910BD000010B5002197
:10459000054804F0A9FA054908600021044804F020
:1045A000A3FA0449086010BD10F00008640100205F
:1045B00020F000086801002088B000BF094B0A4ABB
:1045C0000AA16846FBF77AFF6846FCF7E4F8044660
:1045D0000F4821464269684690474FF47A7004F0CC
:1045E000E9F9EBE761010020600100200A0D737713
:1045F000697463685F535059203A202564207377AB
:10460000697463685F5053543A2025640A0D0000B2
:1046100004F1000800BF00F009F810B500F08CF8B4
:10462000FFF7F2F8FDF794FA10BD00000027B84636
:1046300000250026FDF70EFD44E00020FFF792F96B
:104640000446032C18D1681CC5B2284605EBD0716E
:104650004910A5EB4101012902D01B49097829B174
:10466000FDF784FC9620FDF7A9FB1FE0FDF7F2FCA7
:104670009620FDF7A3FB19E0042C02D01348007824
:10468000A0B1701CC6B2304606EBD0714910A6EB43
:104690004101012905D1FDF7A3FC9620FDF78EFB12
:1046A00004E0FDF7D7FC9620FDF788FB781CC7B225
:1046B0000A2004F07FF9642F04D1002708F10100DB
:1046C00000F0FF08B9E70000600100206101002050
:1046D00000BFFEE72DE9F0410746FEF773FFEE202D
:1046E000FEF73CFF00BFFEF7B9FF0028FBD13846BC
:1046F000FEF734FF00BFFEF7B1FF0028FBD1FEF745
:1047000061FFEF20FEF72AFF00BFFEF7A7FF00289A
:10471000FBD10120FEF7EAFE04460020FEF7E6FE8C
:104720000546FEF775FF052004F044F926022E43E6
:104730003046BDE8F081000008B50121602000F09E
:10474000F5FA0320ADF8000010208DF803000320D7
:104750008DF8020069461748FEF7BEFA4FF4904004
:10476000ADF8000010208DF8030003208DF8020042
:1047700069461148FEF7B0FA48F20100ADF80000B2
:1047800048208DF8030069460B48FEF7A5FA012181
:104790000848FEF758FC02210648FEF754FC4FF487
:1047A00080410548FEF74FFC4FF400610248FEF7D8
:1047B0004AFC08BD00180140001401407047000089
:1047C00070B5002100230F22C47804B3154C24686F
:1047D00004F4E064C4F5E064210AC1F10403CA40B2
:1047E000447804FA03F184781440214309010E4C03
:1047F0000678A155047804F01F050124AC40057823
:104800006D11AD0005F1E025C5F8004109E004781F
:1048100004F01F050124AC40044D0678761145F8DC
:10482000264070BD0CED00E000E400E080E100E017
:1048300010B501200749086003F074FA002006490A
:10484000C1F88401012003F06DFA012001490860DC
:1048500010BD0000840123420000234210B5012056
:104860000749086003F05EFA00200649C1F8940188
:10487000012003F057FA01200149086010BD000033
:10488000948122420080224210B50120074908602D
:1048900003F048FA00200649C1F8A401012003F002
:1048A00041FA01200149086010BD0000A401234223
:1048B00000002342F0B587B00546002708210846CE
:1048C000FDF702FC00210D2002F02AFF80210E20BE
:1048D000FDF7FAFB93208DF8080020208DF80900E1
:1048E00001A802AB022202A900900C2000F01BF8E4
:1048F0000646262E10D1002407E002A8005D2855A8
:1049000002A8005D4740601CC4B2042CF5DB02A87D
:10491000005DB84200D0BB2680210E2000F016FEBC
:10492000304607B0F0BD2DE9FE4F06468846914659
:104930009A46DDF830B0BB20029000200190009034
:104940000C2E06D00E2E09D11220019010200090BE
:1049500005E0772001903020009000E000BF00BF0C
:10496000019840F08001022002F0DAFE802104204C
:10497000FDF7AAFB0021012002F0D2FE80210A20CF
:1049800000F0E4FD002505E018F80510092002F00C
:10499000C7FE6D1C4D45F7D33146012002F0C0FE25
:1049A0000C2E03D180210D2000F0D0FD4FF47A753C
:1049B00000BF042000F0D0FA04466D1E35B104F0AB
:1049C000010018B9009820400028F2D080210D2065
:1049D000FDF77AFB95B3062000F0BEFA00F01B004D
:1049E00068BB262002900198204000F0010008B129
:1049F000CC2002900C2E24D10A2000F0ADFA0446FF
:104A00000C2000F0A9FA00F007072FB1601E07EB99
:104A1000C000CBF8000002E0E000CBF8000004B9D1
:104A20000124122C00DD1224002505E0092000F0ED
:104A300093FA0AF805006D1CA542F7D301E0BB20EC
:104A4000029080210C2000F081FD0021012002F065
:104A500067FE0298BDE8FE8F70B588B005460C462B
:104A600008210846FDF730FB07210D2002F058FE13
:104A70000321142000F06AFD8DF80C5002A803AB4E
:104A8000012203A900900C20FFF74DFF0646262EB9
:104A900009D10298102806D19DF80C0020709DF8CD
:104AA0000D00607000E0BB26304608B070BD00000D
:104AB00010B50021024804F017F80249086010BD43
:104AC000F0EF00085401002088B000BF80210C489E
:104AD000FEF7B0FA0B4908700A460BA16846FBF7CF
:104AE000EDFC6846FBF757FE04460F482146426935
:104AF000684690474FF47A7003F05CFFE6E70000E9
:104B000000080140500100200A0D697320697420DB
:104B10007261696E6E696E67206E6F773F203A2012
:104B200025640A0D0000000004F1000808B5012109
:104B3000042000F0FBF88020ADF8000004208DF880
:104B4000030003208DF8020069460248FEF7C4F80E
:104B500008BD0000000C014010B50021024803F020
:104B6000C3FF0249086010BD00F000085C0100208E
:104B70008AB000BF16495220FFF76EFF0446262870
:104B800004D013495220FFF767FF0446262C1AD1A0
:104B90000F48FFF78FFE262815D10D48C0780C4925
:104BA0008978CDE900100A484378027809A102A863
:104BB000FBF784FC02A8FBF7EEFD05460E482946EC
:104BC000426902A890474FF47A7003F0F3FED1E7F0
:104BD00058010020546865204361726420494420D4
:104BE00069733A20253032582530325825303258F2
:104BF000253032580000000004F1000810B500F024
:104C00000FF84FF480510448FEF71FFA10210348B3
:104C1000FEF71BFA10BD0000001001400008014023
:104C200008B50121042000F081F81020ADF8000043
:104C300003208DF8020010208DF8030069462348F8
:104C4000FEF74AF80121042000F070F82020ADF8AA
:104C5000000003208DF8020010208DF80300694643
:104C60001A48FEF739F80121042000F05FF880208F
:104C7000ADF8000003208DF8020010208DF803002D
:104C800069461248FEF728F80121042000F04EF88A
:104C90004020ADF8000004208DF8030069460B4861
:104CA000FEF71AF80121102000F040F84FF4805070
:104CB000ADF8000003208DF8020010208DF80300ED
:104CC00069460348FEF708F808BD000000080140E7
:104CD0000010014001460020034A506820F4404083
:104CE00008435060704700000010024029B1064A96
:104CF000D2690243044BDA6104E0034AD269824379
:104D0000014BDA61704700000010024029B1064AE9
:104D100012690243044B1A6104E0034A1269824398
:104D2000014B1A61704700000010024029B1064A89
:104D300092690243044B9A6104E0034A92698243F8
:104D4000014B9A61704700000010024029B1064AE9
:104D5000D2680243044BDA6004E0034AD26882431B
:104D6000014BDA60704700000010024030B50021AE
:104D70000022002400232D4D6D6805F00C0121B1A7
:104D8000042905D0082923D105E0294D056022E03A
:104D9000274D05601FE0254D6D6805F47012234D09
:104DA0006D6805F48034022505EB92421CB9214D53
:104DB000554305600BE01D4D6D6805F400351DB1D0
:104DC0001C4D5543056002E0194D5543056002E056
:104DD000174D056000BF00BF144D6D6805F0F00170
:104DE0000909154D6B5C0568DD4045600F4D6D6828
:104DF00005F4E061090A104D6B5C4568DD40856093
:104E00000A4D6D6805F46051C90A0B4D6B5C45682D
:104E1000DD40C560054D6D6805F44041890B074DC7
:104E20006B5CC568B5FBF3F5056130BD0010024051
:104E300000127A0000093D00B4010020C4010020E6
:104E400010B54FF6FF7000F0DFF8FFF7F1FC10BD72
:104E500070B50446082C15DC012C13DB611E012201
:104E60008A40D0B200F0F4FBC043C5B2284600F03F
:104E7000A1F9FF2000F0ECFB054600F09BF9FFF7DD
:104E8000D7FC17E0102C15DC092C13DBFF2000F0F9
:104E9000DFFB054600F08EF9A4F1090101228A40EA
:104EA000D0B200F0D5FBC043C5B2284600F082F96D
:104EB000FFF7BEFC70BD000010B50021024803F0F2
:104EC00013FE0249086010BDE0EF00084C0100200D
:104ED00088B000BF80210C48FEF7ACF80B49087081
:104EE0000A460BA16846FBF7E9FA6846FBF753FC54
:104EF00004460D4821464269684690474FF47A704F
:104F000003F058FDE6E700000008014048010020DA
:104F10000A0D536F6D65626F647920686572653F35
:104F2000203A2025640A0D0004F1000808B501218B
:104F30000420FFF7FBFE8020ADF8000004208DF870
:104F4000030003208DF8020069460248FDF7C4FE05
:104F500008BD0000000C014070B504467E2000EA48
:104F6000440040F0800510210748FEF76CF8284601
:104F700000F05EFA00F036FA064610210248FEF70D
:104F800064F8304670BD00000008014010B58C2068
:104F900000F098FD154908708D2000F093FD14492C
:104FA00008701248007809784FF4807202FB010003
:104FB000104908808E2000F085FD0F4908708F2071
:104FC00000F080FD0D4908700B48007809784FF417
:104FD000807202FB01000A490880084601880548E2
:104FE000008802F08DFD0749086010BD0401002013
:104FF0000501002008010020060100200701002013
:105000000A0100200C01002070B50446002519E0BB
:1050100001200E49086002F085FE04F0010020B175
:1050200000200A49091D086003E001200749091D05
:105030000860002005490860012002F073FE64103A
:10504000681CC5B2102DE3DB70BD0000B8812242A0
:1050500010B50021024803F047FD0249086010BD69
:1050600090EF0008FC0000208CB033E00AA90BA8E8
:1050700004F0CEFABDF82C0006F04EFD164908608B
:10508000BDF82E0006F048FD144908601249134887
:1050900002F094FD1048006806F0CAFB04460D4675
:1050A0000E48006806F0C4FB064632460B460CA1CB
:1050B00002A8CDE90045FBF701FA02A8FBF76BFB5C
:1050C000044615482146426902A890474FF47A7079
:1050D00003F070FCCAE70000F8000020F400002094
:1050E0000A0D43757272656E742068756D69646926
:1050F0007479203D20252E32662070657263656EBE
:10510000742C2074656D7065726174757265203DD4
:1051100020252E32660A0D0004F1000870470000B9
:1051200008B501211420FFF701FE4FF48070ADF89F
:10513000000010208DF8030003208DF8020069465E
:105140000848FDF7C9FD1020ADF8000048208DF893
:10515000030003208DF8020069460348FDF7BCFDFB
:1051600008BD0000001001400008014008B5012101
:105170001420FFF7DBFD4FF48070ADF80000102025
:105180008DF8030003208DF8020069460748FDF7FB
:10519000A3FD1020ADF800008DF8030003208DF86A
:1051A000020069460248FDF797FD08BD0010014066
:1051B0000008014070B50446002519E001200E49A1
:1051C000086002F0AFFD04F0010020B100200A49A0
:1051D000091D086003E001200749091D086000203F
:1051E00005490860012002F09DFD6410681CC5B2ED
:1051F000082DE3DB70BD0000B881224270B5044683
:10520000002519E001200E49086002F08BFD04F032
:10521000010020B100200A491831086003E0012094
:10522000074918310860002005490860012002F094
:1052300079FD6410681CC5B2082DE3DB70BD000069
:105240009081224270B50446002519E001200E49E4
:10525000086002F067FD04F0010020B100200A4957
:10526000091D086003E001200749091D08600020AE
:1052700005490860012002F055FD6410681CC5B2A4
:10528000082DE3DB70BD00009C01234270B504468D
:10529000002519E000200E490860012002F042FDBF
:1052A00004F0010020B1012009490C31086003E03D
:1052B000002007490C31086001200549086002F010
:1052C00031FD6410681CC5B2082DE3DB70BD000021
:1052D000AC81224200B587B001214920FFF726FDAD
:1052E0004FF42040ADF8040003208DF8060018208C
:1052F0008DF8070001A92348FDF7EEFC6020ADF80A
:10530000040003208DF8060010208DF8070001A985
:105310001D48FDF7E1FC4FF48050ADF80400032078
:105320008DF8060010208DF8070001A91548FDF73B
:10533000D3FC01218803FFF7D9FC0020ADF8080059
:105340004FF48270ADF80A000020ADF80C00022086
:10535000ADF80E000120ADF810004002ADF81200CB
:105360000020ADF81400ADF816000720ADF81800C5
:1053700002A9064800F018F80121044800F008F8D6
:1053800007B000BD000C014000180140003800408B
:1053900021B1028842F04002028004E002884FF608
:1053A000BF731A400280704710B50022028802F4D1
:1053B00041520B884C8823438C882343CC88234359
:1053C0000C8923434C8923438C892343CC89234371
:1053D0001A430280838B4FF2FF74234083830B8A2E
:1053E000038210BD70B500251CE06006040E20216C
:1053F0000E48FDF728FEC82002F094FC40210B481F
:10540000FDF718FE012801D144F00104C82002F084
:1054100089FC20210548FDF718FEC82002F082FC17
:10542000681CC5B2082DE0DB204670BD00080140B5
:1054300070B50446002520E004F0800020B18021F2
:105440000F48FDF702FE03E080210D48FDF7FBFD4C
:10545000C82002F067FC20210948FDF7F4FDC820B0
:1054600002F060FC20210648FDF7EFFDC82002F0A5
:1054700059FC6006040E681CC5B2082DDCDB70BD4B
:1054800000080140024600BF108900F00200002819
:10549000FAD0918100BF108900F001000028FAD0F5
:1054A0009089C0B27047000088B000BF08210A2070
:1054B000FDF780FF292190FBF1F00E4908704FF4B1
:1054C00080510D48FDF7B6FD0C4908700B46094A9E
:1054D0000BA16846FAF7F2FF6846FBF75CF9044651
:1054E000104821464269684690474FF47A7003F0AD
:1054F00061FADBE73801002000100140390100208B
:105500000A0D76616C416E616C6F67203A202564EC
:105510002C76616C4469676974616C203A2025645B
:105520000A0D000004F1000810B50021024803F044
:10553000DBFA0249086010BDC0EF00083C01002002
:1055400010B5FDF791F9FCF7BDFA10BD70B5054631
:105550000C462846FFF700FD064646EA04012846A9
:1055600002F0DEF870BD10B500F002F810BD0000CA
:105570000CB50020019000903348006840F4803062
:105580003149086000BF3048006800F400300090E6
:105590000198401C0190009818B90198B0F5A06FCF
:1055A000F1D12948006800F4003010B101200090CA
:1055B00001E0002000900098012843D123480068B2
:1055C00040F01000214908600846006820F0030000
:1055D00008600846006840F0020008601A48406809
:1055E000194948600846406848600846406840F4E9
:1055F000806048600846406820F47C104860084697
:10560000406840F4E81048600846006840F0807048
:10561000086000BF0C48006800F000700028F9D056
:105620000948406820F00300074948600846406880
:1056300040F00200486000BF0348406800F00C00E2
:105640000828F9D10CBD00000010024000200240E3
:105650000246002000210AE042FA01F303F00103B0
:105660001843072901DA4306180E4B1CD9B2082942
:10567000F2DB70470246002000210AE042FA01F303
:1056800003F001031843072901DA4306180E4B1CE7
:10569000D9B20829F2DB70472DE9FF4F83B00646E7
:1056A00088469146DDE91147109DB2464FF0000B48
:1056B00073E0BBF1000F42D104EBD471394A128878
:1056C000A2EB6101B14204DB36494988091B41451F
:1056D00002DA07B0BDE8F08F2878802802DD4FF0AD
:1056E000010B5AE028780D2806D108EB04001FFAB8
:1056F00080F856466D1C20E00C2C01D0102C0FD1E8
:1057000028788DE891004A4641463046069BFEF7D0
:10571000E5FC204604EBD07106EB61018EB20CE093
:10572000102128788DE883004A4641463046069B82
:10573000FEF7D4FC06F1080086B26D1C2DE0194876
:105740000088001BB04204DB16484088001B40451F
:1057500000DABEE74FF0000B202C08D1CDE900574E
:105760004A4641463046069BFDF786FD12E0182C5E
:1057700008D1CDE900574A4641463046069BFDF721
:10578000EFFC07E0CDE900574A4641463046069B0C
:10579000FDF762FCAD1C301986B22878002888D14C
:1057A00000BF96E7F402002010B51348006840F0EF
:1057B00001001149086008464068104908400E4938
:1057C0004860084600680E4908400B4908600846D2
:1057D000006820F4802008600846406820F4FE003D
:1057E00048604FF41F008860FFF7BDFE4FF0006077
:1057F0000449086010BD0000001002400000FFF8DE
:10580000FFFFF6FE08ED00E030B589B005460C4616
:1058100001210420FFF76AFA01212120FFF786FA0F
:1058200001210803FDF720FB4FF48040ADF8200074
:1058300018208DF8230003208DF8220008A91348B2
:10584000FDF74AFAADF81850ADF814400020ADF855
:105850001A00ADF8160005A90D4800F085F8702073
:10586000ADF804000120ADF806000220ADF80C00F0
:1058700001A9074800F01AF80821054800F066F869
:105880000121034800F006F809B030BD00140140C2
:105890000008004021B1028842F00102028004E0C9
:1058A00002884FF6FE731A400280704770B50024DC
:1058B00000220023058C4FF6FF6635400584028CDC
:1058C0008388848B4FF68F752C404FF6FC752C40E7
:1058D0000D882C434FF6FF552A400D894FF6FF7671
:1058E00006EA05252A434D8806EA05252A43154D73
:1058F000A84202D0144DA8421DD14FF2FF752A4094
:105900004D894FF6FF7606EA05252A434FF6FF3507
:105910002A408D8806EA05252A434EF6FF752B405E
:105920004DF6FF752B408D8906EA05152B43CD8971
:1059300006EA05152B4383808483CD8885870284FE
:1059400070BD0000002C0140003401400A460021D7
:10595000818B4FF6F773194011438183704781871C
:105960007047A0F840107047002202881D4B9842F3
:105970000ED01D4B98420BD0B0F1804F08D01B4B7E
:10598000984205D01A4B984202D01A4B984204D143
:105990004FF68F731A404B881A43174B984207D023
:1059A000164B984204D04FF6FF431A40CB881A4357
:1059B00002808B8883850B8803850A4B98420BD025
:1059C000094B984208D00E4B984205D00D4B984297
:1059D00002D00D4B984201D10B7A038601238382BA
:1059E00070470000002C01400034014000040040DA
:1059F00000080040000C004000100040001400406F
:105A000000400140004401400048014010B5002121
:105A1000024803F069F80249086010BDA0EF0008D1
:105A20000001002088B000BFFFF7B0FA09480AA1C2
:105A300002686846FAF742FD6846FAF7ACFE04468B
:105A40000C4821464269684690474FF47A7002F04C
:105A5000B1FFE9E70C010020B5B1C7B0B9E2D5D577
:105A6000C7BFB6C8CEAAA3BA2564204C7578200D4E
:105A70000A00000004F1000810B5FDF721FE0E48F1
:105A8000006820F0F0000C4908600846006840F00B
:105A9000300008600120094908600949C1F8840103
:105AA0000321802000F02AF8642002F083FF022105
:105AB000812000F023F810BD000C014080812142BC
:105AC0000080214270B5044605F092F8722005F07E
:105AD000B5F803F0A7FE204605F0B0F803F0A2FEEB
