:020000040800F2
:100000000826002061030008690300086B0300084C
:100010006D0300086F030008710300080000000072
:10002000000000000000000000000000990200082D
:100030007503000800000000110300084D030008CC
:100040007B0300087B0300087B0300087B03000898
:100050007B0300087B0300087B0300087B03000888
:100060007B0300087B0300087B030008B908000835
:10007000D9080008F908000819090008390900081A
:1000800059090008790900087B030008892D000838
:10009000A12E00083D060008290700087B03000880
:1000A0007B0300087B0300087B0300087B03000838
:1000B0007B0300087B0300087B0300087B03000828
:1000C0007B0300087B0300087B0300087B03000818
:1000D0007B03000809170008191800087B030008B3
:1000E0007B0300087B0300087B0300087B030008F8
:1000F0007B0300087B0300087B0300087B030008E8
:100100007B0300087B0300087B0300087B030008D7
:100110007B0300087B0300087B0300087B030008C7
:1001200099090008B9090008DD090008FD0900085F
:1001300000F002F800F05AF80AA090E8000C82449F
:100140008344AAF10107DA4501D100F04FF8AFF27C
:10015000090EBAE80F0013F0010F18BFFB1A43F0A5
:10016000010318475C4C00007C4C00000A444FF02F
:10017000000C10F8013B13F0070408BF10F8014B06
:100180001D1108BF10F8015B641E05D010F8016B4B
:10019000641E01F8016BF9D113F0080F1EBF10F8AF
:1001A000014BAD1C0C1B09D16D1E58BF01F801CBD2
:1001B000FAD505E014F8016B01F8016B6D1EF9D555
:1001C0009142D6D37047000000230024002500266A
:1001D000103A28BF78C1FBD8520728BF30C148BFAA
:1001E0000B6070471FB51FBD10B510BD00F0B4F90E
:1001F0001146FFF7F7FF0FB400F00CF80FBC03F047
:100200006DFB00F0D1F803B4FFF7EEFF03BC00F084
:100210009DF9000004B003F07BFB0448002103F0CB
:10022000F9FB03F087FB00F0BFF80000904C0008DA
:1002300080F309887047EFF309807047684680F3C0
:10024000098804480078C00714BF0220032080F307
:1002500014887047504C0008DFF818C0EFF305838E
:100260001B0618BF6047EFF31483DB0708BF604726
:1002700000DF7047093B0008DFF818C0EFF3058383
:100280001B0618BF6047EFF31483DB0708BF604706
:1002900000DF7047ED3C0008EFF30980816911F839
:1002A000021CF1B990E80F10E047EFF3098C8CE8DD
:1002B0000700144B93E8060091420FD039B12CE9A6
:1002C000F00FC1F828C00CB404F0B4F80CBC1A60EC
:1002D000D2F828C0BCE8F00F8CF309886FF0020E4A
:1002E000704710B5084A1268914209D8074C54F873
:1002F000214090E80F10A047EFF3098C8CE80F0025
:1003000010BD000070010020A4050008A40500082D
:1003100003F062FF0C4B93E80600914210D0EFF31C
:10032000098C2CE9F00FC1F828C00CB404F082F855
:100330000CBC1A60D2F828C0BCE8F00F8CF3098816
:100340006FF0020E704700007001002004F03AF9CF
:10035000E0E7000003F0C4FB04F034F9DAE7000042
:100360000948804709480047FEE7FEE7FEE7FEE749
:10037000FEE7FEE7FEE7FEE7FEE7FEE70448054985
:10038000054A064B7047000041160008310100087D
:100390000820002008260020082200200822002033
:1003A00000487047A41F002010B50446AFF300803A
:1003B0002046BDE81040FFF726BF10B5431C02E001
:1003C00010F8011B71B18107FAD14FF0013202C858
:1003D0008C1A8C4314EAC211F9D0C01A0A0603D051
:1003E000C01E10BDC01A10BD0A0401D0801E10BD71
:1003F0000902FCD0401E10BD421E12F8013F002B26
:10040000FBD111F8013B002B02F8013BF9D17047F9
:1004100010B5203AC0F00B80B1E81850203AA0E89F
:100420001850B1E81850A0E81850BFF4F5AF5FEAD3
:10043000027C24BFB1E81850A0E8185044BF18C986
:1004400018C0BDE810405FEA827C24BF51F8043B2D
:1004500040F8043B08BF7047D20728BF31F8023B81
:1004600048BF11F8012B28BF20F8023B48BF00F815
:10047000012B70474FF0000200B513469446964694
:10048000203922BFA0E80C50A0E80C50B1F12001A7
:10049000BFF4F7AF090728BFA0E80C5048BF0CC055
:1004A0005DF804EB890028BF40F8042B08BF7047B3
:1004B00048BF20F8022B11F0804F18BF00F8012B25
:1004C000704700004FF0013C50F8042B51F8043BFA
:1004D0009A4221D1A2EB0C03934313EACC1317D118
:1004E00050F8042B51F8043B9A4215D1A2EB0C03AF
:1004F000934313EACC130BD150F8042B51F8043B6F
:100500009A4209D1A2EB0C03934313EACC13DBD03C
:100510004FF00000704700BFD01A01BAB1FA81F164
:1005200001F0180122FA01F0CB40C1F12001DBB249
:10053000C0B2C01A2CFA01F3D11A914311EAC311C7
:10054000E6D1704770477047704700000149182096
:10055000ABBEFEE7260002007546FFF721FFAE4660
:1005600005006946534620F00700854618B020B5BF
:10057000FFF704FFBDE820404FF000064FF00007F2
:100580004FF000084FF0000B21F00701AC46ACE83B
:10059000C009ACE8C009ACE8C009ACE8C0098D46A8
:1005A000704770470000000008B50121102000F0DE
:1005B00005FE2020ADF8000010208DF80300032078
:1005C0008DF802006946044800F0D0FA2021024864
:1005D00000F03BFC08BD00000010014010B504F025
:1005E000E7FA01F06DF901F0A9F902F0C7FEFFF793
:1005F000DBFF00F031FC4FF4FA7000F009F810BD99
:1006000010B501F0D1F902F0E5FE00F05DFD10BD7E
:1006100010B5044600222021074800F018FC2046AF
:1006200003F06AF901222021034800F010FC204663
:1006300003F062F910BD00000010014070B53648AB
:10064000407802281ED13548006800F0100058B1EB
:1006500010203249086032480068B0B130480621A5
:1006600002680120904710E02C48006800F0030069
:1006700058B12B48006840B1294802210268012086
:10068000904702E02020254908602448083004688B
:10069000001F056804F0040088B905F4806070B993
:1006A0001E48001D006840F480601C49091D086058
:1006B0001C48006818B11B4801680320884704F0F3
:1006C000020088B905F4007070B91448001D006874
:1006D00040F400701149091D08601248006818B103
:1006E000104801680120884704F0010090B905F422
:1006F000807078B9C4F307405F280BD25F20B0EB5D
:10070000146F07D10548001D006840F4807003494C
:10071000091D086070BD0000460100201064004003
:10072000500100204C01002070B5224800680028CC
:100730003FD021480468001F056804201E49143971
:10074000086004F0040078B105F4806060B11A48D4
:10075000001F006820F480601749091F08601548D1
:1007600001680420884724E004F0020078B105F411
:10077000007060B11048001F006820F400700E493E
:10078000091F08600B4801680320884711E004F046
:10079000010070B105F4807058B10748001F00686F
:1007A00020F480700449091F086002480168022093
:1007B000884770BD4C0100201864004070B50025CA
:1007C00000240120384908603849C1F8840100201C
:1007D00035491439086000BF63E000245DE000F093
:1007E00067FD334AA91D02EB0111012202EB44020D
:1007F000885C00F0E1FD2E4AA91D02EB01110022E8
:1008000002EB4402885C00F0D7FD294A291D02EB67
:100810000111012202EB4402885C00F0CDFD244A64
:10082000291D02EB0111002202EB4402885C00F05A
:10083000C3FD1F4AA91C02EB0111012202EB440275
:10084000885C00F0B9FD1A4AA91C02EB01110022D4
:1008500002EB4402885C00F0AFFD154901EB051185
:10086000012202EB4402885C00F0A6FD104901EB76
:100870000511002202EB4402885C00F09DFD00F0AF
:1008800077FC611C082202FB0511C8B200F018FDBC
:10089000642002F0EDFB601CC4B2082C9FDB681CD6
:1008A000C5B2022D99DB70BDAC812242008022428C
:1008B000B00000207047000010B50548006800F047
:1008C0000F04034844602046FFF7F4FF10BD00000A
:1008D000000002407047000010B505480068C0F3F2
:1008E00003142001024948602046FFF7F3FF10BDC2
:1008F000000002407047000010B505480068C0F3D2
:1009000003242002024948602046FFF7F3FF10BD90
:10091000000002407047000010B505480068C0F3B1
:1009200003342003024948602046FFF7F3FF10BD5F
:10093000000002407047000010B505480068C0F391
:1009400003442004024948602046FFF7F3FF10BD2E
:10095000000002407047000010B505480068C0F371
:1009600003542005024948602046FFF7F3FF10BDFD
:10097000000002407047000010B505480068C0F351
:1009800003642006024948602046FFF7F3FF10BDCC
:10099000000002407047000010B50548006800F0F4
:1009A0000F040348001D04602046FFF7F3FF10BD4D
:1009B000000402407047000010B506480068C0F30C
:1009C000031420010349091D08602046FFF7F2FFC8
:1009D00010BD0000000402407047000010B506483A
:1009E0000068C0F3032420020349091D0860204663
:1009F000FFF7F2FF10BD00000004024010B50C48E4
:100A00000068C0F3033434B120030949091D0860AC
:100A1000204600F00FF806480068C0F3034434B1E4
:100A200020040349091D0860204600F004F810BDA9
:100A3000000402407047704718B5002844D0C0F346
:100A40004211C0F30322214B9B6903F001032BB930
:100A50001E4B9B6943F001031C4CA36100F48053BF
:100A6000A3B11B4BDB69009300F01F0301FA03F3F2
:100A7000009C9C43009400F01F0302FA03F3009CC7
:100A800023430093124C009BE3611DE0104B5B6815
:100A9000009300F01F0301FA03F3009C9C430094B1
:100AA00000F01F0302FA03F3009C23430093072185
:100AB0000022009B23EA01630093009B43EA026348
:100AC0000093034C009B636018BD000000100240BF
:100AD0000000014001461D48814204D11C48806944
:100AE000C0F3800070471B48814204D118488069D8
:100AF000C0F3C000F6E71848814204D11448806969
:100B0000C0F30010EEE71548814204D11048806917
:100B1000C0F34010E6E71248814204D10C488069D6
:100B2000C0F38010DEE70F48814204D10848806995
:100B3000C0F3C010D6E70C48814204D10448806954
:100B4000C0F30020CEE70020CCE700000008014001
:100B500000100240000C0140001001400014014050
:100B600000180140001C0140002001402DE9F04127
:100B7000024600250026002000230024002791F8CB
:100B800003C00CF00F0591F803C00CF0100CBCF181
:100B9000000F03D091F802C04CEA050591F800C09F
:100BA000BCF1000F31D0146800202BE04FF0010C95
:100BB0000CFA00F3B1F800C00CEA03069E4220D103
:100BC00083004FF00F0C0CFA03F7BC4305FA03FC4B
:100BD0004CEA040491F803C0BCF1280F06D14FF091
:100BE000010C0CFA00FCC2F814C00AE091F803C032
:100BF000BCF1480F05D14FF0010C0CFA00FCC2F813
:100C000010C0401C0828D1D31460B1F800C0BCF15A
:100C1000FF0F34DD546800202EE000F1080C4FF087
:100C2000010808FA0CF3B1F800C00CEA03069E4272
:100C300021D183004FF00F0C0CFA03F7BC4305FAE7
:100C400003FC4CEA040491F803C0BCF1280F05D161
:100C500000F1080C08FA0CF8C2F8148091F803C0EF
:100C6000BCF1480F07D100F1080C4FF0010808FA59
:100C70000CF8C2F81080401C0828CED35460BDE8A0
:100C8000F0812DE9F04105460C46174698460F2C99
:100C900002D90020BDE8F0812846FFF71BFF18B9F4
:100CA0000121284600F02AF8B8F1000F10D1022FD8
:100CB00005D1E8680121A1408843E86008E0032FDE
:100CC00006D127F00107E8680121A1400843E86048
:100CD000082C01D22E4601E0083C2E1D3068A200EF
:100CE0000F2191408843306048EA8700A100884086
:100CF0003168084330600120CCE70000002945D06E
:100D0000454A904206D1454A926942F00402434B5B
:100D10009A6180E0424A904206D1404A926942F08C
:100D200008023E4B9A6176E03E4A904206D13B4A29
:100D3000926942F01002394B9A616CE03A4A904253
:100D400006D1364A926942F02002344B9A6162E041
:100D5000364A904206D1314A926942F040022F4B06
:100D60009A6158E0324A904206D12C4A926942F088
:100D700080022A4B9A614EE02E4A90424BD1274A7C
:100D8000926942F48072254B9A6144E0224A904273
:100D900006D1224A926922F00402204B9A613AE07D
:100DA0001F4A904206D11D4A926922F008021B4B4D
:100DB0009A6130E01B4A904206D1184A926922F0AB
:100DC0001002164B9A6126E0174A904206D1134A48
:100DD000926922F02002114B9A611CE0134A904262
:100DE00006D10E4A926922F040020C4B9A6112E041
:100DF0000F4A904206D1094A926922F08002074BBD
:100E00009A6108E00B4A904205D1044A926922F4A3
:100E10008072024B9A617047000801400010024046
:100E2000000C014000100140001401400018014076
:100E3000001C0140002001400246002093680B4046
:100E40000BB1012000E000207047016170470AB13A
:100E5000016100E04161704710B500F0D1FA00F087
:100E6000CDF8112000F00CF9142002F045FD2620E9
:100E700000F006F9042000F0E9F8B12000F000F9D4
:100E80000E2000F0E3F8102000F0E0F8C02000F0A1
:100E9000F7F8082000F0DAF8002000F0D7F8C120B9
:100EA00000F0EEF8052000F0D1F8C52000F0E8F8D9
:100EB000382000F0CBF8402000F0C8F83A2000F0CD
:100EC000DFF8052000F0C2F8362000F0D9F81C2029
:100ED00000F0BCF82A2000F0D3F8002000F0B6F8AB
:100EE000002000F0B3F8002000F0B0F87F2000F000
:100EF000ADF82B2000F0C4F8002000F0A7F8202067
:100F000000F0A4F8002000F0A1F89F2000F09EF867
:100F1000B42000F0B5F8002000F098F8F22000F0BE
:100F2000AFF8012000F092F8E02000F0A9F83F208F
:100F300000F08CF8222000F089F8202000F086F8DC
:100F4000302000F083F8292000F080F80C2000F019
:100F50007DF84E2000F07AF8B72000F077F83C20BA
:100F600000F074F8192000F071F8222000F06EF8FB
:100F70001E2000F06BF8022000F068F8012000F05D
:100F800065F8002000F062F8E12000F079F8002018
:100F900000F05CF81B2000F059F81F2000F056F814
:100FA0000F2000F053F8162000F050F8132000F046
:100FB0004DF8312000F04AF8842000F047F8432033
:100FC00000F044F8062000F041F81D2000F03EF843
:100FD000212000F03BF83D2000F038F83E2000F0E2
:100FE00035F83F2000F032F8292000F049F82C2095
:100FF00000F046F800F014F810BD000010B54020D5
:1010000006490860642002F077FC40200349091F6C
:101010000860322002F070FC10BD0000141801407E
:1010200000B52C20084908810020887182200880A2
:10103000832048802A2048812B208881C82136209F
:1010400000F038F800BD0000A001002000B5034604
:101050004FF480500749086020200749086019466E
:10106000064800F055FA4FF480500249091F086005
:1010700000BD0000140C0140101801400038004071
:1010800000B503464FF48050074908602020074907
:101090000860D9B2064800F03BFA4FF4805002498C
:1010A000091F086000BD0000140C01401418014025
:1010B0000038004030B505460C462846FFF7E0FFF3
:1010C000E0B2FFF7C3FF30BD10B50021024802F0C7
:1010D000A1FC0249086010BD284C00082C0000202B
:1010E00000F00AF8FFF760FA9620FFF791FA01E0A6
:1010F000FFF764FBFCE7000008B50121602000F069
:101100005DF84CF67240ADF8000010208DF8030039
:1011100003208DF8020069460848FFF727FD40F2DA
:101120008230ADF8000010208DF8030003208DF808
:10113000020069460248FFF719FD08BD001401408E
:101140000018014010B501200749086001F090FF28
:1011500000200649C1F88401012001F089FF012027
:101160000149086010BD00008401234200002342B1
:1011700010B501200749086001F07AFF00200649F8
:10118000C1F8A401012001F073FF012001490860AA
:1011900010BD0000A40123420000234229B1064AE9
:1011A000D2690243044BDA6104E0034AD269824304
:1011B000014BDA61704700000010024029B1064A75
:1011C00092690243044B9A6104E0034A92698243A4
:1011D000014B9A61704700000010024030B50021B9
:1011E0000022002400232D4D6D6805F00C0121B173
:1011F000042905D0082923D105E0294D056022E006
:10120000274D05601FE0254D6D6805F47012234DD4
:101210006D6805F48034022505EB92421CB9214D1E
:10122000554305600BE01D4D6D6805F400351DB19B
:101230001C4D5543056002E0194D5543056002E021
:10124000174D056000BF00BF144D6D6805F0F0013B
:101250000909154D6B5C0568DD4045600F4D6D68F3
:1012600005F4E061090A104D6B5C4568DD4085605E
:101270000A4D6D6805F46051C90A0B4D6B5C4568F9
:10128000DD40C560054D6D6805F44041890B074D93
:101290006B5CC568B5FBF3F5056130BD001002401D
:1012A00000127A0000093D00540100206401002072
:1012B00010B54FF6FF7000F037F8FFF743FF10BD91
:1012C00070B50446082C15DC012C13DB611E0122CD
:1012D0008A40D0B200F0A2F9C043C5B2284600F05F
:1012E00047F8FF2000F09AF9054600F041F8FFF7B3
:1012F00029FF17E0102C15DC092C13DBFF2000F070
:101300008DF9054600F034F8A4F1090101228A4064
:10131000D0B200F083F9C043C5B2284600F028F8E7
:10132000FFF710FF70BD000070B50446002519E0FE
:1013300001200E49086001F09BFE04F0010020B17D
:1013400000200A49091D086003E001200749091D22
:101350000860002005490860012001F089FE641042
:10136000681CC5B2102DE3DB70BD0000B8812242BD
:1013700070B50446002519E001200E49086001F00F
:1013800077FE04F0010020B100200A49091D086021
:1013900003E001200749091D086000200549086095
:1013A000012001F065FE6410681CC5B2082DE3DB66
:1013B00070BD0000B881224270B50446002519E0D6
:1013C00001200E49086001F053FE04F0010020B135
:1013D00000200A49091D086003E001200749091D92
:1013E0000860002005490860012001F041FE6410FA
:1013F000681CC5B2082DE3DB70BD00009C012342D0
:1014000000B587B001214920FFF7D8FE4FF42040F6
:10141000ADF8040003208DF8060018208DF80700B1
:1014200001A92348FFF7A2FB6020ADF804000320C8
:101430008DF8060010208DF8070001A91D48FFF760
:1014400095FB4FF48050ADF8040003208DF80600A2
:1014500010208DF8070001A91548FFF787FB01212F
:101460008803FFF79BFE0020ADF808004FF4827060
:10147000ADF80A000020ADF80C000220ADF80E0017
:101480000120ADF810004002ADF812000020ADF8C8
:101490001400ADF816000720ADF8180002A90648A0
:1014A00000F018F80121044800F008F807B000BD6A
:1014B000000C0140001801400038004021B10288B2
:1014C00042F04002028004E002884FF6BF731A40E7
:1014D0000280704710B50022028802F441520B8846
:1014E0004C8823438C882343CC8823430C89234393
:1014F0004C8923438C892343CC8923431A4302809C
:10150000838B4FF2FF74234083830B8A038210BDC9
:10151000024600BF108900F002000028FAD0918135
:1015200000BF108900F001000028FAD09089C0B2F5
:10153000704710B500F002F810BD00000CB5002097
:10154000019000903348006840F4803031490860D1
:1015500000BF3048006800F4003000900198401C43
:101560000190009818B90198B0F5A06FF1D1294801
:10157000006800F4003010B10120009001E000206C
:1015800000900098012843D12348006840F01000E3
:10159000214908600846006820F0030008600846FA
:1015A000006840F0020008601A4840681949486025
:1015B0000846406848600846406840F480604860DB
:1015C0000846406820F47C1048600846406840F4B3
:1015D000E81048600846006840F08070086000BF6E
:1015E0000C48006800F000700028F9D009484068F5
:1015F00020F00300074948600846406840F00200B8
:10160000486000BF0348406800F00C000828F9D18A
:101610000CBD0000001002400020024002460020E5
:1016200000210AE042FA01F303F0010318430729FD
:1016300001DA4306180E4B1CD9B20829F2DB7047B9
:1016400010B51348006840F00100114908600846D1
:101650004068104908400E494860084600680E4935
:1016600008400B4908600846006820F480200860A4
:101670000846406820F4FE0048604FF41F00886070
:10168000FFF757FF4FF000600449086010BD0000ED
:10169000001002400000FFF8FFFFF6FE08ED00E03A
:1016A00070B504460D46034A2946204600F0D2F99B
:1016B00070BD0000B44C000808B5024800F0DAFD27
:1016C000009008BDB44C000808B5024800F0D5FDF4
:1016D000009008BDB44C000810B5024800F015FE9B
:1016E00010BD0000B44C000808B5024800F011FE1F
:1016F000009008BDB44C000810B5024800F073FE1D
:1017000010BD0000B44C000810B5024800F06FFE98
:1017100010BD0000B44C000810B504460249204634
:1017200001F00AF810BD0000B44C000810B50446E2
:101730000249204601F0BEF810BD0000B44C00087C
:1017400070B504460D46034A2946204601F0C6F905
:1017500070BD0000B44C000870B504460D46034A45
:101760002946204601F00BFA70BD0000B44C000879
:1017700010B504460249204601F045FA10BD0000AC
:10178000B44C000870B504460D461646034B32466D
:101790002946204601F085FA70BD0000B44C0008CF
:1017A00010B5024801F0B2FA10BD0000B44C0008B8
:1017B00070B504460D46034A2946204600F04AF912
:1017C00070BD0000FC4C000808B5024800F052FD56
:1017D000009008BDFC4C000808B5024800F04DFD23
:1017E000009008BDFC4C000810B5024800F08DFDCB
:1017F00010BD0000FC4C000808B5024800F089FD4F
:10180000009008BDFC4C000810B5024800F0EBFD4C
:1018100010BD0000FC4C000810B5024800F0E7FDC8
:1018200010BD0000FC4C000810B5044602492046DB
:1018300000F082FF10BD0000FC4C000810B504460B
:101840000249204601F036F810BD0000FC4C0008AB
:1018500070B504460D46034A2946204601F03EF97C
:1018600070BD0000FC4C000870B504460D46034AEC
:101870002946204601F083F970BD0000FC4C0008A9
:1018800010B504460249204601F0BDF910BD000024
:10189000FC4C000870B504460D461646034B324614
:1018A0002946204601F0FDF970BD0000FC4C0008FF
:1018B00010B5024801F02AFA10BD0000FC4C0008E7
:1018C00000B585B0012144F20400FFF777FC4FF426
:1018D0000070ADF8100018208DF8130003208DF86B
:1018E000120004A91348FFF741F94FF48060ADF8E6
:1018F000100004208DF8130004A90E48FFF736F9F4
:101900004FF4E13000900020ADF80400ADF806007F
:10191000ADF80800ADF80C000C20ADF80A006946DF
:10192000054800F09DFE0121034800F087F805B04E
:1019300000BD0000000801400038014010B50F480C
:1019400081680F4888470D480169022088470B4885
:101950004FF4E131826A0120904708480121826AF0
:101960001520904705480121826A162090470348B8
:101970002121426903A0904710BD0000344D0008AA
:10198000F5380008507265737320456E74657220D7
:10199000746F20726563656976652061206D65737B
:1019A000736167650A00000010B50021024802F06B
:1019B00031F80249086010BDF44B000828000020EF
:1019C00088B0202218496846FEF722FD174801F02A
:1019D000FFFF044600BF0A2001F08EFF144908688B
:1019E000FEF7EBFC05461348294682696846904796
:1019F0000F4908686946FEF765FD0028EBD16CB118
:101A00000D490868FEF7D9FC05460B4908680949E5
:101A10004A6929469047204601F0F0FF2021684698
:101A2000FEF728FDD7E70000084C0008044C00082A
:101A300020000020344D00082400002021B18289BC
:101A400042F40052828104E082894DF6FF731A400D
:101A5000828170472DE9FE4F07460D461446206BE4
:101A6000C07A00F0020018B94FF0FF30BDE8FE8FD9
:101A70000020009080468346F8B2153806287CD2B4
:101A8000DFE800F0A3DC032C4E6CA5B1606B90F88E
:101A9000210010B16FF00100E8E70120616B81F8CF
:101AA0002100616B81F820006068808940F081002E
:101AB0006168888110E0606B90F8200060B1606818
:101AC000808920F08000616888810020616B81F846
:101AD0002000616B81F821000020C7E760688089E1
:101AE00020F0C00061688881A06A88B1606B90F8BE
:101AF000210068B16068808A20F080006168888277
:101B0000A16A0868016821F00101016000BF00BFFF
:101B10000020616B81F82000616B81F82100A5E74E
:101B20006068808920F0200061688881E06A80B167
:101B3000206B407968B16068808A20F0400061685D
:101B40008882E16A0868016821F00101016000BF34
:101B500000BF0021206B4171002087E76068808909
:101B600020F0E00061688881A06A98B1606B90F80D
:101B7000210078B16068808A00E0C2E020F0800037
:101B800061688882A16A0868016821F0010101602A
:101B900000BF00BFE06A80B1206B407968B1606827
:101BA000808A20F0400061688882E16A08680168E4
:101BB00021F00101016000BF00BF0021206B4171D5
:101BC0000020616B81F8210050E7E06810B94FF008
:101BD000FF304BE7BDB1206BC068062806D0E26835
:101BE0009188032310680222FFF74BF8206BC07A1C
:101BF00040F00800216BC8726068808940F00800DE
:101C00006168888118E06068808920F00800616858
:101C10008881206BC07A20F00800216BC872206B8D
:101C2000C068062808D0E06830B1E26891880023D7
:101C300010681A46FFF725F8002017E7206910B949
:101C40004FF0FF3012E7E5B3206BC06806280AD0DA
:101C5000206BC068042806D0226991880023106890
:101C60000122FFF70EF8206BC07A40F01000216BC4
:101C7000C8726068808A40F001006168888260688C
:101C8000008A40F04000616808826068808940F006
:101C9000100061688881206B407918B1E06A08B152
:101CA000012000E0002028B96068808940F0200011
:101CB000616888816068808940F00400616888817B
:101CC0001DE0FFE76068808920F00400616888817A
:101CD000206BC07A20F01000216BC872206BC068A6
:101CE00006280CD0206BC068042808D0206930B1C9
:101CF00022699188002310681A46FEF7C2FF00206F
:101D0000B4E600BF00BF206B407918B9606B90F853
:101D1000210010B16FF00100A8E66068808900F032
:101D2000080038B16068008800F0400010B96FF01A
:101D300001009BE6F8B2152872D2DFE800F0C90B6B
:101D40000E1D20252AC9C9C9C9C9C9C9C9C9373B76
:101D5000697EB80001200290BDE02078C0F3400009
:101D600020B148F4006848F4807802E06FF0060083
:101D70007CE602200290AEE06FF0060076E64BF0C3
:101D8000080B04200290A6E04BF0020B0520029005
:101D9000A1E02078C0F3401010B14BF0200B02E01E
:101DA0006FF0060062E60620029094E0616B4D83BE
:101DB00000205BE6206BC068052824D015B360685E
:101DC000808A40F0040061688882D4F808A0FE4848
:101DD000B0FBFAFA012605E00AFB06F0A84200D99A
:101DE00002E0761CFF2EF7D900BFB6F5807F02D146
:101DF0004FF0FF303AE66068008B20F0FF00304380
:101E00006168088302E04FF0FF302FE600202DE6E6
:101E1000206BC06806280BD1FF2D02D9C01F25E614
:101E200056E06068008BC0B228436168088302E016
:101E30004FF0FF301AE6002018E6206BC068062835
:101E400030D1D4F808A0E048B0FBFAFA012619E036
:101E50000AFB06F040006421484305EB051101EB45
:101E60004101B0EB410F0CD20AFB06F040006421A7
:101E7000484305EB051101EB4511B0EB410F00D9CB
:101E800002E0761C402EE3D300BF402E02D14FF07B
:101E9000FF30EBE56068008B20F0FF0030436168A5
:101EA000088302E04FF0FF30E0E50020DEE5206B24
:101EB000C068062807D14DB16068808A40F01000E4
:101EC0006168888202E04FF0FF30CFE50020CDE569
:101ED0006FF00300CAE500BF07F4E06060B1B0F541
:101EE000807F13D0B0F5E06F1DD107F4405010B9DA
:101EF0006FF00800BAE519E007F4405028B148F047
:101F00002008009840F4805000900FE007F4405003
:101F100010B16FF00800A9E548F02008009840F4DF
:101F20008050009002E06FF008009FE500BF07F4CA
:101F3000405030B1B0F5805F04D0B0F5005F0BD1F8
:101F400005E00CE0009840F48060009007E0009805
:101F500040F4C060009002E06FF0090086E500BF29
:101F600007F4404048B1B0F5804F07D0B0F5004FBE
:101F700007D0B0F5404F0AD106E00BE048F4005816
:101F800008E048F4405805E048F4805802E06FF05B
:101F90000A006BE500BF07F4403048B1B0F5803F60
:101FA00009D0B0F5003F13D0B0F5403F2ED11CE072
:101FB0004FF000092DE02078C0F3C01020B14FF49D
:101FC00080394BF4807B02E06FF00B004EE520E09F
:101FD0002088C0F3002020B14FF400394BF4C06BCF
:101FE00002E06FF00B0041E513E02078C0F3C01071
:101FF00040B12088C0F3002020B14FF440394BF4A9
:10200000E06B02E06FF00B0030E502E06FF00B00D8
:102010002CE500BF029802281DD107F4802018B1DA
:10202000B0F5802F04D100E005E048F4806802E0BC
:102030006FF00C001AE500BF07F4002018B1B0F5EE
:10204000002F04D100E005E048F4007802E06FF0D2
:102050000D000BE500BFA06800EBC00101EB001014
:10206000A900B0FBF1F06421B0FBF1F1A06800EB36
:10207000C00202EB0010AA00B0FBF2F0A26802EB73
:10208000C20303EB0212AB00B2FBF3F26423B2FB18
:10209000F3F202EBC20303EB0212A0EB8200322246
:1020A00002EB00106422B0FBF2FA61F31F1AA06881
:1020B00000011FFA8AF1B0FBF1F0000901906421E0
:1020C0000198484305EB051101EB4101B0EB410FCD
:1020D00009D264210198484305EB051101EB451134
:1020E000B0EB410F02D86FF00700BFE46068808951
:1020F00020F40050616888816168A1F808A0029806
:10210000216BC860206BC0F81090206BC068062857
:1021100009D1E06830B1E268918803231068022297
:10212000FEF7AFFD17E0206BC07A00F0080048B161
:10213000E06880B1E2689188032310680222FEF70C
:10214000A0FD08E0E06830B1E268918800231068E3
:102150001A46FEF796FD00BF206BC068042802D027
:1021600006280BD100E000BF206930B122699188B8
:10217000002310681A46FEF784FD18E0206BC07A31
:1021800000F0100048B1206980B1226991880023D5
:1021900010680122FEF775FD08E0206930B1226960
:1021A0009188002310681A46FEF76BFD00BF00BF40
:1021B0006069D0B1206BC068022802D006280BD11C
:1021C00000BF6269918801E000CA9A3B032310684E
:1021D0000222FEF756FD07E062699188002310682D
:1021E0001A46FEF74EFD00BF00BFA069A0B1B9F5C9
:1021F000803F02D0B9F5403F07D1A26991880323FF
:1022000010680222FEF73DFD06E0A26991880023D6
:1022100010681A46FEF735FDE069A0B1B9F5003F38
:1022200002D0B9F5403F07D1E269918800231068D8
:102230000122FEF726FD06E0E2699188002310687E
:102240000122FEF71EFD0098616888816168A1F88F
:1022500010806168A1F814B06068808940F4005073
:1022600061688881206BC07A40F00400216BC872DD
:10227000002011E40146086870470CB5014601983A
:1022800020F001000190086B006920B1086B006923
:10229000B0F5803F0ED1C86960B1CB6998881A68E3
:1022A0009368C34003F0010323B9019820F00100B3
:1022B000401C0190019820F002000190019820F04C
:1022C00008000190019820F0040001900198009A04
:1022D00060F30002009201984208009862F3410006
:1022E000009001988208009862F3820000900198A3
:1022F000C208009862F3C300009001980209009898
:1023000062F31F10009000980CBD0146486B0069F5
:1023100070470CB50146486B90F8210028B1019830
:1023200020F00100401C019008E04868008801226C
:1023300022EA9012019862F300000190086B427942
:10234000019862F341000190086B8279019862F371
:1023500082000190086BC279019862F3C30001907A
:10236000086B027A019862F304100190086B427ABC
:10237000019862F345100190086B827A019862F32C
:10238000861001900198009A60F300020092019873
:102390004208009862F3410000900198820800987A
:1023A00062F3820000900198C208009862F3C300B3
:1023B000009001980209009862F3041000900198BF
:1023C0004209009862F34510009001988209009834
:1023D00062F3861000900198C209009862F3DF1042
:1023E000009000980CBD0146486B406970472DE98C
:1023F000F04104466068068800270025A84606F0DC
:102400002000616889890840002860D0206B4079ED
:1024100038B9606880880121206BC17145F02005C2
:1024200055E0206BC068022806D1606BC0690128A6
:1024300002D16068808802E06068B0F80480606B58
:102440008268501C636B986082F80080606887899E
:1024500007F4806050B907F4805038B14FEA282162
:10246000606B8268501C636B98601170606B0069D0
:10247000401C616B0861606B0069616B0968884290
:1024800025D16068808920F0100061688881002172
:10249000206B4171206BC068022816D1606BC76940
:1024A0000020616BC861012F04D0022F05D0032FDB
:1024B00009D105E045F0010506E045F0020503E01D
:1024C00045F0040500E000BF01E045F0020506F01C
:1024D000100061688989084018B16068808845F0FB
:1024E000400506F08000616889890840002863D0B3
:1024F000606B90F8200030B16068808940F0010086
:102500006168888158E0606B4068616B4969884206
:1025100022D0206BC068022807D1606BC0690228F6
:1025200003D1606BB0F81A8016E0606BC168481C7C
:10253000626BD06091F800806068878907F48060E2
:1025400050B907F4805038B1606BC168481C626BA9
:10255000D060087848EA0028606B4069401C616BD5
:1025600048616068A0F80480606B4068616B4969ED
:10257000884221D16068808920F08000616888816C
:102580006068808940F04000616888810020616B4C
:1025900081F82100206BC06802280BD1606BC069F4
:1025A000012809D1206BC07A00F0100020B945F055
:1025B000010501E045F0010506F0400061688989E8
:1025C000084038B16068808920F0400061688881E7
:1025D00045F0080506F0080030B1606880880121E8
:1025E000206BC17145F0200506F0020030B1606833
:1025F00080880121206B417245F4807506F001004E
:1026000030B1606880880121206B817245F40075CB
:1026100006F4807050B16068008820F480706168B2
:1026200008800121206B017245F0800506F40070DE
:1026300038B16068008820F400706168088045F453
:10264000806525B1206B006808B1012000E0002002
:1026500018B1206B016828468847BDE8F08100006A
:102660002DE9F04786B005460E460024A24600BF7D
:10267000A1460027B08900B100BF2F462C8A4CF636
:10268000FF700440F08804432C82AC894EF6F310AE
:102690000440B08831890843718908430443AC8100
:1026A000AC8A4FF6FF400440B0890443AC8201A8D5
:1026B000FEF794FD1F48874202D1DDF810A001E02B
:1026C000DDF80CA0A88900F4004040B10AEBCA0074
:1026D00000EB0A1031684900B0FBF1F807E00AEBA3
:1026E000CA0000EB0A1031688900B0FBF1F86420E1
:1026F000B8FBF0F004012009642101FB1089A889CE
:1027000000F4004040B1322000EBC900B0FBF1F012
:1027100000F00700044308E0322000EB09106421B8
:10272000B0FBF1F000F00F0004432C8106B0BDE8CF
:10273000F08700000038014070B505460C46206B5C
:10274000C07A00F0010008B1002070BD206B056068
:102750000020216B08710021206B4171206B817179
:10276000206BC171206B0172206B4172206B8172F2
:102770000020216BC860616B81F821002421606B0F
:10278000FDF778FE608CFEF757F9E06820B1E1684C
:1027900008680121FEF7B2FA206920B121690868B2
:1027A0000121FEF7ABFA606920B161690868012177
:1027B000FEF7A4FAA06920B1A16908680121FEF71B
:1027C0009DFAE06920B1E16908680121FEF796FAF7
:1027D0000120216BC8720020B7E700002F49884212
:1027E00005D12F49C96841F480412D4AD1602D4956
:1027F000884205D12A49096941F40031284A11610A
:102800002949884205D12649096941F48021244A91
:1028100011612649884205D12149096941F4002105
:102820001F4A11612249884205D11D49096941F4B5
:1028300080111B4A116100BF00BF00BF00BF1749D4
:10284000884205D11649C96821F48041144AD160F3
:102850001449884205D11249096921F40031104A0E
:1028600011611149884205D10D49096921F480217E
:102870000B4A11610D49884205D10949096921F4C2
:102880000021074A11610A49884205D104490969B2
:1028900021F48011024A11617047000000380140A4
:1028A000001002400044004000480040004C00403E
:1028B0000050004070B505460C4625B1012D71D081
:1028C000022D6ED171E06068FFF788FF94F9240053
:1028D000002817DB00F01F0201219140774A4309CD
:1028E00042F8231000BF00BF00BFBFF34F8F00BFEF
:1028F00000BF00BF00BF00BF00BFBFF36F8F00BFAE
:1029000000BF00BF00BF6E496068884205D16D48B6
:10291000806920F480406B4988616B496068884217
:1029200005D16848C06920F400306649C86167492C
:102930006068884205D16348C06920F480206149FD
:10294000C86163496068884205D15E48C06920F467
:1029500000205C49C8615F496068884205D15948D8
:10296000C06920F480105749C8610020216B0871AC
:102970000021206B4171206B8171206BC171206B34
:102980000172206B4172206B81720020616B81F8B3
:102990002100206BC07A20F00200216BC8728AE00F
:1029A00000E085E06FF0030070BD206BC07A00F09E
:1029B000010010B94FF0FF30F6E7206BC07A00F04D
:1029C000020008B10020EFE70020216B0871002110
:1029D000206B4171206B8171206BC171206B017282
:1029E000206B4172206B81720020616B81F82100A5
:1029F000616B4883616BC861616B81F82000216B5A
:102A0000C860216B08610320216BC8722C49606883
:102A1000884205D12B48806940F48040294988616B
:102A200029496068884205D12648C06940F40030D1
:102A30002449C86125496068884205D12148C06998
:102A400040F480201F49C86121496068884205D14F
:102A50001C48C06940F400201A49C8611D496068DB
:102A6000884205D11748C06940F480101549C861F3
:102A700094F92400002807DB00F01F020121914097
:102A8000154A430942F8231000BF94F92400002896
:102A900009DB00F01F02012191404209920002F17E
:102AA000E022C2F8001100BF6068FFF797FE02E065
:102AB0006FF0030078E700BF002075E780E100E0D9
:102AC000003801400010024000440040004800402F
:102AD000004C00400050004080E200E02DE9F04151
:102AE00005460E46144605B11EB96FF00400BDE858
:102AF000F081206BC07A00F0040010B94FF0FF3075
:102B0000F5E7206B4079012801D1C01EEFE760682E
:102B1000808920F0200061688881606B0660002158
:102B2000206B0172206B4172206BC171206B81722E
:102B3000606B85600020616B08610121206B417131
:102B40006068808940F0300061688881206BC068CF
:102B5000022812D1606BC06978B90220616BC8612C
:102B6000616B01F11A002246314600F008F8074671
:102B7000B81C10B96FF00100B9E70020B7E72DE9E4
:102B8000F04105460E46144605B11EB96FF004002B
:102B9000BDE8F081206BC07A00F0040010B94FF05E
:102BA000FF30F5E7606B90F8210010B16FF0010085
:102BB000EEE70120616B81F82100606BC560606BFE
:102BC00046600020616B4861206BC068022812D10A
:102BD000606BC06978B90120616BC861616B01F1FC
:102BE000180022463146FFF779FF0746B81C10B996
:102BF0006FF00100CCE76068808940F08000616878
:102C000088810020C4E770B5044634B1012C22D07D
:102C1000022C3FD0032C3CD13DE0086B006920B171
:102C2000086B0069B0F5003F11D1886990B18D69DA
:102C3000AA88012328681BB101259540056104E09D
:102C400002F110050126AE40066100BF02E04FF020
:102C5000FF3070BD22E0086B006920B1086B00698D
:102C6000B0F5003F11D1886990B18D69AA88002321
:102C700028681BB101259540056104E002F11005AB
:102C80000126AE40066100BF02E04FF0FF30E0E7F2
:102C900004E000BF00BF4FF0FF30DAE700BF0020C4
:102CA000D7E72DE9F04180460E4617461C46B8F19D
:102CB000000F01D006B11FB96FF00400BDE8F0812C
:102CC000206BC07A00F0040010B94FF0FF30F5E738
:102CD000206BC068022814D10320616BC8612246B2
:102CE00039463046FFF7FAFE05460DB12846E5E7BE
:102CF000224639464046FFF742FF054625B12846A1
:102D0000DCE74FF0FF30D9E70020D7E710B50446E5
:102D1000E06830B1E2689188002310681A46FDF738
:102D2000B0FF206930B122699188002310681A46EB
:102D3000FDF7A7FF606930B16269918800231068D0
:102D40001A46FDF79EFFA06930B1A2699188002361
:102D500010681A46FDF795FFE06930B1E269918885
:102D6000002310681A46FDF78CFF208CFDF764FEE7
:102D70000020216BC87210BD08B5024800680090A1
:102D800008BD0000A04C000870B54148006800F084
:102D9000020070B13F488078012807D13E480068A2
:102DA00020B13D48012102680220904701203849A6
:102DB00008603748006800F4007078B13548C07882
:102DC000012807D13448006820B133480121026846
:102DD000032090474FF480702D4908602C4800680C
:102DE00000F4003078B12B480079012807D12A4837
:102DF000006820B1284801210268042090474FF460
:102E0000803023490860224810300468001F05689C
:102E100004F0040088B905F4806070B91C480C30D7
:102E2000006840F480601A490C3108601B48006853
:102E300018B11A4801680320884704F0020088B9D5
:102E400005F4007070B912480C30006840F400704E
:102E50000F490C3108601148006818B10F4801682B
:102E60000120884704F0010088B905F4807070B92A
:102E7000C4F307405F280AD1B0EB146F07D90448A8
:102E80000C30006840F4807001490C31086070BD5E
:102E90000864004046010020500100204C01002041
:102EA00070B53648007802281ED13548006800F019
:102EB000100058B110203249086032480068B0B1A3
:102EC0003048062102680020904710E02C48006836
:102ED00000F0030058B12B48006840B12948022196
:102EE00002680020904702E020202549086024481D
:102EF0000C300468001F056804F0040088B905F46C
:102F0000806070B91E480830006840F480601C4939
:102F1000083108601C48006818B11B48016803208C
:102F2000884704F0020088B905F4007070B91448AD
:102F30000830006840F400701149083108601248F8
:102F4000006818B1104801680120884704F00100AA
:102F500090B905F4807078B9C4F307405F280BD2AC
:102F60005F20B0EB146F07D105480830006840F4CB
:102F7000807003490831086070BD000046010020E0
:102F80000C640040500100204C01002010B5002AC4
:102F900006DA22F00042D21D22F00703102203E0DD
:102FA000D21C22F003030C2213B19C188C4201D9CD
:102FB000012010BD024401448360C0E90021C91A08
:102FC000D018884202D810600246F9E7002010604D
:102FD00010BD000005490978002905D000684FF6AA
:102FE000FF71DFF80CC000DF7047000069010020AE
:102FF0006141000804490978002903D00068DFF81E
:103000000CC000DF70470000690100208940000803
:1030100008480068C0010BD507480068C00707D002
:10302000054880380068002802DA04490120087049
:1030300070470000FCED00E0800E00E08C010020F5
:103040004FF06042D36F002BFCD0036BD367D36F7C
:10305000002BFCD0C07840EA0120A2F87C00704729
:103060004FF06041CA6F002AFCD081F87C007047A5
:1030700070B5034600224FF0E02675690E4E367893
:1030800003FB06F400BF4FF0E026B16910E04FF0FB
:10309000E026B06988420BD0884202D20E1A324430
:1030A00002E02E1A0E4432440146A24200D300E050
:1030B000EDE700BF70BD00000000002010B54FF428
:1030C000C04400F071F9044673480088B0F5A06F61
:1030D00046D009DCB0F5807F10D0B0F5007F29D054
:1030E000B0F5407F7ED12AE0B0F5C06F5CD0B0F57E
:1030F000E06F78D0B0F5006FF4D19BE067480078BE
:1031000080B100F04DFC66490968401A6549884263
:1031100008D96548007800F0F00444F4E044002049
:103120005E490870B4F5C04F03D04FF400705A499F
:103130000880AEE04FF4407057490880A9E0B4F52C
:10314000C04F08D05848048044F480544FF4A06025
:103150005149088003E04FF480704F49088098E09F
:10316000B4F5C04F1BD051480088401C80B24F4975
:10317000088096280FDD002008804D4908804D49C1
:10318000087044F440544FF4C06043490880022062
:103190004949087007E001204749087003E04FF4EF
:1031A000E0603D49088074E0B4F5C04F30D03F483E
:1031B0000088401C80B23D49088028282CDD002072
:1031C00008803C480078062804DA3A480078401C19
:1031D00038490870364800880F280BDA35480078DF
:1031E000032801E054E018E004DD31480088401C69
:1031F0002F4908802E48008870B103202E4908709E
:103200002B48007844EA002084B244F4804403E070
:103210004FF4E060204908803BE02348008840F4F8
:10322000A04021490880084604884FF400601A49EC
:1032300008802EE000F0B4FB19490968401A1949CA
:10324000884205D21D480088401C1C49088002E0C5
:1032500000201A4908801948008880B101200F49D0
:1032600008701148007800F0F00444F4005413484A
:1032700000880F2803DA11480088204484B24FF4F4
:1032800080700549088000F08BFB0549086000E06C
:1032900000BF00BF204610BD100000200E0000201F
:1032A00018000020005A62021200002016000020C0
:1032B0000C00002014000020080000200A0000205C
:1032C0000EB5802200B109B110460AE0017801294B
:1032D000FAD101A900F020F8042801D0002000E074
:1032E0001020DDE9011203B000BD70B50D460400E9
:1032F00003D012B92078012801D0802070BD20466B
:1033000000F0B4FD28B12946204600F030F8002036
:1033100070BD812070BD000010B504468089002872
:1033200024D0608904EB800000690860606840B1C7
:103330006078022805D10021204600F09BFF00F0B4
:1033400089FF04F10C0000BFD0E85F1F491E8AB25C
:10335000C0E8512F0029F7D16089401C80B26081FC
:10336000E189884201D100206081042010BD10B5A0
:1033700000F080FFBDE8104000F06CBF08B50121EF
:103380001020FDF71BFF4FF44040ADF80000032074
:103390008DF8020004208DF8030069460148FDF70E
:1033A000E5FB08BD0010014010B54FF4804108480E
:1033B000FDF742FD08B9102010BD4FF4004104484C
:1033C000FDF73AFD08B92020F6E74FF4C040F3E7D7
:1033D0000010014010B50021024800F01BFB02491B
:1033E000086010BDE44B0008040000208AB000BF54
:1033F00000BFFFF763FE0446202101A8FDF73AF85D
:10340000E1A101A8FCF7F8FF04F47040B0F5804F8B
:1034100037D009DCB0F5805F75D0B0F5005F6FD0B4
:10342000B0F5405F6DD106E0B0F5A04F6AD0B0F5C1
:10343000E04FF7D165E104F0F000102802D0202819
:103440001CD10DE0D2A101A8FCF7D6FF01A8FCF722
:10345000B4FF0546D1482946426901A890470EE0CD
:10346000CFA101A8FCF7C8FF01A8FCF7A6FF0546FD
:10347000CA482946426901A8904700E000BF00BF42
:103480007CE1C4F30320303009909DF82400C74943
:10349000087004F0F000102802D020282CD115E08C
:1034A000C3A101A8FCF7A8FF09A901A8FCF7A4FF84
:1034B000C6A101A8FCF7A0FF01A8FCF77EFF054606
:1034C000B6482946426901A8904716E0C0A101A864
:1034D000FCF792FF09A901A8FCF78EFFBBA101A888
:1034E000FCF78AFF01A8FCF768FF0546AB482946B0
:1034F000426901A8904700E000BF00BF3EE102E042
:10350000C0E03AE125E004F0F000102802D02028C5
:103510001CD10DE0B5A101A8FCF76EFF01A8FCF7D6
:103520004CFF05469D482946426901A890470EE098
:10353000B1A101A8FCF760FF01A8FCF73EFF05461A
:1035400096482946426901A8904700E000BF00BFA5
:1035500014E104F0F000102802D0202872D146E0D7
:10356000A8480078012804D0022813D003283BD1B2
:1035700021E0A5A101A8FCF73FFF01A8FCF71DFF72
:10358000054686482946426901A8904700209D4982
:1035900008702AE0A1A101A8FCF72EFF01A8FCF702
:1035A0000CFF05467D482946426901A89047002046
:1035B0009449087019E09EA101A8FCF71DFF7B4902
:1035C00001A8FCF719FF9EA101A8FCF715FF01A8AF
:1035D000FCF7F3FE054671482946426901A8904769
:1035E00000207249087000E000BF00BF48E0854835
:1035F0000078012804D0022813D003283CD122E00F
:1036000093A101A8FCF7F8FE01A8FCF7D6FE054639
:1036100062482946426901A890470020794908700C
:103620002BE090A101A8FCF7E7FE01A8FCF7C5FE7E
:1036300005465A482946426901A890470020714929
:1036400008701AE01BE08CA101A8FCF7D5FE5749D1
:1036500001A8FCF7D1FE7AA101A8FCF7CDFE01A8D4
:10366000FCF7ABFE05464D482946426901A8904744
:1036700000204E49087000E000BF00BF00E000BF1E
:1036800000BF7BE004F00F00303009909DF824006B
:10369000401C4649087004F0F000102802D0202891
:1036A0002CD115E078A101A8FCF7A6FE09A901A874
:1036B000FCF7A2FE45A101A8FCF79EFE01A8FCF7BD
:1036C0007CFE054635482946426901A8904716E028
:1036D00073A101A8FCF790FE09A901A8FCF78CFED4
:1036E0003AA101A8FCF788FE01A8FCF766FE054692
:1036F0002A482946426901A8904700E000BF00BF60
:103700003CE004F0F000102802D0202832D118E06C
:1037100069A101A8FCF770FE244901A8FCF76CFE22
:1037200068A101A8FCF768FE01A8FCF746FE054663
:103730001A482946426901A8904700201B49087091
:1037400019E063A101A8FCF757FE184901A8FCF78E
:1037500053FE5CA101A8FCF74FFE01A8FCF72DFE6B
:1037600005460E482946426901A8904700200F49A6
:10377000087000E000BF00BF00BF00BF00BF142002
:1037800000F0BAF835E60000546970732D000000AF
:10379000B0B4BCFC31B3A4B0B40D0A00344D000881
:1037A000B0B4BCFC32B3A4B0B40D0A001C000020BD
:1037B000B0B4BCFC31B3A4B0B4B1A3B3D6A3ACB124
:1037C000A3B3D6BCC6CAFDA3BA0000000D0A000010
:1037D000B0B4BCFC32B3A4B0B4B1A3B3D6A3ACB103
:1037E000A3B3D6BCC6CAFDA3BA000000B0B4BCFCEB
:1037F00031B0B4CFC20D0A00B0B4BCFC32B0B4CF0B
:10380000C20D0A0008000020B0B4BCFC31B6CCB038
:10381000B4BAF3B5AFC6F00D0A000000B0B4BCFCFA
:1038200031B3A4B0B4BAF3B5AFC6F00D0A000000CE
:10383000B0B4BCFC31B3A4B0B4BAF3B1A3B3D600F6
:10384000B4CEBCC6CAFDBAF3BDE1CAF80D0A000089
:10385000B0B4BCFC32B6CCB0B4BAF3B5AFC6F00D60
:103860000A000000B0B4BCFC32B3A4B0B4BAF3B5E3
:10387000AFC6F00D0A000000B0B4BCFC32B3A4B077
:10388000B4BAF3B1A3B3D600B0B4BCFC31C1ACB090
:10389000B4A3ACC1ACB0B4BCC6CAFDA3BA000000AE
:1038A000B0B4BCFC32C1ACB0B4A3ACC1ACB0B4BC1D
:1038B000C6CAFDA3BA000000B0B4BCFC31C1ACB0B4
:1038C000B4000000B4CEBAF3BDE1CAF80D0A00009E
:1038D000B0B4BCFC32C1ACB0B400000010B50446BA
:1038E00000F016F8FCF77AFEFCF78AFE00F022F8EA
:1038F000002010BD70470000EFF3058109B1822060
:103900007047DFF808C000DF70470000DD4800089E
:10391000EFF3058008B182207047EFF31480C007F1
:1039200003D0DFF80CC000DF704700F0E1BF0000FB
:10393000F148000888B0EFF3058010B1822008B08C
:103940007047EFF3148010F00301134806D00129EB
:103950001BD0022911D0032919D113E008A981F342
:1039600009880078C0070BD05FF0020080F314884C
:10397000BFF34F8FBFF36F8F09E00078C00706D108
:103980000320F3E70078C00701D0FF20D7E7DFF876
:103990000CC000DFD3E70000504C0008614900086C
:1039A000EFF3058008B100207047DFF808C000DFA2
:1039B00070470000A9490008EFF305820AB1FFF73C
:1039C0007FBCDFF808C000DF70470000054A000830
:1039D000EFF3058109B100207047EFF31481C907A7
:1039E00002D10449497819B1DFF80CC000DF7047F3
:1039F00001F025B8680100203F4A0008EFF3058177
:103A000009B182207047DFF808C000DF704700006E
:103A10005B4A0008EFF305820AB100207047EFF31C
:103A20001482D20702D1044A52781AB1DFF80CC0CE
:103A300000DF704701F022B8680100207D4A0008CD
:103A4000DFF80CC000DFDFF80CC000DFFEE700008D
:103A5000E94A0008054B0008DFF804C000DF7047A2
:103A60003D4B0008094C4FF0FF3529462068FFF711
:103A7000A3FF02460846102AF7D1FFF7EDFF002802
:103A8000F3D0024608469047EFE7000034010020DB
:103A9000012806D0022805D0032804D0042804D128
:103AA00002E003E002E001E000E000BF00BF00BF71
:103AB000FEE700BFFEE70000074801684FF0E02086
:103AC000416100218161072101610448016841F0E1
:103AD0007F410160401770474C4C000820ED00E02A
:103AE0007047000002480068C0F380607047000023
:103AF00004ED00E04FF0E020806902490968081AEF
:103B0000704700004C4C000850E8001F31B10B68B2
:103B100040E80032002AF7D108467047BFF32F8FE4
:103B2000FAE710B568B161B10B3121F00302016809
:103B300044680B1A1B1B934205D2084609680029EA
:103B4000F5D1002010BD210007D021180368C1E97C
:103B50000032016001F1080010BD4260083010BD64
:103B600070B50D46002812D04FF6FF71084C884200
:103B700004D222680146104600F0AAFB2068457076
:103B8000044800F0DDF8BDE8704000F065BC70BD91
:103B900070010020741F00200F4810B50D494268C5
:103BA0000E480B680068934204D00A60CB88421E1E
:103BB0001A448A808A8880B282420AD10020086032
:103BC000054800F0BDF80146BDE81040024800F08D
:103BD000A3BB10BD84010020741F002080010020C1
:103BE00070B5194DE86800282CD0A88A401EA8821C
:103BF000002621E0A06838B161684160606810B1BA
:103C0000A16881606660A6600F482146183800F000
:103C100083FBA08AA8826078042804D10B49E08A3B
:103C200009880844A08201206070E068E860E068CC
:103C300008B10561E6602661A88A002802D1EC6817
:103C4000002CD7D170BD00008C1F00208001002007
:103C500070B504000FD00D4DA17801262868827838
:103C600091420CD900F074FB286846702046BDE8EC
:103C7000704000F0F1BB064800F062F8F7E76670AC
:103C80002146BDE87040024800F046BB70010020AC
:103C9000741F00200321FFF763BF000010B5044626
:103CA000008B084320836278618B062A18D0052A8E
:103CB00019D1084217D001EA0002628388432083A9
:103CC000204600F070FB01206070628B08212046C6
:103CD00000F065FB2146BDE81040034800F01CBB26
:103CE00031EA0002EAD010BD741F0020814202D3E5
:103CF00042688A4201D80120704702680A60BFF317
:103D00005F8F50E8003F0A689A42F6D140E80012FF
:103D1000002AF2D10020704768B161B10022083951
:103D200002E00246006830B18842FAD12AB1006848
:103D30001060002070470120704700214160F8E7C3
:103D40000146406842684A600B780022022B05D089
:103D5000012B03D0032B01D04260704743680BB1A5
:103D60009960426082607047810700D000207047F0
:103D700070B5044600201546207001226270A170C3
:103D800084F824106060A060E06020612062A0825E
:103D9000E0822083608384F82500E08C18B9054810
:103DA000FFF7B2FEE06229462046BDE8704000F011
:103DB0001DB800009003002008B1082901D201209D
:103DC00070470144091F002201600A6042601046EA
:103DD0007047000003480021016003490988C18041
:103DE0007047000084010020404C000870B5C28C70
:103DF0001C4D930802D12A88C2F38D03C26A02EBDC
:103E00008302540700D5121F4FF0807442E9021458
:103E100000242646B2F1400242F82460641C0E2CB5
:103E2000FAD3C4691462826201632968C90014D597
:103E3000112B12D94FF0FF31103B11EB53014FF012
:103E4000CC3305D042F8043C42F8083D491EF9D174
:103E5000C16A121F8A4200D91360C06A0249016018
:103E600070BD00003C4C0008A52E5AE2C189808933
:103E7000081A70470122027000224270827042606C
:103E800002814281103982818908C1817047000016
:103E90002DE9F041044640680E464FF0000804F159
:103EA0000C05E8B36078012701283ED0022813D022
:103EB00003285CD10846FFF727FE050057D02046AF
:103EC000FFF73EFF0446294600F066FA6770204679
:103ED00000F069FA214621E02046FFF731FF06464F
:103EE000002100F059FA2189F06904EB8101086191
:103EF000D5E85F0F401C81B2C5E8501F0028F7D1FC
:103F00002089401C80B22081E189884201D1A4F837
:103F100008807770304600F046FA3146174800E0D6
:103F20000CE0BDE8F04100F0F7B92046FFF708FFCC
:103F300004463246102100F032FAC7E7A089E18931
:103F4000884216D2208904EB80000661D5E85F0F15
:103F5000401C81B2C5E8501F0028F7D12089401CC1
:103F600080B22081E189884201D1A4F80880BDE8AF
:103F7000F081BDE8F0410320FFF78ABD741F0020E7
:103F800070B50446808915460026C0B3608904EBED
:103F90008000006908606089401C80B26081E1890E
:103FA000884200D16681606810B1607802280BD029
:103FB00014F10C04D4E85F0F401E81B2C4E8501F16
:103FC0000028F7D1002070BD2046FFF7B9FE054656
:103FD000002100F0E1F92189E86904EB8101086121
:103FE0002089401C80B22081E189884200D126814D
:103FF000284600F0D8F92846FFF72AFEE2E7FFE757
:104000003DB10B48626801682AB1204600F084F98E
:1040100008E0012070BD616001684E600068846046
:104020000120607008212846FFF79AFDF1E70000A3
:1040300070010020002814D0411C13D00C4A4FF608
:10404000FE7190420CD800EB4002C2EBC01209484E
:10405000036803EBC202521EB2FBF3F0884204D99C
:10406000084670474FF6FF70704780B270470000F7
:1040700000093D005C4C00080321017000214180D3
:1040800041608160C16070472DE9F041044640887D
:1040900020B1314DA1682A68914202D0FF20BDE8CD
:1040A000F081401E0004000C608053D12968086A2A
:1040B000A04209D1E068086208E0C268A24202D1C9
:1040C000E268C26002E010460028F6D191F82400B0
:1040D0000A6A06E053681BB19B78834200D91846F0
:1040E000D268002AF6D18870DFF8708061680126F6
:1040F00011B32046FFF724FE0746002100F04CF9DB
:10410000384600F050F96680A760386AE0603C628B
:104110002968D8F804008A788078824201D338462A
:1041200016E00E4800F0F8F839460C4800F0F4F8B4
:10413000286846707E700AE0D8F804108A782968EA
:10414000824207D9054800F0E7F828684670002049
:10415000FFF77EFD0020A2E770010020741F002001
:1041600070B51C4D0E4604464188286861B1A268AE
:10417000824210D1A1F57F40FF3803D0491C6180F5
:10418000002070BDFF2070BDA060016AE160046284
:1041900001206080F4E776B191788078814203D283
:1041A0009070A06800F0DEF8606830B120462968A1
:1041B00000F0B2F808E0012070BD2868606029684E
:1041C000002048602868846009213046FFF7C8FC59
:1041D000F1E700007001002070B51B480121026862
:1041E0005170006800F0B4F8184D6C7818E000BF0A
:1041F00005EBC40148680278EAB1012A20D000F03A
:10420000FFF8E878641C844200D100240F48801C29
:10421000D0E84F1F491EC9B2C0E8421F002AF7D19B
:10422000A8780028E4D16C700948FFF789FDBDE843
:10423000704000F011B9098989B2FFF72FFDE0E75E
:104240008968FFF725FEDCE770010020281A0020AE
:10425000741F00200548017811B101214170704799
:1042600003494FF08050086070470000780100203B
:1042700004ED00E0F0B4154DAB1CEE784FEA0507F5
:10428000D3E84F2FB24202D1BFF32F8F11E0521C5F
:10429000D4B2C3E8424F002AF2D100BFD7E84F2F73
:1042A000541CB44200D10024E4B2C7E8434F002BB1
:1042B000F4D1EB78934205D905EBC202C2E90101C2
:1042C000F0BC7047F0BC0220FFF7E2BB281A0020C8
:1042D000104A10B5D368ABB113469B8A03E08CB18A
:1042E0002246A48A2344D4688B42F8D3C460D060A9
:1042F0000261C46804B12061591A8182908A401A0F
:10430000908210BD0024C460D060C91A02619182FD
:10431000848210BD8C1F002030B502780023022A51
:1043200003D0012A01D0032A00D101238C7800E0B8
:104330001046426812B19578A542F9D24A604160B0
:104340001BB102B19160886030BD0020FBE7000026
:1043500003494A684260002282604860704700005A
:10436000741F002010B5836804462BB960780128BB
:104370000ED1084B03E09B6818780028FBD020463C
:1043800000F026F82146BDE810401846FFF7C4BFEC
:1043900010BD0000741F0020806A01627047806AAF
:1043A000C0E90812704710B5016900290ED0C26833
:1043B000CA60C36800223BB18B8A848A23448B8203
:1043C000C3681961C26000E08A82026110BD00000A
:1043D000816839B142684A604168002901D080682B
:1043E00088607047054906E04A68824202D1406809
:1043F0004860704711460029F6D17047741F0020AD
:1044000010B5416881B1FFF79BFC0446FFF7CBFF75
:104410000120607001462046FFF7BEFF2146BDE83F
:1044200010400348FFF778BF4188491C418010BD08
:10443000741F002006480068D0E90A10814203D3A7
:1044400000680449884202D00120FFF721BB704771
:1044500070010020A52E5AE20749022248604270EE
:10446000064A1278002A05D006C98A4202D0C078CE
:10447000FEF7F6BD70470000700100208C0100209F
:1044800070B5FEF7C5FD00200446204A204902E031
:1044900042F82040401C0B889842F9D31D48342232
:1044A00001881D48FEF772FD1C48008880B240F06C
:1044B00000421B4801681B48FEF768FD1A480822A5
:1044C00001881A480068FEF761FD194DFF20194A5E
:1044D000E870EC8400212846FFF74AFC16480421C6
:1044E0000170446015480170C460046184821448FE
:1044F00015490560022068701248047044700978FC
:10450000C170BDE87040FFF765BC0000AC1A002028
:10451000384C0008644C0008B00100203C4C0008F6
:10452000684C0008900300208C4C00083C010020DF
:10453000401F0020B33A0008741F00208C1F002089
:1045400070010020281A0020704C00081B4810B58C
:10455000016841F47F01016000684FF07F4101EA8A
:1045600000201649C0431439B0FA80F00968C0F140
:104570000800C1F30221814200D3481C0F49091FE2
:104580000B686FF08072824063F317020A60FFF7D6
:1045900093FA0B49002808600EDB00F1E021FF22AE
:1045A00081F8002400F01F020121914040098000A1
:1045B00000F1E020C0F8001110BD000020ED00E087
:1045C0007C0100200C4810B5026801215170006880
:1045D000FFF7BEFEFFF7E0FA08480168491C0160DA
:1045E000FFF7FEFA00F0B6FA0548FFF7A9FBBDE8B1
:1045F0001040FFF731BF0000700100208001002053
:10460000741F0020002805D0810702D101780029FD
:1046100000D000207047000030B50B4C00236268CA
:1046200005E095688D4204D813461268491B002A9C
:10463000F7D10260816012B19568691A91600BB17F
:10464000186030BD606030BD680100202DE9F04188
:104650001E46174680460D4611F0FF0F00D14D1C37
:104660001848FFF751FA041E16D0280AE762E084C2
:10467000E9B242462046E661FFF77AFB012512487F
:10468000124905E000EB850252F8042C32B16D1C92
:104690000A889542F6D90020BDE8F081002DFAD0B5
:1046A00000EB850040F8044C0948E570007818B12B
:1046B00001212046FEF7C4FC2046FFF7C9FA284630
:1046C000EAE70000B0010020AC1A0020384C0008D6
:1046D0008C0100202DE9F05F584DDFF85891DFF88C
:1046E000588129684FF0010A002618B1CA78AB46F4
:1046F000824243D14E70FBF79EFD29688862FFF726
:1047000099FE2868046A1FE06068C0B12046FFF780
:1047100017FB07460021FFF73FFE3846FFF743FE31
:1047200087F801A039464648FFF7F6FDE168A4F88E
:1047300002A0A760386AE0603C620C4604E0E068D2
:104740006680A660E6600446002CDDD12868C27849
:1047500008EB820141F8046CC16A3A48FFF7C6FAD7
:104760002868C66299F8001011B10021FEF768FCB4
:1047700035482968FFF7BAFA2E6056E033490988B0
:1047800088420CD808EB800858F8045C3DB12846F4
:10479000FFF71EFE2846FFF706FE2C6A22E0FF20E8
:1047A000BDE8F09F6068C0B12046FFF7C9FA074630
:1047B0000021FFF7F1FD3846FFF7F5FD87F801A06E
:1047C00039461F48FFF7A8FDE168A4F802A0A760DA
:1047D000386AE0603C620C4604E0E0686680A660EF
:1047E000E6600446002CDDD148F8046C1548E96AFF
:1047F000FFF77CFAEE6299F8000018B10021284614
:10480000FEF71EFC29461048FFF770FA0C48DBF84B
:10481000001040688B7882789A4209D981F801A00B
:104820000748DBF80010FFF777FD0020FFF710FACC
:104830000020B5E78C010020AC1A00207001002098
:10484000741F002090030020B0010020384C0008A5
:1048500070B51A4D80B11A4A128890421FD8194A71
:1048600002EB800050F8044CCCB1A17084F8241005
:104870002868A04205D014E028688170286880F874
:104880002410114840688078884215D90E4829685C
:10489000FFF742FD29680120487000200AE0FF2050
:1048A00070BD2046FFF75EFD6078012804D1064800
:1048B000FFF746FAFFF7CCF9002070BD7001002029
:1048C000384C0008AC1A0020741F00200248006811
:1048D000002800D0C07870477001002010B5002873
:1048E00004D0FFF7A7FBFFF7D5F9402010BD00006B
:1048F00010B5134C207860B91248400705D1124812
:1049000001681048FFF758FA08B1852010BDFFF77D
:10491000B7FD0E49FF2009688870207858B900213A
:104920000B4800F05DF80B49086000210A4800F0D0
:10493000A5F80A490860012020700020607010BDB1
:1049400068010020500800206C4C00087001002015
:10495000844C000834010020744C00083001002011
:1049600070B50F4D687808B1002070BD0D4C2068FF
:1049700090F824100020FFF76BFF2068C178FF2912
:1049800003D1816A203181F30988616811B96060BF
:1049900000202060FFF7DAFD01206870E4E70000E6
:1049A000680100207001002070B5FFF7A3F80446ED
:1049B000FFF798F80849094E0D686D1C48B1FFF7DC
:1049C00099F8A04200D204463068401C05FB004024
:1049D00070BD3068FAE700004C4C000880010020F0
:1049E00010B5040005D0216819B1606808B10278DB
:1049F0000AB1002010BD8900103189B2FFF73AFAE0
:104A0000606810BD3EB504000D464FF0800012D026
:104A1000217801290FD12846FFF70CFB02462046DA
:104A200001A9FFF7ADFA012801D0102003E00DB174
:104A3000402000E00020DDE9011203B030BD10B5D8
:104A4000002804D004680CB1207808B1002010BD03
:104A50002046FFF711FB204610BD10B5FFF784F983
:104A600010B10178032901D0802010BDFFF70CFBA5
:104A7000FF2801D0002010BD812010BD70B50E466A
:104A8000040029D0206838B3606810F1030F23DBDD
:104A9000032821DCE16829B11048FFF742F805003E
:104AA0001AD000E000256068E168001D40EA01219D
:104AB00033462A462068FFF7C9FD40B1084901EB9B
:104AC0008000084950F8040C826A516370BD1DB122
:104AD00029460248FFF720F9002070BD5008002049
:104AE000AC1A0020413A000810B5FFF7EFFE00288D
:104AF00004D0034901EB800050F8040C10BD000005
:104B0000AC1A002010B5FFF77DFD18B1C18C19B1AA
:104B1000C46A02E0802010BD0024C078FFF7DAFDEF
:104B2000FF2806D01CB121460348FFF7F5F8002006
:104B300010BD812010BD00005008002010B5FFF707
:104B400013F920B141690A680169104610BD0020BF
:104B5000014610BD2DE9F041134E7468002C1CD0A5
:104B6000A068124F401E4FF00108A06012E02546D9
:104B700024687460002229463868FEF7B6FB10B13D
:104B80000420FEF785FF6879012808D085F80480A5
:104B9000002C02D0A0680028E9D0BDE8F0812846AA
:104BA000E968FFF739FDF3E76801002034010020D0
:104BB00008B501211020FCF701FB1820ADF800001A
:104BC00003208DF8020010208DF803006946044888
:104BD000FBF7CCFF012218210148FCF738F908BD8A
:104BE00000100140ED33000801000000010000004A
:104BF00000040000C11900080000000001000000CE
:104C000000040000900100206162630000000000C9
:104C10000000000000000000000000000000000094
:104C20000000000000000000E1100008000000008B
:104C300001000000000400000900000090010701CD
:104C40000100010000A24A04480000003F190100D1
:104C5000010000000200010052000400E80300000F
:104C600000000000E0010000C0040000D8110000B6
:104C700010000000653A000802000000010000007A
:104C8000C800000004000000D01A0020000000004E
:104C9000DD3800080000000001000000C80000002E
:104CA0000302020200080140090000000008014060
:104CB0000A000000390600000038014000A24A0442
:104CC000A44C0008AC4C00080000000000000000EC
:104CD000000000002200220025000000000000006B
:104CE00000000000D01E0020E41E0020000801404B
:104CF0000200000000080140030000003906000027
:104D00000044004000512502EC4C0008F44C00081F
:104D1000000000000000000000000000230023004D
:104D2000260000000000000000000000081F002016
:104D30001C1F0020792D0008B9160008191700085B
:104D4000A11700082D17000859170008411700087F
:104D500085170008F9160008D9160008A1160008E2
:104D6000E916000871170008C9160008792D000817
:104D7000C917000829180008B11800083D180008D4
:104D8000691800085118000895180008091800084B
:104D9000E9170008B1170008F91700088118000882
:104DA000D9170008D0A1BCA6ECC0C4A2B9BD0D0A99
:104DB00000000000CCECCDF5B8C7B5D8BBA2000010
:104DC000E04D000800000020900100006C01000888
:104DD000E84E00089001002078240000C801000877
:104DE0000210321201626043FFFF13B44D1B08A48E
:104DF00004912A8023130880180D80208021080840
:104E000080FC80133C1108101604FC122409104980
:104E1000FE05040224092049404908022401101219
:104E20004A202A40F224FFFE4C2014401224044061
:104E3000483A10081F49FC28A012B4082E2424A0C8
:104E4000132808380C4510122008424924811010FC
:104E500008201302082820104209FC040447FE2001
:104E60003E090408022AC087197A1AFC6E38160512
:104E70000449082A401440104028A024A04510816D
:104E800010020804261A20921C122402022CF2247A
:104E90001202280CB4132812201020282047FEBC30
:104EA000100A2108110809100920014DFFFE0440D5
:104EB000021809084208421042203E622A8002106D
:104EC0000A49FE49404A204C20484D49FC492402E9
:104ED0001B09FC8601292D0102030404080827068A
:084EE00007080902040639006D
:0400000508000131BD
:00000001FF
